:100000000C9427260C9458260C9458260C945826A9
:100010000C9458260C9458260C9458260C94582668
:100020000C9458260D945A120D945A120D945A128B
:100030000C9458260D943E0D0C9458260C9458267A
:100040000C9458260C94DA900C9458260C9458264C
:100050000C9458260C9458260D94F12A0D941012E5
:100060000C9458260C94BE840C94B4840C9458269A
:100070000C9458260C9458260C9458260C94582608
:100080000C944D530C9458260C9458260C945826D6
:100090000C9458260C9458260C9458260C945826E8
:1000A0000C9458260C9458260C941F530C945826E4
:1000B0000C9458260C9458260C9458260C94F15203
:1000C0000C9458260C9458260C9458260C945826B8
:1000D0000C9458260C9458260C9458260C945826A8
:1000E0000C945826084AD73B3BCE016E84BCBFFD1A
:1000F000C12F3D6C74319ABD56833DDA3D00C77FF8
:1001000011BED9E4BB4C3E916BAAAABE0000008090
:100110003F05A84CCDB2D44EB93836A9020C50B91F
:10012000918688083CA6AAAA2ABE000000803F004B
:100130000C9476290C94C3260C9497B80C945768A9
:100140000C94A55A0C948B570C94415A0C94DC3F98
:100150000C94CF620C94AD880C941C280C94095C10
:100160000C9449690C94B45A0C9471690D946B0900
:100170000D94990A0C94F7690C9487680D94ED0915
:100180000C940E870C943B860C94788A0C9406573A
:100190000C9474570C9413520C941F690C94E254F1
:1001A0000C941D6A0C945F8C0C94C0550C94FA67E7
:1001B0000C94E7570C94A8670C94D6B70D94080CD0
:1001C0000C9418680C948B590C9450AD0C94648763
:1001D0000C94F7560C94C0670C9490570D94330F01
:1001E0000C94A1870C94E65A0C949A570C944B5794
:1001F0000C948B670C9490670C944F6B0C94508C00
:100200000C941B570C94ED260C9423310D946B0F1A
:100210000C94A0680C9493260C9477540D94C70CFE
:100220000C94296A0C941A6A0C94C35A0D94FB0915
:100230000C9495870C94F2570C9479BE0D94F73179
:100240000C9425570C94645A0C945A260C94856986
:100250000C9491860C94E1AF0C94B2570C9477688F
:100260000C9459270C9431680C945A8C0D94D50930
:100270000C94ED570C9489560C94F0680C944F68CC
:100280000C9409560C9445270C943F2B0C94525413
:100290000C9402670C94BC530C947B570C94F78D10
:1002A0000C94DD560C94F55A0C94BC290D941A0F3D
:1002B0000C94B9570C94BA290C9409680C942687AD
:1002C0000D94B2160C947B390C943C2A0C941E8726
:1002D0000C94F5680D94CF160C9400870C94CB62A7
:1002E0000C94A0560C9429BB0C9435670C947F6732
:1002F0000D948A0B0C94B0620C945D690D943D0FC3
:100300000C94D9290C9477B90C94EB670C94B06ACF
:100310000C94BC6A0C9473560C94B4270C94402A29
:100320000C94AA620C949B550D94C4090C9401275B
:100330000C9436860C949A370C9415AC0C94F26697
:100340000C9452570D94E3090C94C88E0D94C51665
:100350000D94310C0C941E2B0C9439560C94D867C8
:100360000C9416570D94BC160C9486570C945D2A69
:100370000C9407870C94AC370C94DFB30D94DF0911
:100380000C94C3690C94E5550C940E3E0D94510BDE
:100390000C9467680C94606A0C9409670C94C162B1
:1003A0000C948F860C94325A0C9434690D9401107D
:1003B0000D943C0A0C94D8680D94B6090D94A20FC4
:1003C0000C94B02F0C942B2B0C94735A0C946F57E5
:1003D0000C9418430C9467670C94C8620C94505B9F
:1003E0000C94546A0C9408540C947E8A0D94290F32
:1003F0000C94E2570C94FF560C94D6570C94FC695D
:100400000D944D0F0C94E4680C94B4620C947C56DB
:100410000D94120F0C942D5A0C94AC2F0C947A2935
:100420000C940F5A0C941E5A0C94066A0C94A662F3
:100430000C9467570C94DB570C9494370D94450F2C
:100440000C94C0680C946C570C94C25B0C949B8702
:100450000C94B8370C9411570C9440680D94570FB6
:100460000C94D75A0C94836B0C943F3A0C94B65965
:100470000C94486A0D94610F0C941A360C949F5B8F
:100480000C94FA560C94FA660C9431860C948827D6
:100490000C942A670C94005A0D94C5110D947A0F90
:1004A0000C94CC680C94F2560C948E370C949A549D
:1004B0000C940B570C94B4290C94A5560C94BD5471
:1004C0000C94FB590D94C0090C949B8D0C94AA2696
:1004D0000C9416870C94BB620C9422890C94E956F8
:1004E0000C9480570C94F2860C9484560C94152727
:1004F0000C94825A0C9488370D94AC0F0C94972965
:100500000C94AA8D0C946C6A0C94B0680C94B82965
:100510000C94C86A0C94558C0C9478620C94A63791
:100520000C947C590D94F1090C940E860C947C3734
:100530000C9481560C9482370C9472290C94965A20
:100540000C9474590C94108E0D94DB090C94D96A98
:100550000D94980F0C94D46A0C9498590C94936A47
:100560000C94CE590C94568F0C9448670C94B0C3DD
:100570000D9448300C94C85A0D94310B0C94B7620A
:100580000C94F9860C94A46A0C9467560C94BE37AC
:100590000C94A1690C94E8530C949B560C94915ABA
:1005A0000C94B2690C94416A0D94E9090C94226888
:1005B0000C9474290C94FA5A0C94A3620C949068CD
:1005C0000C9478290C9429270D94F7090C94C56292
:1005D0000C948F870D94C8090C941D280C947655A3
:1005E0000C9438B60C940A690C941B840D94CB09B6
:1005F0000C9460560C943C670C94092A0C942C556E
:100600000D94AF0A0D94AC0B0C94B92D0C94546757
:100610000C94AF560D94390B0D94240A0C94D926E2
:100620000C94C4590C94A58D0C942D540C94126701
:100630000C94E55B0C9483B50C94D3690C94106A0C
:100640000D94D60B0C94A0370C94322B0C942438B8
:100650000D94BC090C94C5570D948E0F0C94E4AF07
:100660000C94BE620C9495560C94298E0C94A08D1B
:100670000C9407550C94A7590C945E570C94826AFD
:100680000C944D360C94D2620C94EB690C94146B60
:100690000D9415130C9473620C94678B0C94AD62DB
:1006A0000C9491690C94318E0C94505A0C946067A0
:1006B0000C94B1270C94716A0D94D1090D94670BB9
:1006C0000C9437270C94B2370C9431850C947367D3
:1006D0000C94C4BD0C946D270C949D2F0C94132A7C
:1006E0000C94D3570C94DD590C94F7570C941E6757
:1006F0000C94CE570C945F5A0C947B5B0C94D6569A
:100700000C94E04B0D943D0A0C94DF690C9489879E
:100710000C9490560D941F0F0C94356A0C94B629C6
:100720000C947A270C9451550C94EC590C948459E0
:100730000C94255B0D94B7160D94F6090D94840F57
:100740004E414E494E495459494E46CDCCCC3D0AB6
:10075000D7233C17B7D13877CC2B329595E6241F99
:10076000B14F0A000020410000C84200401C462052
:10077000BCBE4CCA1B0E5AAEC59D7400407A10F325
:100780005A00A0724E18090010A5D4E80000E876BF
:1007900048170000E40B54020000CA9A3B00000016
:1007A000E1F505000080969800000040420F00002F
:1007B00000A08601000000102700000000E80300F0
:1007C0000000006400000000000A000000000001BA
:1007D00000000000002C76D888DC674F0823DFC1BA
:1007E000DFAE59E1B1B796E5E3E453C63AE6519975
:1007F0007696E8E6C28426EB898C9B62ED407C6F9E
:10080000FCEFBC9C9F40F2BAA56FA5F490055A2A54
:10081000F75C936B6CF9676DC11BFCE0E40D47FE60
:10082000F520E6B500D0ED902E0300943577050055
:1008300080841E080000204E0A000000C80C3333DC
:1008400033330F986E12831141EF8D2114893BE6EB
:100850005516CFFEE6DB18D1844B381BF77C1D9074
:100860001DA4BBE424203284725E228100C9F124DD
:10087000ECA1E53D2745315F53455249414C5F525C
:10088000585F50494E0045315F53455249414C5FD6
:1008900054585F50494E0045305F53455249414CD2
:1008A0005F52585F50494E0045305F5345524941B1
:1008B0004C5F54585F50494E005A5F53455249416E
:1008C0004C5F52585F50494E005A5F534552494160
:1008D0004C5F54585F50494E00595F53455249414F
:1008E0004C5F52585F50494E00595F534552494141
:1008F0004C5F54585F50494E00585F534552494130
:100900004C5F52585F50494E00585F534552494121
:100910004C5F54585F50494E005A5F53544F505FDC
:1009200050494E005A5F535445505F50494E005A4B
:100930005F4D494E5F50494E005A5F454E41424C13
:10094000455F50494E005A5F4449525F50494E003E
:100950005A5F43535F50494E00595F53544F505FA5
:1009600050494E00595F535445505F50494E00590D
:100970005F4D494E5F50494E00595F454E41424CD4
:10098000455F50494E00595F4449525F50494E00FF
:10099000595F43535F50494E00585F53544F505F67
:1009A00050494E00585F535445505F50494E0058CF
:1009B0005F4D494E5F50494E00585F454E41424C95
:1009C000455F50494E00585F4449525F50494E00C0
:1009D000585F43535F50494E0053535F50494E0098
:1009E000534552564F335F50494E00534552564F70
:1009F000325F50494E00534552564F315F50494E79
:100A000000534552564F305F50494E0053445353A4
:100A10000053445F4445544543545F50494E00538E
:100A2000434B5F50494E0052414D50535F44395F34
:100A300050494E0052414D50535F44385F50494E2B
:100A40000052414D50535F4431305F50494E004D8C
:100A50004F53495F50494E004D4F534645545F44F4
:100A60005F50494E004D49534F5F50494E004D4134
:100A700058363637355F53535F50494E004C454426
:100A80005F50494E004C43445F50494E535F5253B0
:100A9000004C43445F50494E535F454E41424C45E4
:100AA000004C43445F50494E535F4434004B494C23
:100AB0004C5F50494E004845415445525F424544C1
:100AC0005F50494E004845415445525F305F5049A0
:100AD0004E0046494C5F52554E4F55545F50494E5B
:100AE0000046414E315F50494E0046414E5F5049ED
:100AF0004E0045315F535445505F50494E004531DB
:100B00005F454E41424C455F50494E0045315F4480
:100B100049525F50494E0045315F43535F50494E43
:100B20000045305F535445505F50494E0045305F9B
:100B3000454E41424C455F50494E0045305F444967
:100B4000525F50494E0045305F43535F50494E005D
:100B500045305F4155544F5F46414E5F50494E000E
:100B6000455F4D5558325F50494E00455F4D5558D1
:100B7000315F50494E00455F4D5558305F50494EEA
:100B800000444F474C43445F53434B00444F474C52
:100B900043445F4D4F53490042544E5F454E43001E
:100BA00042544E5F454E320042544E5F454E310036
:100BB0004245455045525F50494E004156525F53A1
:100BC000535F50494E004156525F53434B5F50496B
:100BD0004E004156525F4D4F53495F50494E0041C0
:100BE00056525F4D49534F5F50494E0054454D504A
:100BF0005F4245445F50494E0054454D505F315F60
:100C000050494E0054454D505F305F50494E0046AC
:100C1000494C57494454485F50494E005458440089
:100C200052584400447275636B2070617573696536
:100C300072742E2E2E004572726F72207772697454
:100C4000696E6720746F20454550524F4D210A0050
:100C5000363726033C3D380E2E303E121A1C18083B
:100C6000440A07430809070001627573793A207046
:100C7000617573656420666F7220696E7075740AA1
:100C800000627573793A2070617573656420666FD0
:100C90007220757365720A00627573793A207072FA
:100CA0006F63657373696E670A002063757272659E
:100CB0006E742064656372656173656420746F206F
:100CC000006D41290A0020647269766572206F7692
:100CD000657274656D706572617475726520776197
:100CE000726E696E67212028003A200020637572B9
:100CF00072656E74206465637265617365642074E7
:100D00006F20006D41290A002064726976657220A7
:100D10006F76657274656D70657261747572652049
:100D20007761726E696E67212028003A2000206387
:100D3000757272656E742064656372656173656453
:100D400020746F20006D41290A0020647269766565
:100D500072206F76657274656D70657261747572FC
:100D600065207761726E696E67212028003A200045
:100D70002063757272656E74206465637265617359
:100D8000656420746F20006D41290A002064726937
:100D9000766572206F76657274656D7065726174C8
:100DA000757265207761726E696E67212028003A3E
:100DB0002000414E474548414C54454E0050726911
:100DC0006E7465722073746F7070656420647565ED
:100DD00020746F206572726F72732E2046697820BE
:100DE000746865206572726F7220616E642075731D
:100DF00065204D39393920746F20726573746172C2
:100E0000742E202854656D7065726174757265204A
:100E100069732072657365742E205365742069743C
:100E20002061667465722072657374617274696E94
:100E300067290A004E6F20436865636B73756D20E8
:100E400077697468206C696E65206E756D62657275
:100E50002C204C617374204C696E653A20004E6FF3
:100E600020436865636B73756D2077697468206CC7
:100E7000696E65206E756D6265722C204C617374AD
:100E8000204C696E653A2000636865636B73756D0D
:100E9000206D69736D617463682C204C61737420DC
:100EA0004C696E653A20004C696E65204E756D6226
:100EB0006572206973206E6F74204C617374204CCE
:100EC000696E65204E756D6265722B312C204C6108
:100ED0007374204C696E653A20004D313130004DFD
:100EE000313137004D333100534420726561642045
:100EF0006572726F720A00446F6E65207072696E5F
:100F000074696E672066696C650A002121204B496F
:100F10004C4C20636175736564206279204B494CA9
:100F20004C20627574746F6E2F70696E0A002121F7
:100F3000204B494C4C2063617573656420627920B5
:100F4000746F6F206D75636820696E616374697674
:100F5000652074696D65202D2063757272656E74ED
:100F600020636F6D6D616E643A2000426974746530
:100F7000206E65757374617274656E0044525543DA
:100F80004B455220474553544F5050540025533A37
:100F9000202553004142474542524F4348454E00A9
:100FA0005072696E7465722068616C7465642E207D
:100FB0006B696C6C28292063616C6C6564210A0084
:100FC0006563686F3A004572726F723A0066616CD1
:100FD00073650074727565002568753A253032684E
:100FE000750025303268753A2530326875002568FD
:100FF00075642025303268753A25303268750044B2
:101000007269766572206572726F7200636F696CC7
:101010002073686F727420636972637569740A0063
:101020006F76657274656D70657261747572650A4C
:101030000020647269766572206572726F72206436
:10104000657465637465643A20307800303D2E33F2
:10105000323500313D2E3138006D6178002F33314B
:10106000002F3331002F333100303D2E3332350025
:10107000313D2E3138006D6178002F3331002F3330
:1010800031002F333100303D2E33323500313D2ECB
:101090003138006D6178002F3331002F3331002F4C
:1010A000333100303D2E33323500313D2E313800A2
:1010B0006D6178002F3331002F3331002F33310031
:1010C000092042616420726573706F6E7365210040
:1010D000092042616420726573706F6E7365210030
:1010E000092042616420726573706F6E7365210020
:1010F000092042616420726573706F6E7365210010
:10110000447269766572207265676973746572737B
:101110003A0A00733276736209007332767361099A
:101120000031323043090031343343090031353066
:101130004309003135374309006F7409006F74703B
:101140007709007332676109007332676209006FC3
:101150006C6109006F6C6209007374737409004458
:101160005256535441545553005374616C6C677517
:101170006172642074687273002D737461727409F3
:1011800000687973746572657369730A2D656E649E
:101190000900626C616E6B2074696D65006F666634
:1011A0002074696D65004F54207072657761726EAE
:1011B000206861730A6265656E207472696767658D
:1011C000726564004F54207072657761726E005BC7
:1011D0006D6D2F735D090070776D0A7468726573A9
:1011E000686F6C6400747374657009006D73746566
:1011F00070730900737465616C746843686F700084
:101200007673656E7365090050574D207363616C8A
:10121000650043532061637475616C00486F6C64B2
:101220002063757272656E740052756E20637572FC
:1012300072656E74004D41582063757272656E74EC
:1012400000524D532063757272656E74005365745D
:101250002063757272656E7400456E61626C6564C0
:10126000090009004C4F570048494748004F4B00C0
:101270004572726F723A20416C6C200020636F6E71
:101280006E656374696F6E2E2E2E20005465737424
:10129000696E6720004C4F570048494748004F4B44
:1012A000004572726F723A20416C6C200020636FAF
:1012B0006E6E656374696F6E2E2E2E2000546573FA
:1012C00074696E6720004C4F570048494748004FEB
:1012D0004B004572726F723A20416C6C20002063A3
:1012E0006F6E6E656374696F6E2E2E2E20005465CE
:1012F0007374696E6720004C4F5700484947480097
:101300004F4B004572726F723A20416C6C20002086
:10131000636F6E6E656374696F6E2E2E2E2000549F
:10132000657374696E672000544D43205665726280
:10133000696E64756E67736665686C657200505798
:101340004D3A20202534640050574D3A2020253452
:10135000640050574D3A20202534640050574D3AD0
:1013600020202534640050574D3A20202534640055
:1013700050574D3A20202534640050574D3A2020D4
:101380002534640050574D3A2020253464005057CE
:101390004D3A20202534640050574D3A2020253402
:1013A000640050574D3A20202534640050574D3A80
:1013B00020202534640050574D3A20202534640005
:1013C00050574D3A20202534640050574D3A202084
:1013D0002534640050574D3A2020253464003A20CB
:1013E0000020202020434F4D002020206E6F6E2DC6
:1013F0007374616E646172642050574D206D6F6428
:101400006500202020636F6D7061726520696E74C5
:1014100065727275707420656E61626C656400201F
:1014200020206F766572666C6F7720696E746572C6
:101430007275707420656E61626C6564003A20009C
:101440002020202054494D534B00423A20002020B8
:1014500020205443435200413A20002020202054B1
:10146000434352002020202043533A2000202020D4
:101470002057474D3A200050574D3A2020253464DC
:101480000050574D3A2020253464004700480000A2
:101490000088008A008C00B300B400000098009A15
:1014A000009C00A800AA00AC0028012A012C012001
:1014B00020202054494D455200440045006E0080D4
:1014C0000081006F00B000B10070009000910071C9
:1014D00000A000A1007200200121017300206973A7
:1014E00020616C736F207469656420746F20746868
:1014F00069732070696E0054494D45523143000AAA
:10150000202E002020002020506F72743A200020EE
:10151000202000202020416E616C6F6720696E20C2
:101520003D2025356C64003C756E757365642F75C0
:101530006E6B6E6F776E3E00202841253264292045
:1015400020002533642000257350494E3A20004F77
:101550007574707574203D2000496E70757420207C
:101560003D2000416E616C6F6720696E203D202533
:10157000356C640070726F7465637465642000205C
:10158000284125326429202000253364200025735A
:1015900050494E3A2000200C00011C0C01010F0C98
:1015A0003B00040C4300F90B4500EC0B4400DF0B3F
:1015B0003201D20B3301C60B3401BB0B3501B00B2A
:1015C0002501A80B1101A00B1701980B23018C0B0F
:1015D0003301810B3401760B28016B0B2A01600B60
:1015E0002C01500B0701460B42013B0B1C012D0B3C
:1015F0001801210B1A01170B15010C0B2201FE0A11
:101600001E01F20A2401EA0A0901E10A0701D20ACD
:101610000401C50A0A01B60A0801AD0A2901A10A96
:101620001901910A1D01850A1B017D0A0D016E0A2F
:101630004201650A3201580A07014F0A3301410A83
:101640000A01340A0801270A09011F0A3401110A94
:1016500031010C0A3501010A0B01F6090C01EB09F5
:101660002701E0092001D9093501D0093F01C60948
:101670003701B9092601AF090301A4093601990907
:1016800003019009400186093D01790938016F097C
:101690000E0164093C0159090E0150094101460936
:1016A000300139093E012F09120124092E011909BF
:1016B000120109092801F9083F01E9083B01D9088D
:1016C0004001C9082A01B9084101A8082C0197085E
:1016D00042018608140175081501446F6E652E0AD3
:1016E000005A5F50524F42455F534552564F5F4E2E
:1016F00052206E6F74207365742075702E0A005727
:1017000061746368696E672070696E730A0064694A
:101710007300656E0061626C65640A00656E6473D7
:10172000746F70206D6F6E69746F7220004F464643
:10173000004F4E0020204D61783A200020002020EC
:101740004D696E3A2000536F667420656E64737441
:101750006F70733A2000206F7574206F662072617D
:101760006E67650A00536572766F20003A2000208C
:10177000536572766F2000617869733A70776D5F98
:101780007363616C652F637572725F7363616C65FF
:101790007C666C6167737C7761726E636F756E7463
:1017A0000A004452565F5354415455530900505750
:1017B0004D5F5343414C45090050574D434F4E46F2
:1017C0000900434F4F4C434F4E46090043484F508A
:1017D000434F4E46090054484947480909005443BD
:1017E0004F4F4C5448525309005450574D5448528F
:1017F000530900545354455009090054504F57455C
:1018000052444F574E0900494F494E09090047536A
:1018100054415409090049484F4C445F4952554EC0
:10182000090047434F4E460909000900737072656D
:1018300061644379636C6500737465616C746843BB
:10184000686F700020647269766572206D6F6465E0
:101850003A09007370726561644379636C65007363
:101860007465616C746843686F7000206472697697
:101870006572206D6F64653A09007370726561640A
:101880004379636C6500737465616C746843686F59
:10189000700020647269766572206D6F64653A0924
:1018A000007370726561644379636C65007374657D
:1018B000616C746843686F70002064726976657249
:1018C000206D6F64653A090020737465616C7468FB
:1018D00043686F70206D61782073706565643A208D
:1018E0000020737465616C746843686F70206D616B
:1018F000782073706565643A200020737465616CAC
:10190000746843686F70206D6178207370656564DA
:101910003A200020737465616C746843686F7020AE
:101920006D61782073706565643A200020496E7699
:10193000616C696420657874727564657220002238
:101940000A00656E7175657565696E672022006FA6
:101950006B00526573656E643A2000566F7268655D
:10196000722025732573257320686F6D656E00489E
:101970006F6D657665727361747A20616B746976D8
:10198000004572723A20546F6F20666172210054D4
:101990006F6F206661722066726F6D20726566657A
:1019A00072656E636520706F696E740A00436170C2
:1019B0003A0020573A006BC3BC686C742E2E2E0080
:1019C0006865697A742E2E2E004520255300205715
:1019D0003A0042657474206BC3BC686C742E2E2E62
:1019E0000042657474206865697A742E2E2E002377
:1019F000646566696E652044454641554C545F00F8
:101A0000626564004B6420004B6920004B7020002D
:101A1000504944204175746F74756E652066696E17
:101A20006973686564212050757420746865206C42
:101A3000617374204B702C204B6920616E64204BC5
:101A40006420636F6E7374616E74732066726F6D61
:101A50002062656C6F7720696E746F20436F6E66CD
:101A6000696775726174696F6E2E680A0050494427
:101A7000204175746F74756E65206661696C65646C
:101A8000212074696D656F75740A00546865726D04
:101A9000616C2052756E6177617900486561746987
:101AA0006E67206661696C65640050494420417529
:101AB000746F74756E65206661696C65642120546D
:101AC000656D706572617475726520746F6F2068E2
:101AD0006967680A00204B643A2000204B693A206D
:101AE00000204B703A20000A20436C6173736963D5
:101AF00020504944200A00204B643A2000204B69C2
:101B00003A2000204B703A20000A204E6F206F765A
:101B1000657273686F6F740A002054753A20002054
:101B20004B753A2000206D61783A2000206D696E77
:101B30003A200020643A200020626961733A200054
:101B4000504944204175746F74756E6520737461DB
:101B500072740A00504944204175746F74756E6543
:101B6000206661696C6564212054656D70657261E1
:101B70007475726520746F6F20686967680A005019
:101B80004944204175746F74756E65206661696C97
:101B900065642120426164206578747275646572A1
:101BA000206E756D6265720A004572723A20757416
:101BB000663820666F6E74206E6F7420696E69746B
:101BC00069616C697A65642E004572723A20757499
:101BD000663820666F6E74206E6F7420696E69744B
:101BE00069616C697A65642E004572723A20757479
:101BF000663820666F6E74206E6F7420696E69742B
:101C000069616C697A65642E0020202020202020E4
:101C10000020202020001FE0201020102010102085
:101C200010202010201030300840048003001FE0F6
:101C30003FF03FF03FF01FE01FE03FF03FF03FF08C
:101C40000FC0078003003FFFF038007030FC3020E9
:101C5000FC102078102030102C00D02E31D02F7B9B
:101C6000D02F7BD02E31D02C00D0203010207810F7
:101C700020FC1030FC303800703FFFF03FFFF038A0
:101C800000703186302387102787902F87D02F034D
:101C9000D02030102078102078102030102F03D062
:101CA0002F87D02787902387103186303800703FE8
:101CB000FFF01FFFF81FFFF8041040020820020881
:101CC00020041040082080104100104100082080AE
:101CD0000410400000001FFFF81FFFF8F80180000B
:101CE0000C480080001243C38CD00271249267CC50
:101CF00041249E40024924904012FBB3CEE00C4D9B
:101D0000656469756D20656E746665726E74004DEC
:101D1000656469756D2065726B616E6E7400456EE9
:101D20006465722D33206265726569740044727552
:101D3000636B742E2E2E00447275636B2061626794
:101D40006562726F6368656E004D32350053442DD5
:101D5000447275636B2070617573696572656E009E
:101D600046696C616D656E7464757263686D6573E8
:101D7000736572004520696E206D6DC2B300566FA9
:101D800072736368756266616B746F72004D333095
:101D90003320553120452569205325690050494499
:101DA000204175746F74756E65202A005049442077
:101DB00044202A005049442049202A005049442008
:101DC00050202A0020082046616B746F72002008A2
:101DD000206D6178002008206D696E0061757300C8
:101DE000616E004175746F2054656D706572617429
:101DF00075720056206D696E204C6565726661686B
:101E000072740056206D696E200056206D61782036
:101E1000450056206D6178205A0056206D6178206B
:101E2000590056206D617820580041206D6178205E
:101E3000450041206D6178205A0041206D61782075
:101E4000590041206D617820580041204C65657231
:101E5000666168727400412045696E7A7567004258
:101E6000657363686C65756E6967756E67004A7542
:101E70006E6374696F6E2044657600452053746507
:101E800070732F6D6D005A2053746570732F6D6DD4
:101E900000592053746570732F6D6D005820537472
:101EA0006570732F6D6D004572772E2045696E73D6
:101EB00074656C6C756E67656E00000C0D00FE0736
:101EC000022603BC01FFFE0AFE08FE050808060004
:101ED0000040F0C88888987810050808060000C0FF
:101EE000F88888888888F80505050600012030F8FC
:101EF00030200508080600002070F820202020E08F
:101F00000509090600FF2070A8A8B8888870200578
:101F10000606060001E08CEA8C8A0A05090906001B
:101F2000FFF8A88888888888A8F8050A0A0600FEAD
:101F3000205050505088A8A888700303030600035F
:101F400040A040FFFFFFFFFFFFFFFFFFFFFFFFFF7E
:101F5000FFFFFFFFFFFFFFFFFF0000000605FF017F
:101F6000070706020080808080800080030303064C
:101F70000105A0A0A005060606000050F85050F884
:101F8000500509090600FF2070A8A07028A870203D
:101F9000050707060000C8C81020409898050707E5
:101FA00006000040A0A040A89068010303060205B7
:101FB0008080800309090601FF2040408080804026
:101FC00040200309090601FF8040402020204040B6
:101FD0008005070706000020A8702070A8200505CE
:101FE000050600012020F820200203030601FFC09F
:101FF0004080050101060003F8020202060100C04C
:10200000C0050707060000081010204040800507A3
:1020100007060000708898A8C888700307070601A3
:102020000040C040404040E00507070600007088BF
:1020300008102040F8050707060000F808103008CF
:10204000887005070706000010305090F810100542
:102050000707060000F880F00808887005070706E3
:102060000000304080F0888870050707060000F8FF
:1020700008101020202005070706000070888870CF
:102080008888700507070600007088887808106047
:10209000020505060100C0C000C0C0020606060118
:1020A000FFC0C000C040800305050601012040803C
:1020B0004020050303060002F800F80305050601A9
:1020C000018040204080050707060000708810202E
:1020D0002000200507070600007088B8A8B88070A7
:1020E000050707060000708888F8888888050707B4
:1020F000060000F04848704848F005070706000051
:1021000070888080808870050707060000F04848C6
:10211000484848F0050707060000F88080F08080F6
:10212000F8050707060000F88080F080808005072A
:1021300007060000708880809888700507070600F1
:1021400000888888F8888888030707060100E0402F
:1021500040404040E005070706000038101010100E
:1021600090600507070600008890A0C0A090880531
:102170000707060000808080808080F8050707063A
:10218000000088D8A8888888880507070600008886
:1021900088C8A8988888050707060000708888887E
:1021A000888870050707060000F08888F080808026
:1021B00005070706000070888888A890680507074B
:1021C000060000F08888F0A0908805070706000048
:1021D00070888070088870050707060000F82020C6
:1021E0002020202005070706000088888888888826
:1021F000700507070600008888888850502005076A
:102200000706000088888888A8A8500507070600E8
:1022100000888850205088880507070600008888B5
:102220005020202020050707060000F80810204055
:1022300080F80309090601FFE080808080808080AB
:10224000E005070706000080404020101008030941
:10225000090601FFE020202020202020E0050303C4
:102260000600052050880501010600FEF80303035F
:1022700006010580402005050506000070087888E5
:10228000780507070600008080F0888888F005053B
:1022900005060000708080887005070706000008AA
:1022A0000878888888780505050600007088F08021
:1022B00070050707060000304840E0404040050731
:1022C000070600FE708888887808700507070600F2
:1022D000008080F088888888030707060100400096
:1022E000C0404040E00409090601FE100030101013
:1022F0001010906005070706000080808890E0902D
:1023000088030707060100C04040404040E0050543
:1023100005060000D0A8A8A8A8050505060000B07D
:10232000C8888888050505060000708888887005BB
:1023300007070600FEF0888888F0808005070706FA
:1023400000FE78888888780808050505060000B032
:10235000C880808005050506000078807008F005BB
:1023600007070600002020F8202020180505050694
:102370000000888888986805050506000088888818
:1023800050200505050600008888A8A85005050509
:1023900006000088502050880507070600FE888840
:1023A0008850204080050505060000F8102040F800
:1023B0000309090601FF20404040804040402001C1
:1023C00009090602FF808080808080808080030968
:1023D000090601FF80404040204040408005030343
:1023E00006000248A890FFFFFFFFFFFFFFFFFFFF6F
:1023F000FFFFFFFFFFFFFFFFFFFFFFFFFFFFFFFFED
:10240000FFFFFFFFFFFFFF0000000605FF010707BA
:10241000060200800080808080800507070600FF9C
:102420002070A8A0A87020050707060000304840CB
:10243000E04048B0050505060000A8508850A805F2
:1024400007070600008850F820F82020010707063B
:1024500002008080800080808004080806010070EF
:10246000806090906010E0030101060107A006075C
:10247000070600007884B4A4B48478030505060137
:102480000460A06000E00505050600002850A0508B
:1024900028050303060001F80808030101060103EB
:1024A000E00607070600007884B4A4A48478050138
:1024B00001060007F8040404060105609090600519
:1024C00007070600002020F8202000F80305050675
:1024D000010440A02040E0030505060104C020409F
:1024E00020C00303030601052040800507070600FE
:1024F000FE88888898E8808005080806000078E84B
:10250000E8E868282828020202060203C0C0030285
:10251000020601FE20C003050506010440C040403C
:10252000E003050506010540A04000E0050505069D
:102530000000A0502850A0050A0A06000040C0482C
:10254000506050B0507810050A0A06000040C0489C
:10255000506050A8081038050A0A060000C020483C
:1025600030E050B05078100507070600002000202A
:1025700020408870050A0A06000040200070888804
:10258000F8888888050A0A060000102000708888EC
:10259000F8888888050A0A0600002050007088889C
:1025A000F8888888050A0A06000068B000708888E4
:1025B000F88888880509090600005000708888F8A6
:1025C000888888050A0A060000205020708888F84C
:1025D00088888805070706000078A0A0F0A0A0B8AA
:1025E0000509090600FE70888080808870106005EB
:1025F0000A0A060000402000F88080F08080F8057C
:102600000A0A060000102000F88080F08080F8059B
:102610000A0A060000205000F88080F08080F8054B
:1026200009090600005000F88080F08080F8030A55
:102630000A060100804000E04040404040E0030ABC
:102640000A060100204000E04040404040E0030A0C
:102650000A06010040A000E04040404040E003097D
:1026600009060100A000E04040404040E0050707A7
:10267000060000704848E8484870050A0A0600004D
:1026800068B0008888C8A8988888050A0A060000EB
:1026900040200070888888888870050A0A06000033
:1026A00010200070888888888870050A0A06000053
:1026B00020500070888888888870050A0A06000003
:1026C00068B000708888888888700509090600004D
:1026D0005000708888888888700505050600018884
:1026E000502050880509090600FF087098A8A8A87E
:1026F000C87080050A0A0600004020008888888883
:10270000888870050A0A06000010200088888888DA
:10271000888870050A0A060000205000888888888A
:102720008888700509090600005000888888888814
:102730008870050A0A0600001020008888502020B2
:10274000202004070706010080E0909090E08005BB
:102750000707060000708890A09088B0050808065A
:1027600000004020007008788878050808060000FE
:1027700010200070087888780508080600002050AE
:1027800000700878887805080806000068B00070B6
:1027900008788878050707060000500070087888D8
:1027A0007805080806000020502070087888780511
:1027B0000505060000702870A0780507070600FED2
:1027C00070888088701060050808060000402000AE
:1027D0007088F080700508080600001020007088DE
:1027E000F080700508080600002050007088F08016
:1027F0007005070706000050007088F0807003081D
:1028000008060100804000C0404040E00308080680
:102810000100204000C0404040E0030808060100DD
:1028200040A000C0404040E0030707060100A000B0
:10283000C0404040E00509090600005020500878DB
:102840008888887005080806000068B000B0C8884D
:102850008888050808060000402000708888887075
:102860000508080600001020007088888870050898
:102870000806000020500070888888700508080647
:10288000000068B00070888888700507070600009F
:10289000500070888888700505050600012000F842
:1028A00000200505050600007898A8C8F00508086E
:1028B0000600004020008888888870050808060007
:1028C000001020008888888870050808060000200D
:1028D0005000888888887005070706000050008827
:1028E00088888870050A0A0600FE102000888888FB
:1028F000502040800509090600FE8080F088888805
:10290000F080800509090600FE5000888888502064
:1029100040803F0041626272656368656E00426597
:102920007374C3A4746967656E004D343238005700
:1029300065726B7365696E7374656C6C756E6765D3
:102940006E0046696C616D656E740054656D7065EE
:10295000726174757200544D4320547265696265EA
:10296000720053746570732F6D6D004A65726B0051
:1029700042657363686C65756E6967756E6700475D
:102980006573636877696E6469676B656974005322
:1029900065747A6520486F6D657665727361747AC7
:1029A000004B6F6E66696775726174696F6E004285
:1029B0006574740044C3BC7365004CC3BC66746525
:1029C00072004B6F6E66696775726174696F6E0035
:1029D0005374616E646172647765727465206C61B2
:1029E00064656E004B6F6E6669672E206C6164656E
:1029F0006E004B6F6E6669672E2073706569636841
:102A000065726E00504554472045696E7374656C5D
:102A10006C756E67656E00504C412045696E73742D
:102A2000656C6C756E67656E004572772E20456922
:102A30006E7374656C6C756E67656E004861757059
:102A4000746D656EC3BC00313235003A200035002C
:102A50003A20004245443A4550434F5320313030EC
:102A60004B0052756E617761792057617463683AE3
:102A7000204F4E004D61782054656D70003237351F
:102A8000003A20004D696E2054656D700035003AA3
:102A9000200045313A204550434F53203130304BD0
:102AA000004E65747A7465696C0047656E6572697D
:102AB00063003A200050726F746F6B6F6C6C003162
:102AC0002E30003A200042617564726174650035F1
:102AD00037363030003A20004D4B532047454E20CA
:102AE0004C2056320045787472756465720031006E
:102AF0003A2000687474703A2F2F6D61726C696EA1
:102B000066772E6F726700456E6465722D330032F2
:102B10003031392D31322D3139006275676669786F
:102B20002D322E302E78004D61726C696E00546823
:102B300065726D6973746F72656E00426F61726465
:102B40002D496E666F00447275636B65722D496E18
:102B5000666F0048617570746D656EC3BC003F00A0
:102B60005A7572C3BC636B0053746F700044727506
:102B7000636B20766F6D204D656469756D004D3215
:102B800031004D656469756D2067657461757363A7
:102B9000687400C39C6265722064656E204472751F
:102BA000636B6572004B6F6E6669677572617469FD
:102BB0006F6E0054656D7065726174757200426568
:102BC000776567756E670053442D447275636B209B
:102BD000666F72747365747A656E004B65696E20FA
:102BE0004D656469756D004A757374696572756EBB
:102BF000670053442D447275636B20616262726595
:102C00006368656E0053442D447275636B20706178
:102C10007573696572656E00496E666F003F00539B
:102C2000746172746520447275636B0041626272F4
:102C3000656368656E00447275636B656E00436121
:102C40006E6E6F7420656E74657220737562646950
:102C5000723A2000022E2E0048617570746D656E08
:102C6000C3BC004265776567756E67004D383400F8
:102C70004D6F746F72656E206465616B74697669FF
:102C80006572656E00473238004175746F20486F79
:102C90006D650048617570746D656EC3BC00504C05
:102CA0004120457874722E20566F7277C3A4726DDE
:102CB000656E00504C41204265747420566F7277E7
:102CC000C3A4726D656E005045544720426574740C
:102CD00020566F7277C3A4726D656E0050455447DD
:102CE00020457874722E20566F7277C3A4726D657A
:102CF0006E0054656D706572617475720041626B2F
:102D0000C3BC686C656E005045544720566F72779F
:102D1000C3A4726D656E00504C4120566F7277C32C
:102D2000A4726D656E004CC3BC667465720042652A
:102D300074740044C3BC73650048617570746D653C
:102D40006EC3BC004531005A00590058004531009F
:102D50005A00590058004531005A005900617573F6
:102D600000616E005800544D4320547265696265DD
:102D70007200537465616C746843686F7020656994
:102D80006E7363682E00536368726974746D6F6448
:102D9000757300487962726964207468726573683B
:102DA0006F6C640054726569626572205374726F4F
:102DB0006D0045696E7374656C6C756E67656E0049
:102DC0004261627973746570205A00466C75737342
:102DD00072617465004CC3BC6674657200426574B0
:102DE000740044C3BC7365004765736368772E0045
:102DF00048617570746D656EC3BC0000006B430064
:102E0000006B4300007A4300000000000000000057
:102E1000000000290A002062797465733B20637208
:102E200063200053657474696E67732053746F7206
:102E30006564202800454550524F4D2064617461FF
:102E400073697A65206572726F722E0A00290A0012
:102E50002062797465733B20637263200020737471
:102E60006F7265642073657474696E677320726530
:102E700074726965766564202800202863616C633C
:102E8000756C6174656429210A0020213D2000458C
:102E90004550524F4D20435243206D69736D61740C
:102EA0006368202D202873746F72656429200020C8
:102EB00053697A653A2000496E6465783A200020AB
:102EC0004D61726C696E3D563734290A0045455094
:102ED000524F4D2076657273696F6E206D69736D08
:102EE000617463682028454550524F4D3D0048614C
:102EF0007264636F6465642044656661756C7420F8
:102F000053657474696E6773204C6F616465640AFD
:102F1000000000FA430000FA430000A0400000C88F
:102F2000410000A0420000A0420000C8430000BAD7
:102F300042F4010000F40100006400000088130066
:102F40000020204D3930360020204D39313300200B
:102F5000204D3536392053310020204D3930302076
:102F60004B004C696E65617220416476616E6365E9
:102F70003A0A005430204500447269766572207325
:102F800074657070696E67206D6F64653A0A002021
:102F90005430204500487962726964205468726533
:102FA00073686F6C643A0A00205430204500205842
:102FB0000053746570706572206472697665722062
:102FC00063757272656E743A0A00204400204900ED
:102FD00020204D3330342050002044002049002070
:102FE000204D3330312050005049442073657474B3
:102FF000696E67733A0A00204600204200204800AC
:1030000020204D3134352053004D61746572696163
:103010006C2068656174757020706172616D657493
:103020006572733A0A0020204D323036205800482D
:103030006F6D65206F66667365743A0A00204A00FA
:1030400020540020530020204D32303520420020F3
:103050004A3C6A756E635F6465763E0041647661E2
:103060006E6365643A20423C6D696E5F7365676D9F
:10307000656E745F74696D655F75733E20533C6D5A
:10308000696E5F66656564726174653E20543C6D6F
:10309000696E5F74726176656C5F666565647261A6
:1030A00074653E0020540020520020204D32303400
:1030B000205000416363656C65726174696F6E20B6
:1030C00028756E6974732F7332293A20503C7072E0
:1030D000696E745F616363656C3E20523C72657417
:1030E000726163745F616363656C3E20543C74720B
:1030F0006176656C5F616363656C3E0A0020204DFC
:103100003230312058004D6178696D756D20416312
:1031100063656C65726174696F6E2028756E697481
:10312000732F7332293A0A0020204D323033205851
:10313000004D6178696D756D2066656564726174B6
:1031400065732028756E6974732F73293A0A0053CA
:10315000746570732070657220756E69743A0A0028
:1031600020204D3230302044300A0020204D3230B3
:10317000302044002044697361626C65640A004633
:10318000696C616D656E742073657474696E6773C4
:103190003A0020204D3134392043203B20556E69C0
:1031A000747320696E2043656C736975730A00201F
:1031B000286D6D29002020473231202020203B201F
:1031C000556E69747320696E206D6D00486F6D696E
:1031D0006E67206765736368656974657274006FF4
:1031E00070656E00545249474745524544003A20A5
:1031F000007A5F6D696E00795F6D696E00785F6D52
:10320000696E005265706F7274696E6720656E64D6
:1032100073746F70207374617475730A00205A3A66
:103220000020593A0020436F756E7420583A0020F0
:10323000453A00205A3A0020593A00583A00000016
:10324000000000000000000000005761726E696E0F
:10325000673A20486F6D696E672042756D70204433
:10326000697669736F72203C20310A000202040003
:1032700000A0400000A04000000040206C696D6983
:1032800074656420746F2000204D6178200024F460
:10329000D43050C38E20C2A24017828B7011127A94
:1032A000910D816CD90AA861E108C7586607615180
:1032B00043061E4B5D05C145A7041A411104093D93
:1032C0009803713931034036DB0265339102D43003
:1032D0005402802E1D02632CEE01752AC501B02810
:1032E000A001102781018F2564012B244B01E022CE
:1032F0003401AC211F018D200D01801FFC00841EB4
:10330000ED00971DDF00B81CD200E61BC600201B95
:10331000BC00641AB200B219A8000A19A0006A1809
:103320009900D117910040178B00B5168400311613
:103330007E00B31579003A157300C7146F00581456
:103340006A00EE1366008813630025135E00C7123F
:103350005B006C12570015125400C111510070111E
:103360004F0021114B00D61049008D104700461028
:10337000440002104200C00F4000800F3E00420F88
:103380003C00060F3B00CB0E3800930E37005C0E5E
:103390003500270E3400F30D3200C10D3100900DC1
:1033A0003000600D2E00320D2D00050D2C00D90CC3
:1033B0002B00AE0C2900850C29005C0C2700350C75
:1033C00027000E0C2600E80B2400C40B2400A00BE1
:1033D00023007D0B23005A0B2100390B2100180B11
:1033E0002000F80A1F00D90A1E00BB0A1E009D0A11
:1033F0001D00800A1D00630A1C00470A1B002C0ADE
:103400001B00110A1A00F7091A00DD091900C40986
:103410001900AB091900920917007B09180063090C
:1034200017004C09160036091600200916000A0973
:103430001500F5081500E0081400CC081400B808C1
:103440001400A4081400900813007D0812006B08F3
:10345000130058081200460812003408110023080F
:1034600011001208110001081100F0071000E00718
:103470001000D0071000C0071000B0070F00A10710
:10348000100091070E0083070F0074070F006507F7
:103490000E0057070E0049070E003B070D002E07D0
:1034A0000E0020070D0013070D0006070D00F9069A
:1034B0000C00ED060D00E0060C00D4060C00C8065A
:1034C0000C00BC060C00B0060C00A4060B0099060C
:1034D0000C008D060B0082060B0077060B006C06B5
:1034E0000B0061060A0057060B004C060A00420654
:1034F0000A0038060A002E060A0024060A001A06E8
:103500000A001006090007060A00FD050900F40577
:103510000900EB050900E2050900D9050900D005FD
:103520000900C7050900BE050900B5050800AD057D
:103530000800A50509009C050800940508008C05F5
:103540000800840508007C050800740508006C0567
:103550000700650508005D050700560508004E05D3
:10356000070047050700400508003805070031053A
:1035700007002A050700230507001C05060016059D
:1035800007000F0507000805060002050700FB04F9
:103590000600F5040700EE040600E8040600E20455
:1035A0000700DB040600D5040600CF040600C904AA
:1035B0000600C3040600BD040600B7040600B104FB
:1035C0000500AC040600A6040600A00405009B0448
:1035D000060095040500900406008A040500850491
:1035E0000500800406007A040500750405007004D7
:1035F00005006B04050066040500610405005C0419
:10360000050057040500520405004D040500480458
:103610000500430405003E0404003A040500350497
:103620000500300404002C040500270404002304D2
:1036300005001E0404001A04040016040500110409
:1036400004000D040400090405000404040000043F
:103650000400FC030400F8030400F4030400F00376
:103660000400EC030400E8030400E4030400E003A6
:103670000400DC030400D8030400D4030400D003D6
:103680000400CC030400C8030300C503030024F4B2
:1036900004D9201BC40C5C0E9804C4095F026507A2
:1036A0007101F405F900FB04B30048048700C1036D
:1036B00069005803550003034500BE023A00840226
:1036C000310053022A002902250004022000E401EF
:1036D0001C00C8011900AF011700980114008401F3
:1036E0001300710110006101100051010E0043012F
:1036F0000D0036010B002B010B0020010B00150102
:1037000009000C01090003010800FB000800F30098
:103710000800EB000700E4000600DE000600D80009
:103720000600D2000600CC000500C7000500C2005C
:103730000500BD000400B9000400B5000400B1009C
:103740000400AD000400A9000400A5000300A200CD
:1037500003009F0004009B000300980003009500F5
:10376000020093000300900003008D0002008B0014
:10377000030088000200860002008400030081002C
:1037800002007F0002007D0002007B000200790041
:10379000020077000100760002007400020072004F
:1037A0000100710002006F0002006D0001006C005A
:1037B00002006A0001006900020067000100660063
:1037C0000100650001006400020062000100610068
:1037D0000100600001005F0002005D0001005C006C
:1037E00001005B0001005A0001005900010058006F
:1037F000010057000100560001005500010054006F
:10380000010053000000530001005200010051006C
:103810000100500001004F0001004E0000004E006A
:1038200001004D0001004C0001004B0000004B0066
:1038300001004A0001004900010048000000480062
:10384000010047000100460000004600010045005D
:103850000000450001004400010043000000430057
:103860000100420000004200010041000000410050
:103870000100400001003F0000003F0001003E0049
:1038800000003E0001003D0000003D0001003C0042
:1038900000003C0000003C0001003B0000003B0039
:1038A00001003A0000003A00010039000000390030
:1038B0000100380000003800000038000100370027
:1038C000000037000100360000003600000036001E
:1038D0000100350000003500000035000100340013
:1038E0000000340000003400010033000000330009
:1038F00000003300010032000000320000003200FE
:1039000001003100000031000000310001003000F2
:10391000000030000000300001002F0000002F00E8
:1039200000002F0000002F0001002E0000002E00DC
:1039300000002E0001002D0000002D0000002D00D1
:1039400000002D0001002C0000002C0000002C00C5
:1039500000002C0001002B0000002B0000002B00B9
:1039600000002B0001002A0000002A0000002A00AD
:1039700000002A00010029000000290000002900A1
:103980000000290000002900010028000000280094
:103990000000280000002800000028000100270087
:1039A000000027000000270000002700000027007B
:1039B000010026000000260000002600000026006E
:1039C0000000260001002500000025000000250061
:1039D0000000250000002500000025000100240053
:1039E0000000240000002400000024000000240047
:1039F000010023000000230000002300000023003A
:103A0000000023000000230000002300010022002A
:103A1000000022000000220000002200000022001E
:103A20000000220001002100000021000000210010
:103A30000000210000002100000021000000210002
:103A400001002000000020000000200000002000F5
:103A500000002000000020000000200000002000E6
:103A600001001F0000001F0000001F0000001F00D9
:103A700000001F0000001F0000001F0001001E00CA
:103A800000001E0000001E0000001E000000C231E9
:103A900000001C260000F4190000D80F0000EB08FD
:103AA0000000C00400007502000040010000004258
:103AB00065747400453100626564002C207379736D
:103AC00074656D2073746F70706564212048656142
:103AD0007465725F49443A2000434F4D4D554E493D
:103AE000434154494F4E0044525952554E0045529D
:103AF000524F525300494E464F004543484F0070C5
:103B0000012C0190012701B0012201C0011D01F02B
:103B10000118011002130130020E01600209019028
:103B2000020401C002FF000003FA004003F5008018
:103B300003F000D003EB002004E6007004E100E095
:103B400004DC004005D700C005D2004006CD00D0FF
:103B500006C8008007C3003008BE00F008B900C0E6
:103B600009B400B00AAF00B00BAA00D00CA5000049
:103B70000EA000500F9B00C0109600501291000044
:103B8000148C00C0158700B0178200B0197D00D0DA
:103B90001B7800001E730040206E0090226900F028
:103BA00024640040275F0090295A00E02B55001044
:103BB0002E500020304B0010324600E03341009080
:103BC000353C001037370070383200A0392D00B076
:103BD0003A2800A03B2300603C1E00103D190090D5
:103BE0003D1400103E0F00703E0A00C03E0500006C
:103BF0003F0000403FFBFF803FF6FFC03FF1FF006A
:103C00000020002300260029002C002F0032000095
:103C1000010000030106010901000022002500281F
:103C2000002B002E003100340002010000050108C5
:103C3000010B010505050507050808080802020231
:103C4000020A0A0808040404040101010101010137
:103C5000010303030303030303040707070C0C0C0E
:103C60000C0C0C0C0C0202020206060606060606E6
:103C7000060B0B0B0B0B0B0B0B0102102020080883
:103C800010204010204080020102010804020101BE
:103C900002040810204080804020100804020180A7
:103CA00004020180402010080402010804020101FE
:103CB00002040810204080010204081020408020E7
:103CC0002573206D6D000020302C312020206D6D7B
:103CD0000020312C302020206D6D0031302C302020
:103CE00020206D6D0041636873656E2062657765A5
:103CF00067656E00486F74656E64207A75206B612D
:103D00006C740042657765676520457874727564E8
:103D1000657200426577656765205A004265776580
:103D200067652059004265776567652058004472D1
:103D300075636B20766F6D204D656469756D004904
:103D40006E76616C69642065787472756465720A58
:103D500000207072657761726E20666C6167206307
:103D60006C65617265640A00207072657761726EBD
:103D700020666C616720636C65617265640A00206F
:103D80007072657761726E20666C616720636C6526
:103D9000617265640A00207072657761726E2066D8
:103DA0006C616720636C65617265640A00207465EC
:103DB0006D7065726174757265207072657761727D
:103DC0006E207472696767657265643A20002074BA
:103DD000656D70657261747572652070726577616A
:103DE000726E207472696767657265643A2000209C
:103DF00074656D7065726174757265207072657737
:103E000061726E207472696767657265643A20003A
:103E10002074656D7065726174757265207072656D
:103E20007761726E207472696767657265643A20A3
:103E300000206472697665722063757272656E74B3
:103E40003A2000206472697665722063757272652B
:103E50006E743A2000206472697665722063757210
:103E600072656E743A200020647269766572206310
:103E7000757272656E743A20003F4B2076616C75E6
:103E800065206F7574206F662072616E67652028EB
:103E9000302D3130292E0A00416476616E63652031
:103EA0004B3D00454550524F4D204F4B0A00646931
:103EB0007300656E0043290A0061626C6564202806
:103EC0006D696E2074656D702000436F6C642065B1
:103ED0007874727564657320617265200020643A9D
:103EE0000020693A0020703A0020643A0020693AC4
:103EF0000020703A00496E76616C696420657874C0
:103F000072756465720A0020466C6F773A20003F34
:103F10004A206F7574206F662072616E6765202875
:103F2000302E303120746F20302E33290A00205477
:103F300000205200416363656C65726174696F6E45
:103F40003A205000466565647261746500416363A0
:103F5000656C65726174696F6E004D313435205344
:103F60003C696E6465783E206F7574206F662072C0
:103F7000616E67652028302D31290A002F2F20001F
:103F80004348414D4245525F54454D50455241547E
:103F9000555245004D4F54494F4E5F4D4F44455388
:103FA00000544845524D414C5F50524F5445435484
:103FB000494F4E004155544F5245504F52545F5354
:103FC000445F5354415455530050524F4D50545F29
:103FD000535550504F525400454D455247454E435E
:103FE000595F50415253455200434153455F4C493C
:103FF0004748545F4252494748544E455353005432
:104000004F47474C455F4C494748545300534F4630
:1040100054574152455F504F574552004255494C05
:10402000445F50455243454E54004C4556454C491B
:104030004E475F44415441005A5F50524F42450041
:104040004155544F4C4556454C005052494E545FD3
:104050004A4F420050524F47524553530041555426
:104060004F5245504F52545F54454D5000564F4C9F
:10407000554D455452494300454550524F4D00421D
:10408000494E4152595F46494C455F5452414E5347
:104090004645520053455249414C5F584F4E5F5878
:1040A0004F4646004649524D574152455F4E414D9D
:1040B000453A4D61726C696E206275676669782D4C
:1040C000322E302E78202847697448756229205393
:1040D0004F555243455F434F44455F55524C3A68F4
:1040E000747470733A2F2F6769746875622E636FEA
:1040F0006D2F4D61726C696E4669726D7761726584
:104100002F4D61726C696E2050524F544F434F4C8B
:104110005F56455253494F4E3A312E30204D414360
:1041200048494E455F545950453A456E6465722D75
:10413000332045585452554445525F434F554E54D1
:104140003A3120555549443A6365646532613266B7
:104150002D343161322D343734382D396231322DDE
:104160006335356336326633363766660A00456E28
:104170006465722D33204F46462E004D3131332079
:1041800053004D3131322053687574646F776E007F
:104190006F666600FA3AF53AEE3AE73AD93A44459C
:1041A0004255473A006F6B0050726F7465637465D7
:1041B000642050696E0A002569730025696D202509
:1041C0006973002569682025696D202569730025BC
:1041D0006964202569682025696D2025697300259B
:1041E000697920256964202569682025696D202565
:1041F0006973005072696E742074696D653A2000AD
:104200002E0A0044656C6574696F6E206661696C86
:1042100065642C2046696C653A200046696C65200F
:1042200064656C657465643A00286E6F2066696C1D
:1042300065290043757272656E742066696C653A13
:1042400020005344207072696E74696E6720627931
:10425000746520004E6F74205344207072696E7430
:10426000696E670A00456E642066696C65206C693A
:1042700073740A00426567696E2066696C65206C1C
:104280006973740A004D6F746F72656E20616E679A
:1042900065736368616C746574004B6C69636B2053
:1042A0007A756D20466F72747365747A656E00005E
:1042B00000A0410000A0410000804000006B4300CE
:1042C000006B4300007A43FFFFFF57617274656E15
:1042D0002E2E2E0047322F473320626164207061FA
:1042E00072616D65746572730A0020746F6F206C63
:1042F0006F6E6720657874727573696F6E20707267
:104300006576656E7465640A0020636F6C64206571
:104310007874727573696F6E2070726576656E74ED
:1043200065640A00220A00556E6B6E6F776E20631B
:104330006F6D6D616E643A20220020746F6F206C87
:104340006F6E6720657874727573696F6E20707216
:104350006576656E7465640A0020636F6C64206521
:104360007874727573696F6E2070726576656E749D
:1043700065640A00204500205A00205900204D396C
:10438000322058002E0A006F70656E206661696CDD
:1043900065642C2046696C653A20003078004865D9
:1043A0006174696E67206661696C65640054686554
:1043B000726D616C2052756E617761790048454974
:1043C0005A454E204552464F4C474C4F5300486586
:1043D0006174696E67206661696C65640054686524
:1043E000726D616C2052756E6177617900200820D2
:1043F0004E4943485420455252454943485400547D
:104400006865726D616C2052756E6177617900200C
:104410000820C39C42455253434852495454454E88
:10442000004D415854454D5020747269676765725C
:10443000656400200820554E544552534348524964
:104440005454454E004D494E54454D5020747269A8
:10445000676765726564000A0A0020205A5F4D494B
:104460004E3A002020595F4D494E3A002020585FB7
:104470004D494E3A004D383420582059205A204595
:1044800000202F002042403A0020403A007C3C3E71
:104490005E2B3D3F2F5B5D3B2C2A225C0043616E0F
:1044A0006E6F74206F70656E207375626469722020
:1044B0000053442063617264206F6B0A006F706563
:1044C0006E526F6F74206661696C65640A00766F66
:1044D0006C756D652E696E6974206661696C6564C2
:1044E0000A00534420696E6974206661696C0A0091
:1044F0004D3234004D32332025730046696C6520FF
:1045000073656C65637465640A002053697A653A63
:10451000200046696C65206F70656E65643A200006
:10452000454E4420535542524F5554494E450A007A
:104530002220706F73002220706172656E743A22BF
:1045400000535542524F5554494E452043414C4C1F
:10455000207461726765743A2200747279696E67BB
:1045600020746F2063616C6C207375622D67636FBC
:1045700064652066696C6573207769746820746F60
:104580006F206D616E79206C6576656C732E204DA1
:104590004158206C6576656C2069733A310A002EAB
:1045A0000A006F70656E206661696C65642C204638
:1045B000696C653A200057726974696E6720746F80
:1045C0002066696C653A2000667265736800646FE6
:1045D000696E67002066696C653A20004E6F77202F
:1045E0000000002100240027002A002D00300033A5
:1045F0000001010000040107010A0100000A0B028A
:10460000090C0D0E08070304010000000000000063
:10461000000000000000000000000000000000009A
:104620000000000000000012111000000000000057
:10463000000000000000000000000000000000007A
:104640000002FFFFFFFFEFFFFFFFFFFFFFFFFFFF86
:10465000FFEFEFFFFFFFFFFFFFFFFFFFE7DFFFFFC2
:10466000FFFFFFFFFFFFFFE7DFFFFFFFFFFFFFFF92
:10467000FFFFE3DFFFFFFFFFFFFFFFFFFFF3CFFFC2
:10468000FFFFFFFFFFFFFFE1E1CFFFFFFFFFFFFFA6
:10469000FE78000003DDFFFFFFFFFEFF807E0001CC
:1046A000EEFFFFFFFFFE7DCFFC0000F77FFFFFFF67
:1046B000FF8E060000007BBFFFFFFFFFC000000071
:1046C000007DDFFFFFFFFFFC01FE00003EE7FFFF74
:1046D000FFFFFFFFFC00031F73FFFFFFFFFFFFF85B
:1046E00000018F81FFFFFFFFFFFFE0000083F9FF64
:1046F000FFFFFFFFFF00FC0000F0FFFFFFFFFFE0F8
:104700000FFFC00000FFFFFFFFFE03FFFFC0000020
:10471000FFFFFFFFFFFFFFF9000000FFFFFFFFFFAC
:10472000FFFFFC0007C0FFFFFFFFFFFFFFFF0007C9
:10473000E0FFFFFFFFFFFFFFFFE007F1FFFFFFFFCD
:10474000FFFFFFFFFC07F9FFFFFFFFFFFFFFFFFF7A
:1047500003F9FFFFFFFFFFFFFFFFFF83F9FFFFFFED
:10476000FFFFFFFFFFFFC3FFFFFFFFFFFFFFFFFF95
:10477000FFE1FFFFFFFFFFFFFFFFFFFFF0BFFFFFB6
:10478000FFFFFFFFFFFFFBF83FFFFFFFFFFFFFFF04
:10479000FFF9F83FFFFFFFFFFFFFFFFF7EF0FFFF86
:1047A000FFFFFFFFFFFFFF8E03FFFFFFFFFFFFFF86
:1047B000FFFFE01FFFFFFFFFFFFFFFFFFFFFFFFF08
:1047C000FFFFFFFFFFFFFFFFFFFFFFFFFFFFFFFFF9
:1047D000FFFFFFFFFF7FFFFFFFFF00007FFFFFF8EE
:1047E0007FFFFFFFFF80007FFFFFE07FFFFFFFFFF6
:1047F000C3FCFFFFFFF8FFFFFFFFFFC3FCFFFFFF4E
:10480000F8FFFFFFFFFF87FDFFFFFFF1FFFFFFFF47
:10481000FF87FFFFFFFFF1FFFFFFFFFF0FE7F30F32
:10482000FC23FC3FFFFFFF0FEF8007F003F01E00AB
:104830007FFE1FCF8187C787C70C007FFE001FC781
:10484000C78FC79F0F0CFFFE001F878F1F8F1F0F83
:104850001FFFFC3F9F8F8F1F8E001E3FFFFC7F3F7F
:104860000F1E3F1E3FFE3FFFF87FFF1F1C3F1C7FB8
:10487000FC7FFFF8FFFF1E1C7E1C7FFC7FFFF0FF0C
:10488000CE3E3C7E3C7FB8FFFFF0FF9E3C387C383C
:104890007E78FFFFE1FF3C7C787C783CF1FFFFE114
:1048A000F8387878101801F1FFFF000060203C0014
:1048B0007C07807FFFFFFFFFFFFE1FFE1FFFFFFF44
:1048C000687474703A2F2F6D61726C696E66772E02
:1048D0006F7267006275676669782D322E302E78A8
:1048E0000001FFFFFFFFFFFFFFFFFFFFFFFFFF0FC5
:1048F000FFFFFFFFFFFFFFFFFFFFFFFFFF1E0000A7
:10490000000000000000000007FFFF38000000006A
:1049100000000000000003FFFF7000000000000026
:104920000000000001FFFF60000000000000000028
:10493000000000FFFF600000000000000000000019
:10494000007FFFC000000000000000007800003F72
:10495000FFC00FC0FC00000000007818001FFFC05F
:104960003FE1FF0000000000783C000FFFC07FF334
:10497000FF8000000000783C0007FFC0FFFFFFC081
:1049800000000000783C0003FFC1F87F87E00000D2
:10499000000078000001FFC1F03F03E000000000CC
:1049A00078000000FFC1E01E01E01F0003E0783C3A
:1049B00003F07FC1E01E01E07FC00FF8783C07FCE8
:1049C0003FC1E01E01E1FFE01FFC783C0FFE1FC16C
:1049D000E01E01E3FFF03FFE783C1FFE0FC1E01E2A
:1049E00001E3F3F83F3E783C3F3F07C1E01E01E79B
:1049F000E0FC7C1F783C3E1F07C1E01E01E7C07C45
:104A00007C0F783C3C0F03C1E01E01E7807C780FEF
:104A1000783C3C0F03C1E01E01E7803C7800783C05
:104A20003C0F03C1E01E01E7803C7800783C3C0F5E
:104A300003C1E01E01E7803C7800783C3C0F03C1D5
:104A4000E01E01E7C03C7800783C3C0F03C1E01E4B
:104A500001E3E03C78007C3C3C0F03C1E01E01E335
:104A6000FF3FF8007FBC3C0F03C1E01E01E1FF3FA8
:104A7000F8003FBFFC0F03C1E01E01E0FF3FF8005C
:104A80001FBFFC0F03C1E01E01E07F3FF8000FBF16
:104A9000FC0F0360000000000000000000000000A8
:104AA0000760000000000000000000000000067029
:104AB0000000000000000000000000000E380000B0
:104AC000000000000000000000001C1E00000000AC
:104AD0000000000000000000780FFFFFFFFFFFFF55
:104AE000FFFFFFFFFFFFF001FFFFFFFFFFFFFFFFE3
:104AF000FFFFFFFF802020506C616E6E6572427573
:104B00006666657242797465733A20002046726564
:104B100065204D656D6F72793A2000436F6D706945
:104B20006C65643A2041707220203220323032327B
:104B30000A00204C61737420557064617465643A96
:104B400020323031392D31322D3139207C204175E0
:104B500074686F723A20287468697369736B656949
:104B60007468622C20456E6465722D33290A0062D8
:104B700075676669782D322E302E780A004D617285
:104B80006C696E0020536F667477617265205265A0
:104B90007365740A00205761746368646F672052FC
:104BA000657365740A002042726F776E206F7574AA
:104BB0002052657365740A002045787465726E61D1
:104BC0006C2052657365740A00506F77657255707A
:104BD0000A0073746172740A006175746F25632E24
:104BE00067004732385859006572726F72207772C9
:104BF0006974696E6720746F2066696C650A004489
:104C00006F6E6520736176696E672066696C652ECC
:104C10000A004D323900456E6473746F7070002560
:104C20005320256320256320256320256300205A17
:104C30003A0020593A0020583A00656E6473746F48
:104C40007073206869743A200000B8021E011124B4
:104C50001FBECFEFD1E2DEBFCDBF00E00CBF13E03F
:104C6000A0E0B2E0E4E9F1E902E00BBF02C0079086
:104C70000D92AC39B107D9F727E1ACE9B3E001C037
:104C80001D92A030B207E1F716E2C6E2D6E200E0DC
:104C900006C021970109802FFE010F94EF47C5320E
:104CA000D10780E00807A9F70F9411320D94B84896
:104CB0000C940000CF92DF92EF92FF9223EF34E04A
:104CC00045E35FE3609122077091230780912407F9
:104CD000909125070F946C3E6B017C0160912E0F23
:104CE00070912F0F8091300F9091310F0F940B3EE8
:104CF0009B01AC01C701B6010F946C3E29E732E875
:104D00004AE550E40F946C3E0F945C4760933A0779
:104D100070933B0780933C0790933D07FF90EF9083
:104D2000DF90CF9008952CEA35EC47E25EE3609186
:104D300046057091470580914805909149050F946B
:104D4000A8456093870F7093880F8093890F909385
:104D50008A0F08952CEA35EC47E25EE360914A053C
:104D600070914B0580914C0590914D050F946C3ED0
:104D70006093830F7093840F8093850F9093860FB9
:104D800008950C94D330CF93DF93EC01CB01BA019B
:104D90000F940D3E20E030E048EC51E40F946C3E5F
:104DA0000F942146688379838A839B83DF91CF9117
:104DB0000895CF93DF93EC01CB01BA010F940D3E20
:104DC0002AE037ED43E25CE30F946C3E688379831D
:104DD0008A839B83DF91CF910895CF93DF93EC017A
:104DE000CB01BA010F940D3E2AE037ED43E25CE3BC
:104DF0000F946C3E688379838A839B83DF91CF9184
:104E00000895CF93DF93EC01CB01BA010F940D3ECF
:104E10002DEC3CEC4CEC5DE30F946C3E68837983A5
:104E20008A839B83DF91CF910895CF93DF93EC0129
:104E3000CB01BA010F940D3E20E030E048EC51E484
:104E40000F946C3E688379838A839B83DF91CF9133
:104E50000895CF93DF93EC01CB01BA010F940D3E7F
:104E6000688379838A839B83DF91CF910895CF9361
:104E7000DF93EC01CB01BA010F940D3E6883798377
:104E80008A839B83DF91CF910895CF93DF93EC01C9
:104E9000CB01BA010F940D3E2FE632E143E85AE30D
:104EA0000F946C3E688379838A839B83DF91CF91D3
:104EB0000895CF93DF93EC01CB01BA010F940D3E1F
:104EC00020E030E040E251E40F946C3E0F94214624
:104ED00079836883DF91CF910895CF93DF93EC01BD
:104EE000CB01BA010F940D3E0F9421466883DF91E8
:104EF000CF910895CF93DF93EC01CB01BA010F94CA
:104F00000D3E0F941A4679836883DF91CF910895FF
:104F1000CF93DF93EC01CB01BA010F940D3E23E355
:104F200033E343E250E40F946C3E0F9421466883D0
:104F3000DF91CF910895FC01A081B1811C92A281E3
:104F4000B3818C918F5F8C930280F381E02D9081EF
:104F50008CE0989F800D1124E0EAF1E113AE84AF5C
:104F60000895FC0184910895FC01808108951398AF
:104F70000000000087FD52C0179800000000139A3F
:104F80000000000013980000000086FD53C0179831
:104F900000000000139A00000000139800000000B9
:104FA00085FD46C0179800000000139A000000001D
:104FB00013980000000084FD39C01798000000001D
:104FC000139A0000000013980000000083FD2CC01D
:104FD000179800000000139A0000000013980000CA
:104FE000000082FD1FC0179800000000139A000007
:104FF000000013980000000081FD12C01798000007
:105000000000139A00000000139800000000179899
:1050100000000000139A000000000895179AADCF19
:10502000179AEDCF179AE0CF179AD3CF179AC6CF1A
:10503000179AB9CF179AACCF089590E080E0089501
:105040009091DC14E92FF0E0E252FE4E80839F5FE6
:10505000943040F49093DC14809160168F5F8093BD
:10506000601608951092DC14F7CF282F90911B073B
:10507000833021F495FD0FC094FD0FC0892F90E07F
:10508000B0E0A0E004C0B695A795979587952A95BE
:10509000D2F78170089581E0089580E00895082E88
:1050A000000C990BFC01ED5CF34CE491EE2391F0C4
:1050B000F0E0EE0FFF1FE150F44CA591B4912C915C
:1050C0008758934CFC018491282381E090E021F4DF
:1050D00080E0089580E090E00895082E000C990B80
:1050E000FC01ED5CF34CE491F0E0EE0FFF1FEF519B
:1050F000FA4BA591B4912C918758934CFC01849163
:10510000822391E009F490E0892F0895FC01DB01EE
:1051100012962D913D914C911497228333834483B1
:1051200015968C911597858316962D913D914C91EE
:10513000189726833783408719964D915D916D911D
:105140007C911C9741875287638774871D964D9188
:105150005D916D917C915097458756876787708BDD
:105160008EE293E09183808351968D919C9152972A
:10517000928B818B53964D915D916D917C91569759
:10518000438B548B658B768B57968C915797878B77
:1051900058968D919C915997918F808F5A968D91A9
:1051A0009C915B97938F828F5C968D919C915D977C
:1051B000958F848F5E964D915D916D917C919197C5
:1051C000468F578F60A371A392964D915D916D911B
:1051D0007C91959742A353A364A375A396964D9192
:1051E0005D916D917C91999746A357A360A771A794
:1051F0009A968D919C919B9793A782A79C968D914F
:105200009C919D9795A784A79E968D919C919F9721
:1052100097A786A7D0968D919C91D19791AB80ABA3
:10522000D2968C9182AB0895CF92DF92EF92FF924B
:105230000F931F93CF93DF9300D000D0CDB7DEB78D
:10524000DC01ED91FC910084F185E02D1995AB0115
:10525000BC01072F11272227332749835A836B83E9
:105260007C838D8140FB80F96A017B01F694E79491
:10527000D794C794C0FA81F98D836A017B01BEE19E
:10528000CB22DD24EE24FF2491E0CD28CE28CF28A8
:1052900009F490E08D8190FB82F96801790196E034
:1052A000F694E794D794C7949A95D1F7C0FA85F904
:1052B00007FB86F9762F7F7129813A814B815C81CA
:1052C000682F80E090E026960FB6F894DEBF0FBE00
:1052D000CDBFDF91CF911F910F91FF90EF90DF90A5
:1052E000CF9008950C949F930C949F930C949F934C
:1052F0000C949F93CF93DF9300D01F92CDB7DEB76E
:105300000F940D3E2DEC3CEC4CEC5DE30F946C3EA9
:1053100069837A838B839C83CE0101960E9416A8B1
:105320000F900F900F900F90DF91CF910895CF9332
:10533000DF9300D01F92CDB7DEB70F940D3E2FE65E
:1053400032E143E85AE30F946C3E69837A838B839E
:105350009C83CE0101960E9415EB0F900F900F9049
:105360000F90DF91CF9108950C9488910C948891BF
:105370000C9488910C948891CF93DF9300D01F9266
:10538000CDB7DEB70F940D3E20E030E048EC51E49D
:105390000F946C3E69837A838B839C83CE01019644
:1053A0000E9466A90F900F900F900F90DF91CF9100
:1053B0000895CF93DF9300D01F92CDB7DEB70F943F
:1053C0000D3E69837A838B839C83CE0101960E9474
:1053D00066A90F900F900F900F90DF91CF910895D5
:1053E000CF93DF9300D01F92CDB7DEB70F94214645
:1053F0000F940B3E69837A838B839C83CE01019645
:105400000E9466A90F900F900F900F90DF91CF919F
:1054100008950F940D3E20E030E048EC51E40F94E5
:105420006C3E0C94F0290F940D3E0F941A46CB015C
:105430000C949FABCF92DF92EF92FF926B017C01B5
:1054400020E030E0A9010F94063E20E030E040E08B
:105450005FE387FF04C020E030E040E05FEBC7017E
:10546000B6010F94AE440F941A46CB01FF90EF9013
:10547000DF90CF900C949FAB0F940D3E0C941A2AA2
:10548000CF93DF9300D01F92CDB7DEB70F940D3EC0
:105490002AE037ED43E25CE30F946C3E69837A8344
:1054A0008B839C83CE0101960E94C7A80F900F901A
:1054B0000F900F90DF91CF910895CF93DF9300D09D
:1054C0001F92CDB7DEB70F940D3E2AE037ED43E2D1
:1054D0005CE30F946C3E69837A838B839C83CE015B
:1054E00001960E94ECA90F900F900F900F90DF9102
:1054F000CF9108952F923F924F925F927F928F9219
:105500009F92AF92BF92CF92DF92EF92FF920F9352
:105510001F93CF93DF93D62EC72E742EFC0180806D
:105520009180A280B380C501B40120E13EE040E05B
:1055300050E00F944A44122F032FC22FD32F8CE335
:10554000282E312C412C512CC501B401A20191010E
:105550000F944A44CA01B901A20191010F944A442F
:10556000F62EE72E772051F1C501B40120E831E590
:1055700041E050E00F944A448901EF92FF92CE013E
:1055800068E170E00F94C7479F938F933F932F93E9
:105590008EEE9FE09F938F93CF92DF920F949D3D6D
:1055A000EDB7FEB73A960FB6F894FEBF0FBEEDBF4B
:1055B00088E00A301105D0F089E018C0C436D10562
:1055C00038F57F936F930F931F9382EE9FE09F9325
:1055D0008F93CF92DF920F949D3D8DB79EB7089623
:1055E0000FB6F8949EBF0FBE8DBF85E0DF91CF91BF
:1055F0001F910F91FF90EF90DF90CF90BF90AF90F1
:105600009F908F907F905F904F903F902F90089544
:105610007F936F930F931F9388ED9FE09F938F93DA
:10562000CF92DF920F949D3DEDB7FEB738960FB63F
:10563000F894FEBF0FBEEDBF86E0D8CF0F940D3EAD
:1056400020E030E040E251E40F946C3E0F9421469C
:10565000CB010C94D4AB0F940D3E0F942146862FB2
:105660000C942EAD0F940D3E23E333E343E250E45C
:105670000F946C3E0F942146862F0C9461AEAF922E
:10568000BF92CF92DF92EF92FF920F931F93CF932F
:10569000DF936B01E9014A3009F4B8C0453109F0E4
:1056A0006AC0DB011296ED91FC91F280C681D78130
:1056B000159A88E28A950000E9F7BF2CB29420EF92
:1056C000B22230E1A32EAF0C48E2E42E88EF0E9414
:1056D000B7278E2D8A950000E9F7BFE1BF1508F4C2
:1056E00081C08F2D807780680E94B7278B2D0E9404
:1056F000B7278E2D8A950000E9F780E80E94B7272A
:1057000080E00E94B7278E2D8A950000E9F78AEF86
:105710000E94B7278E2D8A950000E9F78E01005F61
:105720001F4F8881807F0E94B72789918295807F53
:105730000E94B727C017D107A1F78E2D8A950000C8
:10574000E9F7F394E0E1BE0EFA10C0CF1598D60148
:105750001296CD91DC91CE010F9402178111EEC10A
:10576000DF91CF911F910F91FF90EF90DF90CF903D
:10577000BF90AF900895FB0102811381423309F479
:1057800098C108F49CC1463409F489C1473409F42E
:105790008CC14B3329F589812B81D80112966C91EC
:1057A000129713964C91213009F4DFC1233009F090
:1057B000A9C138EF380F582F91E0431708F490E053
:1057C00041E0531708F040E031E0561708F430E0AC
:1057D000592F542B352309F0BDC1942309F0BAC1C8
:1057E00081E0BECF80EE8F0D8068807F0E94B7275A
:1057F0008F2D8295807F0E94B7278E2D8A9500007D
:10580000E9F780E80E94B72780E87BCF0D9A1598CA
:105810000F9A17980B9A139A159A88E28A950000A6
:10582000E9F788E790E0CEE9DFE0FE013197F1F794
:105830000197D9F788EF0E94B72718E2812F8A9540
:105840000000E9F780E20E94B72780E00E94B727B6
:10585000812F8A950000E9F780E00E94B72780E851
:105860000E94B727812F8A950000E9F780E00E9407
:10587000B72780E10E94B727812F8A950000E9F7BA
:10588000CE010197F1F7CE010197F1F7CE01019713
:10589000F1F7CE010197F1F7CE010197F1F7CE01B3
:1058A0000197F1F7CE010197F1F7CE010197F1F7DA
:1058B000CE010197F1F7CE010197F1F7CE010197E3
:1058C000F1F7CE010197F1F7CE010197F1F7CE0183
:1058D0000197F1F72197F1F780E20E94B72780E462
:1058E0000E94B727812F8A950000E9F780E20E9485
:1058F000B72780E60E94B7271A950000E9F710E065
:10590000D0E0C8E28D2F807780680E94B727812F72
:105910000E94B7278C2F8A950000E9F780E80E9443
:10592000B72780E00E94B7278C2F8A950000E9F7FF
:105930008AEF0E94B7278C2F8A950000E9F780E252
:10594000139800000000179800000000139A000050
:105950000000139800000000179800000000139A40
:1059600000000000139800000000179800000000DD
:10597000139A000000001398000000001798000020
:105980000000139A00000000139800000000179810
:1059900000000000139A00000000139800000000AF
:1059A000179800000000139A0000000013980000F0
:1059B0000000179800000000139A000000001398E0
:1059C00000000000179800000000139A000000007B
:1059D000139800000000179800000000139A0000C0
:1059E0000000139800000000179800000000139AB0
:1059F000000000001398000000001798000000004D
:105A0000139A00000000139800000000179800008F
:105A10000000139A0000000013980000000017987F
:105A200000000000139A000000001398000000001E
:105A3000179800000000139A00000000139800005F
:105A40000000179800000000139A0000000013984F
:105A500000000000179800000000139A00000000EA
:105A60009C2F9A950000E9F7815009F069CF88EFE3
:105A70000E94B7278C2F8A950000E9F7DF5F105F3F
:105A8000D03209F03FCF80E00E94B72780EC0E941F
:105A9000B727CA950000E9F7159881E061CED801D3
:105AA00015968C91888381E05BCEF8018181888393
:105AB000FACFB901C8010F94EC1681E051CE443100
:105AC00071F0473109F08CCE1882F8018281898308
:105AD000858181508A8383818B8381E041CED80187
