:100000000C94B33A0C94F33A0C94F33A0C94F33AFC
:100010000C94F33A0C94F33A0C94F33A0C94F33AAC
:100020000C94F33A0D94AA790D94AA790D94AA79B7
:100030000C94F33A0D9428710C94F33A0C94F33A1F
:100040000C94F33A0C9497C10C94F33A0C94F33A51
:100050000C94F33A0C94F33A0C941FBA0D94607913
:100060000C94F33A0C94226F0C94186F0C94F33A9E
:100070000C94F33A0C94F33A0C94F33A0C94F33A4C
:100080000C94F33A0C94F33A0C94F33A0C94F33A3C
:100090000C94F33A0C94F33A0C94F33A0C94F33A2C
:1000A0000C94F33A0C94F33A0C94F33A0C94F33A1C
:1000B0000C94F33A0C94F33A0C94F33A0C94F33A0C
:1000C0000C94F33A0C94F33A0C94F33A0C94F33AFC
:1000D0000C94F33A0C94F33A0C94F33A0C94F33AEC
:1000E0000C94F33A084AD73B3BCE016E84BCBFFD6B
:1000F000C12F3D6C74319ABD56833DDA3D00C77FF8
:1001000011BED9E4BB4C3E916BAAAABE0000008090
:100110003F05A84CCDB2D44EB93836A9020C50B91F
:10012000918688083CA6AAAA2ABE000000803F0744
:10013000634236B79BD8A71A39685618AEBAAB5582
:100140008C1D3CB7CC5763BD6DEDFD753EF6177247
:1001500031BF000000803F08000000BE9224491219
:100160003EABAAAA2ABECDCCCC4C3E00000080BE3D
:10017000ABAAAAAA3E00000000BF000000803F001A
:1001800000000000084178D3BB4387D1133D190E0E
:100190003CC3BD4282AD2B3E68EC8276BED98FE176
:1001A000A93E4C80EFFFBE01C4FF7F3F000000006E
:1001B00000000D94D8150C942D500D943D110C9405
:1001C000B64F0C9463670C94CD800D94CC2D0C9499
:1001D000C64E0D9418710D94BB0E0C9400830D94B3
:1001E000B97E0C943E850C94C6820C94E6810C94E6
:1001F000884F0D94480D0D94C60D0D94B33E0D948B
:10020000A82D0C949B820D9439110C94B6850C94F6
:10021000AFEA0C94CD7F0C94ADF50C94F4830D945F
:100220001E710D94F31D0C94E57F0C9415800C94B5
:1002300011500C9474840D94E3700D94E0540C945C
:10024000B74E0C9475850D941D570D94C90D0C94E3
:1002500083840C94A8810D9413170C94F5EB0D94E2
:10026000501E0C942F820D94200B0C9472820C94CF
:1002700015810D94DC550D94980D0C942E670C94FB
:100280002F7F0D94080D0D9410710C94FD800D942A
:10029000040F0D941C180D9456110C94F8AA0D948B
:1002A000E9220D94FC0E0D94550E0C94B4800C9420
:1002B00008670C940C4F0C9418500D94B40E0C94C9
:1002C00040670D94CC7E0C94BF4E0D948B160C940D
:1002D000AA4F0D94AD2A0C94A4800C945A820C94CD
:1002E0005B4F0C943F7F0C94134F0C94E84F0C948D
:1002F000BC4F0D94BE7E0D9432160D9464160C9472
:100300007D800D94D0150C942F850D94B42D0D94F3
:10031000EA0A0D94900E0C9420850C94D7820D94CB
:10032000F40C0C94BD830C9432810D9483540C9482
:10033000354F0C945D420D94AC0C0C9423500D94ED
:10034000EE160C94DB4E0D94DF4E0C94D6810C947B
:1003500055800C94304F0C94BAB10C9466820D9475
:10036000F8700C94A0840C94FFAA0D94311E0C9488
:10037000F1B00D9457560D945E110D94E6100D9446
:1003800022710C9411B20D9492350C941D500D9461
:100390006B540C940C850C943B820D94E8720D9474
:1003A000DD0A0C94C7810C9454670C94B14F0C94E3
:1003B00082810D94AE2D0C942A820C94E3820D94CC
:1003C000DE0E0D943B110C94BA820D94E50E0C9444
:1003D00027AE0C9498B50D9419160C9492B50D9403
:1003E000A10E0D94070B0C944C4F0C941C670C94AD
:1003F000F3830D94D1700C94727F0C9403670D9469
:1004000083160D94D70E0C9447B20C946E800D9405
:100410003F110C9409500D943E0D0D94FC550D9414
:10042000A3500C9461850C94A24F0D9433110C943D
:10043000C64F0C9402520C94857F0D94560E0C946A
:1004400082830C9404AE0C948C800D94D22D0D9468
:100450006A0D0C945B7F0C94FF830C9446800C9483
:1004600028800D94FC2C0C9488B50D941B0F0C94D3
:1004700006820C9428500C94FD7F0C94A47F0C945D
:10048000F6810C947E860D94F2700C9494800C94FA
:100490002F860C94B9840C94DC830C9470850C9496
:1004A00077670D94810D0D94E4550C94A2850C94FE
:1004B00060840D94D82D0C94CDAC0C94377F0D94A2
:1004C000E42D0C94FB4F0C9437800C9412670C9421
:1004D0009D4F0C942D810C949D4E0C945A860C9437
:1004E000414F0D94A3290C940C500C9492840D94BC
:1004F000EB700C94FB820C94AE820C947EFA0C94FC
:100500002D4F0C94EE840D94CF770D94200F0C9406
:10051000677F0C9402F80D94D40C0C9420840D94F5
:10052000BA2D0D9402710D94F72C0D94D67E0C9477
:10053000DD800D942A0D0C94B07F0D94EC0E0C947C
:10054000FE660D940A710D9419540D942A0F0C94A3
:10055000E54E0C9441830D9462110D9423110C947B
:1005600011850D94E7700D94224D0D9472560C94E4
:10057000EF820C94CB4E0C9405EE0D9477140C94F2
:1005800015840C9421810D94560D0C9426670C94BF
:10059000FD840C9495670C94BFB10D9437110C94A5
:1005A000BA4E0C944EFC0C944A670C94ED800D945A
:1005B0001E190D94CC700C94C87F0C947FB20D94CE
:1005C0009F150C9409810C94A94E0C949D7F0C945A
:1005D000964E0D94004E0D9406710C9404500D949B
:1005E00015140C94C4800D942D110D942D530C945E
:1005F00009B50C946F4E0C94514F0D94160F0C943A
:10060000CDB40D94F40E0C941E820C94E9830D94D9
:10061000160D0C9412820D9477380C94284F0C947C
:100620006E810D94A22D0C94C14F0C94C4860C9431
:10063000797F0C94A7820C94C5850C944F7F0C9401
:100640006FF90D9414710C94E8EC0D9431110C9425
:10065000C8840C9450840D94B5490C945F800D941B
:10066000134C0D94F6540C9467840C9481670C948D
:1006700053FD0D94C2330C944AB30D94AF0D0D94F9
:10068000EC130C9436670C94B24E0D94FC700C94E1
:10069000D64E0D9455150C9443850C948F820C9472
:1006A0005A810C94D14E0C9495810D9418480D9458
:1006B000BA0A0C94814F0D940C860C9404860C9409
:1006C000A54F0C94BC7F0D9471560C9452850C94DC
:1006D00046810D94EF700C94B4EE0C9458840C94F5
:1006E000474F0C94A7850C94D7840C9476EA0C940D
:1006F00053820C942EAE0C94A1860D9435110D945A
:10070000C02F0C9447820C94AEAB0D94CF300C9458
:10071000917F0D94AF150D9423390C94D9850D94C8
:10072000C02D0D94C00C0C9484850D94121E0D9454
:10073000620F0D9435560D9412560D94DE2D0D94C6
:100740004E100D941B570D9484540C9483820D9479
:10075000FE0A0D9480280C94DF840C946D670D9430
:10076000DE0C0D9491160C94D4E70C9485B20C9485
:10077000D2820C948DB50D94012D0C94AA840C9406
:10078000D4850D944B160D9425320D94523A0D9448
:10079000A92E0C94BB810D945A110D9400160C9443
:1007A000EF4F0C94A5400D94D00E0D949A0E0C941E
:1007B000E8860C940A840D94C62D0C94467F0C9404
:1007C000944F0C947E820C9469B00D94EB160C94AB
:1007D0001F4F0D94250F0C943C4F0D94C37E0D9428
:1007E000684A0C9493850D9458100C948B670C9464
:1007F000D04F4E414E494E495459494E46CDCCCC2E
:100800003D0AD7233C17B7D13877CC2B329595E6E4
:10081000241FB14F0A000020410000C84200401CC4
:100820004620BCBE4CCA1B0E5AAEC59D7400407A11
:1008300010F35A00A0724E18090010A5D4E8000069
:10084000E87648170000E40B54020000CA9A3B0007
:100850000000E1F505000080969800000040420F7E
:10086000000000A08601000000102700000000E842
:1008700003000000006400000000000A0000000007
:10088000000100000000002C76D888DC674F0823A8
:10089000DFC1DFAE59E1B1B796E5E3E453C63AE60E
:1008A00051997696E8E6C28426EB898C9B62ED40EE
:1008B0007C6FFCEFBC9C9F40F2BAA56FA5F490053D
:1008C0005A2AF75C936B6CF9676DC11BFCE0E40D71
:1008D00047FEF520E6B500D0ED902E030094357765
:1008E000050080841E080000204E0A000000C80C8D
:1008F000333333330F986E12831141EF8D211489F6
:100900003BE65516CFFEE6DB18D1844B381BF77C4F
:100910001D901DA4BBE424203284725E228100C994
:10092000F124ECA1E53D27A0095072696E7465724F
:100930002073746F707065642064756520746F2017
:100940006572726F72732E20466978207468652014
:100950006572726F7220616E6420757365204D3907
:10096000393920746F20726573746172742E202877
:1009700054656D706572617475726520697320725B
:10098000657365742E2053657420697420616674E4
:1009900065722072657374617274696E67290A00EA
:1009A000363726033C3D380E2E303E121A1C180AEC
:1009B0000743090844000170012C0190012701B090
:1009C000012201C0011D01F00118011002130130C4
:1009D000020E016002090190020401C002FF000042
:1009E00003FA004003F5008003F000D003EB002081
:1009F00004E6007004E100E004DC004005D700C01C
:100A000005D2004006CD00D006C8008007C30030E4
:100A100008BE00F008B900C009B400B00AAF00B0C9
:100A20000BAA00D00CA500000EA000500F9B00C028
:100A30001096005012910000148C00C0158700B071
:100A4000178200B0197D00D01B7800001E73004093
:100A5000206E0090226900F024640040275F00901F
:100A6000295A00E02B5500102E500020304B00106A
:100A7000324600E033410090353C001037370070BB
:100A8000383200A0392D00B03A2800A03B23006086
:100A90003C1E00103D1900903D1400103E0F0070E8
:100AA0003E0A00C03E0500003F0000403FFBFF80C3
:100AB0003FF6FFC03FF1FF24F404D9201BC40C5CB7
:100AC0000E9804C4095F0265077101F405F900FB83
:100AD00004B30048048700C10369005803550003AC
:100AE000034500BE023A008402310053022A002965
:100AF00002250004022000E4011C00C8011900AF17
:100B000001170098011400840113007101100061A5
:100B100001100051010E0043010D0036010B002BA6
:100B2000010B0020010B00150109000C0109000355
:100B3000010800FB000800F3000800EB000700E4D8
:100B4000000600DE000600D8000600D2000600CC39
:100B5000000500C7000500C2000500BD000400B983
:100B6000000400B5000400B1000400AD000400A9B9
:100B7000000400A5000300A20003009F0004009BE6
:100B8000000300980003009500020093000300900A
:100B90000003008D0002008B000300880002008625
:100BA00000020084000300810002007F0002007D3B
:100BB0000002007B0002007900020077000100764D
:100BC0000002007400020072000100710002006F58
:100BD0000002006D0001006C0002006A0001006963
:100BE000000200670001006600010065000100646A
:100BF0000002006200010061000100600001005F6E
:100C00000002005D0001005C0001005B0001005A71
:100C10000001005900010058000100570001005672
:100C20000001005500010054000100530000005372
:100C30000001005200010051000100500001004F6E
:100C40000001004E0000004E0001004D0001004C6C
:100C50000001004B0000004B0001004A0001004968
:100C60000001004800000048000100470001004664
:100C7000000000460001004500000045000100445E
:100C80000001004300000043000100420000004258
:100C90000001004100000041000100400001003F50
:100CA0000000003F0001003E0000003E0001003D4A
:100CB0000000003D0001003C0000003C0000003C42
:100CC0000001003B0000003B0001003A0000003A38
:100CD0000001003900000039000100380000003830
:100CE0000000003800010037000000370001003626
:100CF000000000360000003600010035000000351D
:100D00000000003500010034000000340000003411
:100D10000001003300000033000000330001003206
:100D200000000032000000320001003100000031FC
:100D300000000031000100300000003000000030F1
:100D40000001002F0000002F0000002F0000002FE6
:100D50000001002E0000002E0000002E0001002DDA
:100D60000000002D0000002D0000002D0001002CCF
:100D70000000002C0000002C0000002C0001002BC3
:100D80000000002B0000002B0000002B0001002AB7
:100D90000000002A0000002A0000002A00010029AB
:100DA000000000290000002900000029000000299F
:100DB0000001002800000028000000280000002892
:100DC0000000002800010027000000270000002785
:100DD0000000002700000027000100260000002678
:100DE000000000260000002600000026000100256B
:100DF000000000250000002500000025000000255F
:100E00000000002500010024000000240000002450
:100E10000000002400000024000100230000002343
:100E20000000002300000023000000230000002336
:100E30000000002300010022000000220000002228
:100E4000000000220000002200000022000100211A
:100E5000000000210000002100000021000000210E
:100E600000000021000000210001002000000020FF
:100E700000000020000000200000002000000020F2
:100E800000000020000000200001001F0000001FE3
:100E90000000001F0000001F0000001F0000001FD6
:100EA0000000001F0001001E0000001E0000001EC8
:100EB0000000001E00000024F4D43050C38E20C275
:100EC000A24017828B7011127A910D816CD90AA8F9
:100ED00061E108C7586607615143061E4B5D05C1B5
:100EE00045A7041A411104093D98037139310340A3
:100EF00036DB0265339102D4305402802E1D02632A
:100F00002CEE01752AC501B028A001102781018FA0
:100F10002564012B244B01E0223401AC211F018DFB
:100F2000200D01801FFC00841EED00971DDF00B81E
:100F30001CD200E61BC600201BBC00641AB200B223
:100F400019A8000A19A0006A189900D11791004049
:100F5000178B00B516840031167E00B31579003A60
:100F6000157300C7146F0058146A00EE13660088EA
:100F700013630025135E00C7125B006C1257001547
:100F8000125400C111510070114F0021114B00D6B5
:100F90001049008D1047004610440002104200C066
:100FA0000F4000800F3E00420F3C00060F3B00CB7D
:100FB0000E3800930E37005C0E3500270E3400F318
:100FC0000D3200C10D3100900D3000600D2E003249
:100FD0000D2D00050D2C00D90C2B00AE0C29008521
:100FE0000C29005C0C2700350C27000E0C2600E8AD
:100FF0000B2400C40B2400A00B23007D0B23005AFC
:101000000B2100390B2100180B2000F80A1F00D912
:101010000A1E00BB0A1E009D0A1D00800A1D0063F7
:101020000A1C00470A1B002C0A1B00110A1A00F7B1
:10103000091A00DD091900C4091900AB0919009249
:101040000917007B091800630917004C09160036C0
:10105000091600200916000A091500F5081500E018
:10106000081400CC081400B8081400A40814009058
:101070000813007D0812006B081300580812004680
:101080000812003408110023081100120811000191
:10109000081100F0071000E0071000D0071000C092
:1010A000071000B0070F00A107100091070E008382
:1010B000070F0074070F0065070E0057070E004961
:1010C000070E003B070D002E070E0020070D001332
:1010D000070D0006070D00F9060C00ED060D00E0F7
:1010E000060C00D4060C00C8060C00BC060C00B0B0
:1010F000060C00A4060B0099060C008D060B00825E
:10110000060B0077060B006C060B0061060A005701
:10111000060B004C060A0042060A0038060A002E9A
:10112000060A0024060A001A060A0010060900072B
:10113000060A00FD050900F4050900EB050900E2B7
:10114000050900D9050900D0050900C7050900BE39
:10115000050900B5050800AD050800A50509009CB6
:10116000050800940508008C050800840508007C2B
:10117000050800740508006C050700650508005D9A
:10118000050700560508004E050700470507004003
:1011900005080038050700310507002A0507002368
:1011A0000507001C050600160507000F05070008C7
:1011B00005060002050700FB040600F5040700EE23
:1011C000040600E8040600E2040700DB040600D57C
:1011D000040600CF040600C9040600C3040600BDCF
:1011E000040600B7040600B1040500AC040600A61E
:1011F000040600A00405009B040600950405009069
:101200000406008A04050085040500800406007AAF
:1012100004050075040500700405006B04050066F4
:10122000040500610405005C040500570405005234
:101230000405004D04050048040500430405003E74
:101240000404003A04050035040500300404002CB1
:1012500004050027040400230405001E0404001AEA
:1012600004040016040500110404000D0404000920
:101270000405000404040000040400FC030400F856
:10128000030400F4030400F0030400EC030400E88A
:10129000030400E4030400E0030400DC030400D8BA
:1012A000030400D4030400D0030400CC030400C8EA
:1012B000030300C503030024F404D9201BC40C5C01
:1012C0000E9804C4095F0265077101F405F900FB7B
:1012D00004B30048048700C10369005803550003A4
:1012E000034500BE023A008402310053022A00295D
:1012F00002250004022000E4011C00C8011900AF0F
:10130000011700980114008401130071011000619D
:1013100001100051010E0043010D0036010B002B9E
:10132000010B0020010B00150109000C010900034D
:10133000010800FB000800F3000800EB000700E4D0
:10134000000600DE000600D8000600D2000600CC31
:10135000000500C7000500C2000500BD000400B97B
:10136000000400B5000400B1000400AD000400A9B1
:10137000000400A5000300A20003009F0004009BDE
:101380000003009800030095000200930003009002
:101390000003008D0002008B00030088000200861D
:1013A00000020084000300810002007F0002007D33
:1013B0000002007B00020079000200770001007645
:1013C0000002007400020072000100710002006F50
:1013D0000002006D0001006C0002006A000100695B
:1013E0000002006700010066000100650001006462
:1013F0000002006200010061000100600001005F66
:101400000002005D0001005C0001005B0001005A69
:10141000000100590001005800010057000100566A
:10142000000100550001005400010053000000536A
:101430000001005200010051000100500001004F66
:101440000001004E0000004E0001004D0001004C64
:101450000001004B0000004B0001004A0001004960
:10146000000100480000004800010047000100465C
:101470000000004600010045000000450001004456
:101480000001004300000043000100420000004250
:101490000001004100000041000100400001003F48
:1014A0000000003F0001003E0000003E0001003D42
:1014B0000000003D0001003C0000003C0000003C3A
:1014C0000001003B0000003B0001003A0000003A30
:1014D0000001003900000039000100380000003828
:1014E000000000380001003700000037000100361E
:1014F0000000003600000036000100350000003515
:101500000000003500010034000000340000003409
:1015100000010033000000330000003300010032FE
:1015200000000032000000320001003100000031F4
:1015300000000031000100300000003000000030E9
:101540000001002F0000002F0000002F0000002FDE
:101550000001002E0000002E0000002E0001002DD2
:101560000000002D0000002D0000002D0001002CC7
:101570000000002C0000002C0000002C0001002BBB
:101580000000002B0000002B0000002B0001002AAF
:101590000000002A0000002A0000002A00010029A3
:1015A0000000002900000029000000290000002997
:1015B000000100280000002800000028000000288A
:1015C000000000280001002700000027000000277D
:1015D0000000002700000027000100260000002670
:1015E0000000002600000026000000260001002563
:1015F0000000002500000025000000250000002557
:101600000000002500010024000000240000002448
:10161000000000240000002400010023000000233B
:10162000000000230000002300000023000000232E
:101630000000002300010022000000220000002220
:101640000000002200000022000000220001002112
:101650000000002100000021000000210000002106
:1016600000000021000000210001002000000020F7
:1016700000000020000000200000002000000020EA
:1016800000000020000000200001001F0000001FDB
:101690000000001F0000001F0000001F0000001FCE
:1016A0000000001F0001001E0000001E0000001EC0
:1016B0000000001E00000024F4D43050C38E20C26D
:1016C000A24017828B7011127A910D816CD90AA8F1
:1016D00061E108C7586607615143061E4B5D05C1AD
:1016E00045A7041A411104093D980371393103409B
:1016F00036DB0265339102D4305402802E1D026322
:101700002CEE01752AC501B028A001102781018F98
:101710002564012B244B01E0223401AC211F018DF3
:10172000200D01801FFC00841EED00971DDF00B816
:101730001CD200E61BC600201BBC00641AB200B21B
:1017400019A8000A19A0006A189900D11791004041
:10175000178B00B516840031167E00B31579003A58
:10176000157300C7146F0058146A00EE13660088E2
:1017700013630025135E00C7125B006C125700153F
:10178000125400C111510070114F0021114B00D6AD
:101790001049008D1047004610440002104200C05E
:1017A0000F4000800F3E00420F3C00060F3B00CB75
:1017B0000E3800930E37005C0E3500270E3400F310
:1017C0000D3200C10D3100900D3000600D2E003241
:1017D0000D2D00050D2C00D90C2B00AE0C29008519
:1017E0000C29005C0C2700350C27000E0C2600E8A5
:1017F0000B2400C40B2400A00B23007D0B23005AF4
:101800000B2100390B2100180B2000F80A1F00D90A
:101810000A1E00BB0A1E009D0A1D00800A1D0063EF
:101820000A1C00470A1B002C0A1B00110A1A00F7A9
:10183000091A00DD091900C4091900AB0919009241
:101840000917007B091800630917004C09160036B8
:10185000091600200916000A091500F5081500E010
:10186000081400CC081400B8081400A40814009050
:101870000813007D0812006B081300580812004678
:101880000812003408110023081100120811000189
:10189000081100F0071000E0071000D0071000C08A
:1018A000071000B0070F00A107100091070E00837A
:1018B000070F0074070F0065070E0057070E004959
:1018C000070E003B070D002E070E0020070D00132A
:1018D000070D0006070D00F9060C00ED060D00E0EF
:1018E000060C00D4060C00C8060C00BC060C00B0A8
:1018F000060C00A4060B0099060C008D060B008256
:10190000060B0077060B006C060B0061060A0057F9
:10191000060B004C060A0042060A0038060A002E92
:10192000060A0024060A001A060A00100609000723
:10193000060A00FD050900F4050900EB050900E2AF
:10194000050900D9050900D0050900C7050900BE31
:10195000050900B5050800AD050800A50509009CAE
:10196000050800940508008C050800840508007C23
:10197000050800740508006C050700650508005D92
:10198000050700560508004E0507004705070040FB
:1019900005080038050700310507002A0507002360
:1019A0000507001C050600160507000F05070008BF
:1019B00005060002050700FB040600F5040700EE1B
:1019C000040600E8040600E2040700DB040600D574
:1019D000040600CF040600C9040600C3040600BDC7
:1019E000040600B7040600B1040500AC040600A616
:1019F000040600A00405009B040600950405009061
:101A00000406008A04050085040500800406007AA7
:101A100004050075040500700405006B04050066EC
:101A2000040500610405005C04050057040500522C
:101A30000405004D04050048040500430405003E6C
:101A40000404003A04050035040500300404002CA9
:101A500004050027040400230405001E0404001AE2
:101A600004040016040500110404000D0404000918
:101A70000405000404040000040400FC030400F84E
:101A8000030400F4030400F0030400EC030400E882
:101A9000030400E4030400E0030400DC030400D8B2
:101AA000030400D4030400D0030400CC030400C8E2
:101AB000030300C503030024F404D9201BC40C5CF9
:101AC0000E9804C4095F0265077101F405F900FB73
:101AD00004B30048048700C103690058035500039C
:101AE000034500BE023A008402310053022A002955
:101AF00002250004022000E4011C00C8011900AF07
:101B00000117009801140084011300710110006195
:101B100001100051010E0043010D0036010B002B96
:101B2000010B0020010B00150109000C0109000345
:101B3000010800FB000800F3000800EB000700E4C8
:101B4000000600DE000600D8000600D2000600CC29
:101B5000000500C7000500C2000500BD000400B973
:101B6000000400B5000400B1000400AD000400A9A9
:101B7000000400A5000300A20003009F0004009BD6
:101B800000030098000300950002009300030090FA
:101B90000003008D0002008B000300880002008615
:101BA00000020084000300810002007F0002007D2B
:101BB0000002007B0002007900020077000100763D
:101BC0000002007400020072000100710002006F48
:101BD0000002006D0001006C0002006A0001006953
:101BE000000200670001006600010065000100645A
:101BF0000002006200010061000100600001005F5E
:101C00000002005D0001005C0001005B0001005A61
:101C10000001005900010058000100570001005662
:101C20000001005500010054000100530000005362
:101C30000001005200010051000100500001004F5E
:101C40000001004E0000004E0001004D0001004C5C
:101C50000001004B0000004B0001004A0001004958
:101C60000001004800000048000100470001004654
:101C7000000000460001004500000045000100444E
:101C80000001004300000043000100420000004248
:101C90000001004100000041000100400001003F40
:101CA0000000003F0001003E0000003E0001003D3A
:101CB0000000003D0001003C0000003C0000003C32
:101CC0000001003B0000003B0001003A0000003A28
:101CD0000001003900000039000100380000003820
:101CE0000000003800010037000000370001003616
:101CF000000000360000003600010035000000350D
:101D00000000003500010034000000340000003401
:101D100000010033000000330000003300010032F6
:101D200000000032000000320001003100000031EC
:101D300000000031000100300000003000000030E1
:101D40000001002F0000002F0000002F0000002FD6
:101D50000001002E0000002E0000002E0001002DCA
:101D60000000002D0000002D0000002D0001002CBF
:101D70000000002C0000002C0000002C0001002BB3
:101D80000000002B0000002B0000002B0001002AA7
:101D90000000002A0000002A0000002A000100299B
:101DA000000000290000002900000029000000298F
:101DB0000001002800000028000000280000002882
:101DC0000000002800010027000000270000002775
:101DD0000000002700000027000100260000002668
:101DE000000000260000002600000026000100255B
:101DF000000000250000002500000025000000254F
:101E00000000002500010024000000240000002440
:101E10000000002400000024000100230000002333
:101E20000000002300000023000000230000002326
:101E30000000002300010022000000220000002218
:101E4000000000220000002200000022000100210A
:101E500000000021000000210000002100000021FE
:101E600000000021000000210001002000000020EF
:101E700000000020000000200000002000000020E2
:101E800000000020000000200001001F0000001FD3
:101E90000000001F0000001F0000001F0000001FC6
:101EA0000000001F0001001E0000001E0000001EB8
:101EB0000000001E00000024F4D43050C38E20C265
:101EC000A24017828B7011127A910D816CD90AA8E9
:101ED00061E108C7586607615143061E4B5D05C1A5
:101EE00045A7041A411104093D9803713931034093
:101EF00036DB0265339102D4305402802E1D02631A
:101F00002CEE01752AC501B028A001102781018F90
:101F10002564012B244B01E0223401AC211F018DEB
:101F2000200D01801FFC00841EED00971DDF00B80E
:101F30001CD200E61BC600201BBC00641AB200B213
:101F400019A8000A19A0006A189900D11791004039
:101F5000178B00B516840031167E00B31579003A50
:101F6000157300C7146F0058146A00EE13660088DA
:101F700013630025135E00C7125B006C1257001537
:101F8000125400C111510070114F0021114B00D6A5
:101F90001049008D1047004610440002104200C056
:101FA0000F4000800F3E00420F3C00060F3B00CB6D
:101FB0000E3800930E37005C0E3500270E3400F308
:101FC0000D3200C10D3100900D3000600D2E003239
:101FD0000D2D00050D2C00D90C2B00AE0C29008511
:101FE0000C29005C0C2700350C27000E0C2600E89D
:101FF0000B2400C40B2400A00B23007D0B23005AEC
:102000000B2100390B2100180B2000F80A1F00D902
:102010000A1E00BB0A1E009D0A1D00800A1D0063E7
:102020000A1C00470A1B002C0A1B00110A1A00F7A1
:10203000091A00DD091900C4091900AB0919009239
:102040000917007B091800630917004C09160036B0
:10205000091600200916000A091500F5081500E008
:10206000081400CC081400B8081400A40814009048
:102070000813007D0812006B081300580812004670
:102080000812003408110023081100120811000181
:10209000081100F0071000E0071000D0071000C082
:1020A000071000B0070F00A107100091070E008372
:1020B000070F0074070F0065070E0057070E004951
:1020C000070E003B070D002E070E0020070D001322
:1020D000070D0006070D00F9060C00ED060D00E0E7
:1020E000060C00D4060C00C8060C00BC060C00B0A0
:1020F000060C00A4060B0099060C008D060B00824E
:10210000060B0077060B006C060B0061060A0057F1
:10211000060B004C060A0042060A0038060A002E8A
:10212000060A0024060A001A060A0010060900071B
:10213000060A00FD050900F4050900EB050900E2A7
:10214000050900D9050900D0050900C7050900BE29
:10215000050900B5050800AD050800A50509009CA6
:10216000050800940508008C050800840508007C1B
:10217000050800740508006C050700650508005D8A
:10218000050700560508004E0507004705070040F3
:1021900005080038050700310507002A0507002358
:1021A0000507001C050600160507000F05070008B7
:1021B00005060002050700FB040600F5040700EE13
:1021C000040600E8040600E2040700DB040600D56C
:1021D000040600CF040600C9040600C3040600BDBF
:1021E000040600B7040600B1040500AC040600A60E
:1021F000040600A00405009B040600950405009059
:102200000406008A04050085040500800406007A9F
:1022100004050075040500700405006B04050066E4
:10222000040500610405005C040500570405005224
:102230000405004D04050048040500430405003E64
:102240000404003A04050035040500300404002CA1
:1022500004050027040400230405001E0404001ADA
:1022600004040016040500110404000D0404000910
:102270000405000404040000040400FC030400F846
:10228000030400F4030400F0030400EC030400E87A
:10229000030400E4030400E0030400DC030400D8AA
:1022A000030400D4030400D0030400CC030400C8DA
:1022B000030300C503030070012C0190012701B046
:1022C000012201C0011D01F00118011002130130AB
:1022D000020E016002090190020401C002FF000029
:1022E00003FA004003F5008003F000D003EB002068
:1022F00004E6007004E100E004DC004005D700C003
:1023000005D2004006CD00D006C8008007C30030CB
:1023100008BE00F008B900C009B400B00AAF00B0B0
:102320000BAA00D00CA500000EA000500F9B00C00F
:102330001096005012910000148C00C0158700B058
:10234000178200B0197D00D01B7800001E7300407A
:10235000206E0090226900F024640040275F009006
:10236000295A00E02B5500102E500020304B001051
:10237000324600E033410090353C001037370070A2
:10238000383200A0392D00B03A2800A03B2300606D
:102390003C1E00103D1900903D1400103E0F0070CF
:1023A0003E0A00C03E0500003F0000403FFBFF80AA
:1023B0003FF6FFC03FF1FF5A5F6D6F76655F636F59
:1023C0006D700A00616C736F20656E61626C65648C
:1023D000290A00206E6F742064697361626C656401
:1023E0002E205368617265642077697468002E0A34
:1023F00000473238580047323859004732385A00BF
:102400004D38340047323950345254004732395035
:102410003454004732380A47323643504930004777
:1024200032380A47323643504931004732394A3050
:102430000047323950335430004732395032425419
:1024400030004732380A4D31393049300A4D313089
:102450003949300A47323950310A4D31303453301E
:102460000A4D3134305330004732380A4D3139305B
:1024700049310A4D31303949310A47323950310A30
:102480004D31303453300A4D3134305330004732FF
:10249000394E5031004732395031430047323949C3
:1024A000004732395430004732395431004732390D
:1024B000532D3100473239493939390A47323950B9
:1024C00032425430004732394E5031004732395091
:1024D0003354300047323950345254004732395067
:1024E00034525400473239440047323941004732B0
:1024F0003957003E3E3E207365745F617869735FB3
:102500006E657665725F686F6D65642800290A00E4
:102510003C3C3C207365745F617869735F6E6576DF
:1025200065725F686F6D65642800290A0009000004
:102530000A010008000A01000A090000000A000858
:10254000004C4556454C494E4700434F4D4D554E66
:1025500049434154494F4E0044525952554E00454B
:1025600052524F525300494E464F004543484F0088
:102570004572726F722077726974696E6720746F2A
:1025800020454550524F4D210A00414E4745484194
:102590004C54454E005072696E7465722073746FAE
:1025A000707065642064756520746F206572726F49
:1025B00072732E2046697820746865206572726F88
:1025C0007220616E6420757365204D39393920742D
:1025D0006F20726573746172742E202854656D705B
:1025E00065726174757265206973207265736574B4
:1025F0002E205365742069742061667465722072A0
:10260000657374617274696E67290A004E6F2043A6
:102610006865636B73756D2077697468206C696E8B
:1026200065206E756D6265722C204C617374204C50
:10263000696E653A2000636865636B73756D206D24
:1026400069736D617463682C204C617374204C69EC
:102650006E653A20004C696E65204E756D6265723C
:10266000206973206E6F74204C617374204C696E06
:1026700065204E756D6265722B312C204C61737430
:10268000204C696E653A20004D313130005365723F
:1026900069616C20737461747573206D69736D6109
:1026A0007463680A002121204B494C4C20636175FA
:1026B000736564206279204B494C4C2062757474B8
:1026C0006F6E2F70696E0A002121204B494C4C20FF
:1026D00063617573656420627920746F6F206D7516
:1026E000636820696E6163746976652074696D65DD
:1026F000202D2063757272656E7420636F6D6D613D
:102700006E643A2000627573793A20706175736562
:102710006420666F7220696E7075740A006275734A
:10272000793A2070617573656420666F72207573E5
:1027300065720A00627573793A2070726F6365730F
:1027400073696E670A004269747465206E657573FB
:1027500074617274656E00445255434B4552204774
:102760004553544F5050540025533A2025530041AF
:1027700042474542524F4348454E005072696E747D
:1027800065722068616C7465642E206B696C6C28BE
:10279000292063616C6C6564210A006563686F3A87
:1027A000004572726F723A004F4646004F4E006607
:1027B000616C736500747275650029203D3E2000D0
:1027C0002C20006765745F7A5F636F727265637453
:1027D000696F6E28003F3F3F2059696B6573212068
:1027E0004E414E20696E200A00303D2E33323500B6
:1027F000313D2E3138006D6178002F3331002F3399
:1028000031002F333100303D2E33323500313D2E33
:102810003138006D6178002F3331002F3331002FB4
:10282000333100303D2E33323500313D2E3138000A
:102830006D6178002F3331002F3331002F33310099
:10284000303D2E33323500313D2E3138006D617808
:10285000002F3331002F3331002F33310009204254
:10286000616420726573706F6E7365210009204288
:10287000616420726573706F6E7365210009204278
:10288000616420726573706F6E7365210009204268
:10289000616420726573706F6E736521004C4F57D1
:1028A0000048494748004F4B004572726F723A200A
:1028B000416C6C200020636F6E6E656374696F6E8F
:1028C0002E2E2E200054657374696E6720004C4FC5
:1028D000570048494748004F4B004572726F723AA3
:1028E00020416C6C200020636F6E6E656374696FAD
:1028F0006E2E2E2E200054657374696E6720004C76
:102900004F570048494748004F4B004572726F725D
:102910003A20416C6C200020636F6E6E65637469B1
:102920006F6E2E2E2E200054657374696E67200022
:102930004C4F570048494748004F4B004572726F53
:10294000723A20416C6C200020636F6E6E65637478
:10295000696F6E2E2E2E200054657374696E672089
:1029600000544D432056657262696E64756E6773DC
:102970006665686C657200203A202E2E2E4E6F77A9
:10298000204F4E0A00202063757272656E745F706E
:102990006F736974696F6E3D00203A204C657665EF
:1029A0006C696E67204F46460A002020637572727C
:1029B000656E745F706F736974696F6E3D00203A65
:1029C000202E2E2E4E6F77204F46460A0020206381
:1029D000757272656E745F706F736974696F6E3D46
:1029E00000203A204C6576656C696E67204F4E0A70
:1029F00000202063757272656E745F706F73697406
:102A0000696F6E3D00204A0020204D34323120494C
:102A100000202047323920493939390A006163746E
:102A20006976650A00696E00002053797374656DDC
:102A30002076312E303120002020207C0A004E41AB
:102A40004E0020202E20202000207C0020666F7267
:102A500020004C43443A0A004353563A0A003A0ACB
:102A60000A000A42656420546F706F677261706873
:102A700079205265706F72740050726F62653A3AD5
:102A800070726F62655F646F776E5F746F5F7A00FC
:102A900020547269676765726564206561726C793C
:102AA0002E00204E6F20747269676765722E0020B9
:102AB00050726F6265206661696C21202D00534C55
:102AC0004F570050726F62653A3A72756E5F7A5F67
:102AD00070726F62650050726F62696E6720466146
:102AE000696C65640A0050726F62696E6720676581
:102AF00073636865697465727400205A3A20002017
:102B0000593A200042656420583A2000506F73699A
:102B100074696F6E204E6F742052656163686162E4
:102B20006C650A00203A200A0020206375727265E5
:102B30006E745F706F736974696F6E3D005F72656C
:102B40006C6174697665290A002C20002C20002C09
:102B500020002C20002E2E2E280050726F62653A25
:102B60003A70726F62655F61745F706F696E740056
:102B70004732384C3000446F6E652E0A003F496E74
:102B800076616C69642073746F7261676520736C21
:102B90006F742E0A3F557365203020746F20003FFC
:102BA000454550524F4D2073746F72616765206EBA
:102BB0006F7420617661696C61626C652E0A0044F5
:102BC0006F6E652E0A003F496E76616C69642073F2
:102BD000746F7261676520736C6F742E0A3F557352
:102BE00065203020746F20003F454550524F4D20E6
:102BF00073746F72616765206E6F742061766169AE
:102C00006C61626C652E0A004732392050322066B2
:102C1000696E69736865642E0A005859206F75746F
:102C200073696465207072696E7461626C6520728C
:102C300061646975732E0A003F4572726F72206974
:102C40006E20427573696E657373204361726420F0
:102C50006D6561737572656D656E742E0A004D61E8
:102C60006E75616C6C792070726F62696E67207529
:102C70006E726561636861626C6520706F696E7405
:102C8000732E0A00292E0A0A0050726F62696E675D
:102C90002061726F756E642028004D65736820692D
:102CA0006E76616C6964617465642E2050726F6227
:102CB000696E67206D6573682E0A004D6573682024
:102CC0007A65726F65642E0A0044656661756C747E
:102CD0002073746F7261676520736C6F742030208D
:102CE00073656C65637465642E0A004170706C795D
:102CF000696E672074657374207061747465726E98
:102D00002E0A0A003F496E76616C696420285129B9
:102D10002074657374207061747465726E2E20283F
:102D20003020746F2032290A0A0020696E76616CA7
:102D30006964617465642E0A0A004C6F636174698A
:102D40006F6E7300456E74697265204D657368001F
:102D50005374616E6461726420446576696174695C
:102D60006F6E3A20004D65616E204D657368204896
:102D700065696768743A200023206F662073616D6F
:102D8000706C65733A20000A4D657368206F6E6C35
:102D900079207061727469616C6C7920706F7075E4
:102DA0006C617465642E0A0A004D65737370756EEC
:102DB0006B740025532025692F2569002E0A002FEA
:102DC0000050726F62696E67206D65736820706F66
:102DD000696E74200020616E642074616B652061EF
:102DE000206D6561737572656D656E742E0A006D78
:102DF0006D20746869636B2E0A00427573696E6595
:102E0000737320436172642069732000456E746699
:102E100065726E656E2026206D657373656E005257
:102E2000656D6F7665207368696D00506C616365D0
:102E3000207368696D20756E646572206E6F7A7A92
:102E40006C65000A4D657368206F6E6C7920706147
:102E5000727469616C6C7920706F70756C617465E7
:102E6000642E0A004D65736820506F696E74204DA2
:102E7000656173757265642061743A20004D6573F5
:102E800073656E004D65617375726500556E74658E
:102E9000726C6567656E2026206D657373656E00C4
:102EA000506C616365205368696D2026204D656113
:102EB00073757265004EC3A46368737465722050A5
:102EC000756E6B742E2E2E004E65747A626561727B
:102ED000622E20616E6765682E00446F6E65204526
:102EE000646974696E67204D6573680A00426561A4
:102EF0007262656974756E67206265656E6465747B
:102F0000004665696E65696E7374656C6C756E6795
:102F10002E2E2E0028582C5929206F757473696441
:102F200065207072696E7461626C6520726164699B
:102F300075732E0A004F6666736574206F75742072
:102F40006F6620626F756E64732E20283020746F58
:102F50002031306D6D290A0A00496E76616C696412
:102F6000206D617020747970652E0A0A003F284632
:102F7000296164652068656967687420666F7220DE
:102F8000426564204C6576656C20436F72726563A0
:102F900074696F6E206E6F7420706C6175736962F6
:102FA0006C652E0A0A003F43616E277420616374CA
:102FB000697661746520616E64206465616374691B
:102FC00076617465206174207468652073616D6535
:102FD0002074696D652E0A0A00426F7468205820BB
:102FE000262059206C6F636174696F6E73206D7554
:102FF0007374206265207370656369666965642E09
:103000000A0A003F496E76616C69642067726964E0
:103010002073697A6520284A292073706563696680
:103020006965642028322D39292E0A0A003F28506C
:1030300029686173652076616C756520696E7661BB
:103040006C69642028302D36292E0A0A003F285644
:10305000296572626F7365206C6576656C20696D99
:10306000706C61757369626C652028302D34292E6F
:103070000A0A003F285229657065746974696F6E89
:1030800020636F756E7420696E76616C69642028A8
:10309000312B292E0A0A004732392061757366C325
:1030A000BC6872656E003C25372532252D255D0AEA
:1030B0000062656420706C616E65206E6F726D6178
:1030C0006C203D205B002020443D002020423D003C
:1030D0004C534620526573756C747320413D0072E9
:1030E0006F746174696F6E206D61747269783A0AE9
:1030F000005D0A00616674657220726F74617469A4
:103100006F6E203D205B005D2020202D2D2D3E2068
:10311000006265666F726520726F746174696F6EAC
:10312000203D205B005D0A0062656420706C616E6A
:1031300065206E6F726D616C203D205B00436F7582
:103140006C64206E6F7420636F6D706C65746520A5
:103150004C53462100436F727265637465645F5A15
:103160003D0020202066696E616C203E3E3E2D2D84
:103170002D3E2000202020636F7272656374696F9A
:103180006E3A2000292020206D6561737572656498
:103190003A2000292020206C6F676963616C3A2017
:1031A000280025532025692F2569000A0A002F00D1
:1031B00054696C74696E67206D65736820706F69FF
:1031C0006E7420003F4572726F722070726F626978
:1031D0006E6720706F696E742E2041626F72746921
:1031E0006E67206F7065726174696F6E2E0A00439E
:1031F0006F727265637465645F5A3D0025532033B6
:103200002F330054696C74696E67206D6573682094
:1032100028332F33290A00436F7272656374656423
:103220005F5A3D00255320322F330054696C746976
:103230006E67206D6573682028322F33290A00439A
:103240006F727265637465645F5A3D00426572C354
:10325000BC6872756E677370756E6B740025532051
:10326000312F330054696C74696E67206D65736823
:103270002028312F33290A00646F6E650A00496ED9
:1032800073756666696369656E7420646174610A4A
:10329000000000803F721CD741721C534256559D5E
:1032A00042721CD142C771024356551C43E4383662
:1032B00043721C504300006A430000803F721CD7D9
:1032C00041721C534256559D42721CD142C7710235
:1032D0004356551C43E4383643721C504300006A81
:1032E000434578747261706F6C6174696E67206DAC
:1032F0006573682E2E2E00290A002C79693D002C5A
:1033000078315F693D00206F7574206F6620626FB1
:10331000756E647320696E207A5F636F7272656385
:1033200074696F6E5F666F725F785F6F6E5F686FF4
:1033300072697A6F6E74616C5F6D6573685F6C69DA
:103340006E65287278303D0078315F6900796900D8
:10335000290A002C2079315F693D002C2078693DD5
:1033600000206F7574206F6620626F756E64732025
:10337000696E207A5F636F7272656374696F6E5FE6
:10338000666F725F795F6F6E5F7665727469636195
:103390006C5F6D6573685F6C696E65287279303D2E
:1033A0000078690079315F690047323620616267D1
:1033B0006562726F6368656E004732362044C3BC35
:1033C0007365206175666865697A656E0047323697
:1033D000206865697A742042657474005761697465
:1033E000696E6720666F72206865617475702E0A59
:1033F000004665737465204CC3A46E6765205072E7
:10340000696D65005072696D696E672066657274DA
:103410006967004D616E75656C6C205072696D65F1
:103420002E2E2E00473236207665726C61737365DE
:103430006E003F53706563696669656420582C5956
:1034400020636F6F7264696E617465206F7574209C
:103450006F6620626F756E64732E0A003F285229D2
:1034600065706561742076616C7565206E6F74207F
:10347000706C61757369626C653B206D7573742047
:103480006265206174206C6561737420312E0A00BE
:103490003F537065636966696564206E6F7A7A6C04
:1034A000652074656D7065726174757265206E6FEC
:1034B0007420706C61757369626C652E0A003F53ED
:1034C00070656369666965642066696C616D656EC7
:1034D000742073697A65206E6F7420706C617573E7
:1034E00069626C652E0A003F5370656369666965A1
:1034F00064207072696D65206C656E677468206EFB
:103500006F7420706C61757369626C652E0A003F80
:10351000537065636966696564206E6F7A7A6C655D
:103520002073697A65206E6F7420706C61757369A1
:10353000626C652E0A003F52657472616374696F34
:103540006E204D756C7469706C696572206D757351
:1035500074206265207370656369666965642E0A0C
:10356000003F5370656369666965642052657472D3
:10357000616374696F6E204D756C7469706C6965F8
:1035800072206E6F7420706C61757369626C652E49
:103590000A003F537065636966696564206C6179F0
:1035A000657220686569676874206E6F7420706C3E
:1035B00061757369626C652E0A0043292E0A003F0B
:1035C000537065636966696564206265642074652B
:1035D0006D7065726174757265206E6F7420706CA9
:1035E00061757369626C65202834302D004732366E
:1035F000207374617274696E672E2E2E0A004F4616
:10360000460A004661646520486569676874200061
:10361000426564204C6576656C696E672000466182
:10362000696C656420746F20656E61626C65204210
:103630006564204C6576656C696E670A00496E7634
:10364000616C6964206D6573682E0A0076616C692F
:10365000640A53746F7261676520736C6F743A20EB
:1036600000696E004D65736820697320003F5573D3
:1036700065203020746F20003F496E76616C69646C
:103680002073746F7261676520736C6F742E0A000B
:103690003F454550524F4D2073746F7261676520EE
:1036A0006E6F7420617661696C61626C652E0A00D0
:1036B0003E3E3E003C3C3C0020440020204D323049
:1036C00030205300202844697361626C6564293A94
:1036D0000046696C616D656E742073657474696E03
:1036E00067730020204D3230312058004D61782022
:1036F000416363656C65726174696F6E2028756ED5
:103700006974732F7332290020204D3230332058D2
:10371000004D617820666565647261746573202868
:10372000756E6974732F73290020520020204D326A
:103730003034205000416363656C65726174696F59
:103740006E2028756E6974732F7332292028503CBF
:103750007072696E742D616363656C3E20523C72B9
:103760006574726163742D616363656C3E20543CC3
:1037700074726176656C2D616363656C3E2900200F
:103780004A0020540020530020204D323035204282
:1037900000416476616E6365642028423C6D696E09
:1037A0005F7365676D656E745F74696D655F757372
:1037B0003E20533C6D696E5F666565647261746539
:1037C0003E20543C6D696E5F74726176656C5F6615
:1037D000656564726174653E204A3C6A756E635F1C
:1037E0006465763E290020440020490020204D33A6
:1037F0003031205000486F74656E64205049440099
:1038000020440020490020204D3330342050004215
:10381000656420504944004452565F535441545506
:1038200053090050574D5F5343414C4509005057D1
:103830004D434F4E460900434F4F4C434F4E4609B0
:103840000043484F50434F4E4609005448494748AB
:1038500009090054434F4F4C5448525309005450E7
:10386000574D5448525309005453544550090900C8
:1038700054504F574552444F574E0900494F494EF7
:10388000090900475354415409090049484F4C4421
:103890005F4952554E090047434F4E4609090009FA
:1038A0000044726976657220726567697374657227
:1038B000733A0A0073327673620900733276736169
:1038C00009003132304309003134334309003135C6
:1038D000304309003135374309006F7409006F74B4
:1038E00070770900733267610900733267620900FB
:1038F0006F6C6109006F6C62090073747374090066
:1039000073675F726573756C74004452565354410B
:1039100054555300755374657020636F756E740051
:103920005374616C6C6775617264207468727300A3
:10393000202D7374617274090068797374657265FF
:103940007369730A202D656E640900626C616E6B89
:103950002074696D65006F66662074696D6500701E
:10396000776D2067726164206175746F0070776D88
:10397000206F6666736574206175746F0070776D73
:10398000207363616C65206175746F0070776D20C2
:103990007363616C652073756D004F5420707265A0
:1039A0007761726E005B6D6D2F735D090050574D2E
:1039B000207468726573682E0074737465700900F2
:1039C000696E7465727009006D73746570730900B7
:1039D000737465616C746843686F70007673656EAC
:1039E0007365090050574D207363616C6500435344
:1039F0002061637475616C00486F6C64206375723C
:103A000072656E740052756E2063757272656E74A5
:103A1000004D41582063757272656E7400524D53AB
:103A20002063757272656E740053657420637572DD
:103A300072656E7400456E61626C65640900090010
:103A40003B200020496E76616C6964206578747251
:103A500075646572200047322F473320626164200D
:103A6000706172616D65746572730A00576172747A
:103A7000656E2E2E2E00202864697361626C656469
:103A8000290A0020280055424C2041646A7573744D
:103A90006D656E74205A005A20466164653A2000B4
:103AA0002028656E61626C6564290A0041626F7648
:103AB000650053616D65205A2061730042656C6F2B
:103AC00077004175746F20426564204C6576656CA3
:103AD000696E673A2055424C00204E6F7A7A6C65C9
:103AE000290A0020280050726F6265204F666673B5
:103AF0006574205830205930205A0050726F62652A
:103B00003A204E4F5A5A4C455F41535F50524F42F4
:103B1000450A004D616368696E6520547970653AA5
:103B20002043617274657369616E0A005A20507295
:103B30006F62652050617374204265640A005A2DDB
:103B4000536F6E6465206175C39F657268616C62B6
:103B500000203A20686F6D655F7A5F736166656CFF
:103B6000790A00202064657374696E6174696F6EF0
:103B70003D00686F6D655F7A5F736166656C7900A3
:103B80005261697365205A20286265666F726520EC
:103B9000686F6D696E672920627920003E20686F2A
:103BA0006D696E67206E6F74206E65656465642C48
:103BB00020736B69700A0047323800205A3A20009F
:103BC00020593A200042656420583A20004D657320
:103BD0006820706F696E74206F7574206F66207234
:103BE000616E67650A004B6C69636B207A756D20A6
:103BF000466F72747365747A656E004D6F746F7280
:103C0000656E20616E6765736368616C74657400CE
:103C10002569730025696D20256973002569682071
:103C200025696D2025697300256964202569682050
:103C300025696D202569730025697920256964202F
:103C40002569682025696D20256973005072696EA9
:103C5000742074696D653A20006F6B006F666600B2
:103C60006B2566255F2558254A2541254445425543
:103C7000473A004D3131322053687574646F776E66
:103C8000004D313133205300456E6465722D332071
:103C90004F46462E002F2F004D31343520533C69BE
:103CA0006E6465783E206F7574206F662072616E59
:103CB00067652028302D31290A003F4A206F75742E
:103CC000206F662072616E67652028302E303120AB
:103CD000746F20302E33290A0020204D61783A205D
:103CE00000200020204D696E3A2000203B2000205B
:103CF000204D323131205300536F667420656E645D
:103D000073746F70730046523A0020466C6F773AB6
:103D1000200064697300656E0043290A0061626CCB
:103D2000656420286D696E2074656D702000436F96
:103D30006C642065787472756465732061726520A7
:103D4000004D65736820706F696E74206F75742004
:103D50006F662072616E67650A004D3432312069EA
:103D60006E636F727265637420706172616D6574E9
:103D700065722075736167650A00486F6D657665C9
:103D8000727361747A20616B746976004572723A5D
:103D900020546F6F206661722100546F6F2066613E
:103DA000722066726F6D207265666572656E6365FE
:103DB00020706F696E740A00454550524F4D204F78
:103DC0004B0A00290A0020746F20003F5A206F75AB
:103DD00074206F662072616E67652028003F59204D
:103DE0006D757374206265203020284E4F5A5A4CEE
:103DF000455F41535F50524F4245292E0A003F58BC
:103E0000206D757374206265203020284E4F5A5AF9
:103E10004C455F41535F50524F4245292E0A0020C6
:103E20006472697665722063757272656E743A2089
:103E300000206472697665722063757272656E74B3
:103E40003A2000206472697665722063757272652B
:103E50006E743A2000206472697665722063757210
:103E600072656E743A2000737072656164437963A1
:103E70006C6500737465616C746843686F700020D2
:103E8000647269766572206D6F64653A09007370BB
:103E9000726561644379636C6500737465616C7409
:103EA0006843686F700020647269766572206D6F78
:103EB00064653A09007370726561644379636C6587
:103EC00000737465616C746843686F70002064727D
:103ED00069766572206D6F64653A0900737072656A
:103EE00061644379636C6500737465616C746843E5
:103EF000686F700020647269766572206D6F64650A
:103F00003A090020737465616C746843686F7020AF
:103F10006D61782073706565643A20002073746564
:103F2000616C746843686F70206D61782073706590
:103F300065643A200020737465616C746843686F2F
:103F400070206D61782073706565643A200020737D
:103F50007465616C746843686F70206D617820735C
:103F6000706565643A2000290A002E2E2E28005420
:103F7000006F6B005045544700504C4100473238A9
:103F80000A4D313930205325690A4D3130392053DB
:103F900025690A47323920503100426574747465CE
:103FA0006D7065726174757200486F74656E642D12
:103FB00054656D702E002E25690047323950364306
:103FC0002D0048C3B66865004E65747A68C3B6684C
:103FD000652065696E73742E004665696E65696E4D
:103FE00073742E204EC3A4636873746C2E00473222
:103FF00039503454004665696E65696E73742E20BD
:10400000416C6C657300473239503452540047326A
:10401000380A4732364350482569422569004569C8
:10402000672E204E65747A2076616C6964696572CA
:10403000656E004732380A47323643504931002412
:10404000204E65747A2076616C6964696572656E6C
:10405000004732380A47323643504930004E6574C3
:104060007A206E6976656C6C696572656E00456371
:104070006B70756E6B7465004769747465726E65FC
:10408000747A2D4E6976656C6C2E00332D50756EEA
:104090006B742D4E6976656C6C2E004732394A3050
:1040A00000473239503352432E2569004D616E75F9
:1040B000656C6C65732046C3BC6C6C656E004732E2
:1040C00039503242543000436C6576657265732016
:1040D00046C3BC6C6C656E004732395033543000B7
:1040E0004D656E676520616E2046C3BC6C6C756E55
:1040F00067004D65736820696E76616C69646174F0
:1041000065642E0A00793F743F496E666F004EC3A6
:10411000A4636873746C6965672E20616E6E2E00EF
:104120004732394900416C6C657320616E6E756C65
:104130006C696572656E004E65747A657273742E73
:1041400020666F7274732E00473239503143004E2F
:1041500065747A2046C3BC6C6C656E004E65747ADB
:104160002065727374656C6C656E206B616C740095
:104170004732394E503100456967656E6573204E90
:1041800065747A20657273742E004732380A4D3197
:10419000393049310A4D31303949310A47323950C5
:1041A000310A4D31303453300A4D31343053300000
:1041B00024204E65747A2065727374656C6C656E2C
:1041C000004732380A4D31393049300A4D313039E3
:1041D00049300A47323950310A4D31303453300AB0
:1041E0004D313430533000473239256325690A4D4B
:1041F00031313720004E65747A2025692067656C5F
:104200006164656E004E65747A2025692067657368
:10421000706569636865727400426574746E657474
:104220007A2073706569636865726E0042657474A4
:104230006E65747A206C6164656E005370656963A5
:104240006865726F7274004B65696E2053706569A2
:1042500063686572004732395034582573592573A5
:1042600052256900202D2D2D2D2D005A3A00593A46
:104270000058595A20686F6D656E00473238004506
:10428000787465726E6520536963686572756E67D0
:1042900000473239532D31004175736761626520E3
:1042A00066C3BC7220435356004732395431004133
:1042B0007573676162652066C3BC7220486F737452
:1042C000004732395430004E65747A2D4E69766558
:1042D0006C6C696572756E67004E65747A206265F4
:1042E000617262656974656E004E65747A207661EC
:1042F0006C6964696572656E004E65747A206D61E3
:104300006E75656C6C20657273742E004732394986
:104310003939390A4732395032425430004E6574C7
:104320007A2065727374656C6C656E00372E426519
:1043300074746E65747A2073706569636865726EF3
:1043400000362E4665696E65696E73742E20416C69
:104350006C6573004732395034525400352E4E6527
:10436000747A2076616C6964696572656E00342EBA
:104370004665696E65696E73742E20416C6C657359
:10438000004732395034525400332E4E65747A202F
:1043900076616C6964696572656E00322E436C6586
:1043A00076657265732046C3BC6C6C656E004732DF
:1043B000395033543000312E4E65747A2065727353
:1043C00074656C6C656E206B616C74004732394E9D
:1043D000503100556E696669656420426564204C01
:1043E0006576656C696E670055424C2D496E666F47
:1043F00020617573676562656E00473239570055F5
:10440000424C2D5765726B7A65756765004B61721A
:10441000746520617573676562656E004E65747AB8
:104420002D5370656963686572706C61747A004EB3
:1044300065747A206265617262656974656E0053A5
:104440006368726974747765697365732055424C4B
:1044500000417573626C656E6468C3B6686500552B
:10446000424C20616B746976696572656E004732F3
:1044700039410055424C206465616B746976696509
:1044800072656E0047323944004265776567756E24
:1044900067004732394A256900486F6D696E6720A9
:1044A0006765736368656974657274006F70656EC3
:1044B00000545249474745524544003A20007A5F2C
:1044C0006D696E00795F6D696E00785F6D696E0071
:1044D0005265706F7274696E6720656E6473746F75
:1044E00070207374617475730A00203A2073796EBA
:1044F000635F706C616E5F706F736974696F6E0A71
:1045000000202063757272656E745F706F736974DA
:10451000696F6E3D003E2000646F5F626C6F636B7D
:10452000696E675F6D6F76655F746F0020746F6F83
:10453000206C6F6E6720657874727573696F6E207A
:1045400070726576656E7465640A0020636F6C64D2
:1045500020657874727573696F6E20707265766508
:104560006E7465640A00566F726865722025732543
:1045700073257320686F6D656E0020706F736974AA
:10458000696F6E5F7368696674203D200020686FF4
:104590006D655F6F6666736574203D2000417869C4
:1045A000732000290A003C3C3C207365745F6178ED
:1045B00069735F69735F61745F686F6D6528002060
:1045C0003A200A00202063757272656E745F706F06
:1045D000736974696F6E3D005D203D20003E206868
:1045E0006F6D655F6F66667365745B002A2A2A20AB
:1045F0005A20484F4D454420574954482050524F67
:10460000424520285A5F4D494E5F50524F42455F08
:10461000555345535F5A5F4D494E5F454E44535481
:104620004F505F50494E29202A2A2A0A3E20707294
:104630006F62652E6F66667365742E7A203D20006A
:10464000000000000000000000000000290A003EF9
:104650003E3E207365745F617869735F69735F6163
:10466000745F686F6D6528005761726E696E673A96
:1046700020486F6D696E672042756D7020446976C1
:1046800069736F72203C20310A00020204290A007B
:104690003C3C3C20686F6D65617869732800203A66
:1046A000203E204146544552207365745F6178690D
:1046B000735F69735F61745F686F6D650A002020C6
:1046C00063757272656E745F706F736974696F6E13
:1046D0003D006D6D0A0052652D62756D703A2000C7
:1046E0006D6D0A004D6F766520417761793A200043
:1046F0006D6D0A00486F6D6520466173743A200045
:1047000000006B4300006B4300007A430000A040B0
:104710000000A04000000040290A003E3E3E206804
:104720006F6D65617869732800000000010000006A
:104730000100008000555555000000400033333320
:1047400000AAAA2A004992240000002000C7711C78
:104750000099991900D1451700555515003BB11323
:10476000002449120011111100000010000F0F0F5A
:1047700000E3380E0043790D00CCCC0C00C3300CA4
:1047800000E8A20B0064210B00AAAA0A00703D0AEF
:10479000009DD80900427B090092240900DCD3085F
:1047A00000888808001042080000000800F0C107D7
:1047B000008787070075500700711C07003EEB0655
:1047C00000A1BC06006990060066660600703E0601
:1047D000006118060017F4050074D105005BB005F0
:1047E00000B2900500627205005555050078390544
:1047F00000B81E0500050505004EEC040087D40432
:1048000000A1BD040090A7040049920400C17D04EA
:1048100000EE690400C7560400444404005C3204FE
:10482000000821040041100400000004003FF003D0
:1048300000F8E0030026D20300C3C30300CCB50395
:10484000003AA803000A9B0300388E0300C08103CE
:10485000009F750300D0690300505E03001D5303E1
:104860000034480300913D0300333303001629034D
:1048700000381F030097150300300C0300030303E7
:10488000000BFA020049F10200BAE802005CE00203
:10489000002DD802002DD0020059C80200B0C0027D
:1048A0000031B90200DAB10200AAAA0200A0A302F4
:1048B00000BC9C0200FA9502005C8F0200DF8802B7
:1048C0000082820200457C020027760200277002E7
:1048D00000436A02007C640200D05E02003F59027D
:1048E00000C8530200FFFDFCFAF8F6F4F2F0EEEC1B
:1048F000EAE9E7E5E3E1E0DEDCDAD9D7D5D4D2D0E6
:10490000CFCDCBCAC8C7C5C3C2C0BFBDBCBAB9B77B
:10491000B6B4B3B2B0AFADACAAA9A8A6A5A4A2A1E3
:10492000A09E9D9C9A99989795949392908F8E8D26
:104930008B8A8988878684838281807F7E7D7B7A4B
:10494000797877767574737271706F6E6D6C6B6A4F
:10495000696867666564636261605F5E5D5C5B5A3F
:104960005958585756555453525150504F4E4D4C1C
:104970004B4A4A4948474646454443424241403FE4
:104980003E3E3D3C3B3B3A3938383736353534339B
:1049900032323130302F2E2E2D2C2B2B2A29292844
:1049A000272726252524232322212120201F1E1EE0
:1049B0001D1C1C1B1B1A191918181716161515146F
:1049C000131312121111100F0F0E0E0D0D0C0C0BF4
:1049D0000A0A09090808070706060505040403036F
:1049E0000202010000290A0050726F62653A3A64BF
:1049F0006F5F7A5F726169736528006465706C6FC0
:104A0000793A2000203A2050726F62653A3A736515
:104A1000745F6465706C6F7965640A00202063754B
:104A20007272656E745F706F736974696F6E3D004A
:104A3000206D61783A00206D696E3A0041786973A3
:104A4000200000006B4300006B4300007A4300002D
:104A50000000000000000000000045696E737465EE
:104A60006C6C2E206765737065692E00290A002022
:104A700062797465733B20637263200053657474BC
:104A8000696E67732053746F7265642028004D65EA
:104A9000736820736176656420696E20736C6F742F
:104AA00020003F556E61626C6520746F20736176E3
:104AB00065206D65736820646174612E0A0020733F
:104AC0006C6F743D00206D65736865735F656E641F
:104AD0003D004532454E443D00206D6573682073AE
:104AE0006C6F747320617661696C61626C652E0A0B
:104AF000003F496E76616C696420736C6F742E0A96
:104B0000004D657368206C6F616465642066726F28
:104B10006D20736C6F7420003F556E61626C652070
:104B2000746F206C6F6164206D65736820646174BC
:104B3000612E0A0072657365745F6265645F6C65FF
:104B400076656C0A0048617264636F646564204432
:104B5000656661756C742053657474696E67732043
:104B60004C6F616465640A0020286D6D2900203B4C
:104B7000204C6576656C696E67200020204D3432CC
:104B800030205300556E6966696564204265642073
:104B90004C6576656C696E670020460020420020F7
:104BA000480020204D3134352053004D617465722A
:104BB00069616C2068656174757020706172616DE7
:104BC00065746572730020204D39303600205430F2
:104BD0002045005374657070657220647269766553
:104BE000722063757272656E740020204D39313306
:104BF000002054302045004879627269642054686E
:104C0000726573686F6C640020204D35363920530F
:104C10003100543020450020580044726976657296
:104C2000207374657070696E67206D6F6465002015
:104C30006D65736865732E0A0A00454550524F4DE5
:104C40002063616E20686F6C642000416374697634
:104C500065204D65736820536C6F74200020204DD3
:104C60003134392043203B20556E69747320696EBE
:104C70002043656C736975730A0054656D706572C5
:104C8000617475726520556E697473002020473217
:104C900031203B004C696E65617220556E697473FA
:104CA00000556E696669656420426564204C6576CE
:104CB000656C696E67003F4D65736820746F6F2087
:104CC00062696720666F7220454550524F4D2E0A2B
:104CD00000454550524F4D206461746173697A6597
:104CE000206572726F722E0A0055424C20726573F5
:104CF00065740A00206C6F616465642066726F6D74
:104D00002073746F726167652E0A004D65736820A9
:104D1000002E0A003F43616E277420656E61626C4D
:104D200065200020696E697469616C697A65642E1A
:104D30000A0A00290A002062797465733B206372B5
:104D40006320002073746F726564207365747469E6
:104D50006E677320726574726965766564202800D9
:104D6000202863616C63756C6174656429210A0095
:104D700020213D2000454550524F4D2043524320B5
:104D80006D69736D61746368202D202873746F7270
:104D900065642920002053697A653A2000496E64D1
:104DA00065783A20000000FA430000FA430000A0B2
:104DB000410000C8410000A0420000A0420000C81D
:104DC000430000BA42F4010000F401000032000088
:104DD0000088130000204D61726C696E3D563836B4
:104DE000290A00454550524F4D2076657273696F10
:104DF0006E206D69736D617463682028454550525B
:104E00004F4D3D0024F4D43050C38E20C2A2401731
:104E1000828B7011127A910D816CD90AA861E10818
:104E2000C7586607615143061E4B5D05C145A7047F
:104E30001A411104093D9803713931034036DB02F0
:104E400065339102D4305402802E1D02632CEE0192
:104E5000752AC501B028A001102781018F256401A2
:104E60002B244B01E0223401AC211F018D200D01C8
:104E7000801FFC00841EED00971DDF00B81CD200CF
:104E8000E61BC600201BBC00641AB200B219A800C1
:104E90000A19A0006A189900D117910040178B00D9
:104EA000B516840031167E00B31579003A157300EB
:104EB000C7146F0058146A00EE136600881363006D
:104EC00025135E00C7125B006C12570015125400C8
:104ED000C111510070114F0021114B00D610490033
:104EE0008D1047004610440002104200C00F4000E1
:104EF000800F3E00420F3C00060F3B00CB0E3800F7
:104F0000930E37005C0E3500270E3400F30D32008F
:104F1000C10D3100900D3000600D2E00320D2D00BE
:104F2000050D2C00D90C2B00AE0C2900850C290096
:104F30005C0C2700350C27000E0C2600E80B240023
:104F4000C40B2400A00B23007D0B23005A0B21006F
:104F5000390B2100180B2000F80A1F00D90A1E0087
:104F6000BB0A1E009D0A1D00800A1D00630A1C006A
:104F7000470A1B002C0A1B00110A1A00F7091A0025
:104F8000DD091900C4091900AB09190092091700BD
:104F90007B091800630917004C0916003609160032
:104FA000200916000A091500F5081500E00814008C
:104FB000CC081400B8081400A408140090081300CA
:104FC0007D0812006B0813005808120046081200F2
:104FD0003408110023081100120811000108110003
:104FE000F0071000E0071000D0071000C007100005
:104FF000B0070F00A107100091070E0083070F00F4
:1050000074070F0065070E0057070E0049070E00D2
:105010003B070D002E070E0020070D0013070D00A3
:1050200006070D00F9060C00ED060D00E0060C0069
:10503000D4060C00C8060C00BC060C00B0060C0020
:10504000A4060B0099060C008D060B0082060B00CF
:1050500077060B006C060B0061060A0057060B0072
:105060004C060A0042060A0038060A002E060A000C
:1050700024060A001A060A001006090007060A009C
:10508000FD050900F4050900EB050900E20509002A
:10509000D9050900D0050900C7050900BE050900AA
:1050A000B5050800AD050800A50509009C05080028
:1050B000940508008C050800840508007C0508009C
:1050C000740508006C050700650508005D0507000C
:1050D000560508004E050700470507004005080073
:1050E00038050700310507002A05070023050700DA
:1050F0001C050600160507000F0507000805060039
:1051000002050700FB040600F5040700EE04060094
:10511000E8040600E2040700DB040600D5040600EC
:10512000CF040600C9040600C3040600BD0406003F
:10513000B7040600B1040500AC040600A60406008E
:10514000A00405009B0406009504050090040600D9
:105150008A04050085040500800406007A04050021
:1051600075040500700405006B0405006604050065
:10517000610405005C0405005704050052040500A5
:105180004D04050048040500430405003E040400E6
:105190003A04050035040500300404002C04050021
:1051A00027040400230405001E0404001A0404005C
:1051B00016040500110404000D0404000904050090
:1051C0000404040000040400FC030400F8030400C9
:1051D000F4030400F0030400EC030400E8030400FB
:1051E000E4030400E0030400DC030400D80304002B
:1051F000D4030400D0030400CC030400C80303005C
:10520000C503030024F404D9201BC40C5C0E9804CD
:10521000C4095F0265077101F405F900FB04B300DE
:1052200048048700C1036900580355000303450083
:10523000BE023A008402310053022A0029022500EE
:1052400004022000E4011C00C8011900AF0117008E
:105250009801140084011300710110006101100015
:1052600051010E0043010D0036010B002B010B0014
:1052700020010B00150109000C01090003010800C1
:10528000FB000800F3000800EB000700E400060044
:10529000DE000600D8000600D2000600CC000500A3
:1052A000C7000500C2000500BD000400B9000400ED
:1052B000B5000400B1000400AD000400A900040022
:1052C000A5000300A20003009F0004009B00030050
:1052D0009800030095000200930003009000030073
:1052E0008D0002008B00030088000200860002008F
:1052F00084000300810002007F0002007D000200A4
:105300007B000200790002007700010076000200B5
:105310007400020072000100710002006F000200C0
:105320006D0001006C0002006A00010069000200CB
:1053300067000100660001006500010064000200D2
:105340006200010061000100600001005F000200D6
:105350005D0001005C0001005B0001005A000100DB
:1053600059000100580001005700010056000100DB
:1053700055000100540001005300000053000100DB
:105380005200010051000100500001004F000100D7
:105390004E0000004E0001004D0001004C000100D5
:1053A0004B0000004B0001004A00010049000100D1
:1053B00048000000480001004700010046000000CE
:1053C00046000100450000004500010044000100C6
:1053D00043000000430001004200000042000100C1
:1053E0004100000041000100400001003F000000BA
:1053F0003F0001003E0000003E0001003D000000B3
:105400003D0001003C0000003C0000003C000100A9
:105410003B0000003B0001003A0000003A000100A0
:105420003900000039000100380000003800000099
:10543000380001003700000037000100360000008E
:105440003600000036000100350000003500000085
:105450003500010034000000340000003400010079
:105460003300000033000000330001003200000070
:105470003200000032000100310000003100000065
:105480003100010030000000300000003000010059
:105490002F0000002F0000002F0000002F0001004F
:1054A0002E0000002E0000002E0001002D00000044
:1054B0002D0000002D0000002D0001002C00000038
:1054C0002C0000002C0000002C0001002B0000002C
:1054D0002B0000002B0000002B0001002A00000020
:1054E0002A0000002A0000002A0001002900000014
:1054F0002900000029000000290000002900010007
:1055000028000000280000002800000028000000FB
:1055100028000100270000002700000027000000ED
:1055200027000000270001002600000026000000E0
:1055300026000000260000002600010025000000D3
:1055400025000000250000002500000025000000C7
:1055500025000100240000002400000024000000B9
:1055600024000000240001002300000023000000AC
:10557000230000002300000023000000230000009F
:105580002300010022000000220000002200000091
:105590002200000022000000220001002100000083
:1055A0002100000021000000210000002100000077
:1055B0002100000021000100200000002000000068
:1055C000200000002000000020000000200000005B
:1055D00020000000200001001F0000001F0000004C
:1055E0001F0000001F0000001F0000001F0000003F
:1055F0001F0001001E0000001E0000001E00000031
:105600001E0000003930000033250000871900001B
:10561000B00F0000DB080000BD04000074020000B1
:105620003F01000020436F756E7420583A0000421D
:10563000657474004531004500626564002C207378
:10564000797374656D2073746F7070656421204880
:1056500065617465725F49443A20004845495A457E
:105660004E204552464F4C474C4F5300486561749D
:10567000696E67206661696C656400200820C39CC0
:1056800042455253434852495454454E004D4158A7
:1056900054454D50207472696767657265640020D7
:1056A0000820554E54455253434852495454454E90
:1056B000004D494E54454D502074726967676572BC
:1056C0006564002008204E49434854204552524505
:1056D0004943485400546865726D616C2052756E80
:1056E0006177617900202F002042403A0020403A43
:1056F0000020573A0020573A0020204D3230362003
:105700005800486F6D65206F66667365740043616D
:10571000703A00434F4E4649475F4558504F5254E8
:10572000004D4541545041434B00434F4F4C45526F
:105730005F54454D504552415455524500434841F0
:105740004D4245525F54454D504552415455524586
:1057500000424142595354455050494E470041522E
:105760004353004D4F54494F4E5F4D4F44455300F6
:10577000544845524D414C5F50524F544543544953
:105780004F4E00455854454E4445445F4D3230001D
:105790004C4F4E475F46494C454E414D45004155A3
:1057A000544F5245504F52545F53445F53544154E9
:1057B00055530053445F5752495445005245504594
:1057C0004154005344434152440050524F4D5054B1
:1057D0005F535550504F525400484F53545F41430C
:1057E00054494F4E5F434F4D4D414E445300454D3C
:1057F000455247454E43595F50415253455200432D
:105800004153455F4C494748545F425249474854C9
:105810004E45535300544F47474C455F4C4947480A
:10582000545300534F4654574152455F504F5745CC
:1058300052004255494C445F50455243454E540036
:105840004C4556454C494E475F44415441005A5FD0
:1058500050524F42450052554E4F555400415554F9
:105860004F4C4556454C005052494E545F4A4F42AA
:105870000050524F4752455353004155544F5245E3
:10588000504F52545F54454D50004155544F52456E
:10589000504F52545F504F5300564F4C554D455446
:1058A00052494300454550524F4D0042494E4152E6
:1058B000595F46494C455F5452414E53464552004C
:1058C00053455249414C5F584F4E5F584F46460032
:1058D0004649524D574152455F4E414D453A4D6103
:1058E000726C696E20322E302E392E332028417092
:1058F0007220203220323032322031303A31303A88
:1059000030372920534F555243455F434F44455F3D
:1059100055524C3A6769746875622E636F6D2F4DEE
:1059200061726C696E4669726D776172652F4D6147
:10593000726C696E2050524F544F434F4C5F564526
:105940005253494F4E3A312E30204D414348494E33
:10595000455F545950453A456E6465722D33204574
:10596000585452554445525F434F554E543A312096
:10597000555549443A63656465326132662D343168
:1059800061322D343734382D396231322D6335355B
:105990006336326633363766660A00203B002020C5
:1059A0004D383531205830205930205A005A2D506A
:1059B000726F6265204F6666736574006BC3BC6866
:1059C0006C742E2E2E006865697A742E2E2E00457A
:1059D000312025530042657474206BC3BC686C741D
:1059E0002E2E2E0042657474206865697A742E2EFE
:1059F0002E0023646566696E652044454641554C1A
:105A0000545F00626564004B6420004B6920004BCA
:105A1000702000504944204175746F74756E652084
:105A200066696E69736865642120507574207468B6
:105A300065206C617374204B702C204B6920616E63
:105A400064204B6420636F6E7374616E74732066A0
:105A5000726F6D2062656C6F7720696E746F204382
:105A60006F6E66696775726174696F6E2E680A0081
:105A7000504944204175746F74756E652066616984
:105A80006C6564212074696D656F75740A005049F6
:105A900044204175746F74756E65206661696C652C
:105AA00064212054656D706572617475726520742F
:105AB0006F6F20686967680A005049442043796322
:105AC0006C65730025532025692F256900204B64E0
:105AD0003A2000204B693A2000204B703A200020E9
