:100000000C947C250C94BC250C94BC250C94BC252C
:100010000C94BC250C94BC250C94BC250C94BC25DC
:100020000C94BC250D946A3D0D946A3D0D946A3D77
:100030000C94BC250D945A450C94BC250C94BC25FD
:100040000C94BC250C946CA30C94BC250C94BC257E
:100050000C94BC250C94BC250C94059C0D94104567
:100060000C94BC250C9419530C940F530C94BC2580
:100070000C94BC250C94BC250C94BC250C94BC257C
:100080000C94BC250C94BC250C94BC250C94BC256C
:100090000C94BC250C94BC250C94BC250C94BC255C
:1000A0000C94BC250C94BC250C94BC250C94BC254C
:1000B0000C94BC250C94BC250C94BC250C94BC253C
:1000C0000C94BC250C94BC250C94BC250C94BC252C
:1000D0000C94BC250C94BC250C94BC250C94BC251C
:1000E0000C94BC25084AD73B3BCE016E84BCBFFDB7
:1000F000C12F3D6C74319ABD56833DDA3D00C77FF8
:1001000011BED9E4BB4C3E916BAAAABE0000008090
:100110003F05A84CCDB2D44EB93836A9020C50B91F
:10012000918688083CA6AAAA2ABE000000803F004B
:100130000D94843E0D94DD1D0D946B3E0D94E01DD9
:100140000D94AA3E0D94DD070D94E1000D948E3EB2
:100150000D94B01D0D94A03E0D942B0C0D944803EE
:100160000D94531D0D94A1090D94041B0D94F104DD
:100170000D940D0F0D94FE1A0D94F3010D94C213FE
:100180000D94983E0D94DD100D946A1D0D94F61C8F
:100190000D94803E0D946F3E0D94593E0D947A3E21
:1001A0000D94E84F0D949C3E0D948A3E0D94543E60
:1001B0000D946E140D94923E0D94DE1C0D94FE1958
:1001C0000D94DE1D0D94733E0D94A63E0D940250C9
:1001D0000D949D150D94F71C0D94773E0D94C80D4C
:1001E0004E414E494E495459494E46CDCCCC3D0A1C
:1001F000D7233C17B7D13877CC2B329595E6241FFF
:10020000B14F0A000020410000C84200401C4620B7
:10021000BCBE4CCA1B0E5AAEC59D7400407A10F38A
:100220005A00A0724E18090010A5D4E80000E87624
:1002300048170000E40B54020000CA9A3B0000007B
:10024000E1F505000080969800000040420F000094
:1002500000A08601000000102700000000E8030055
:100260000000006400000000000A0000000000011F
:1002700000000000002C76D888DC674F0823DFC11F
:10028000DFAE59E1B1B796E5E3E453C63AE65199DA
:100290007696E8E6C28426EB898C9B62ED407C6F03
:1002A000FCEFBC9C9F40F2BAA56FA5F490055A2ABA
:1002B000F75C936B6CF9676DC11BFCE0E40D47FEC6
:1002C000F520E6B500D0ED902E03009435770500BB
:1002D00080841E080000204E0A000000C80C333342
:1002E00033330F986E12831141EF8D2114893BE651
:1002F0005516CFFEE6DB18D1844B381BF77C1D90DA
:100300001DA4BBE424203284725E228100C9F12442
:10031000ECA1E53D274C4556454C494E4700434F1F
:100320004D4D554E49434154494F4E004452595248
:10033000554E004552524F525300494E464F0045CC
:1003400043484F00414E474548414C54454E0050AC
:1003500072696E7465722073746F70706564206466
:10036000756520746F206572726F72732E204669F6
:100370007820746865206572726F7220616E6420E7
:10038000757365204D39393920746F207265737427
:100390006172742E202854656D7065726174757277
:1003A000652069732072657365742E20536574200F
:1003B0006974206166746572207265737461727409
:1003C000696E67290A004E6F20436865636B737519
:1003D0006D2077697468206C696E65206E756D623A
:1003E00065722C204C617374204C696E653A200054
:1003F0004E6F20436865636B73756D207769746811
:10040000206C696E65206E756D6265722C204C6182
:100410007374204C696E653A2000636865636B7382
:10042000756D206D69736D617463682C204C617308
:1004300074204C696E653A20004C696E65204E75DB
:100440006D626572206973206E6F74204C617374E5
:10045000204C696E65204E756D6265722B312C20C3
:100460004C617374204C696E653A20004D31313017
:100470000053657269616C20737461747573206DCB
:1004800069736D617463680A005344207265616426
:10049000206572726F720A002121204B494C4C205A
:1004A000636175736564206279204B494C4C20620E
:1004B0007574746F6E2F70696E0A002121204B498C
:1004C0004C4C2063617573656420627920746F6F92
:1004D000206D75636820696E616374697665207448
:1004E000696D65202D2063757272656E7420636F6F
:1004F0006D6D616E643A2000627573793A207061A7
:100500007573656420666F7220696E7075740A0079
:10051000627573793A2070617573656420666F72D5
:1005200020757365720A00627573793A2070726F74
:1005300063657373696E670A004D656469756D2044
:10054000656E746665726E74004D656469756D20C4
:1005500065726B616E6E74004269747465206E65BD
:10056000757374617274656E00445255434B455205
:1005700020474553544F5050540025533A2025539B
:1005800000706F7765726F66660041424745425260
:100590004F4348454E005072696E74657220686121
:1005A0006C7465642E206B696C6C28292063616C07
:1005B0006C6564210A006563686F3A004572726F6A
:1005C000723A004F4646004F4E0066616C736500FC
:1005D0007472756500202864697361626C656429B2
:1005E0000A0020280041424C2041646A7573746DF2
:1005F000656E74205A005A20466164653A200020D6
:1006000028656E61626C6564290A0041626F7665D7
:100610000053616D65205A2061730042656C6F77ED
:10062000004175746F20426564204C6576656C6985
:100630006E673A2042494C494E45415200204E6F68
:100640007A7A6C65290A0020280050726F62652052
:100650004F6666736574205830205930205A005018
:10066000726F62653A204E4F5A5A4C455F41535F54
:1006700050524F42450A004D616368696E652054CF
:100680007970653A2043617274657369616E0A001E
:100690005D0A004578747261706F6C617465205BEF
:1006A0000042696C696E656172204C6576656C69A3
:1006B0006E6720477269643A0A00203A202E2E2E77
:1006C0004E6F77204F4E0A00202063757272656E60
:1006D000745F706F736974696F6E3D00203A204CCF
:1006E0006576656C696E67204F46460A0020206378
:1006F000757272656E745F706F736974696F6E3D49
:1007000000203A202E2E2E4E6F77204F46460A00AC
:10071000202063757272656E745F706F736974699F
:100720006F6E3D00203A204C6576656C696E6720DF
:100730004F4E0A00202063757272656E745F706F91
:10074000736974696F6E3D0072657365745F62658D
:10075000645F6C6576656C0A00303D2E333235007F
:10076000313D2E3138006D6178002F3331002F3349
:1007700031002F333100303D2E33323500313D2EE4
:100780003138006D6178002F3331002F3331002F65
:10079000333100303D2E33323500313D2E313800BB
:1007A0006D6178002F3331002F3331002F3331004A
:1007B000303D2E33323500313D2E3138006D6178B9
:1007C000002F3331002F3331002F33310009204205
:1007D000616420726573706F6E7365210009204239
:1007E000616420726573706F6E7365210009204229
:1007F000616420726573706F6E7365210009204219
:10080000616420726573706F6E736521004C4F5781
:100810000048494748004F4B004572726F723A20BA
:10082000416C6C200020636F6E6E656374696F6E3F
:100830002E2E2E200054657374696E6720004C4F75
:10084000570048494748004F4B004572726F723A53
:1008500020416C6C200020636F6E6E656374696F5D
:100860006E2E2E2E200054657374696E6720004C26
:100870004F570048494748004F4B004572726F720E
:100880003A20416C6C200020636F6E6E6563746962
:100890006F6E2E2E2E200054657374696E672000D3
:1008A0004C4F570048494748004F4B004572726F04
:1008B000723A20416C6C200020636F6E6E65637429
:1008C000696F6E2E2E2E200054657374696E67203A
:1008D00000544D432056657262696E64756E67738D
:1008E0006665686C657200473236206162676562D2
:1008F000726F6368656E004732362044C3BC73650F
:10090000206175666865697A656E004732362068D1
:1009100065697A7420426574740057616974696E00
:100920006720666F72206865617475702E0A0046D4
:1009300065737465204CC3A46E6765205072696D41
:1009400065005072696D696E6720666572746967CB
:10095000004D616E75656C6C205072696D652E2E50
:100960002E00473236207665726C617373656E00B7
:100970003F53706563696669656420582C5920632C
:100980006F6F7264696E617465206F7574206F6635
:1009900020626F756E64732E0A003F2852296570BD
:1009A0006561742076616C7565206E6F7420706C63
:1009B00061757369626C653B206D75737420626547
:1009C000206174206C6561737420312E0A003F53DE
:1009D0007065636966696564206E6F7A7A6C6520FC
:1009E00074656D7065726174757265206E6F7420C8
:1009F000706C61757369626C652E0A003F53706597
:100A00006369666965642066696C616D656E7420F2
:100A100073697A65206E6F7420706C61757369629A
:100A20006C652E0A003F53706563696669656420D2
:100A30007072696D65206C656E677468206E6F7486
:100A400020706C61757369626C652E0A003F53708B
:100A500065636966696564206E6F7A7A6C65207378
:100A6000697A65206E6F7420706C61757369626C51
:100A7000652E0A003F52657472616374696F6E205F
:100A80004D756C7469706C696572206D7573742036
:100A90006265207370656369666965642E0A003F4C
:100AA0005370656369666965642052657472616339
:100AB00074696F6E204D756C7469706C6965722015
:100AC0006E6F7420706C61757369626C652E0A00BC
:100AD0003F537065636966696564206C617965720E
:100AE00020686569676874206E6F7420706C61752A
:100AF0007369626C652E0A0043292E0A003F537009
:100B000065636966696564206265642074656D70FB
:100B100065726174757265206E6F7420706C61759A
:100B20007369626C65202834302D0047323620739B
:100B300074617274696E672E2E2E0A004F46460A43
:100B400000466164652048656967687420004265F5
:100B500064204C6576656C696E6720004661696C3F
:100B6000656420746F20656E61626C652042656407
:100B7000204C6576656C696E670A00496E76616C1B
:100B80006964206D6573682E0A003E3E3E003C3C61
:100B90003C0020636F72726563746564205A3A008A
:100BA00047323920756E636F7272656374656420B5
:100BB0005A3A00203A203E2070726F62696E6720B8
:100BC000636F6D706C6574650A00202063757272C6
:100BD000656E745F706F736974696F6E3D004D650B
:100BE000737370756E6B740025532025692F25690A
:100BF000002E0A002F0050726F62696E67206D65CB
:100C0000736820706F696E74200020284452595216
:100C1000554E2900473239204175746F2042656472
:100C2000204C6576656C696E67003F20284C2C521D
:100C30002C462C4229206F7574206F6620626F75D8
:100C40006E64732E0A0020420020460020520047A6
:100C50003239204C003F2856296572626F73652037
:100C60006C6576656C20696D706C61757369626C1A
:100C7000652028302D34292E0A00426164205A2034
:100C800076616C75650A004E6F2062696C696E65ED
:100C9000617220677269640A004732384C30003E46
:100CA000204175746F2D6C6576656C206E6F7420B5
:100CB0006E65656465642C20736B69700A00473249
:100CC000390041627765696368756E670025533A3C
:100CD0002025730046696E6973686564210A003ACD
:100CE000207A3A2000206F662000476F696E6720E7
:100CF000746F3A20580043570A00206469723A0022
:100D000020616E676C653A00537461727420726181
:100D1000646975733A004D34382050756E6B7400F9
:100D200025533A2025642F256400506F7369746938
:100D30006F6E696E67207468652070726F62652ED1
:100D40002E2E0A003F4C656773206F66206D6F760C
:100D5000656D656E7420696D706C61757369626C28
:100D6000652028302D3135292E0A003F2028582CA7
:100D70005929206F7574206F6620626F756E6473D9
:100D80002E0A005A7520776569742064726175C3F4
:100D90009F656E003F53616D706C652073697A6565
:100DA000206E6F7420706C61757369626C652028A9
:100DB000342D3530292E0A004D3438205A2D5072EA
:100DC0006F6265205265706561746162696C6974F7
:100DD0007920546573740A003F2856296572626F42
:100DE0007365206C6576656C20696D706C617573D8
:100DF00069626C652028302D34292E0A00537461F5
:100E00006E6461726420446576696174696F6E3ADC
:100E100020002052616E67653A2000204D61783ACB
:100E20002000204D696E3A2000205369676D613AB9
:100E300020004D65616E3A200020440020204D3294
:100E40003030205300202844697361626C65642946
:100E50003A0046696C616D656E74207365747469DF
:100E60006E67730020204D3230312058004D61787C
:100E700020416363656C65726174696F6E202875CB
:100E80006E6974732F7332290020204D3230332065
:100E900058004D61782066656564726174657320E1
:100EA00028756E6974732F73290020520020204D1D
:100EB000323034205000416363656C65726174693F
:100EC0006F6E2028756E6974732F73322920285035
:100ED0003C7072696E742D616363656C3E20523C98
:100EE000726574726163742D616363656C3E205436
:100EF0003C74726176656C2D616363656C3E29009C
:100F0000204A0020540020530020204D323035204C
:100F10004200416476616E6365642028423C6D69DD
:100F20006E5F7365676D656E745F74696D655F751F
:100F3000733E20533C6D696E5F66656564726174D3
:100F4000653E20543C6D696E5F74726176656C5FBE
:100F500066656564726174653E204A3C6A756E63BD
:100F60005F6465763E290020440020490020204D22
:100F7000333031205000486F74656E64205049440E
:100F80000020440020490020204D33303420500000
:100F900042656420504944004452565F53544154C2
:100FA0005553090050574D5F5343414C450900507C
:100FB000574D434F4E460900434F4F4C434F4E460B
:100FC000090043484F50434F4E4609005448494793
:100FD0004809090054434F4F4C5448525309005498
:100FE00050574D5448525309005453544550090921
:100FF0000054504F574552444F574E0900494F49EE
:101000004E090900475354415409090049484F4CBF
:10101000445F4952554E090047434F4E4609090067
:101020000900447269766572207265676973746538
:1010300072733A0A00733276736209007332767300
:101040006109003132304309003134334309003142
:1010500035304309003135374309006F7409006F9B
:10106000747077090073326761090073326762092F
:10107000006F6C6109006F6C62090073747374090E
:101080000073675F726573756C74004452565354F5
:101090004154555300755374657020636F756E74B9
:1010A000005374616C6C677561726420746872734C
:1010B00000202D737461727409006879737465720D
:1010C000657369730A202D656E640900626C616E38
:1010D0006B2074696D65006F66662074696D6500CC
:1010E00070776D2067726164206175746F0070772E
:1010F0006D206F6666736574206175746F0070771C
:101100006D207363616C65206175746F0070776D1D
:10111000207363616C652073756D004F542070728D
:10112000657761726E005B6D6D2F735D09005057BE
:101130004D207468726573682E007473746570094D
:1011400000696E7465727009006D7374657073095F
:1011500000737465616C746843686F7000767365C2
:101160006E7365090050574D207363616C650043D1
:10117000532061637475616C00486F6C6420637503
:101180007272656E740052756E2063757272656E50
:1011900074004D41582063757272656E7400524D33
:1011A000532063757272656E7400536574206375A5
:1011B0007272656E7400456E61626C656409000947
:1011C000007370726561644379636C650073746564
:1011D000616C746843686F70002064726976657230
:1011E000206D6F64653A09007370726561644379BC
:1011F000636C6500737465616C746843686F70003C
:1012000020647269766572206D6F64653A090073B7
:1012100070726561644379636C6500737465616CB9
:10122000746843686F700020647269766572206D1F
:101230006F64653A09007370726561644379636C29
:101240006500737465616C746843686F7000206436
:101250007269766572206D6F64653A090020737457
:1012600065616C746843686F70206D61782073707D
:101270006565643A200020737465616C7468436826
:101280006F70206D61782073706565643A2000206E
:10129000737465616C746843686F70206D61782049
:1012A00073706565643A200020737465616C7468BE
:1012B00043686F70206D61782073706565643A20B3
:1012C000003B200020496E76616C6964206578746B
:1012D0007275646572200047322F47332062616463
:1012E00020706172616D65746572730A0057617276
:1012F00074656E2E2E2E005A2050726F626520503B
:10130000617374204265640A005A2D536F6E6465E0
:10131000206175C39F657268616C6200203A206825
:101320006F6D655F7A5F736166656C790A00202076
:1013300064657374696E6174696F6E3D00686F6D8A
:10134000655F7A5F736166656C7900526169736588
:10135000205A20286265666F726520686F6D696E1D
:10136000672920627920003E20686F6D696E6720D2
:101370006E6F74206E65656465642C20736B697094
:101380000A0047323800205A3A200020593A2000FB
:1013900042656420583A20004D65736820706F697B
:1013A0006E74206F7574206F662072616E67650AB7
:1013B000004B6C69636B207A756D20466F72747395
:1013C00065747A656E004D6F746F72656E20616E24
:1013D0006765736368616C74657400456E6420664C
:1013E000696C65206C6973740A00426567696E20D8
:1013F00066696C65206C6973740A004E6F206D65B8
:101400006469610A00706175736500286E6F2066FB
:10141000696C65290043757272656E742066696C2B
:10142000653A20005344207072696E74696E6720BB
:101430006279746520004E6F742053442070726985
:101440006E74696E670A002E0A0044656C657469E3
:101450006F6E206661696C65642C2046696C653A24
:10146000200046696C652064656C657465643A00AB
:101470002569730025696D20256973002569682039
:1014800025696D2025697300256964202569682018
:1014900025696D20256973002569792025696420F7
:1014A0002569682025696D20256973005072696E71
:1014B000742074696D653A20006F6B006F6666007A
:1014C0003F033A0333032C031E03150344454255DF
:1014D000473A004D3131322053687574646F776E2E
:1014E000004D313133205300456E6465722D332039
:1014F0004F46462E002F2F004D31343520533C6986
:101500006E6465783E206F7574206F662072616E20
:1015100067652028302D31290A003F4A206F7574F5
:10152000206F662072616E67652028302E30312072
:10153000746F20302E33290A0020204D61783A2024
:1015400000200020204D696E3A2000203B20002022
:10155000204D323131205300536F667420656E6424
:1015600073746F70730046523A0020466C6F773A7E
:10157000200064697300656E0043290A0061626C93
:10158000656420286D696E2074656D702000436F5E
:101590006C6420657874727564657320617265206F
:1015A000004D34323120696E636F7272656374204E
:1015B000706172616D657465722075736167650A2B
:1015C000004D65736820706F696E74206F757420AC
:1015D0006F662072616E67650A00486F6D6576659B
:1015E000727361747A20616B746976004572723A25
:1015F00020546F6F206661722100546F6F20666106
:10160000722066726F6D207265666572656E6365C5
:1016100020706F696E740A00454550524F4D204F3F
:101620004B0A00290A0020746F20003F5A206F7572
:1016300074206F662072616E67652028003F592014
:101640006D757374206265203020284E4F5A5A4CB5
:10165000455F41535F50524F4245292E0A003F5883
:10166000206D757374206265203020284E4F5A5AC1
:101670004C455F41535F50524F4245292E0A00208E
:101680006472697665722063757272656E743A2051
:1016900000206472697665722063757272656E747B
:1016A0003A200020647269766572206375727265F3
:1016B0006E743A20002064726976657220637572D8
:1016C00072656E743A20004D383400446F6E6520A8
:1016D0007072696E74696E672066696C650A004D88
:1016E0003737004D333100290A002E2E2E280054A2
:1016F0000020204D323036205800486F6D65206F35
:101700006666736574004361703A00434F4E464904
:10171000475F4558504F5254004D45415450414346
:101720004B00434F4F4C45525F54454D504552413D
:1017300054555245004348414D4245525F54454D32
:101740005045524154555245004241425953544527
:101750005050494E470041524353004D4F54494F5A
:101760004E5F4D4F44455300544845524D414C5FE8
:1017700050524F54454354494F4E00455854454EDE
:101780004445445F4D3230004C4F4E475F46494C14
:10179000454E414D45004155544F5245504F5254CE
:1017A0005F53445F5354415455530053445F575261
:1017B0004954450052455045415400534443415219
:1017C000440050524F4D50545F535550504F525457
:1017D00000484F53545F414354494F4E5F434F4D70
:1017E0004D414E445300454D455247454E43595F88
:1017F00050415253455200434153455F4C4947487D
:10180000545F4252494748544E45535300544F4742
:10181000474C455F4C494748545300534F46545733
:101820004152455F504F574552004255494C445F25
:1018300050455243454E54004C4556454C494E4741
:101840005F44415441005A5F50524F424500525547
:101850004E4F5554004155544F4C4556454C005041
:1018600052494E545F4A4F420050524F47524553DF
:1018700053004155544F5245504F52545F54454DBB
:1018800050004155544F5245504F52545F504F53A2
:1018900000564F4C554D4554524943004545505212
:1018A0004F4D0042494E4152595F46494C455F54A5
:1018B00052414E534645520053455249414C5F58A0
:1018C0004F4E5F584F4646004649524D574152458C
:1018D0005F4E414D453A4D61726C696E20322E303B
:1018E0002E392E332028417072203134203230328C
:1018F000322031343A35383A31382920534F555255
:1019000043455F434F44455F55524C3A676974689D
:1019100075622E636F6D2F4D61726C696E466972D0
:101920006D776172652F4D61726C696E2050524FF8
:10193000544F434F4C5F56455253494F4E3A312E08
:1019400030204D414348494E455F545950453A4532
:101950006E6465722D332045585452554445525F8C
:10196000434F554E543A3120555549443A636564C6
:1019700065326132662D343161322D343734382D81
:10198000396231322D633535633632663336376628
:10199000660A00203B0020204D3835312058302089
:1019A0005930205A005A2D50726F6265204F66667A
:1019B000736574006BC3BC686C742E2E2E00686552
:1019C000697A742E2E2E004531202553004265740D
:1019D00074206BC3BC686C742E2E2E004265747428
:1019E000206865697A742E2E2E0023646566696E00
:1019F000652044454641554C545F00626564004B88
:101A00006420004B6920004B702000504944204165
:101A100075746F74756E652066696E697368656448
:101A2000212050757420746865206C617374204B9C
:101A3000702C204B6920616E64204B6420636F6EB4
:101A40007374616E74732066726F6D2062656C6F63
:101A50007720696E746F20436F6E66696775726177
:101A600074696F6E2E680A00504944204175746F86
:101A700074756E65206661696C6564212074696D9A
:101A8000656F75740A00504944204175746F747510
:101A90006E65206661696C6564212054656D7065B2
:101AA00072617475726520746F6F20686967680A67
:101AB00000504944204379636C6573002553202509
:101AC000692F256900204B643A2000204B693A2099
:101AD00000204B703A200020436C617373696320CF
:101AE000504944200A00204E6F206F76657273685B
:101AF0006F6F740A002054753A2000204B753A200D
:101B000000206D61783A2000206D696E3A20002037
:101B1000643A200020626961733A20005761697459
:101B200020666F7220686561742075702E2E2E00FD
:101B3000504944204175746F74756E6520737461EB
:101B400072740A00504944204175746F74756E6553
:101B5000206661696C6564212054656D70657261F1
:101B60007475726520746F6F20686967680A005029
:101B70004944204175746F74756E65005049442066
:101B80004175746F74756E65206661696C6564215A
:101B900020426164206865617465722069640A008E
:101BA000486F6D696E672067657363686569746502
:101BB0007274006F70656E00545249474745524534
:101BC00044003A20007A5F6D696E00795F6D696E3E
:101BD00000785F6D696E005265706F7274696E6730
:101BE00020656E6473746F70207374617475730A0A
:101BF00000203A2073796E635F706C616E5F706F66
:101C0000736974696F6E0A00202063757272656E65
:101C1000745F706F736974696F6E3D003E2000647D
:101C20006F5F626C6F636B696E675F6D6F76655F28
:101C3000746F0020746F6F206C6F6E67206578740E
:101C4000727573696F6E2070726576656E74656407
:101C50000A0020636F6C6420657874727573696F15
:101C60006E2070726576656E7465640A00566F72D8
:101C70006865722025732573257320686F6D656E06
:101C80000020706F736974696F6E5F736869667442
:101C9000203D200020686F6D655F6F666673657418
:101CA000203D2000417869732000290A003C3C3C1B
:101CB000207365745F617869735F69735F61745FD6
:101CC000686F6D652800203A200A00202063757235
:101CD00072656E745F706F736974696F6E3D005DDD
:101CE000203D20003E20686F6D655F6F66667365FE
:101CF000745B002A2A2A205A20484F4D4544205719
:101D00004954482050524F424520285A5F4D494E71
:101D10005F50524F42455F555345535F5A5F4D499F
:101D20004E5F454E4453544F505F50494E29202A30
:101D30002A2A0A3E2070726F62652E6F666673658E
:101D4000742E7A203D2000000000000000000000FA
:101D5000000000290A003E3E3E207365745F6178F2
:101D600069735F69735F61745F686F6D65280057A1
:101D700061726E696E673A20486F6D696E672042C6
:101D8000756D702044697669736F72203C20310A4A
:101D900000020204290A003C3C3C20686F6D65612A
:101DA0007869732800203A203E204146544552204D
:101DB0007365745F617869735F69735F61745F688D
:101DC0006F6D650A00202063757272656E745F70B6
:101DD0006F736974696F6E3D006D6D0A0052652DF9
:101DE00062756D703A20006D6D0A004D6F7665204A
:101DF000417761793A20006D6D0A00486F6D65206A
:101E0000466173743A20000000754300006B430084
:101E1000007A430000A0400000A0400000004029DC
:101E20000A003E3E3E20686F6D6561786973280048
:101E30000000000100000001000080005555550021
:101E40000000400033333300AAAA2A00499224003C
:101E500000002000C7711C0099991900D145170096
:101E6000555515003BB11300244912001111110002
:101E7000000010000F0F0F00E3380E0043790D0033
:101E8000CCCC0C00C3300C00E8A20B0064210B008A
:101E9000AAAA0A00703D0A009DD80900427B0900E9
:101EA00092240900DCD3080088880800104208004A
:101EB00000000800F0C10700878707007550070081
:101EC000711C07003EEB0600A1BC060069900600ED
:101ED00066660600703E06006118060017F40500ED
:101EE00074D105005BB00500B29005006272050078
:101EF0005555050078390500B81E05000505050093
:101F00004EEC040087D40400A1BD040090A7040097
:101F100049920400C17D0400EE690400C756040024
:101F2000444404005C320400082104004110040011
:101F3000000004003FF00300F8E0030026D2030095
:101F4000C3C30300CCB503003AA803000A9B0300F7
:101F5000388E0300C08103009F750300D069030021
:101F6000505E03001D53030034480300913D0300FD
:101F70003333030016290300381F030097150300AD
:101F8000300C0300030303000BFA020049F10200C6
:101F9000BAE802005CE002002DD802002DD0020059
:101FA00059C80200B0C0020031B90200DAB1020023
:101FB000AAAA0200A0A30200BC9C0200FA9502009B
:101FC0005C8F0200DF88020082820200457C0200F2
:101FD0002776020027700200436A02007C64020038
:101FE000D05E02003F590200C8530200FFFDFCFA18
:101FF000F8F6F4F2F0EEECEAE9E7E5E3E1E0DEDC46
:10200000DAD9D7D5D4D2D0CFCDCBCAC8C7C5C3C2F1
:10201000C0BFBDBCBAB9B7B6B4B3B2B0AFADACAA6D
:10202000A9A8A6A5A4A2A1A09E9D9C9A99989795BF
:10203000949392908F8E8D8B8A89888786848382F1
:1020400081807F7E7D7B7A79787776757473727103
:10205000706F6E6D6C6B6A696867666564636261F8
:10206000605F5E5D5C5B5A595858575655545352E1
:102070005150504F4E4D4C4B4A4A494847464645B1
:102080004443424241403F3E3E3D3C3B3B3A39386F
:102090003837363535343332323130302F2E2E2D1D
:1020A0002C2B2B2A292928272726252524232322C0
:1020B000212120201F1E1E1D1C1C1B1B1A19191854
:1020C00018171616151514131312121111100F0FDD
:1020D0000E0E0D0D0C0C0B0A0A090908080707065D
:1020E000060505040403030202010000290A00504A
:1020F000726F62653A3A646F5F7A5F7261697365A5
:1021000028006465706C6F793A2000203A20507284
:102110006F62653A3A7365745F6465706C6F796578
:10212000640A00202063757272656E745F706F734D
:102130006974696F6E3D00206D61783A00206D69A9
:102140006E3A004178697320000000754300006B0F
:102150004300007A4300000000000000000000007F
:102160000045696E7374656C6C2E206765737065CD
:10217000692E00290A002062797465733B2063721E
:1021800063200053657474696E67732053746F72B3
:10219000656420280048617264636F64656420444C
:1021A000656661756C742053657474696E6773201D
:1021B0004C6F616465640A0020286D6D2900203B26
:1021C000204C6576656C696E67200020204D3432A6
:1021D000302053004175746F20426564204C657651
:1021E000656C696E67002046002042002048002090
:1021F000204D3134352053004D6174657269616C36
:102200002068656174757020706172616D657465B8
:1022100072730020204D39303600205430204500A4
:10222000537465707065722064726976657220639C
:10223000757272656E740020204D39313300205460
:102240003020450048796272696420546872657371
:10225000686F6C640020204D3536392053310054AE
:1022600030204500205800447269766572207374EE
:10227000657070696E67206D6F646500204A00208C
:1022800020473239205720490020204D3134392051
:1022900043203B20556E69747320696E2043656C42
:1022A000736975730A0054656D7065726174757237
:1022B0006520556E697473002020473231203B0041
:1022C0004C696E65617220556E69747300454550A6
:1022D000524F4D206461746173697A652065727232
:1022E0006F722E0A00290A002062797465733B2000
:1022F00063726320002073746F7265642073657469
:1023000074696E677320726574726965766564209E
:102310002800202863616C63756C617465642921F1
:102320000A0020213D2000454550524F4D20435288
:1023300043206D69736D61746368202D2028737468
:102340006F7265642920002053697A653A2000493C
:102350006E6465783A20000000FA430000FA4300FA
:1023600000A0410000C8410000A0420000A04200BF
:1023700000C84333330E43F4010000F4010000327F
:1023800000000088130000204D61726C696E3D569C
:102390003836290A00454550524F4D2076657273F4
:1023A000696F6E206D69736D61746368202845459F
:1023B00050524F4D3D0024F4D43050C38E20C2A261
:1023C0004017828B7011127A910D816CD90AA86125
:1023D000E108C7586607615143061E4B5D05C145BC
:1023E000A7041A411104093D98037139310340369D
:1023F000DB0265339102D4305402802E1D02632C1F
:10240000EE01752AC501B028A001102781018F2592
:1024100064012B244B01E0223401AC211F018D20EB
:102420000D01801FFC00841EED00971DDF00B81C0D
:10243000D200E61BC600201BBC00641AB200B21911
:10244000A8000A19A0006A189900D1179100401736
:102450008B00B516840031167E00B31579003A154D
:102460007300C7146F0058146A00EE1366008813D7
:10247000630025135E00C7125B006C125700151233
:102480005400C111510070114F0021114B00D610A2
:1024900049008D1047004610440002104200C00F52
:1024A0004000800F3E00420F3C00060F3B00CB0E69
:1024B0003800930E37005C0E3500270E3400F30D04
:1024C0003200C10D3100900D3000600D2E00320D34
:1024D0002D00050D2C00D90C2B00AE0C2900850C0D
:1024E00029005C0C2700350C27000E0C2600E80B99
:1024F0002400C40B2400A00B23007D0B23005A0BE7
:102500002100390B2100180B2000F80A1F00D90AFE
:102510001E00BB0A1E009D0A1D00800A1D00630AE2
:102520001C00470A1B002C0A1B00110A1A00F7099D
:102530001A00DD091900C4091900AB091900920934
:1025400017007B091800630917004C0916003609AB
:102550001600200916000A091500F5081500E00804
:102560001400CC081400B8081400A4081400900843
:1025700013007D0812006B0813005808120046086B
:10258000120034081100230811001208110001087C
:102590001100F0071000E0071000D0071000C0077E
:1025A0001000B0070F00A107100091070E0083076D
:1025B0000F0074070F0065070E0057070E0049074C
:1025C0000E003B070D002E070E0020070D0013071D
:1025D0000D0006070D00F9060C00ED060D00E006E3
:1025E0000C00D4060C00C8060C00BC060C00B0069B
:1025F0000C00A4060B0099060C008D060B00820649
:102600000B0077060B006C060B0061060A005706EC
:102610000B004C060A0042060A0038060A002E0685
:102620000A0024060A001A060A0010060900070616
:102630000A00FD050900F4050900EB050900E205A3
:102640000900D9050900D0050900C7050900BE0524
:102650000900B5050800AD050800A50509009C05A1
:102660000800940508008C050800840508007C0516
:102670000800740508006C050700650508005D0585
:102680000700560508004E050700470507004005EE
:10269000080038050700310507002A050700230553
:1026A00007001C050600160507000F0507000805B2
:1026B000060002050700FB040600F5040700EE040F
:1026C0000600E8040600E2040700DB040600D50467
:1026D0000600CF040600C9040600C3040600BD04BA
:1026E0000600B7040600B1040500AC040600A60409
:1026F0000600A00405009B04060095040500900454
:1027000006008A04050085040500800406007A049A
:10271000050075040500700405006B0405006604DF
:102720000500610405005C0405005704050052041F
:1027300005004D04050048040500430405003E045F
:1027400004003A04050035040500300404002C049C
:10275000050027040400230405001E0404001A04D5
:10276000040016040500110404000D04040009040B
:1027700005000404040000040400FC030400F80342
:102780000400F4030400F0030400EC030400E80375
:102790000400E4030400E0030400DC030400D803A5
:1027A0000400D4030400D0030400CC030400C803D5
:1027B0000300C503030024F404D9201BC40C5C0EE1
:1027C0009804C4095F0265077101F405F900FB0470
:1027D000B30048048700C103690058035500030390
:1027E0004500BE023A008402310053022A00290249
:1027F000250004022000E4011C00C8011900AF01FB
:102800001700980114008401130071011000610188
:10281000100051010E0043010D0036010B002B0189
:102820000B0020010B00150109000C010900030138
:102830000800FB000800F3000800EB000700E400BC
:102840000600DE000600D8000600D2000600CC001C
:102850000500C7000500C2000500BD000400B90066
:102860000400B5000400B1000400AD000400A9009C
:102870000400A5000300A20003009F0004009B00C9
:1028800003009800030095000200930003009000ED
:1028900003008D0002008B00030088000200860008
:1028A000020084000300810002007F0002007D001E
:1028B00002007B0002007900020077000100760030
:1028C00002007400020072000100710002006F003B
:1028D00002006D0001006C0002006A000100690046
:1028E000020067000100660001006500010064004D
:1028F00002006200010061000100600001005F0051
:1029000002005D0001005C0001005B0001005A0054
:102910000100590001005800010057000100560055
:102920000100550001005400010053000000530055
:1029300001005200010051000100500001004F0051
:1029400001004E0000004E0001004D0001004C004F
:1029500001004B0000004B0001004A00010049004B
:102960000100480000004800010047000100460047
:102970000000460001004500000045000100440041
:10298000010043000000430001004200000042003B
:1029900001004100000041000100400001003F0033
:1029A00000003F0001003E0000003E0001003D002D
:1029B00000003D0001003C0000003C0000003C0025
:1029C00001003B0000003B0001003A0000003A001B
:1029D0000100390000003900010038000000380013
:1029E0000000380001003700000037000100360009
:1029F0000000360000003600010035000000350000
:102A000000003500010034000000340000003400F4
:102A100001003300000033000000330001003200E9
:102A200000003200000032000100310000003100DF
:102A300000003100010030000000300000003000D4
:102A400001002F0000002F0000002F0000002F00C9
:102A500001002E0000002E0000002E0001002D00BD
:102A600000002D0000002D0000002D0001002C00B2
:102A700000002C0000002C0000002C0001002B00A6
:102A800000002B0000002B0000002B0001002A009A
:102A900000002A0000002A0000002A00010029008E
:102AA0000000290000002900000029000000290082
:102AB0000100280000002800000028000000280075
:102AC0000000280001002700000027000000270068
:102AD000000027000000270001002600000026005B
:102AE000000026000000260000002600010025004E
:102AF0000000250000002500000025000000250042
:102B00000000250001002400000024000000240033
:102B10000000240000002400010023000000230026
:102B20000000230000002300000023000000230019
:102B3000000023000100220000002200000022000B
:102B400000002200000022000000220001002100FD
:102B500000002100000021000000210000002100F1
:102B600000002100000021000100200000002000E2
:102B700000002000000020000000200000002000D5
:102B8000000020000000200001001F0000001F00C6
:102B900000001F0000001F0000001F0000001F00B9
:102BA00000001F0001001E0000001E0000001E00AB
:102BB00000001E0000003930000033250000871996
:102BC0000000B00F0000DB080000BD04000074022C
:102BD00000003F01000020436F756E7420583A00DA
:102BE0000042657474004531004500626564002C44
:102BF0002073797374656D2073746F7070656421D0
:102C0000204865617465725F49443A20004845492F
:102C10005A454E204552464F4C474C4F530048654D
:102C20006174696E67206661696C65640070012C6F
:102C30000190012701B0012201C0011D01F001181E
:102C4000011002130130020E01600209019002041A
:102C500001C002FF000003FA004003F5008003F00A
:102C600000D003EB002004E6007004E100E004DC87
:102C7000004005D700C005D2004006CD00D006C8F0
:102C8000008007C3003008BE00F008B900C009B4D6
:102C900000B00AAF00B00BAA00D00CA500000EA037
:102CA00000500F9B00C01096005012910000148C31
:102CB00000C0158700B0178200B0197D00D01B78C6
:102CC00000001E730040206E0090226900F0246412
:102CD0000040275F0090295A00E02B5500102E502D
:102CE0000020304B0010324600E033410090353C6C
:102CF000001037370070383200A0392D00B03A2864
:102D000000A03B2300603C1E00103D1900903D14C4
:102D100000103E0F00703E0A00C03E0500003F005C
:102D200000403FFBFF803FF6FFC03FF1FF2008203F
:102D3000C39C42455253434852495454454E004D5A
:102D4000415854454D5020747269676765726564D7
:102D500000200820554E544552534348524954547C
:102D6000454E004D494E54454D5020747269676779
:102D700065726564002008204E494348542045523E
:102D800052454943485400546865726D616C205245
:102D9000756E6177617900202F002042403A002053
:102DA000403A0020573A0020573A007C3C3E5E2BC8
:102DB0003D3F2F5B5D3B2C2A225C0043616E6E6FB2
:102DC00074206F70656E2073756264697220004DA7
:102DD000656469756D20496E6974206665686C6705
:102DE000657363682E0053442063617264206F6BC7
:102DF0000A006F70656E526F6F74206661696C6552
:102E0000640A00766F6C756D652E696E6974206654
:102E100061696C65640A004E6F20534420636172DF
:102E2000640A000A4D3234004D3233202573002EDF
:102E30000A006F70656E206661696C65642C2046BF
:102E4000696C653A200046696C652073656C656342
:102E50007465640A002053697A653A200046696CFB
:102E600065206F70656E65643A2000454E442053BE
:102E70005542524F5554494E450A002220706F73F7
:102E8000002220706172656E743A220053554252DE
:102E90004F5554494E452043414C4C207461726754
:102EA00065743A220053756263616C6C20C3BC6226
:102EB000657273636872697474656E0045786365E2
:102EC00065646564206D617820535542524F5554B6
:102ED000494E452064657074683A00577269746998
:102EE0006E6720746F2066696C653A2000667265B3
:102EF000736800646F696E67002066696C653A20CC
:102F0000004E6F7720002F6175746F25632E670068
:102F10004C6576656C00504C41004572723A2075E4
:102F200074663820666F6E74206E6F7420696E69E7
:102F30007469616C697A65642E004572723A207515
:102F400074663820666F6E74206E6F7420696E69C7
:102F50007469616C697A65642E004572723A2075F5
:102F600074663820666F6E74206E6F7420696E69A7
:102F70007469616C697A65642E00426574740047F7
:102F80006568C3A4757365002568753A2530326895
:102F9000750025303268753A253032687500253065
:102FA00032687527253032687500256875642025DC
:102FB000303268753A253032687500202020202094
:102FC0002020002020202000657272001FE02010C9
:102FD0002010201010201020201020103030084029
:102FE000048003001FE03FF03FF03FF01FE01FE0D0
:102FF0003FF03FF03FF00FC0078003003FFFF03885
:10300000007030FC3020FC102078102030102C0094
:10301000D02E31D02F7BD02F7BD02E31D02C00D092
:1030200020301020781020FC1030FC303800703F29
:10303000FFF03FFFF038007031863023871027877C
:10304000902F87D02F03D0203010207810207810B8
:103050002030102F03D02F87D0278790238710315F
:1030600086303800703FFFF01FFFF81FFFF8041094
:10307000400208200208200410400820801041006F
:103080001041000820800410400000001FFFF81FBE
:10309000FFF8F80180000C480080001243C38CD078
:1030A0000271249267CC41249E4002492490401230
:1030B000FBB3CEE00C63616E63656C0044727563B4
:1030C0006B206162676562726F6368656E004D3286
:1030D000350050617573652E2E2E00726573756D07
:1030E00065004D323400454550524F4D20566572B3
:1030F00073696F6E204665686C6572004545505275
:103100004F4D20496E646578204665686C65720095
:10311000454550524F4D20435243204665686C65EB
:1031200072003F0049676E6F72696572656E00528A
:1031300065736574656E005765726B7365696E7350
:1031400074656C6C756E67656E0046696C616D6563
:103150006E7464757263686D657373657200452083
:10316000696E206D6DC2B3004D3330332055312070
:103170004525692053256900504944204175746FE5
:1031800074756E65202A005049442D44202A005051
:1031900049442D49202A005049442D50202A00201E
:1031A000082046616B746F72002008206D61780002
:1031B0002008206D696E0061757300616E004175B5
:1031C000746F2054656D706572617475720056205D
:1031D0006D696E204C656572666168727400562078
:1031E0006D696E200056206D617820450056206D77
:1031F0006178205A0056206D617820590056206D64
:10320000617820580041206D617820450041206D93
:103210006178205A0041206D617820590041206D6D
:10322000617820580041204C65657266616872744F
:1032300000412045696E7A75670042657363686C6A
:1032400065756E6967756E6700536F6E64656E763F
:1032500065727361747A205A0045205374657073E7
:103260002F6D6D005A2053746570732F6D6D00596A
:103270002053746570732F6D6D0058205374657002
:10328000732F6D6D004572772E2045696E737465DE
:103290006C6C756E67656E003F00416262726563BB
:1032A00068656E0042657374C3A4746967656E00D7
:1032B0004D343238005765726B7365696E7374658F
:1032C0006C6C756E67656E0046696C616D656E74D9
:1032D0000054656D7065726174757200544D4320C1
:1032E000547265696265720053746570732F6D6DF9
:1032F00000536F6E64656E7665727361747A004A0E
:10330000756E6374696F6E20446576004265736301
:10331000686C65756E6967756E670047657363688D
:1033200077696E6469676B656974005365747A6563
:1033300020486F6D657665727361747A004B6F6EAD
:1033400066696775726174696F6E003F004EC3A451
:1033500063687374652045636B65004665727469C4
:1033600067005765697465720058595A20686F6D17
:10337000656E005A2D5765727400496E6465782039
:103380005900496E6465782058004B6F6E66696716
:103390002E2073706569636865726E004B6F6E6690
:1033A00069672E206C6164656E00426574742061EB
:1033B00075737269636874656E00536F6E64656ED1
:1033C0007665727361747A205A00417573626C6518
:1033D0006E6468C3B668650061757300616E004213
:1033E0006574742D4E6976656C6C696572756E676F
:1033F000004E65747A206265617262656974656EFB
:103400000042657474206E6976656C6C69657265DE
:103410006E004732394E00473239004175746F20D3
:10342000486F6D65004265776567756E6700426538
:1034300074740044C3BC7365004CC3BC667465728D
:10344000004B6F6E66696775726174696F6E0053C9
:1034500074616E646172647765727465206C616416
:10346000656E004B6F6E6669672E206C6164656ED9
:10347000004B6F6E6669672E2073706569636865BF
:10348000726E00242045696E7374656C6C756E678E
:10349000656E00536F6E64656E7665727361747AE3
:1034A000205A004572772E2045696E7374656C6CE6
:1034B000756E67656E0048617570746D656EC3BC2E
:1034C000003F005A7572C3BC636B0053746F700089
:1034D0004B65696E204D656469756D004472756356
:1034E0006B20766F6D204D656469756D004D656468
:1034F00069756D20676574617573636874004D321A
:1035000031004B6F6E66696775726174696F6E002A
:1035100054656D7065726174757200426577656798
:10352000756E670053442D447275636B20666F722D
:10353000747365747A656E004A7573746965727523
:103540006E670053442D447275636B206162627232
:10355000656368656E0053442D447275636B20701B
:10356000617573696572656E00496E666F003F0034
:1035700053746172746520447275636B00416262BA
:1035800072656368656E00447275636B656E0043B7
:10359000616E6E6F7420656E7465722073756264FF
:1035A00069723A200002202E2E0048617570746DF9
:1035B000656EC3BC002100486F74656E64207A7527
:1035C000206B616C74005A7572C3BC636B005765E5
:1035D00069746572004732385A00473238590048DA
:1035E0006F6D6520400047323858004175746F2078
:1035F000486F6D6500473238004265776567756EC4
:1036000067004D6F746F72656E206465616B7469DD
:1036100076696572656E004D3834004D343820533C
:103620006F6E64656E74657374004732384F0A4D6F
:1036300034382050313000426574742D4E697665FF
:103640006C6C696572756E6700486F6D696E6700B6
:1036500048617570746D656EC3BC0024204265744A
:103660007420566F7277C3A4726D656E0024204576
:103670007874722E20566F7277C3A4726D656E00D7
:1036800054656D7065726174757200162F102F414C
:10369000626BC3BC686C656E002420566F7277C382
:1036A000A4726D656E004CC3BC66746572004265A1
:1036B00074740044C3BC73650048617570746D65B3
:1036C0006EC3BC004531005A005900580045310016
:1036D0005A00590058004531005A0059006175736D
:1036E00000616E005800544D432054726569626554
:1036F0007200537465616C746843686F702065690B
:103700006E7363682E00536368726974746D6F64BE
:1037100075730048796272696420746872657368B1
:103720006F6C640054726569626572205374726FC5
:103730006D004572772E2045696E7374656C6C75EB
:103740006E67656E004261627973746570205A001D
:10375000466C75737372617465004CC3BC667465A6
:103760007200426574740044C3BC7365004765739E
:103770006368772E0048617570746D656EC3BC0018
:10378000000C0F00FE07022503BB01FFFE0AFE0826
:10379000FE05080806000040F0C8888898781005E3
:1037A0000808060000C0F88888888888F80505059C
:1037B0000600012030F830200508080600002070BF
:1037C000F820202020E00509090600FF2070A8A8A5
:1037D000B888887020070505070001D86C366CD8BA
:1037E0000509090600FFF8A88888888888A8F805D0
:1037F0000A0A0600FE205050505088A8A88870037E
:10380000030306000340A040FFFFFFFFFFFFFFFF91
:10381000FFFFFFFFFFFFFFFFFFFFFFFFFFFF0000B6
:10382000000605FF010707060200808080808000F7
:1038300080030303060105A0A0A0050606060000FC
:1038400050F85050F8500509090600FF2070A8A054
:103850007028A87020050707060000C8C81020407F
:10386000989805070706000040A0A040A8906801AE
:1038700003030602058080800309090601FF20403A
:10388000408080804040200309090601FF804040BD
:1038900020202040408005070706000020A8702057
:1038A00070A8200505050600012020F8202002034D
:1038B000030601FFC04080050101060003F8020273
:1038C00002060100C0C0050707060000081010200E
:1038D000404080050707060000708898A8C88870D7
:1038E00003070706010040C040404040E0050707CD
:1038F000060000708808102040F805070706000041
:10390000F8081030088870050707060000103050CE
:1039100090F81010050707060000F880F0080888E6
:1039200070050707060000304080F08888700507A2
:1039300007060000F80810102020200507070600E1
:1039400000708888708888700507070600007088F6
:103950008878081060020505060100C0C000C0C0DC
:103960000206060601FFC0C000C040800305050630
:1039700001012040804020050303060002F800F802
:103980000305050601018040204080050707060069
:1039900000708810202000200507070600007088AE
:1039A000B8A8B88070050707060000708888F888F6
:1039B0008888050707060000F04848704848F00569
:1039C000070706000070888080808870050707065A
:1039D0000000F04848484848F0050707060000F88E
:1039E0008080F08080F8050707060000F88080F0EE
:1039F00080808005070706000070888080988870A6
:103A0000050707060000888888F888888803070764
:103A1000060100E04040404040E005070706000086
:103A2000381010101090600507070600008890A05D
:103A3000C0A09088050707060000808080808080F5
:103A4000F805070706000088D8A888888888050731
:103A5000070600008888C8A8988888050707060018
:103A60000070888888888870050707060000F0883D
:103A700088F080808005070706000070888888A885
:103A80009068050707060000F08888F0A090880578
:103A90000707060000708880700888700507070611
:103AA0000000F820202020202005070706000088BD
:103AB00088888888887005070706000088888888B5
:103AC00050502005070706000088888888A8A8505D
:103AD00005070706000088885020508888050707DA
:103AE00006000088885020202020050707060000D7
:103AF000F80810204080F80309090601FFE08080E3
:103B00008080808080E0050707060000804040201C
:103B10001010080309090601FFE0202020202020C2
:103B200020E005030306000520508805010106007A
:103B3000FEF8030303060105804020050505060085
:103B40000070087888780507070600008080F088F4
:103B50008888F005050506000070808088700507DC
:103B6000070600000808788888887805050506009B
:103B7000007088F08070050707060000304840E0BC
:103B80004040400507070600FE7088888878087066
:103B90000507070600008080F088888888030707EB
:103BA0000601004000C0404040E00409090601FE53
:103BB00010003010101010906005070706000080FC
:103BC000808890E09088030707060100C0404040CD
:103BD0004040E0050505060000D0A8A8A8A80505F6
:103BE00005060000B0C88888880505050600007035
:103BF000888888700507070600FEF0888888F080AE
:103C0000800507070600FE7888888878080805057B
:103C100005060000B0C88080800505050600007814
:103C2000807008F00507070600002020F8202020FB
:103C300018050505060000888888986805050506AA
:103C4000000088888850200505050600008888A89F
:103C5000A850050505060000885020508805070774
:103C60000600FE8888885020408005050506000073
:103C7000F8102040F80309090601FF204040408069
:103C8000404040200109090602FF8080808080803A
:103C90008080800309090601FF80404040204040A9
:103CA000408005030306000248A890FFFFFFFFFFC6
:103CB000FFFFFFFFFFFFFFFFFFFFFFFFFFFFFFFF14
:103CC000FFFFFFFFFFFFFFFFFFFFFFFF00000006FA
:103CD00005FF0107070602008000808080808005C4
:103CE00007070600FF2070A8A0A870200507070698
:103CF0000000304840E04048B0050505060000A837
:103D0000508850A80507070600008850F820F820C2
:103D10002001070706020080808000808080040860
:103D20000806010070806090906010E003010106B9
:103D30000107A00607070600007884B4A4B48478BD
:103D400003050506010460A06000E0050505060006
:103D5000002850A05028050303060001F8080803B6
:103D60000101060103E00607070600007884B4A4F9
:103D7000A48478050101060007F80404040601057F
:103D8000609090600507070600002020F8202000C2
:103D9000F803050506010440A02040E003050506E0
:103DA0000104C0204020C003030306010520408019
:103DB0000507070600FE88888898E88080050808BF
:103DC00006000078E8E8E8682828280202020602CF
:103DD00003C0C00302020601FE20C0030505060160
:103DE0000440C04040E003050506010540A0400036
:103DF000E0050505060000A0502850A0050A0A06A7
:103E0000000040C048506050B0507810050A0A06C3
:103E1000000040C048506050A8081038050A0A0643
:103E20000000C0204830E050B05078100507070669
:103E3000000020002020408870050A0A060000408B
:103E40002000708888F8888888050A0A0600001013
:103E50002000708888F8888888050A0A06000020F3
:103E60005000708888F8888888050A0A060000686B
:103E7000B000708888F88888880509090600005015
:103E800000708888F8888888050A0A060000205093
:103E900020708888F888888805070706000078A0C1
:103EA000A0F0A0A0B80509090600FE7088808080F7
:103EB00088701060050A0A060000402000F8808023
:103EC000F08080F8050A0A060000102000F88080C3
:103ED000F08080F8050A0A060000205000F8808073
:103EE000F08080F80509090600005000F88080F095
:103EF0008080F8030A0A060100804000E04040404C
:103F00004040E0030A0A060100204000E040404033
:103F10004040E0030A0A06010040A000E0404040A3
:103F20004040E0030909060100A000E04040404095
:103F300040E0050707060000704848E8484870055B
:103F40000A0A06000068B0008888C8A89888880512
:103F50000A0A06000040200070888888888870055A
:103F60000A0A06000010200070888888888870057A
:103F70000A0A06000020500070888888888870052A
:103F80000A0A06000068B000708888888888700572
:103F90000909060000500070888888888870050527
:103FA0000506000188502050880509090600FF0811
:103FB0007098A8A8A8C87080050A0A0600004020CA
:103FC0000088888888888870050A0A060000102002
:103FD0000088888888888870050A0A0600002050B2
:103FE00000888888888888700509090600005000C4
:103FF00088888888888870050A0A060000102000D2
:104000008888502020202004070706010080E090C7
:104010009090E080050707060000708890A09088C7
:10402000B005080806000040200070087888780570
:104030000808060000102000700878887805080835
:1040400006000020500070087888780508080600EF
:104050000068B000700878887805070706000050EF
:104060000070087888780508080600002050207045
:1040700008788878050505060000702870A0780586
:1040800007070600FE708880887010600508080623
:1040900000004020007088F08070050808060000CD
:1040A0001020007088F0807005080806000020507D
:1040B000007088F0807005070706000050007088C7
:1040C000F08070030808060100804000C0404040B6
:1040D000E0030808060100204000C0404040E00323
:1040E000080806010040A000C0404040E003070768
:1040F000060100A000C0404040E00509090600009C
:1041000050205008788888887005080806000068E4
:10411000B000B0C888888805080806000040200064
:1041200070888888700508080600001020007088D4
:10413000888870050808060000205000708888886C
:104140007005080806000068B0007088888870054F
:10415000070706000050007088888870050505066E
:1041600000012000F800200505050600007898A849
:10417000C8F005080806000040200088888888707C
:104180000508080600001020008888888870050847
:1041900008060000205000888888887005070706F8
:1041A000000050008888888870050A0A0600FE1002
:1041B0002000888888502040800509090600FE807C
:1041C00080F0888888F080800509090600FE50008C
:1041D0008888885020408002FFFFFFFFEFFFFFFF2D
:1041E000FFFFFFFFFFFFFFEFEFFFFFFFFFFFFFFFFF
:1041F000FFFFE7DFFFFFFFFFFFFFFFFFFFE7DFFF3F
:10420000FFFFFFFFFFFFFFFFE3DFFFFFFFFFFFFFFA
:10421000FFFFFFF3CFFFFFFFFFFFFFFFFFE1E1CF56
:10422000FFFFFFFFFFFFFE78000003DDFFFFFFFF42
:10423000FEFF807E0001EEFFFFFFFFFE7DCFFC0052
:1042400000F77FFFFFFFFF8E060000007BBFFFFF30
:10425000FFFFC0000000007DDFFFFFFFFFFC01FE4D
:1042600000003EE7FFFFFFFFFFFFFC00031F73FF9F
:10427000FFFFFFFFFFF800018F81FFFFFFFFFFFF40
:10428000E0000083F9FFFFFFFFFFFF00FC0000F0EC
:10429000FFFFFFFFFFE00FFFC00000FFFFFFFFFE7B
:1042A00003FFFFC00000FFFFFFFFFFFFFFF900005B
:1042B00000FFFFFFFFFFFFFFFC0007C0FFFFFFFF46
:1042C000FFFFFFFF0007E0FFFFFFFFFFFFFFFFE033
:1042D00007F1FFFFFFFFFFFFFFFFFC07F9FFFFFFF5
:1042E000FFFFFFFFFFFF03F9FFFFFFFFFFFFFFFFE0
:1042F000FF83F9FFFFFFFFFFFFFFFFFFC3FFFFFF8C
:10430000FFFFFFFFFFFFFFE1FFFFFFFFFFFFFFFFDB
:10431000FFFFF0BFFFFFFFFFFFFFFFFFFBF83FFFC7
:10432000FFFFFFFFFFFFFFF9F83FFFFFFFFFFFFF6A
:10433000FFFF7EF0FFFFFFFFFFFFFFFFFF8E03FF8A
:10434000FFFFFFFFFFFFFFFFE01FFFFFFFFFFFFF7C
:10435000FFFFFFFFFFFFFFFFFFFFFFFFFFFFFFFF6D
:10436000FFFFFFFFFFFFFFFFFFFFFF7FFFFFFFFFDD
:1043700000007FFFFFF87FFFFFFFFF80007FFFFF50
:10438000E07FFFFFFFFFC3FCFFFFFFF8FFFFFFFF22
:10439000FFC3FCFFFFFFF8FFFFFFFFFF87FDFFFFED
:1043A000FFF1FFFFFFFFFF87FFFFFFFFF1FFFFFFB1
:1043B000FFFF0FE7F30FFC23FC3FFFFFFF0FEF8032
:1043C00007F003F01E007FFE1FCF8187C787C70C51
:1043D000007FFE001FC7C78FC79F0F0CFFFE001F87
:1043E000878F1F8F1F0F1FFFFC3F9F8F8F1F8E0018
:1043F0001E3FFFFC7F3F0F1E3F1E3FFE3FFFF87F2B
:10440000FF1F1C3F1C7FFC7FFFF8FFFF1E1C7E1C54
:104410007FFC7FFFF0FFCE3E3C7E3C7FB8FFFFF08D
:10442000FF9E3C387C387E78FFFFE1FF3C7C787C47
:10443000783CF1FFFFE1F8387878101801F1FFFFC0
:10444000000060203C007C07807FFFFFFFFFFFFE35
:104450001FFE1FFFFFFF6D61726C696E66772E6F26
:10446000726700322E302E392E33001FFFFFFFFF00
:10447000FFFF600000000001FF400000000000FF9F
:104480008000000000007F83CF00000C303F87FFDA
:1044900080000C301F867980000C000F8C30C783A1
:1044A0008C30E78C30CFC7CC31F38C30DCECEC3384
:1044B000B98C30D86C6C33198C30D06C0C33198CAF
:1044C00030D86C0C33198C30DC6C0E3B198C30CF2F
:1044D0007C079F198C30C77C038F194000000000B7
:1044E0000002600000000000061FFFFFFFFFFFF852
:1044F0001000C90210012C014001220170011801B5
:10450000B0010E01F00104015002FA00B002F00007
:104510003003E600D003DC009004D2007005C80030
:10452000A006BE000008B400B009AA00D00BA0008D
:10453000600E960060118C00001582002019780032
:10454000C01D6E00A0226400B0275A00902C5000BD
:1045500000314600E0343C0010383200903A280028
:10456000603C1E00A03D1400803E0A00203F000079
:104570002020506C616E6E6572427566666572428F
:10458000797465733A20002046726565204D656D2B
:104590006F72793A200020436F6D70696C65643AE0
:1045A0002041707220313420323032320A00204CE7
:1045B00061737420557064617465643A20323032DE
:1045C000312D31322D3235207C20417574686F7267
:1045D0003A20287363686E6F6F672C20456E6465A0
:1045E000722D33290A004D61726C696E20322E30B3
:1045F0002E392E330A0020536F667477617265205E
:1046000052657365740A00205761746368646F674C
:104610002052657365740A002042726F776E206FB6
:1046200075742052657365740A002045787465724C
:104630006E616C2052657365740A00506F77657205
:1046400055700A0073746172740A00473238585901
:10465000004D31303031006F6B006572726F722027
:1046600077726974696E6720746F2066696C650A79
:1046700000446F6E6520736176696E672066696CB1
:10468000652E0A004D323900456E6473746F707088
:104690000025532025632025632025632025630002
:1046A000205A3A0020593A0020583A00656E647347
:1046B000746F7073206869743A2000000021002430
:1046C0000027002A002D0030003300010100000403
:1046D0000107010A0100000A0B02090C0D0E080770
:1046E00003040100000000000000000000000000C2
:1046F00000000000000000000000000000000000BA
:104700000012111000000000000000000000000076
:104710000000000000000000000000000020002356
:1047200000260029002C002F0032000001000003A9
:10473000010601090100002200250028002B002E9F
:10474000003100340002010000050108010B0105E1
:10475000050505070508080808020202020A0A08FA
:104760000804040404010101010101010103030320
:104770000303030303040707070C0C0C0C0C0C0CBD
:104780000C0202020206060606060606060B0B0BC4
:104790000B0B0B0B0B0102102020080810204010FF
:1047A00020408002010201080402010102040810F5
:1047B0002040808040201008040201800402018013
:1047C000402010080402010804020101020408103C
:1047D0002040800102040810204080002025732022
:1047E0006D6D002020302C3120206D6D0020203197
:1047F0002C3020206D6D002031302C3020206D6D4C
:104800000041636873656E206265776567656E0059
:1048100042657765676520457874727564657200D6
:10482000426577656765205A004265776567652050
:104830005900426577656765205800FFFFFF290A28
:10484000005D005B002C20002C20002E2E2E280066
:10485000646F5F686F6D696E675F6D6F766500503E
:10486000726F62653A3A70726F62655F646F776EFD
:104870005F746F5F7A002054726967676572656460
:10488000206561726C792E00204E6F20747269670A
:104890006765722E002050726F6265206661696CD8
:1048A00021202D00534C4F570050726F62653A3AE9
:1048B00072756E5F7A5F70726F62650050726F62C0
:1048C000696E67204661696C65640A0050726F62A8
:1048D000696E6720676573636865697465727400E3
:1048E000205A3A200020593A200042656420583A64
:1048F0002000506F736974696F6E204E6F74205280
:104900006561636861626C650A00203A200A0020D4
:104910002063757272656E745F706F736974696F0E
:104920006E3D005F72656C6174697665290A002CC2
:1049300020002C20002C20002C20002E2E2E2800C1
:1049400050726F62653A3A70726F62655F61745F50
:10495000706F696E7400456E6465722D33206265F8
:104960007265697400447275636B742E2E2E004458
:104970007275636B2070617573696572742E2E2E6B
:104980000030780020496E76616C696420452073A0
:1049900074657070657220002045207374657070B6
:1049A0006572206E6F7420737065636966696564F3
:1049B0000A00496E76616C6964206578747275646A
:1049C00065720A00220A00556E6B6E6F776E206367
:1049D0006F6D6D616E643A202200204500205A0000
:1049E00020590020204D39322058005374657073CF
:1049F0002070657220756E697400DB0FC93F45BC7D
:104A0000DA3F8FB30240FCF0274056946140FE4BE2
:104A10009B4084A5D840E0231841346A5641E859A8
:104A2000974164DBD5416E271742B4B75542CE1A81
:104A30009742C8AED542B5885A43D40684BFA65F14
:104A4000A7BF7443E0BF10B11AC01C2C58C0E8F6D1
:104A500097C0B849D6C04E4E17C124D355C1802443
:104A600097C1A0B5D5C1121A17C244AE55C2781766
:104A700097C26CACD5C267885AC320746F6F206C24
:104A80006F6E6720657874727573696F6E207072CF
:104A90006576656E7465640A0020636F6C642065DA
:104AA0007874727573696F6E2070726576656E7456
:104AB00065640A006F6B0A00526573656E643A2084
:104AC0000020453A00205A3A0020593A00583A004E
:104AD0004572726F722077726974696E6720746FA5
:104AE00020454550524F4D210A002F2F61637469B4
:104AF0006F6E3A00E600D00011241FBECFEFD1E266
:104B0000DEBFCDBF00E00CBF84B780937A1714BE20
:104B10000FB6F894A895809160008861809360003A
:104B2000109260000FBE13E0A0E0B2E0E6EAF2ED02
:104B300002E00BBF02C007900D92AA3EB107D9F761
:104B400027E1AAEEB3E001C01D92AA37B207E1F750
:104B500015E2CBE7D5E200E006C021970109802FDE
:104B6000FE010F94AD65CA37D10780E00807A9F7A9
:104B70000F94F3510D9442690C940000CF93DF938E
:104B8000DB01F9019C919130C1F0943080F0945098
:104B90009C938830D1F480819181009771F00197C6
:104BA00091838083480F591FEA01188206C08C3513
:104BB00039F49C5F9C93943041F4DF91CF91089538
:104BC0008B3339F781E08C93F8CF20813181B901A3
:104BD0006F5F7F4F71836083420F531FEA018883A9
:104BE000808191818F3591056CF7E7CF0F931F93EB
:104BF00081E00091B9161091BA162091BB16309140
:104C0000BC164091B5165091B6166091B7167091CA
:104C1000B816041715072607370708F480E01F9118
:104C20000F91089590E080E0089520915004833022
:104C300021F425FD0CC024FD0CC030E0A90102C008
:104C4000559547958A95E2F7CA018170089581E0EC
:104C5000089580E0089580916C0484FD0BC08091DC
:104C60006E0487FD07C090916F04937081E019F482
:104C700080E0089581E00895CF92DF92EF92FF9255
:104C8000CF93DF93EC01CC80DD80EE80FF8027E1C5
:104C900037EB41ED58EBC701B6010F94256887FD4E
:104CA00023C027E030E04BE653E4C701B6010F9480
:104CB000E65E1816CCF0C880D980EA80FB8027E138
:104CC00037EB41ED58EBC701B6010F94256887FD1E
:104CD0000BC0C1E027E030E045E753E4C701B6016F
:104CE0000F94E65E18160CF4C0E08C2FDF91CF9184
:104CF000FF90EF90DF90CF9008952FEB280F2A318F
:104D000008F047C0E22FF0E080916C0490916D04B0
:104D1000A0916E04B0916F0404C0B695A7959795C5
:104D200087952A95D2F780FD02C081700895EE5ACA
:104D3000FB4FE081EE2341F18091C9089091CA08B0
:104D4000E80FF92FF11D808190ED980F9A3030F027
:104D50008E3251F4818180538A3098F4F093460466
:104D6000E093450481E008958D3211F08B3249F4CF
:104D7000818190ED980F9A3088F38E3211F4828100
:104D8000EACFF0E0E0E0EACF10924604109245044A
:104D9000E9CF80E00895B1DF882341F081E02091E0
:104DA000450430914604232B09F480E00895FC016A
:104DB000DB0112962D913D914C9114972283338300
:104DC000448315968C911597858316962D913D9168
:104DD0004C91189726833783408719964D915D91A2
:104DE0006D917C911C9741875287638774871D96CC
:104DF0004D915D916D917C9150974587568767875E
:104E0000708B88E993E09183808351968D919C917A
:104E10005297928B818B53964D915D916D917C91C0
:104E20005697438B548B658B768B57968C915797FF
:104E3000878B58968D919C915997918F808F5A9618
:104E40008D919C915B97938F828F5C968D919C91B5
:104E50005D97958F848F5E964D915D916D917C915C
:104E60009197468F578F60A371A392964D915D9154
:104E70006D917C91959742A353A364A375A39696D5
:104E80004D915D916D917C91999746A357A360A731
:104E900071A79A968D919C919B9793A782A79C96B8
:104EA0008D919C919D9795A784A79E968D919C919D
:104EB0009F9797A786A7D0968D919C91D19791ABFC
:104EC00080ABD2968C9182AB0895CF93DF93C09143
:104ED0004708D0914808209729F1609143087091C4
:104EE000440880914508909146080F9442676E5F90
:104EF0007F4F24976C177D07ACF47093D9046093AF
:104F0000D8040F942440605A75418F4F9F4F60938F
:104F1000DA047093DB048093DC049093DD04DF916A
:104F2000CF9108951092DA041092DB041092DC0401
:104F30001092DD04F4CF682F880F770B880B990B44
:104F40000D94EF2E2F923F924F925F926F927F922D
:104F50008F929F92AF92BF92CF92DF92EF92FF9289
:104F60001F93CF93DF93CDB7DEB72C970FB6F8948E
:104F7000DEBF0FBECDBF7A011901DC012D913D913D
:104F80004D915C912D833E834F835887FB01408078
:104F90005180628073808090BA139090BB13A09070
:104FA000BC13B090BD13A50194016D817E818F81EA
:104FB00098850F94E65E81110EC011E0A301920165
:104FC0006091BE137091BF138091C0139091C11373
:104FD0000F94E65E811110E0D1012D913D914D912C
:104FE0005C9129873A874B875C87F701C080D18025
:104FF000E280F38020911002309111024091120260
:1050000050911302C701B6010F94E65E882309F49C
:105010004EC0C0921002D0921102E0921202F092A1
:1050200013028091C6139091C713A091C813B09139
:10503000C9134091BE135091BF136091C01370917A
:10504000C11380928E0890928F08A0929008B0921F
:10505000910840939208509393086093940870933A
:105060009508C0929608D0929708E0929808F0921E
:10507000990880939A0890939B08A0939C08B093FA
:105080009D0820E030E040E05FE36091D70E709132
:10509000D80E8091D90E9091DA0E0F944B5F6983F0
:1050A0007A838B839C83CE0101960E94EAB92D817D
:1050B0003E814F81588520938E0830938F0840930E
:1050C00090085093910840929208509293086092F1
:1050D000940870929508D1012D913D914D915C916C
:1050E00060919A0870919B0880919C0890919D080E
:1050F0000F94FE6560939A0870939B0880939C08B8
:1051000090939D0811112FC020E030E0A90169851E
:105110007A858B859C850F94E65E811133C060E0B3
:1051200070E088EC92E469837A838B839C83CE0160
:1051300001960E94EAB92C960FB6F894DEBF0FBE16
:10514000CDBFDF91CF911F91FF90EF90DF90CF9077
:10515000BF90AF909F908F907F906F905F904F9097
:105160003F902F9008952AEF3EE74AE25FE3609177
:10517000DB0E7091DC0E8091DD0E9091DE0E0F94AF
:105180004B5FD1CF60E070E080EA91E4CCCFCF9369
:10519000DF9300D01F92CDB7DEB780E090E0A0EAA9
:1051A000B0E489839A83AB83BC8361E0CE0101962E
:1051B0000E9446D10F900F900F900F90DF91CF91EA
:1051C00008958091450490914604009731F04AE09B
:1051D00050E070E060E00D94075D60E070E0CB01AE
:1051E00008958091AE1182FF0BC063E687EE98E0D0
:1051F0000E9441E60F9430400E947FE981E00895CB
:1052000080E008958091450490914604009731F024
:105210004AE050E070E060E00D94DA5B60E070E03E
:10522000CB010895EFDF97FD0AC0ECDF6F3F7105FA
:105230008105910509F02CF4E5DF862F089580E0C3
:1052400008958FEF0895CF93C62FA5DD882311F021
:10525000CF91E8CF8C2FCF91089580914504909104
:105260004604892B39F0DEDF91E0811101C090E026
:10527000892F089591E0FCCFCF93DF93C82FD62FCD
:105280008ADD882319F0DF91CF91E7CF8C2F35DDB0
:10529000811101C08D2FDF91CF910895B3DFCB0134
:1052A0000895CF93DF939091AA0E93FD5AC0C82F13
:1052B00089E471DD882309F447C0B4DF90E0181653
:1052C000190614F481E090E026E0289FF001299F60
:1052D000F00D1124EA5AF74F82819381D0E0833791
:1052E000910514F083E790E0909348088093470875
:1052F000ECDD6091470870914808072E000C880B80
:10530000990B0F94EC5E2091430830914408409132
:105310004508509146080F942568181694F08DECB6
:1053200099E160E00E9441E661E06C278C2F0E94C9
:1053300009BECC23B1F060E08D2FDF91CF910C94AA
:10534000E8988CED99E1EDCF83E525DDD82F81112B
:1053500006C0CC2331F082E51EDD882311F09EDFEC
:10536000BECFDF91CF9108950F931F93CF9380917C
:105370004504909146040097E9F0FC018F01C1912A
:105380002C2F2F7D81F0C53411F0C536B9F7F80107
:10539000108270E060E00F94845AF801C083CF91CE
:1053A0001F910F91089570E060E0CF911F910F91D0
:1053B0000D94845A60E070E0CB01F1CFCF92DF9280
:1053C000EF92FF926A017B01E6DC882329F0FF90CF
:1053D000EF90DF90CF90C8CFC701B601FF90EF905C
:1053E000DF90CF9008958F929F92AF92BF92CF920D
:1053F000DF92EF92FF920F931F93CF938EE8E82EE8
:1054000088E0F82E0AEB13E19AECC92E93E1D92E2D
:10541000C0E088E58C0FBFDC882309F474C0A4DFEA
:105420004B015C018C2F01DC882309F462C0F80178
:105430002081318142815381C501B4010F94FE6501
:10544000F7016083718382839383CF5FF4E0EF0E73
:10545000F11C0C5F1F4F84E0C80ED11CC330C9F68D
:1054600085E499DC882309F459C07EDF6B017C0157
:1054700083E0DBDB882371F02091C6133091C713E2
:105480004091C8135091C913C701B6010F94FE652E
:105490006B017C01C0929A08D0929B08E0929C0814
:1054A000F0929D0840E050E0BA0186E487DF20E0FA
:1054B00030E0A9010F94256818167CF455DF20E030
:1054C00030E040E752E40F94DA666093780270931C
:1054D000790280937A0290937B02CF911F910F9172
:1054E000FF90EF90DF90CF90BF90AF909F908F9004
:1054F0000895F6012081318142815381C501B401B3
:105500000F94FD659DCFF80180819181A281B381C7
:10551000F70180839183A283B38397CF8091C613D1
:105520009091C713A091C813B091C91380939A08A2
:1055300090939B08A0939C08B0939D08B3CFCF9302
:10554000DF93EB0128DC882319F0DF91CF91A6CE01
:10555000CE01DF91CF9108950D94EF2E8F929F92FF
:10556000AF92BF92CF92DF92EF92FF920F931F9371
:10557000CF93DF9310927104109270042FE3209365
:1055800072041092C7081092C60810926C04109210
:105590006D0410926E0410926F049C01F9019081C9
:1055A0002F5F3F4F9032D1F39E34C9F4818190ED4B
:1055B000980F9A3020F08D3211F08B3281F43296B0
:1055C0009F012F5F3F4F808180538A3008F470C065
:1055D0009F012F5F3F4F8081803209F46BC0F093B1
:1055E000CA08E093C9088F010F5F1F4FC0816AE2AC
:1055F00070E0C8010F940869009731F0FC01319701
:1056000080818032E1F31182CD3429F0C43519F064
:10561000C73409F040C0F80180810F5F1F4F80320E
:10562000D1F380538A30B8F5C09372041092C70842
:105630001092C6086AE0CF0101964091C6085091C9
:10564000C708649F9001659F300D112420533109D4
:105650004081240F311D47FD3A953093C7082093B0
:10566000C608FC01808180538A3028F3DF0131961F
:105670008C918032D9F3CD3449F52E31310539F092
:10568000D8F42731310519F02C313105F9F4B093F4
:105690007104A0937004DF91CF911F910F91FF903F
:1056A000EF90DF90CF90BF90AF909F908F90089534
:1056B000F90186CFF9018CCF2537310538F027372E
:1056C000310528F3203A83E0380709F3D091C9085F
:1056D00040E050E0BA0110E000E0C12CD12C76018E
:1056E000C394FD0131968C91882309F47FC08132E7
:1056F000E1F4CD34D1F420323105B9F440936C0497
:1057000050936D0460936E0470936F04F093710472
:10571000E093700463E270E0CF010F940869009792
:1057200009F4B9CFFC011082B6CF81548A3108F058
:1057300058C0DF019D91903291F0A0EDA90FAA30E1
:10574000E8F09E3271F4918190539A30B8F00115CF
:10575000110519F48F010150110990E013C0FD01EA
:10576000E8CF9D3211F09B3291F79181A0EDA90F06
:10577000AA3020F09E3259F79281E6CF9E2F9D1BD2
:10578000309759F3A82FB0E04601570104C0880CA8
:10579000991CAA1CBB1C8A95D2F7482959296A2949
:1057A0007B29AE5ABB4F9C9380818154DF018A31A3
:1057B00008F497CFDF018191882309F492CF90ED0F
:1057C000980F9A30B8F393ED980F923098F38B328C
:1057D00089F3CD010196EC91E03209F082CFDC0132
:1057E000F8CF0115110501F78D01DECF109371047B
:1057F0000093700440936C0450936D0460936E04A6
:1058000070936F0448CFBC0190E080E00D94852E2A
:105810000D94852EFC016591759185919491089563
:105820004F925F926F927F928F929F92AF92BF92B0
:10583000CF92DF92EF92FF92CF93DF93EC01FB01C7
:10584000C080D180E280F38027E137EB41ED58EB57
:10585000C701B6010F94256887FD8DC027E030E0B1
:105860004BE653E4C701B6010F94E65E18160CF43C
:1058700082C088809980AA80BB8027E137EB41ED08
:1058800058EBC501B4010F94256887FD74C027E06B
:1058900030E045E753E4C501B4010F94E65E181605
:1058A0000CF469C04090A0085090A1086090A20834
:1058B0007090A308A301920160E070E080EF91E492
:1058C0000F94FD6527E137EB41ED58E30F94FD653B
:1058D0009B01AC01C501B4010F94256887FD4BC045
:1058E000A301920160E070E08DE493E40F94FD6504
:1058F00027E137EB41ED58E30F94FE659B01AC01C6
:10590000C501B4010F94E65E1816ACF18090A408AE
:105910009090A508A090A608B090A708A5019401B2
:1059200060E070E080EF91E40F94FD6527E137EBD4
:1059300041ED58E30F94FD659B01AC01C701B60131
:105940000F94256887FD17C0A501940160E070E001
:105950008DE493E40F94FD6527E137EB41ED58E3C7
:105960000F94FE659B01AC01C1E0C701B6010F9425
:10597000E65E18160CF4C0E08C2FDF91CF91FF90FB
:10598000EF90DF90CF90BF90AF909F908F907F90DF
:105990006F905F904F90089580E00C9495D19B019B
:1059A000AC01485F5F4FBC016C5F7F4FCBCA0F9368
:1059B0001F93CF93DF9300D000D01F921F92CDB7DB
:1059C000DEB7FC018B0183A5811111C081E083A7A3
:1059D00084819581A681B781B05889839A83AB83EE
:1059E000BC83BE016F5F7F4F8EE898E0D8DF1D82D9
:1059F0001E821F82188620E030E040E05FE3609165
:105A0000C2137091C3138091C4139091C5130F9466
:105A1000FE6569837A838B839C839E012B5F3F4F56
:105A2000AE014F5F5F4F6EEB73E18AEB93E18ADA71
:105A30001D821E821F82188620E030E040E05FE376
:105A4000F80160857185828593850F94FE65698371
:105A50007A838B839C83B8016C5F7F4F9E012B5FA1
:105A60003F4FAE014F5F5F4FC8016CDA28960FB60B
:105A7000F894DEBF0FBECDBFDF91CF911F910F9184
:105A800008952F923F924F925F926F927F928F92E2
:105A90009F92AF92BF92CF92DF92EF92FF920F93BD
:105AA0001F93CF93DF93CDB7DEB7A2970FB6F894CD
:105AB000DEBF0FBECDBF8C011B015E834D834090C6
:105AC000BA135090BB136090BC137090BD138090BC
:105AD000BE139090BF13A090C013B090C113DB0110
