:100000000C947C250C94BC250C94BC250C94BC252C
:100010000C94BC250C94BC250C94BC250C94BC25DC
:100020000C94BC250D945E3D0D945E3D0D945E3D9B
:100030000C94BC250D944E450C94BC250C94BC2509
:100040000C94BC250C945EA30C94BC250C94BC258C
:100050000C94BC250C94BC250C94F79B0D94044582
:100060000C94BC250C9419530C940F530C94BC2580
:100070000C94BC250C94BC250C94BC250C94BC257C
:100080000C94BC250C94BC250C94BC250C94BC256C
:100090000C94BC250C94BC250C94BC250C94BC255C
:1000A0000C94BC250C94BC250C94BC250C94BC254C
:1000B0000C94BC250C94BC250C94BC250C94BC253C
:1000C0000C94BC250C94BC250C94BC250C94BC252C
:1000D0000C94BC250C94BC250C94BC250C94BC251C
:1000E0000C94BC25084AD73B3BCE016E84BCBFFDB7
:1000F000C12F3D6C74319ABD56833DDA3D00C77FF8
:1001000011BED9E4BB4C3E916BAAAABE0000008090
:100110003F05A84CCDB2D44EB93836A9020C50B91F
:10012000918688083CA6AAAA2ABE000000803F004B
:100130000D94B6130D94D21D0D94783E0D94DC4FA2
:100140000D94E7010D94D1070D949E3E0D94E504A6
:100150000D946E3E0D94863E0D94010F0D94D110BA
:100160000D94A41D0D947E3E0D943C030D94673EAA
:100170000D94F21A0D941F0C0D94633E0D94D11D35
:100180000D94D5000D949A3E0D94D21C0D94903E82
:100190000D945F3E0D945E1D0D94943E0D94823E31
:1001A0000D94D41D0D94483E0D94471D0D94BC0D27
:1001B0000D944D3E0D948C3E0D946B3E0D94F219B2
:1001C0000D94F81A0D9491150D94743E0D94F64FFC
:1001D0000D9462140D9495090D94EA1C0D94EB1C7A
:1001E0004E414E494E495459494E46CDCCCC3D0A1C
:1001F000D7233C17B7D13877CC2B329595E6241FFF
:10020000B14F0A000020410000C84200401C4620B7
:10021000BCBE4CCA1B0E5AAEC59D7400407A10F38A
:100220005A00A0724E18090010A5D4E80000E87624
:1002300048170000E40B54020000CA9A3B0000007B
:10024000E1F505000080969800000040420F000094
:1002500000A08601000000102700000000E8030055
:100260000000006400000000000A0000000000011F
:1002700000000000002C76D888DC674F0823DFC11F
:10028000DFAE59E1B1B796E5E3E453C63AE65199DA
:100290007696E8E6C28426EB898C9B62ED407C6F03
:1002A000FCEFBC9C9F40F2BAA56FA5F490055A2ABA
:1002B000F75C936B6CF9676DC11BFCE0E40D47FEC6
:1002C000F520E6B500D0ED902E03009435770500BB
:1002D00080841E080000204E0A000000C80C333342
:1002E00033330F986E12831141EF8D2114893BE651
:1002F0005516CFFEE6DB18D1844B381BF77C1D90DA
:100300001DA4BBE424203284725E228100C9F12442
:10031000ECA1E53D274C4556454C494E4700434F1F
:100320004D4D554E49434154494F4E004452595248
:10033000554E004552524F525300494E464F0045CC
:1003400043484F00414E474548414C54454E0050AC
:1003500072696E7465722073746F70706564206466
:10036000756520746F206572726F72732E204669F6
:100370007820746865206572726F7220616E6420E7
:10038000757365204D39393920746F207265737427
:100390006172742E202854656D7065726174757277
:1003A000652069732072657365742E20536574200F
:1003B0006974206166746572207265737461727409
:1003C000696E67290A004E6F20436865636B737519
:1003D0006D2077697468206C696E65206E756D623A
:1003E00065722C204C617374204C696E653A200054
:1003F0004E6F20436865636B73756D207769746811
:10040000206C696E65206E756D6265722C204C6182
:100410007374204C696E653A2000636865636B7382
:10042000756D206D69736D617463682C204C617308
:1004300074204C696E653A20004C696E65204E75DB
:100440006D626572206973206E6F74204C617374E5
:10045000204C696E65204E756D6265722B312C20C3
:100460004C617374204C696E653A20004D31313017
:100470000053657269616C20737461747573206DCB
:1004800069736D617463680A005344207265616426
:10049000206572726F720A002121204B494C4C205A
:1004A000636175736564206279204B494C4C20620E
:1004B0007574746F6E2F70696E0A002121204B498C
:1004C0004C4C2063617573656420627920746F6F92
:1004D000206D75636820696E616374697665207448
:1004E000696D65202D2063757272656E7420636F6F
:1004F0006D6D616E643A2000627573793A207061A7
:100500007573656420666F7220696E7075740A0079
:10051000627573793A2070617573656420666F72D5
:1005200020757365720A00627573793A2070726F74
:1005300063657373696E670A004D656469756D2044
:10054000656E746665726E74004D656469756D20C4
:1005500065726B616E6E74004269747465206E65BD
:10056000757374617274656E00445255434B455205
:1005700020474553544F5050540025533A2025539B
:1005800000706F7765726F66660041424745425260
:100590004F4348454E005072696E74657220686121
:1005A0006C7465642E206B696C6C28292063616C07
:1005B0006C6564210A006563686F3A004572726F6A
:1005C000723A004F4646004F4E0066616C736500FC
:1005D0007472756500202864697361626C656429B2
:1005E0000A0020280041424C2041646A7573746DF2
:1005F000656E74205A005A20466164653A200020D6
:1006000028656E61626C6564290A0041626F7665D7
:100610000053616D65205A2061730042656C6F77ED
:10062000004175746F20426564204C6576656C6985
:100630006E673A2042494C494E45415200204E6F68
:100640007A7A6C65290A0020280050726F62652052
:100650004F6666736574205830205930205A005018
:10066000726F62653A204E4F5A5A4C455F41535F54
:1006700050524F42450A004D616368696E652054CF
:100680007970653A2043617274657369616E0A001E
:100690005D0A004578747261706F6C617465205BEF
:1006A0000042696C696E656172204C6576656C69A3
:1006B0006E6720477269643A0A00203A202E2E2E77
:1006C0004E6F77204F4E0A00202063757272656E60
:1006D000745F706F736974696F6E3D00203A204CCF
:1006E0006576656C696E67204F46460A0020206378
:1006F000757272656E745F706F736974696F6E3D49
:1007000000203A202E2E2E4E6F77204F46460A00AC
:10071000202063757272656E745F706F736974699F
:100720006F6E3D00203A204C6576656C696E6720DF
:100730004F4E0A00202063757272656E745F706F91
:10074000736974696F6E3D0072657365745F62658D
:10075000645F6C6576656C0A00303D2E333235007F
:10076000313D2E3138006D6178002F3331002F3349
:1007700031002F333100303D2E33323500313D2EE4
:100780003138006D6178002F3331002F3331002F65
:10079000333100303D2E33323500313D2E313800BB
:1007A0006D6178002F3331002F3331002F3331004A
:1007B000303D2E33323500313D2E3138006D6178B9
:1007C000002F3331002F3331002F33310009204205
:1007D000616420726573706F6E7365210009204239
:1007E000616420726573706F6E7365210009204229
:1007F000616420726573706F6E7365210009204219
:10080000616420726573706F6E736521004C4F5781
:100810000048494748004F4B004572726F723A20BA
:10082000416C6C200020636F6E6E656374696F6E3F
:100830002E2E2E200054657374696E6720004C4F75
:10084000570048494748004F4B004572726F723A53
:1008500020416C6C200020636F6E6E656374696F5D
:100860006E2E2E2E200054657374696E6720004C26
:100870004F570048494748004F4B004572726F720E
:100880003A20416C6C200020636F6E6E6563746962
:100890006F6E2E2E2E200054657374696E672000D3
:1008A0004C4F570048494748004F4B004572726F04
:1008B000723A20416C6C200020636F6E6E65637429
:1008C000696F6E2E2E2E200054657374696E67203A
:1008D00000544D432056657262696E64756E67738D
:1008E0006665686C657200473236206162676562D2
:1008F000726F6368656E004732362044C3BC73650F
:10090000206175666865697A656E004732362068D1
:1009100065697A7420426574740057616974696E00
:100920006720666F72206865617475702E0A0046D4
:1009300065737465204CC3A46E6765205072696D41
:1009400065005072696D696E6720666572746967CB
:10095000004D616E75656C6C205072696D652E2E50
:100960002E00473236207665726C617373656E00B7
:100970003F53706563696669656420582C5920632C
:100980006F6F7264696E617465206F7574206F6635
:1009900020626F756E64732E0A003F2852296570BD
:1009A0006561742076616C7565206E6F7420706C63
:1009B00061757369626C653B206D75737420626547
:1009C000206174206C6561737420312E0A003F53DE
:1009D0007065636966696564206E6F7A7A6C6520FC
:1009E00074656D7065726174757265206E6F7420C8
:1009F000706C61757369626C652E0A003F53706597
:100A00006369666965642066696C616D656E7420F2
:100A100073697A65206E6F7420706C61757369629A
:100A20006C652E0A003F53706563696669656420D2
:100A30007072696D65206C656E677468206E6F7486
:100A400020706C61757369626C652E0A003F53708B
:100A500065636966696564206E6F7A7A6C65207378
:100A6000697A65206E6F7420706C61757369626C51
:100A7000652E0A003F52657472616374696F6E205F
:100A80004D756C7469706C696572206D7573742036
:100A90006265207370656369666965642E0A003F4C
:100AA0005370656369666965642052657472616339
:100AB00074696F6E204D756C7469706C6965722015
:100AC0006E6F7420706C61757369626C652E0A00BC
:100AD0003F537065636966696564206C617965720E
:100AE00020686569676874206E6F7420706C61752A
:100AF0007369626C652E0A0043292E0A003F537009
:100B000065636966696564206265642074656D70FB
:100B100065726174757265206E6F7420706C61759A
:100B20007369626C65202834302D0047323620739B
:100B300074617274696E672E2E2E0A004F46460A43
:100B400000466164652048656967687420004265F5
:100B500064204C6576656C696E6720004661696C3F
:100B6000656420746F20656E61626C652042656407
:100B7000204C6576656C696E670A00496E76616C1B
:100B80006964206D6573682E0A003E3E3E003C3C61
:100B90003C0020636F72726563746564205A3A008A
:100BA00047323920756E636F7272656374656420B5
:100BB0005A3A00203A203E2070726F62696E6720B8
:100BC000636F6D706C6574650A00202063757272C6
:100BD000656E745F706F736974696F6E3D004D650B
:100BE000737370756E6B740025532025692F25690A
:100BF000002E0A002F0050726F62696E67206D65CB
:100C0000736820706F696E74200020284452595216
:100C1000554E2900473239204175746F2042656472
:100C2000204C6576656C696E67003F20284C2C521D
:100C30002C462C4229206F7574206F6620626F75D8
:100C40006E64732E0A0020420020460020520047A6
:100C50003239204C003F2856296572626F73652037
:100C60006C6576656C20696D706C61757369626C1A
:100C7000652028302D34292E0A00426164205A2034
:100C800076616C75650A004E6F2062696C696E65ED
:100C9000617220677269640A004732384C30003E46
:100CA000204175746F2D6C6576656C206E6F7420B5
:100CB0006E65656465642C20736B69700A00473249
:100CC000390041627765696368756E670025533A3C
:100CD0002025730046696E6973686564210A003ACD
:100CE000207A3A2000206F662000476F696E6720E7
:100CF000746F3A20580043570A00206469723A0022
:100D000020616E676C653A00537461727420726181
:100D1000646975733A004D34382050756E6B7400F9
:100D200025533A2025642F256400506F7369746938
:100D30006F6E696E67207468652070726F62652ED1
:100D40002E2E0A003F4C656773206F66206D6F760C
:100D5000656D656E7420696D706C61757369626C28
:100D6000652028302D3135292E0A003F2028582CA7
:100D70005929206F7574206F6620626F756E6473D9
:100D80002E0A005A7520776569742064726175C3F4
:100D90009F656E003F53616D706C652073697A6565
:100DA000206E6F7420706C61757369626C652028A9
:100DB000342D3530292E0A004D3438205A2D5072EA
:100DC0006F6265205265706561746162696C6974F7
:100DD0007920546573740A003F2856296572626F42
:100DE0007365206C6576656C20696D706C617573D8
:100DF00069626C652028302D34292E0A00537461F5
:100E00006E6461726420446576696174696F6E3ADC
:100E100020002052616E67653A2000204D61783ACB
:100E20002000204D696E3A2000205369676D613AB9
:100E300020004D65616E3A200020440020204D3294
:100E40003030205300202844697361626C65642946
:100E50003A0046696C616D656E74207365747469DF
:100E60006E67730020204D3230312058004D61787C
:100E700020416363656C65726174696F6E202875CB
:100E80006E6974732F7332290020204D3230332065
:100E900058004D61782066656564726174657320E1
:100EA00028756E6974732F73290020520020204D1D
:100EB000323034205000416363656C65726174693F
:100EC0006F6E2028756E6974732F73322920285035
:100ED0003C7072696E742D616363656C3E20523C98
:100EE000726574726163742D616363656C3E205436
:100EF0003C74726176656C2D616363656C3E29009C
:100F0000204A0020540020530020204D323035204C
:100F10004200416476616E6365642028423C6D69DD
:100F20006E5F7365676D656E745F74696D655F751F
:100F3000733E20533C6D696E5F66656564726174D3
:100F4000653E20543C6D696E5F74726176656C5FBE
:100F500066656564726174653E204A3C6A756E63BD
:100F60005F6465763E290020440020490020204D22
:100F7000333031205000486F74656E64205049440E
:100F80000020440020490020204D33303420500000
:100F900042656420504944004452565F53544154C2
:100FA0005553090050574D5F5343414C450900507C
:100FB000574D434F4E460900434F4F4C434F4E460B
:100FC000090043484F50434F4E4609005448494793
:100FD0004809090054434F4F4C5448525309005498
:100FE00050574D5448525309005453544550090921
:100FF0000054504F574552444F574E0900494F49EE
:101000004E090900475354415409090049484F4CBF
:10101000445F4952554E090047434F4E4609090067
:101020000900447269766572207265676973746538
:1010300072733A0A00733276736209007332767300
:101040006109003132304309003134334309003142
:1010500035304309003135374309006F7409006F9B
:10106000747077090073326761090073326762092F
:10107000006F6C6109006F6C62090073747374090E
:101080000073675F726573756C74004452565354F5
:101090004154555300755374657020636F756E74B9
:1010A000005374616C6C677561726420746872734C
:1010B00000202D737461727409006879737465720D
:1010C000657369730A202D656E640900626C616E38
:1010D0006B2074696D65006F66662074696D6500CC
:1010E00070776D2067726164206175746F0070772E
:1010F0006D206F6666736574206175746F0070771C
:101100006D207363616C65206175746F0070776D1D
:10111000207363616C652073756D004F542070728D
:10112000657761726E005B6D6D2F735D09005057BE
:101130004D207468726573682E007473746570094D
:1011400000696E7465727009006D7374657073095F
:1011500000737465616C746843686F7000767365C2
:101160006E7365090050574D207363616C650043D1
:10117000532061637475616C00486F6C6420637503
:101180007272656E740052756E2063757272656E50
:1011900074004D41582063757272656E7400524D33
:1011A000532063757272656E7400536574206375A5
:1011B0007272656E7400456E61626C656409000947
:1011C000007370726561644379636C650073746564
:1011D000616C746843686F70002064726976657230
:1011E000206D6F64653A09007370726561644379BC
:1011F000636C6500737465616C746843686F70003C
:1012000020647269766572206D6F64653A090073B7
:1012100070726561644379636C6500737465616CB9
:10122000746843686F700020647269766572206D1F
:101230006F64653A09007370726561644379636C29
:101240006500737465616C746843686F7000206436
:101250007269766572206D6F64653A090020737457
:1012600065616C746843686F70206D61782073707D
:101270006565643A200020737465616C7468436826
:101280006F70206D61782073706565643A2000206E
:10129000737465616C746843686F70206D61782049
:1012A00073706565643A200020737465616C7468BE
:1012B00043686F70206D61782073706565643A20B3
:1012C000003B200020496E76616C6964206578746B
:1012D0007275646572200047322F47332062616463
:1012E00020706172616D65746572730A0057617276
:1012F00074656E2E2E2E005A2050726F626520503B
:10130000617374204265640A005A2D536F6E6465E0
:10131000206175C39F657268616C6200203A206825
:101320006F6D655F7A5F736166656C790A00202076
:1013300064657374696E6174696F6E3D00686F6D8A
:10134000655F7A5F736166656C7900526169736588
:10135000205A20286265666F726520686F6D696E1D
:10136000672920627920003E20686F6D696E6720D2
:101370006E6F74206E65656465642C20736B697094
:101380000A0047323800205A3A200020593A2000FB
:1013900042656420583A20004D65736820706F697B
:1013A0006E74206F7574206F662072616E67650AB7
:1013B000004B6C69636B207A756D20466F72747395
:1013C00065747A656E004D6F746F72656E20616E24
:1013D0006765736368616C74657400456E6420664C
:1013E000696C65206C6973740A00426567696E20D8
:1013F00066696C65206C6973740A004E6F206D65B8
:101400006469610A00706175736500286E6F2066FB
:10141000696C65290043757272656E742066696C2B
:10142000653A20005344207072696E74696E6720BB
:101430006279746520004E6F742053442070726985
:101440006E74696E670A002E0A0044656C657469E3
:101450006F6E206661696C65642C2046696C653A24
:10146000200046696C652064656C657465643A00AB
:101470002569730025696D20256973002569682039
:1014800025696D2025697300256964202569682018
:1014900025696D20256973002569792025696420F7
:1014A0002569682025696D20256973005072696E71
:1014B000742074696D653A20006F6B006F6666007A
:1014C0003F033A0333032C031E03150344454255DF
:1014D000473A004D3131322053687574646F776E2E
:1014E000004D313133205300456E6465722D332039
:1014F0004F46462E002F2F004D31343520533C6986
:101500006E6465783E206F7574206F662072616E20
:1015100067652028302D31290A003F4A206F7574F5
:10152000206F662072616E67652028302E30312072
:10153000746F20302E33290A0020204D61783A2024
:1015400000200020204D696E3A2000203B20002022
:10155000204D323131205300536F667420656E6424
:1015600073746F70730046523A0020466C6F773A7E
:10157000200064697300656E0043290A0061626C93
:10158000656420286D696E2074656D702000436F5E
:101590006C6420657874727564657320617265206F
:1015A000004D34323120696E636F7272656374204E
:1015B000706172616D657465722075736167650A2B
:1015C000004D65736820706F696E74206F757420AC
:1015D0006F662072616E67650A00486F6D6576659B
:1015E000727361747A20616B746976004572723A25
:1015F00020546F6F206661722100546F6F20666106
:10160000722066726F6D207265666572656E6365C5
:1016100020706F696E740A00454550524F4D204F3F
:101620004B0A00290A0020746F20003F5A206F7572
:1016300074206F662072616E67652028003F592014
:101640006D757374206265203020284E4F5A5A4CB5
:10165000455F41535F50524F4245292E0A003F5883
:10166000206D757374206265203020284E4F5A5AC1
:101670004C455F41535F50524F4245292E0A00208E
:101680006472697665722063757272656E743A2051
:1016900000206472697665722063757272656E747B
:1016A0003A200020647269766572206375727265F3
:1016B0006E743A20002064726976657220637572D8
:1016C00072656E743A20004D383400446F6E6520A8
:1016D0007072696E74696E672066696C650A004D88
:1016E0003737004D333100290A002E2E2E280054A2
:1016F0000020204D323036205800486F6D65206F35
:101700006666736574004361703A00434F4E464904
:10171000475F4558504F5254004D45415450414346
:101720004B00434F4F4C45525F54454D504552413D
:1017300054555245004348414D4245525F54454D32
:101740005045524154555245004241425953544527
:101750005050494E470041524353004D4F54494F5A
:101760004E5F4D4F44455300544845524D414C5FE8
:1017700050524F54454354494F4E00455854454EDE
:101780004445445F4D3230004C4F4E475F46494C14
:10179000454E414D45004155544F5245504F5254CE
:1017A0005F53445F5354415455530053445F575261
:1017B0004954450052455045415400534443415219
:1017C000440050524F4D50545F535550504F525457
:1017D00000484F53545F414354494F4E5F434F4D70
:1017E0004D414E445300454D455247454E43595F88
:1017F00050415253455200434153455F4C4947487D
:10180000545F4252494748544E45535300544F4742
:10181000474C455F4C494748545300534F46545733
:101820004152455F504F574552004255494C445F25
:1018300050455243454E54004C4556454C494E4741
:101840005F44415441005A5F50524F424500525547
:101850004E4F5554004155544F4C4556454C005041
:1018600052494E545F4A4F420050524F47524553DF
:1018700053004155544F5245504F52545F54454DBB
:1018800050004155544F5245504F52545F504F53A2
:1018900000564F4C554D4554524943004545505212
:1018A0004F4D0042494E4152595F46494C455F54A5
:1018B00052414E534645520053455249414C5F58A0
:1018C0004F4E5F584F4646004649524D574152458C
:1018D0005F4E414D453A4D61726C696E20322E303B
:1018E0002E392E332028417072203133203230328D
:1018F000322031353A31323A34322920534F555261
:1019000043455F434F44455F55524C3A676974689D
:1019100075622E636F6D2F4D61726C696E466972D0
:101920006D776172652F4D61726C696E2050524FF8
:10193000544F434F4C5F56455253494F4E3A312E08
:1019400030204D414348494E455F545950453A4532
:101950006E6465722D332045585452554445525F8C
:10196000434F554E543A3120555549443A636564C6
:1019700065326132662D343161322D343734382D81
:10198000396231322D633535633632663336376628
:10199000660A00203B0020204D3835312058302089
:1019A0005930205A005A2D50726F6265204F66667A
:1019B000736574006BC3BC686C742E2E2E00686552
:1019C000697A742E2E2E004531202553004265740D
:1019D00074206BC3BC686C742E2E2E004265747428
:1019E000206865697A742E2E2E0023646566696E00
:1019F000652044454641554C545F00626564004B88
:101A00006420004B6920004B702000504944204165
:101A100075746F74756E652066696E697368656448
:101A2000212050757420746865206C617374204B9C
:101A3000702C204B6920616E64204B6420636F6EB4
:101A40007374616E74732066726F6D2062656C6F63
:101A50007720696E746F20436F6E66696775726177
:101A600074696F6E2E680A00504944204175746F86
:101A700074756E65206661696C6564212074696D9A
:101A8000656F75740A00504944204175746F747510
:101A90006E65206661696C6564212054656D7065B2
:101AA00072617475726520746F6F20686967680A67
:101AB00000504944204379636C6573002553202509
:101AC000692F256900204B643A2000204B693A2099
:101AD00000204B703A200020436C617373696320CF
:101AE000504944200A00204E6F206F76657273685B
:101AF0006F6F740A002054753A2000204B753A200D
:101B000000206D61783A2000206D696E3A20002037
:101B1000643A200020626961733A20005761697459
:101B200020666F7220686561742075702E2E2E00FD
:101B3000504944204175746F74756E6520737461EB
:101B400072740A00504944204175746F74756E6553
:101B5000206661696C6564212054656D70657261F1
:101B60007475726520746F6F20686967680A005029
:101B70004944204175746F74756E65005049442066
:101B80004175746F74756E65206661696C6564215A
:101B900020426164206865617465722069640A008E
:101BA000486F6D696E672067657363686569746502
:101BB0007274006F70656E00545249474745524534
:101BC00044003A20007A5F6D696E00795F6D696E3E
:101BD00000785F6D696E005265706F7274696E6730
:101BE00020656E6473746F70207374617475730A0A
:101BF00000203A2073796E635F706C616E5F706F66
:101C0000736974696F6E0A00202063757272656E65
:101C1000745F706F736974696F6E3D003E2000647D
:101C20006F5F626C6F636B696E675F6D6F76655F28
:101C3000746F0020746F6F206C6F6E67206578740E
:101C4000727573696F6E2070726576656E74656407
:101C50000A0020636F6C6420657874727573696F15
:101C60006E2070726576656E7465640A00566F72D8
:101C70006865722025732573257320686F6D656E06
:101C80000020706F736974696F6E5F736869667442
:101C9000203D200020686F6D655F6F666673657418
:101CA000203D2000417869732000290A003C3C3C1B
:101CB000207365745F617869735F69735F61745FD6
:101CC000686F6D652800203A200A00202063757235
:101CD00072656E745F706F736974696F6E3D005DDD
:101CE000203D20003E20686F6D655F6F66667365FE
:101CF000745B002A2A2A205A20484F4D4544205719
:101D00004954482050524F424520285A5F4D494E71
:101D10005F50524F42455F555345535F5A5F4D499F
:101D20004E5F454E4453544F505F50494E29202A30
:101D30002A2A0A3E2070726F62652E6F666673658E
:101D4000742E7A203D2000000000000000000000FA
:101D5000000000290A003E3E3E207365745F6178F2
:101D600069735F69735F61745F686F6D65280057A1
:101D700061726E696E673A20486F6D696E672042C6
:101D8000756D702044697669736F72203C20310A4A
:101D900000020204290A003C3C3C20686F6D65612A
:101DA0007869732800203A203E204146544552204D
:101DB0007365745F617869735F69735F61745F688D
:101DC0006F6D650A00202063757272656E745F70B6
:101DD0006F736974696F6E3D006D6D0A0052652DF9
:101DE00062756D703A20006D6D0A004D6F7665204A
:101DF000417761793A20006D6D0A00486F6D65206A
:101E0000466173743A20000000754300006B430084
:101E1000007A430000A0400000A0400000004029DC
:101E20000A003E3E3E20686F6D6561786973280048
:101E30000000000100000001000080005555550021
:101E40000000400033333300AAAA2A00499224003C
:101E500000002000C7711C0099991900D145170096
:101E6000555515003BB11300244912001111110002
:101E7000000010000F0F0F00E3380E0043790D0033
:101E8000CCCC0C00C3300C00E8A20B0064210B008A
:101E9000AAAA0A00703D0A009DD80900427B0900E9
:101EA00092240900DCD3080088880800104208004A
:101EB00000000800F0C10700878707007550070081
:101EC000711C07003EEB0600A1BC060069900600ED
:101ED00066660600703E06006118060017F40500ED
:101EE00074D105005BB00500B29005006272050078
:101EF0005555050078390500B81E05000505050093
:101F00004EEC040087D40400A1BD040090A7040097
:101F100049920400C17D0400EE690400C756040024
:101F2000444404005C320400082104004110040011
:101F3000000004003FF00300F8E0030026D2030095
:101F4000C3C30300CCB503003AA803000A9B0300F7
:101F5000388E0300C08103009F750300D069030021
:101F6000505E03001D53030034480300913D0300FD
:101F70003333030016290300381F030097150300AD
:101F8000300C0300030303000BFA020049F10200C6
:101F9000BAE802005CE002002DD802002DD0020059
:101FA00059C80200B0C0020031B90200DAB1020023
:101FB000AAAA0200A0A30200BC9C0200FA9502009B
:101FC0005C8F0200DF88020082820200457C0200F2
:101FD0002776020027700200436A02007C64020038
:101FE000D05E02003F590200C8530200FFFDFCFA18
:101FF000F8F6F4F2F0EEECEAE9E7E5E3E1E0DEDC46
:10200000DAD9D7D5D4D2D0CFCDCBCAC8C7C5C3C2F1
:10201000C0BFBDBCBAB9B7B6B4B3B2B0AFADACAA6D
:10202000A9A8A6A5A4A2A1A09E9D9C9A99989795BF
:10203000949392908F8E8D8B8A89888786848382F1
:1020400081807F7E7D7B7A79787776757473727103
:10205000706F6E6D6C6B6A696867666564636261F8
:10206000605F5E5D5C5B5A595858575655545352E1
:102070005150504F4E4D4C4B4A4A494847464645B1
:102080004443424241403F3E3E3D3C3B3B3A39386F
:102090003837363535343332323130302F2E2E2D1D
:1020A0002C2B2B2A292928272726252524232322C0
:1020B000212120201F1E1E1D1C1C1B1B1A19191854
:1020C00018171616151514131312121111100F0FDD
:1020D0000E0E0D0D0C0C0B0A0A090908080707065D
:1020E000060505040403030202010000290A00504A
:1020F000726F62653A3A646F5F7A5F7261697365A5
:1021000028006465706C6F793A2000203A20507284
:102110006F62653A3A7365745F6465706C6F796578
:10212000640A00202063757272656E745F706F734D
:102130006974696F6E3D00206D61783A00206D69A9
:102140006E3A004178697320000000754300006B0F
:102150004300007A4300000000000000000000007F
:102160000045696E7374656C6C2E206765737065CD
:10217000692E00290A002062797465733B2063721E
:1021800063200053657474696E67732053746F72B3
:10219000656420280048617264636F64656420444C
:1021A000656661756C742053657474696E6773201D
:1021B0004C6F616465640A0020286D6D2900203B26
:1021C000204C6576656C696E67200020204D3432A6
:1021D000302053004175746F20426564204C657651
:1021E000656C696E67002046002042002048002090
:1021F000204D3134352053004D6174657269616C36
:102200002068656174757020706172616D657465B8
:1022100072730020204D39303600205430204500A4
:10222000537465707065722064726976657220639C
:10223000757272656E740020204D39313300205460
:102240003020450048796272696420546872657371
:10225000686F6C640020204D3536392053310054AE
:1022600030204500205800447269766572207374EE
:10227000657070696E67206D6F646500204A00208C
:1022800020473239205720490020204D3134392051
:1022900043203B20556E69747320696E2043656C42
:1022A000736975730A0054656D7065726174757237
:1022B0006520556E697473002020473231203B0041
:1022C0004C696E65617220556E69747300454550A6
:1022D000524F4D206461746173697A652065727232
:1022E0006F722E0A00290A002062797465733B2000
:1022F00063726320002073746F7265642073657469
:1023000074696E677320726574726965766564209E
:102310002800202863616C63756C617465642921F1
:102320000A0020213D2000454550524F4D20435288
:1023300043206D69736D61746368202D2028737468
:102340006F7265642920002053697A653A2000493C
:102350006E6465783A20000000FA430000FA4300FA
:1023600000A0410000C8410000A0420000A04200BF
:1023700000C84333330E43F4010000F4010000327F
:1023800000000088130000204D61726C696E3D569C
:102390003836290A00454550524F4D2076657273F4
:1023A000696F6E206D69736D61746368202845459F
:1023B00050524F4D3D0024F4D43050C38E20C2A261
:1023C0004017828B7011127A910D816CD90AA86125
:1023D000E108C7586607615143061E4B5D05C145BC
:1023E000A7041A411104093D98037139310340369D
:1023F000DB0265339102D4305402802E1D02632C1F
:10240000EE01752AC501B028A001102781018F2592
:1024100064012B244B01E0223401AC211F018D20EB
:102420000D01801FFC00841EED00971DDF00B81C0D
:10243000D200E61BC600201BBC00641AB200B21911
:10244000A8000A19A0006A189900D1179100401736
:102450008B00B516840031167E00B31579003A154D
:102460007300C7146F0058146A00EE1366008813D7
:10247000630025135E00C7125B006C125700151233
:102480005400C111510070114F0021114B00D610A2
:1024900049008D1047004610440002104200C00F52
:1024A0004000800F3E00420F3C00060F3B00CB0E69
:1024B0003800930E37005C0E3500270E3400F30D04
:1024C0003200C10D3100900D3000600D2E00320D34
:1024D0002D00050D2C00D90C2B00AE0C2900850C0D
:1024E00029005C0C2700350C27000E0C2600E80B99
:1024F0002400C40B2400A00B23007D0B23005A0BE7
:102500002100390B2100180B2000F80A1F00D90AFE
:102510001E00BB0A1E009D0A1D00800A1D00630AE2
:102520001C00470A1B002C0A1B00110A1A00F7099D
:102530001A00DD091900C4091900AB091900920934
:1025400017007B091800630917004C0916003609AB
:102550001600200916000A091500F5081500E00804
:102560001400CC081400B8081400A4081400900843
:1025700013007D0812006B0813005808120046086B
:10258000120034081100230811001208110001087C
:102590001100F0071000E0071000D0071000C0077E
:1025A0001000B0070F00A107100091070E0083076D
:1025B0000F0074070F0065070E0057070E0049074C
:1025C0000E003B070D002E070E0020070D0013071D
:1025D0000D0006070D00F9060C00ED060D00E006E3
:1025E0000C00D4060C00C8060C00BC060C00B0069B
:1025F0000C00A4060B0099060C008D060B00820649
:102600000B0077060B006C060B0061060A005706EC
:102610000B004C060A0042060A0038060A002E0685
:102620000A0024060A001A060A0010060900070616
:102630000A00FD050900F4050900EB050900E205A3
:102640000900D9050900D0050900C7050900BE0524
:102650000900B5050800AD050800A50509009C05A1
:102660000800940508008C050800840508007C0516
:102670000800740508006C050700650508005D0585
:102680000700560508004E050700470507004005EE
:10269000080038050700310507002A050700230553
:1026A00007001C050600160507000F0507000805B2
:1026B000060002050700FB040600F5040700EE040F
:1026C0000600E8040600E2040700DB040600D50467
:1026D0000600CF040600C9040600C3040600BD04BA
:1026E0000600B7040600B1040500AC040600A60409
:1026F0000600A00405009B04060095040500900454
:1027000006008A04050085040500800406007A049A
:10271000050075040500700405006B0405006604DF
:102720000500610405005C0405005704050052041F
:1027300005004D04050048040500430405003E045F
:1027400004003A04050035040500300404002C049C
:10275000050027040400230405001E0404001A04D5
:10276000040016040500110404000D04040009040B
:1027700005000404040000040400FC030400F80342
:102780000400F4030400F0030400EC030400E80375
:102790000400E4030400E0030400DC030400D803A5
:1027A0000400D4030400D0030400CC030400C803D5
:1027B0000300C503030024F404D9201BC40C5C0EE1
:1027C0009804C4095F0265077101F405F900FB0470
:1027D000B30048048700C103690058035500030390
:1027E0004500BE023A008402310053022A00290249
:1027F000250004022000E4011C00C8011900AF01FB
:102800001700980114008401130071011000610188
:10281000100051010E0043010D0036010B002B0189
:102820000B0020010B00150109000C010900030138
:102830000800FB000800F3000800EB000700E400BC
:102840000600DE000600D8000600D2000600CC001C
:102850000500C7000500C2000500BD000400B90066
:102860000400B5000400B1000400AD000400A9009C
:102870000400A5000300A20003009F0004009B00C9
:1028800003009800030095000200930003009000ED
:1028900003008D0002008B00030088000200860008
:1028A000020084000300810002007F0002007D001E
:1028B00002007B0002007900020077000100760030
:1028C00002007400020072000100710002006F003B
:1028D00002006D0001006C0002006A000100690046
:1028E000020067000100660001006500010064004D
:1028F00002006200010061000100600001005F0051
:1029000002005D0001005C0001005B0001005A0054
:102910000100590001005800010057000100560055
:102920000100550001005400010053000000530055
:1029300001005200010051000100500001004F0051
:1029400001004E0000004E0001004D0001004C004F
:1029500001004B0000004B0001004A00010049004B
:102960000100480000004800010047000100460047
:102970000000460001004500000045000100440041
:10298000010043000000430001004200000042003B
:1029900001004100000041000100400001003F0033
:1029A00000003F0001003E0000003E0001003D002D
:1029B00000003D0001003C0000003C0000003C0025
:1029C00001003B0000003B0001003A0000003A001B
:1029D0000100390000003900010038000000380013
:1029E0000000380001003700000037000100360009
:1029F0000000360000003600010035000000350000
:102A000000003500010034000000340000003400F4
:102A100001003300000033000000330001003200E9
:102A200000003200000032000100310000003100DF
:102A300000003100010030000000300000003000D4
:102A400001002F0000002F0000002F0000002F00C9
:102A500001002E0000002E0000002E0001002D00BD
:102A600000002D0000002D0000002D0001002C00B2
:102A700000002C0000002C0000002C0001002B00A6
:102A800000002B0000002B0000002B0001002A009A
:102A900000002A0000002A0000002A00010029008E
:102AA0000000290000002900000029000000290082
:102AB0000100280000002800000028000000280075
:102AC0000000280001002700000027000000270068
:102AD000000027000000270001002600000026005B
:102AE000000026000000260000002600010025004E
:102AF0000000250000002500000025000000250042
:102B00000000250001002400000024000000240033
:102B10000000240000002400010023000000230026
:102B20000000230000002300000023000000230019
:102B3000000023000100220000002200000022000B
:102B400000002200000022000000220001002100FD
:102B500000002100000021000000210000002100F1
:102B600000002100000021000100200000002000E2
:102B700000002000000020000000200000002000D5
:102B8000000020000000200001001F0000001F00C6
:102B900000001F0000001F0000001F0000001F00B9
:102BA00000001F0001001E0000001E0000001E00AB
:102BB00000001E0000003930000033250000871996
:102BC0000000B00F0000DB080000BD04000074022C
:102BD00000003F01000020436F756E7420583A00DA
:102BE0000042657474004531004500626564002C44
:102BF0002073797374656D2073746F7070656421D0
:102C0000204865617465725F49443A20004845492F
:102C10005A454E204552464F4C474C4F530048654D
:102C20006174696E67206661696C65640070012C6F
:102C30000190012701B0012201C0011D01F001181E
:102C4000011002130130020E01600209019002041A
:102C500001C002FF000003FA004003F5008003F00A
:102C600000D003EB002004E6007004E100E004DC87
:102C7000004005D700C005D2004006CD00D006C8F0
:102C8000008007C3003008BE00F008B900C009B4D6
:102C900000B00AAF00B00BAA00D00CA500000EA037
:102CA00000500F9B00C01096005012910000148C31
:102CB00000C0158700B0178200B0197D00D01B78C6
:102CC00000001E730040206E0090226900F0246412
:102CD0000040275F0090295A00E02B5500102E502D
:102CE0000020304B0010324600E033410090353C6C
:102CF000001037370070383200A0392D00B03A2864
:102D000000A03B2300603C1E00103D1900903D14C4
:102D100000103E0F00703E0A00C03E0500003F005C
:102D200000403FFBFF803FF6FFC03FF1FF2008203F
:102D3000C39C42455253434852495454454E004D5A
:102D4000415854454D5020747269676765726564D7
:102D500000200820554E544552534348524954547C
:102D6000454E004D494E54454D5020747269676779
:102D700065726564002008204E494348542045523E
:102D800052454943485400546865726D616C205245
:102D9000756E6177617900202F002042403A002053
:102DA000403A0020573A0020573A007C3C3E5E2BC8
:102DB0003D3F2F5B5D3B2C2A225C0043616E6E6FB2
:102DC00074206F70656E2073756264697220004DA7
:102DD000656469756D20496E6974206665686C6705
:102DE000657363682E0053442063617264206F6BC7
:102DF0000A006F70656E526F6F74206661696C6552
:102E0000640A00766F6C756D652E696E6974206654
:102E100061696C65640A004E6F20534420636172DF
:102E2000640A000A4D3234004D3233202573002EDF
:102E30000A006F70656E206661696C65642C2046BF
:102E4000696C653A200046696C652073656C656342
:102E50007465640A002053697A653A200046696CFB
:102E600065206F70656E65643A2000454E442053BE
:102E70005542524F5554494E450A002220706F73F7
:102E8000002220706172656E743A220053554252DE
:102E90004F5554494E452043414C4C207461726754
:102EA00065743A220053756263616C6C20C3BC6226
:102EB000657273636872697474656E0045786365E2
:102EC00065646564206D617820535542524F5554B6
:102ED000494E452064657074683A00577269746998
:102EE0006E6720746F2066696C653A2000667265B3
:102EF000736800646F696E67002066696C653A20CC
:102F0000004E6F7720002F6175746F25632E670068
:102F10005045544700504C41004572723A20757438
:102F2000663820666F6E74206E6F7420696E6974E7
:102F300069616C697A65642E004572723A20757415
:102F4000663820666F6E74206E6F7420696E6974C7
:102F500069616C697A65642E004572723A207574F5
:102F6000663820666F6E74206E6F7420696E6974A7
:102F700069616C697A65642E004265747400476506
:102F800068C3A4757365002568753A253032687585
:102F90000025303268753A253032687500253032A8
:102FA00068752725303268750025687564202530DE
:102FB0003268753A253032687500202020202020A4
:102FC00020002020202000657272001FE0201020C9
:102FD0001020101020102020102010303008400445
:102FE0008003001FE03FF03FF03FF01FE01FE03F95
:102FF000F03FF03FF00FC0078003003FFFF03800C4
:103000007030FC3020FC102078102030102C00D0C4
:103010002E31D02F7BD02F7BD02E31D02C00D02042
:10302000301020781020FC1030FC303800703FFF4A
:10303000F03FFFF0380070318630238710278790EB
:103040002F87D02F03D02030102078102078102028
:1030500030102F03D02F87D02787902387103186F9
:10306000303800703FFFF01FFFF81FFFF8041040DA
:10307000020820020820041040082080104100109F
:1030800041000820800410400000001FFFF81FFFCF
:10309000F8F80180000C480080001243C38CD00275
:1030A00071249267CC41249E40024924904012FB37
:1030B000B3CEE00C63616E63656C00447275636B44
:1030C000206162676562726F6368656E004D3235BC
:1030D0000050617573652E2E2E00726573756D65D7
:1030E000004D323400454550524F4D2056657273A5
:1030F000696F6E204665686C657200454550524F99
:103100004D20496E646578204665686C657200459F
:103110004550524F4D20435243204665686C6572BE
:10312000003F0049676E6F72696572656E00526597
:10313000736574656E005765726B7365696E737441
:10314000656C6C756E67656E0046696C616D656E69
:103150007464757263686D65737365720045206988
:103160006E206D6DC2B3004D333033205531204594
:1031700025692053256900504944204175746F74B6
:10318000756E65202A005049442D44202A0050497C
:10319000442D49202A005049442D50202A0020085F
:1031A0002046616B746F72002008206D61780020EA
:1031B00008206D696E0061757300616E0041757461
:1031C0006F2054656D706572617475720056206D64
:1031D000696E204C65657266616872740056206D78
:1031E000696E200056206D617820450056206D6183
:1031F00078205A0056206D617820590056206D6164
:103200007820580041206D617820450041206D6193
:1032100078205A0041206D617820590041206D616D
:103220007820580041204C656572666168727400B0
:10323000412045696E7A75670042657363686C6505
:10324000756E6967756E6700536F6E64656E76653F
:10325000727361747A205A00452053746570732F1D
:103260006D6D005A2053746570732F6D6D00592079
:1032700053746570732F6D6D0058205374657073AF
:103280002F6D6D004572772E2045696E7374656CE5
:103290006C756E67656E003F0041626272656368BF
:1032A000656E0042657374C3A4746967656E004DF2
:1032B000343238005765726B7365696E7374656C70
:1032C0006C756E67656E0046696C616D656E740045
:1032D00054656D7065726174757200544D4320546D
:1032E0007265696265720053746570732F6D6D004D
:1032F000536F6E64656E7665727361747A004A7599
:103300006E6374696F6E204465760042657363680E
:103310006C65756E6967756E67004765736368777E
:10332000696E6469676B656974005365747A6520BA
:10333000486F6D657665727361747A004B6F6E6667
:10334000696775726174696F6E003F004EC3A46354
:10335000687374652045636B6500466572746967C0
:10336000005765697465720058595A20686F6D6519
:103370006E005A2D5765727400496E646578205945
:1033800000496E6465782058004B6F6E6669672E41
:103390002073706569636865726E004B6F6E666955
:1033A000672E206C6164656E0042657474206175DF
:1033B000737269636874656E00536F6E64656E76D0
:1033C00065727361747A205A00417573626C656E20
:1033D0006468C3B668650061757300616E0042651C
:1033E00074742D4E6976656C6C696572756E6700D4
:1033F0004E65747A206265617262656974656E00FB
:1034000042657474206E6976656C6C696572656E70
:10341000004732394E00473239004175746F2048F9
:103420006F6D65004265776567756E67004265740C
:10343000740044C3BC7365004CC3BC667465720001
:103440004B6F6E66696775726174696F6E00537455
:10345000616E646172647765727465206C61646525
:103460006E004B6F6E6669672E206C6164656E003E
:103470004B6F6E6669672E2073706569636865724D
:103480006E00242045696E7374656C6C756E67659B
:103490006E00536F6E64656E7665727361747A2028
:1034A0005A004572772E2045696E7374656C6C7591
:1034B0006E67656E0048617570746D656EC3BC00A3
:1034C0003F005A7572C3BC636B0053746F70004B3E
:1034D00065696E204D656469756D00447275636B36
:1034E00020766F6D204D656469756D004D6564696A
:1034F000756D20676574617573636874004D323152
:10350000004B6F6E66696775726174696F6E005407
:10351000656D706572617475720042657765677577
:103520006E670053442D447275636B20666F72742E
:103530007365747A656E004A757374696572756E29
:10354000670053442D447275636B2061626272653B
:103550006368656E0053442D447275636B2070611F
:103560007573696572656E00496E666F003F005342
:10357000746172746520447275636B00416262729B
:10358000656368656E00447275636B656E004361C8
:103590006E6E6F7420656E746572207375626469F7
:1035A000723A200002202E2E0048617570746D65FD
:1035B0006EC3BC002100486F74656E64207A75206C
:1035C0006B616C74005A7572C3BC636B005765699C
:1035D000746572004732385A004732385900486FD4
:1035E0006D6520400047323858004175746F20489F
:1035F0006F6D6500473238004265776567756E67A5
:10360000004D6F746F72656E206465616B746976CE
:10361000696572656E004D3834004D343820536F43
:103620006E64656E74657374004732384F0A4D34AA
:10363000382050313000426574742D4E6976656CC7
:103640006C696572756E6700486F6D696E670048DA
:10365000617570746D656EC3BC002420426574741E
:1036600020566F7277C3A4726D656E002420457872
:1036700074722E20566F7277C3A4726D656E0054FB
:10368000656D7065726174757200152F102F41623F
:103690006BC3BC686C656E002420566F7277C3A440
:1036A000726D656E004CC3BC6674657200426574D1
:1036B000740044C3BC73650048617570746D656EB9
:1036C000C3BC004531005A00590058004531005A2A
:1036D00000590058004531005A00590061757300C7
:1036E000616E005800544D432054726569626572E2
:1036F00000537465616C746843686F702065696E0F
:103700007363682E00536368726974746D6F6475B7
:103710007300487962726964207468726573686FB7
:103720006C640054726569626572205374726F6DC7
:10373000004572772E2045696E7374656C6C756EEA
:1037400067656E004261627973746570205A004645
:103750006C75737372617465004CC3BC667465727A
:1037600000426574740044C3BC73650047657363AD
:1037700068772E0048617570746D656EC3BC00007B
:103780000C0F00FE07022503BB01FFFE0AFE08FE28
:1037900005080806000040F0C888889878100508D9
:1037A00008060000C0F88888888888F8050505069E
:1037B00000012030F830200508080600002070F8CD
:1037C00020202020E00509090600FF2070A8A8B8E5
:1037D00088887020070505070001D86C366CD8056D
:1037E00009090600FFF8A88888888888A8F8050ACB
:1037F0000A0600FE205050505088A8A88870030385
:103800000306000340A040FFFFFFFFFFFFFFFFFF95
:10381000FFFFFFFFFFFFFFFFFFFFFFFFFF000000B5
:103820000605FF0107070602008080808080008077
:10383000030303060105A0A0A0050606060000502C
:10384000F85050F8500509090600FF2070A8A07034
:1038500028A87020050707060000C8C81020409857
:103860009805070706000040A0A040A89068010343
:10387000030602058080800309090601FF204040FD
:103880008080804040200309090601FF80404020DD
:10389000202040408005070706000020A870207007
:1038A000A8200505050600012020F82020020303BA
:1038B0000601FFC04080050101060003F802020274
:1038C000060100C0C00507070600000810102040D0
:1038D0004080050707060000708898A8C888700314
:1038E000070706010040C040404040E005070706CA
:1038F0000000708808102040F8050707060000F84F
:103900000810300888700507070600001030509036
:10391000F81010050707060000F880F00808887006
:10392000050707060000304080F08888700507070B
:10393000060000F8081010202020050707060000E8
:10394000708888708888700507070600007088886E
:1039500078081060020505060100C0C000C0C00262
:1039600006060601FFC0C000C04080030505060131
:10397000012040804020050303060002F800F80300
:10398000050506010180402040800507070600006C
:10399000708810202000200507070600007088B8F6
:1039A000A8B88070050707060000708888F8888826
:1039B00088050707060000F04848704848F00507EA
:1039C0000706000070888080808870050707060061
:1039D00000F04848484848F0050707060000F8800E
:1039E00080F08080F8050707060000F88080F080EE
:1039F0008080050707060000708880809888700521
:103A00000707060000888888F88888880307070663
:103A10000100E04040404040E00507070600003854
:103A20001010101090600507070600008890A0C0D5
:103A3000A09088050707060000808080808080F8BD
:103A400005070706000088D8A88888888805070722
:103A50000600008888C8A89888880507070600001F
:103A600070888888888870050707060000F08888B5
:103A7000F080808005070706000070888888A8907D
:103A800068050707060000F08888F0A09088050701
:103A90000706000070888070088870050707060018
:103AA00000F8202020202020050707060000888835
:103AB00088888888700507070600008888888850ED
:103AC000502005070706000088888888A8A85005A8
:103AD00007070600008888502050888805070706D9
:103AE000000088885020202020050707060000F8E5
:103AF0000810204080F80309090601FFE08080805B
:103B000080808080E005070706000080404020108C
:103B100010080309090601FFE020202020202020B2
:103B2000E00503030600052050880501010600FE9C
:103B3000F803030306010580402005050506000083
:103B400070087888780507070600008080F088886C
:103B500088F005050506000070808088700507075D
:103B600006000008087888888878050505060000A2
:103B70007088F08070050707060000304840E0407C
:103B800040400507070600FE7088888878087005A1
:103B900007070600008080F08888888803070706EA
:103BA00001004000C0404040E00409090601FE1049
:103BB000003010101010906005070706000080808C
:103BC0008890E09088030707060100C0404040400D
:103BD00040E0050505060000D0A8A8A8A805050531
:103BE000060000B0C88888880505050600007088B2
:103BF0008888700507070600FEF0888888F08080B6
:103C00000507070600FE78888888780808050505F6
:103C1000060000B0C8808080050505060000788099
:103C20007008F00507070600002020F82020201863
:103C300005050506000088888898680505050600C2
:103C40000088888850200505050600008888A8A8F7
:103C50005005050506000088502050880507070616
:103C600000FE88888850204080050505060000F881
:103C7000102040F80309090601FF20404040804021
:103C80004040200109090602FF80808080808080FA
:103C900080800309090601FF8040404020404040E9
:103CA0008005030306000248A890FFFFFFFFFFFF07
:103CB000FFFFFFFFFFFFFFFFFFFFFFFFFFFFFFFF14
:103CC000FFFFFFFFFFFFFFFFFFFFFF0000000605F4
:103CD000FF010707060200800080808080800507C2
:103CE000070600FF2070A8A0A8702005070706009F
:103CF00000304840E04048B0050505060000A850E7
:103D00008850A80507070600008850F820F82020F2
:103D10000107070602008080800080808004080878
:103D200006010070806090906010E00301010601C0
:103D300007A00607070600007884B4A4B4847803BB
:103D4000050506010460A06000E005050506000009
:103D50002850A05028050303060001F808080301B5
:103D600001060103E00607070600007884B4A4A456
:103D70008478050101060007F804040406010560C3
:103D80009090600507070600002020F8202000F82A
:103D900003050506010440A02040E00305050601D7
:103DA00004C0204020C00303030601052040800515
:103DB00007070600FE88888898E8808005080806BE
:103DC000000078E8E8E868282828020202060203D2
:103DD000C0C00302020601FE20C00305050601045F
:103DE00040C04040E003050506010540A04000E05A
:103DF000050505060000A0502850A0050A0A060087
:103E00000040C048506050B0507810050A0A0600C3
:103E10000040C048506050A8081038050A0A060043
:103E200000C0204830E050B0507810050707060069
:103E30000020002020408870050A0A06000040206B
:103E400000708888F8888888050A0A060000102013
:103E500000708888F8888888050A0A0600002050C3
:103E600000708888F8888888050A0A06000068B00B
:103E700000708888F88888880509090600005000C5
:103E8000708888F8888888050A0A06000020502073
:103E9000708888F888888805070706000078A0A041
:103EA000F0A0A0B80509090600FE7088808080880F
:103EB000701060050A0A060000402000F88080F0BB
:103EC0008080F8050A0A060000102000F88080F0C3
:103ED0008080F8050A0A060000205000F88080F073
:103EE0008080F80509090600005000F88080F08005
:103EF00080F8030A0A060100804000E0404040408C
:103F000040E0030A0A060100204000E04040404033
:103F100040E0030A0A06010040A000E040404040A3
:103F200040E0030909060100A000E0404040404095
:103F3000E0050707060000704848E8484870050A91
:103F40000A06000068B0008888C8A8988888050A12
:103F50000A06000040200070888888888870050A5A
:103F60000A06000010200070888888888870050A7A
:103F70000A06000020500070888888888870050A2A
:103F80000A06000068B00070888888888870050973
:103F9000090600005000708888888888700505052B
:103FA00006000188502050880509090600FF0870A6
:103FB00098A8A8A8C87080050A0A0600004020003A
:103FC00088888888888870050A0A06000010200002
:103FD00088888888888870050A0A060000205000B2
:103FE000888888888888700509090600005000883C
:103FF000888888888870050A0A06000010200088D2
:1040000088502020202004070706010080E09090BF
:1040100090E080050707060000708890A09088B0A7
:104020000508080600004020007008788878050818
:104030000806000010200070087888780508080637
:1040400000002050007008788878050808060000F5
:1040500068B00070087888780507070600005000EF
:10406000700878887805080806000020502070083D
:10407000788878050505060000702870A078050787
:10408000070600FE7088808870106005080806002A
:10409000004020007088F0807005080806000010BD
:1040A00020007088F080700508080600002050008D
:1040B0007088F0807005070706000050007088F0D7
:1040C0008070030808060100804000C0404040E0C6
:1040D000030808060100204000C0404040E00308FB
:1040E0000806010040A000C0404040E0030707066A
:1040F0000100A000C0404040E00509090600005052
:10410000205008788888887005080806000068B084
:1041100000B0C888888805080806000040200070A4
:1041200088888870050808060000102000708888BC
:104130008870050808060000205000708888887084
:1041400005080806000068B00070888888700507B8
:104150000706000050007088888870050505060075
:10416000012000F800200505050600007898A8C881
:10417000F00508080600004020008888888870053F
:104180000808060000102000888888887005080844
:104190000600002050008888888870050707060000
:1041A0000050008888888870050A0A0600FE1020E2
:1041B00000888888502040800509090600FE80801C
:1041C000F0888888F080800509090600FE50008884
:1041D00088885020408002FFFFFFFFEFFFFFFFFFB6
:1041E000FFFFFFFFFFFFEFEFFFFFFFFFFFFFFFFFFF
:1041F000FFE7DFFFFFFFFFFFFFFFFFFFE7DFFFFF3F
:10420000FFFFFFFFFFFFFFE3DFFFFFFFFFFFFFFFFA
:10421000FFFFF3CFFFFFFFFFFFFFFFFFE1E1CFFF56
:10422000FFFFFFFFFFFE78000003DDFFFFFFFFFE43
:10423000FF807E0001EEFFFFFFFFFE7DCFFC000050
:10424000F77FFFFFFFFF8E060000007BBFFFFFFF31
:10425000FFC0000000007DDFFFFFFFFFFC01FE004C
:10426000003EE7FFFFFFFFFFFFFC00031F73FFFFA0
:10427000FFFFFFFFF800018F81FFFFFFFFFFFFE05F
:10428000000083F9FFFFFFFFFFFF00FC0000F0FFCD
:10429000FFFFFFFFE00FFFC00000FFFFFFFFFE0377
:1042A000FFFFC00000FFFFFFFFFFFFFFF90000005E
:1042B000FFFFFFFFFFFFFFFC0007C0FFFFFFFFFF47
:1042C000FFFFFF0007E0FFFFFFFFFFFFFFFFE0072B
:1042D000F1FFFFFFFFFFFFFFFFFC07F9FFFFFFFFFD
:1042E000FFFFFFFFFF03F9FFFFFFFFFFFFFFFFFFE0
:1042F00083F9FFFFFFFFFFFFFFFFFFC3FFFFFFFF8C
:10430000FFFFFFFFFFFFE1FFFFFFFFFFFFFFFFFFDB
:10431000FFF0BFFFFFFFFFFFFFFFFFFBF83FFFFFC7
:10432000FFFFFFFFFFFFF9F83FFFFFFFFFFFFFFF6A
:10433000FF7EF0FFFFFFFFFFFFFFFFFF8E03FFFF8A
:10434000FFFFFFFFFFFFFFE01FFFFFFFFFFFFFFF7C
:10435000FFFFFFFFFFFFFFFFFFFFFFFFFFFFFFFF6D
:10436000FFFFFFFFFFFFFFFFFFFF7FFFFFFFFF00DC
:10437000007FFFFFF87FFFFFFFFF80007FFFFFE070
:104380007FFFFFFFFFC3FCFFFFFFF8FFFFFFFFFF03
:10439000C3FCFFFFFFF8FFFFFFFFFF87FDFFFFFFED
:1043A000F1FFFFFFFFFF87FFFFFFFFF1FFFFFFFFB1
:1043B000FF0FE7F30FFC23FC3FFFFFFF0FEF80072A
:1043C000F003F01E007FFE1FCF8187C787C70C0058
:1043D0007FFE001FC7C78FC79F0F0CFFFE001F8700
:1043E0008F1F8F1F0F1FFFFC3F9F8F8F1F8E001E81
:1043F0003FFFFC7F3F0F1E3F1E3FFE3FFFF87FFF4A
:104400001F1C3F1C7FFC7FFFF8FFFF1E1C7E1C7FD4
:10441000FC7FFFF0FFCE3E3C7E3C7FB8FFFFF0FF0D
:104420009E3C387C387E78FFFFE1FF3C7C787C78CE
:104430003CF1FFFFE1F8387878101801F1FFFF0038
:104440000060203C007C07807FFFFFFFFFFFFE1F16
:10445000FE1FFFFFFF6D61726C696E66772E6F72D3
:104460006700322E302E392E33001FFFFFFFFFFF73
:10447000FF600000000001FF400000000000FF801E
:1044800000000000007F83CF00000C303F87FF80DA
:10449000000C301F867980000C000F8C30C7838C95
:1044A00030E78C30CFC7CC31F38C30DCECEC33B957
:1044B0008C30D86C6C33198C30D06C0C33198C3038
:1044C000D86C0C33198C30DC6C0E3B198C30CF7CE3
:1044D000079F198C30C77C038F1940000000000033
:1044E00002600000000000061FFFFFFFFFFFF81042
:1044F00000C90210012C014001220170011801B015
:10450000010E01F00104015002FA00B002F0003087
:1045100003E600D003DC009004D2007005C800A0C0
:1045200006BE000008B400B009AA00D00BA00060CD
:104530000E960060118C000015820020197800C0D2
:104540001D6E00A0226400B0275A00902C5000007D
:10455000314600E0343C0010383200903A280060C8
:104560003C1E00A03D1400803E0A00203F000020B9
:1045700020506C616E6E6572427566666572427936
:104580007465733A20002046726565204D656D6F35
:1045900072793A200020436F6D70696C65643A202F
:1045A00041707220313320323032320A00204C61A7
:1045B000737420557064617465643A20323032310E
:1045C0002D31322D3235207C20417574686F723A5E
:1045D00020287363686E6F6F672C20456E64657268
:1045E0002D33290A004D61726C696E20322E302EF7
:1045F000392E330A0020536F66747761726520523A
:10460000657365740A00205761746368646F67207E
:1046100052657365740A002042726F776E206F7561
:10462000742052657365740A002045787465726E53
:10463000616C2052657365740A00506F776572551E
:10464000700A0073746172740A0047323858590056
:104650004D31303031006F6B006572726F722077B0
:10466000726974696E6720746F2066696C650A00F0
:10467000446F6E6520736176696E672066696C654C
:104680002E0A004D323900456E6473746F707000ED
:1046900025532025632025632025632025630020E2
:1046A0005A3A0020593A0020583A00656E647374F3
:1046B0006F7073206869743A2000000021002400A4
:1046C00027002A002D003000330001010000040102
:1046D00007010A0100000A0B02090C0D0E0807036E
:1046E00004010000000000000000000000000000C5
:1046F00000000000000000000000000000000000BA
:104700001211100000000000000000000000000076
:104710000000000000000000000000002000230056
:10472000260029002C002F003200000100000301A8
:104730000601090100002200250028002B002E00A0
:104740003100340002010000050108010B010505DC
:104750000505070508080808020202020A0A0808F7
:104760000404040401010101010101010303030325
:1047700003030303040707070C0C0C0C0C0C0C0CB4
:104780000202020206060606060606060B0B0B0BC5
:104790000B0B0B0B010210202008081020401020EA
:1047A00040800201020108040201010204081020F5
:1047B00040808040201008040201800402018040F3
:1047C000201008040201080402010102040810205C
:1047D0004080010204081020408000202573206DD5
:1047E0006D002020302C3120206D6D002020312CD8
:1047F0003020206D6D002031302C3020206D6D0078
:1048000041636873656E206265776567656E004217
:1048100065776567652045787472756465720042D6
:104820006577656765205A00426577656765205939
:1048300000426577656765205800FFFFFF290A0081
:104840005D005B002C20002C20002E2E2E28006402
:104850006F5F686F6D696E675F6D6F766500507230
:104860006F62653A3A70726F62655F646F776E5F10
:10487000746F5F7A0020547269676765726564209F
:104880006561726C792E00204E6F207472696767C3
:1048900065722E002050726F6265206661696C211E
:1048A000202D00534C4F570050726F62653A3A7298
:1048B000756E5F7A5F70726F62650050726F6269C9
:1048C0006E67204661696C65640A0050726F6269A8
:1048D0006E6720676573636865697465727400202C
:1048E0005A3A200020593A200042656420583A2064
:1048F00000506F736974696F6E204E6F742052653B
:1049000061636861626C650A00203A200A00202019
:1049100063757272656E745F706F736974696F6EC0
:104920003D005F72656C6174697665290A002C2010
:10493000002C20002C20002C20002E2E2E28005091
:10494000726F62653A3A70726F62655F61745F7030
:104950006F696E7400456E6465722D3320626572F6
:1049600065697400447275636B742E2E2E00447258
:1049700075636B2070617573696572742E2E2E00DD
:1049800030780020496E76616C696420452073742C
:1049900065707065722000204520737465707065C5
:1049A00072206E6F74207370656369666965640A4E
:1049B00000496E76616C696420657874727564650F
:1049C000720A00220A00556E6B6E6F776E20636F5D
:1049D0006D6D616E643A202200204500205A00204F
:1049E000590020204D3932205800537465707320CF
:1049F00070657220756E697400DB0FC93F45BCDAC3
:104A00003F8FB30240FCF0274056946140FE4B9B21
:104A10004084A5D840E0231841346A5641E85997AC
:104A20004164DBD5416E271742B4B75542CE1A9781
:104A300042C8AED542B5885A43D40684BFA65FA704
:104A4000BF7443E0BF10B11AC01C2C58C0E8F697E1
:104A5000C0B849D6C04E4E17C124D355C180249743
:104A6000C1A0B5D5C1121A17C244AE55C278179766
:104A7000C26CACD5C267885AC320746F6F206C6F4C
:104A80006E6720657874727573696F6E20707265D9
:104A900076656E7465640A0020636F6C64206578C7
:104AA00074727573696F6E2070726576656E746569
:104AB000640A006F6B0A00526573656E643A2000E9
:104AC00020453A00205A3A0020593A00583A004509
:104AD00072726F722077726974696E6720746F20CA
:104AE000454550524F4D210A002F2F616374696F65
:104AF0006E3A0000E6009E0011241FBECFEFD1E207
:104B0000DEBFCDBF00E00CBF84B780937A1714BE20
:104B10000FB6F894A895809160008861809360003A
:104B2000109260000FBE13E0A0E0B2E0EEE8F2EDFC
:104B300002E00BBF02C007900D92AA3EB107D9F761
:104B400027E1AAEEB3E001C01D92AA37B207E1F750
:104B500015E2CBE7D5E200E006C021970109802FDE
:104B6000FE010F94A165CA37D10780E00807A9F7B5
:104B70000F94E7510D9436690C940000CF93DF93A6
:104B8000DB01F9019C919130C1F0943080F0945098
:104B90009C938830D1F480819181009771F00197C6
:104BA00091838083480F591FEA01188206C08C3513
:104BB00039F49C5F9C93943041F4DF91CF91089538
:104BC0008B3339F781E08C93F8CF20813181B901A3
:104BD0006F5F7F4F71836083420F531FEA018883A9
:104BE000808191818F3591056CF7E7CF0F931F93EB
:104BF00081E00091B9161091BA162091BB16309140
:104C0000BC164091B5165091B6166091B7167091CA
:104C1000B816041715072607370708F480E01F9118
:104C20000F91089590E080E0089520915004833022
:104C300021F425FD0CC024FD0CC030E0A90102C008
:104C4000559547958A95E2F7CA018170089581E0EC
:104C5000089580E0089580916C0484FD0BC08091DC
:104C60006E0487FD07C090916F04937081E019F482
:104C700080E0089581E00895CF92DF92EF92FF9255
:104C8000CF93DF93EC01CC80DD80EE80FF8027E1C5
:104C900037EB41ED58EBC701B6010F94196887FD5A
:104CA00023C027E030E04BE653E4C701B6010F9480
:104CB000DA5E1816CCF0C880D980EA80FB8027E144
:104CC00037EB41ED58EBC701B6010F94196887FD2A
:104CD0000BC0C1E027E030E045E753E4C701B6016F
:104CE0000F94DA5E18160CF4C0E08C2FDF91CF9190
:104CF000FF90EF90DF90CF9008952FEB280F2A318F
:104D000008F047C0E22FF0E080916C0490916D04B0
:104D1000A0916E04B0916F0404C0B695A7959795C5
:104D200087952A95D2F780FD02C081700895EE5ACA
:104D3000FB4FE081EE2341F18091C9089091CA08B0
:104D4000E80FF92FF11D808190ED980F9A3030F027
:104D50008E3251F4818180538A3098F4F093460466
:104D6000E093450481E008958D3211F08B3249F4CF
:104D7000818190ED980F9A3088F38E3211F4828100
:104D8000EACFF0E0E0E0EACF10924604109245044A
:104D9000E9CF80E00895B1DF882341F081E02091E0
:104DA000450430914604232B09F480E00895FC016A
:104DB000DB0112962D913D914C9114972283338300
:104DC000448315968C911597858316962D913D9168
:104DD0004C91189726833783408719964D915D91A2
:104DE0006D917C911C9741875287638774871D96CC
:104DF0004D915D916D917C9150974587568767875E
:104E0000708B88E993E09183808351968D919C917A
:104E10005297928B818B53964D915D916D917C91C0
:104E20005697438B548B658B768B57968C915797FF
:104E3000878B58968D919C915997918F808F5A9618
:104E40008D919C915B97938F828F5C968D919C91B5
:104E50005D97958F848F5E964D915D916D917C915C
:104E60009197468F578F60A371A392964D915D9154
:104E70006D917C91959742A353A364A375A39696D5
:104E80004D915D916D917C91999746A357A360A731
:104E900071A79A968D919C919B9793A782A79C96B8
:104EA0008D919C919D9795A784A79E968D919C919D
:104EB0009F9797A786A7D0968D919C91D19791ABFC
:104EC00080ABD2968C9182AB0895CF93DF93C09143
:104ED0004708D0914808209729F1609143087091C4
:104EE000440880914508909146080F9436676E5F9C
:104EF0007F4F24976C177D07ACF47093D9046093AF
:104F0000D8040F941840605A75418F4F9F4F60939B
:104F1000DA047093DB048093DC049093DD04DF916A
:104F2000CF9108951092DA041092DB041092DC0401
:104F30001092DD04F4CF682F880F770B880B990B44
:104F40000D94E32E2F923F924F925F926F927F9239
:104F50008F929F92AF92BF92CF92DF92EF92FF9289
:104F60001F93CF93DF93CDB7DEB72C970FB6F8948E
:104F7000DEBF0FBECDBF7A011901DC012D913D913D
:104F80004D915C912D833E834F835887FB01408078
:104F90005180628073808090BA139090BB13A09070
:104FA000BC13B090BD13A50194016D817E818F81EA
:104FB00098850F94DA5E81110EC011E0A301920171
:104FC0006091BE137091BF138091C0139091C11373
:104FD0000F94DA5E811110E0D1012D913D914D9138
:104FE0005C9129873A874B875C87F701C080D18025
:104FF000E280F38020911002309111024091120260
:1050000050911302C701B6010F94DA5E882309F4A8
:105010004EC0C0921002D0921102E0921202F092A1
:1050200013028091C6139091C713A091C813B09139
:10503000C9134091BE135091BF136091C01370917A
:10504000C11380928E0890928F08A0929008B0921F
:10505000910840939208509393086093940870933A
:105060009508C0929608D0929708E0929808F0921E
:10507000990880939A0890939B08A0939C08B093FA
:105080009D0820E030E040E05FE36091D70E709132
:10509000D80E8091D90E9091DA0E0F943F5F6983FC
:1050A0007A838B839C83CE0101960E94DCB92D818B
:1050B0003E814F81588520938E0830938F0840930E
:1050C00090085093910840929208509293086092F1
:1050D000940870929508D1012D913D914D915C916C
:1050E00060919A0870919B0880919C0890919D080E
:1050F0000F94F26560939A0870939B0880939C08C4
:1051000090939D0811112FC020E030E0A90169851E
:105110007A858B859C850F94DA5E811133C060E0BF
:1051200070E088EC92E469837A838B839C83CE0160
:1051300001960E94DCB92C960FB6F894DEBF0FBE24
:10514000CDBFDF91CF911F91FF90EF90DF90CF9077
:10515000BF90AF909F908F907F906F905F904F9097
:105160003F902F9008952AEF3EE74AE25FE3609177
:10517000DB0E7091DC0E8091DD0E9091DE0E0F94AF
:105180003F5FD1CF60E070E080EA91E4CCCFCF9375
:10519000DF9300D01F92CDB7DEB780E090E0A0EAA9
:1051A000B0E489839A83AB83BC8361E0CE0101962E
:1051B0000E943AD10F900F900F900F90DF91CF91F6
:1051C00008958091450490914604009731F04AE09B
:1051D00050E070E060E00D94FB5C60E070E0CB01BB
:1051E00008958091AE1182FF0BC063E687EE98E0D0
:1051F0000E9435E60F9424400E9473E981E00895EF
:1052000080E008958091450490914604009731F024
:105210004AE050E070E060E00D94CE5B60E070E04A
:10522000CB010895EFDF97FD0AC0ECDF6F3F7105FA
:105230008105910509F02CF4E5DF862F089580E0C3
:1052400008958FEF0895CF93C62FA5DD882311F021
:10525000CF91E8CF8C2FCF91089580914504909104
:105260004604892B39F0DEDF91E0811101C090E026
:10527000892F089591E0FCCFCF93DF93C82FD62FCD
:105280008ADD882319F0DF91CF91E7CF8C2F35DDB0
:10529000811101C08D2FDF91CF910895B3DFCB0134
:1052A0000895CF93DF939091AA0E93FD5AC0C82F13
:1052B00089E471DD882309F447C0B4DF90E0181653
:1052C000190614F481E090E026E0289FF001299F60
:1052D000F00D1124EA5AF74F82819381D0E0833791
:1052E000910514F083E790E0909348088093470875
:1052F000ECDD6091470870914808072E000C880B80
:10530000990B0F94E05E209143083091440840913E
:105310004508509146080F941968181694F08DECC2
:1053200099E160E00E9435E661E06C278C2F0E94D5
:10533000FDBDCC23B1F060E08D2FDF91CF910C94B7
:10534000DA988CED99E1EDCF83E525DDD82F811139
:1053500006C0CC2331F082E51EDD882311F09EDFEC
:10536000BECFDF91CF9108950F931F93CF9380917C
:105370004504909146040097E9F0FC018F01C1912A
:105380002C2F2F7D81F0C53411F0C536B9F7F80107
:10539000108270E060E00F94785AF801C083CF91DA
:1053A0001F910F91089570E060E0CF911F910F91D0
:1053B0000D94785A60E070E0CB01F1CFCF92DF928C
:1053C000EF92FF926A017B01E6DC882329F0FF90CF
:1053D000EF90DF90CF90C8CFC701B601FF90EF905C
:1053E000DF90CF9008958F929F92AF92BF92CF920D
:1053F000DF92EF92FF920F931F93CF938EE8E82EE8
:1054000088E0F82E0AEB13E19AECC92E93E1D92E2D
:10541000C0E088E58C0FBFDC882309F474C0A4DFEA
:105420004B015C018C2F01DC882309F462C0F80178
:105430002081318142815381C501B4010F94F2650D
:10544000F7016083718382839383CF5FF4E0EF0E73
:10545000F11C0C5F1F4F84E0C80ED11CC330C9F68D
:1054600085E499DC882309F459C07EDF6B017C0157
:1054700083E0DBDB882371F02091C6133091C713E2
:105480004091C8135091C913C701B6010F94F2653A
:105490006B017C01C0929A08D0929B08E0929C0814
:1054A000F0929D0840E050E0BA0186E487DF20E0FA
:1054B00030E0A9010F94196818167CF455DF20E03C
:1054C00030E040E752E40F94CE6660937802709328
:1054D000790280937A0290937B02CF911F910F9172
:1054E000FF90EF90DF90CF90BF90AF909F908F9004
:1054F0000895F6012081318142815381C501B401B3
:105500000F94F1659DCFF80180819181A281B381D3
:10551000F70180839183A283B38397CF8091C613D1
:105520009091C713A091C813B091C91380939A08A2
:1055300090939B08A0939C08B0939D08B3CFCF9302
:10554000DF93EB0128DC882319F0DF91CF91A6CE01
:10555000CE01DF91CF9108950D94E32E8F929F920B
:10556000AF92BF92CF92DF92EF92FF920F931F9371
:10557000CF93DF9310927104109270042FE3209365
:1055800072041092C7081092C60810926C04109210
:105590006D0410926E0410926F049C01F9019081C9
:1055A0002F5F3F4F9032D1F39E34C9F4818190ED4B
:1055B000980F9A3020F08D3211F08B3281F43296B0
:1055C0009F012F5F3F4F808180538A3008F470C065
:1055D0009F012F5F3F4F8081803209F46BC0F093B1
:1055E000CA08E093C9088F010F5F1F4FC0816AE2AC
:1055F00070E0C8010F94FC68009731F0FC0131970E
:1056000080818032E1F31182CD3429F0C43519F064
:10561000C73409F040C0F80180810F5F1F4F80320E
:10562000D1F380538A30B8F5C09372041092C70842
:105630001092C6086AE0CF0101964091C6085091C9
:10564000C708649F9001659F300D112420533109D4
:105650004081240F311D47FD3A953093C7082093B0
:10566000C608FC01808180538A3028F3DF0131961F
:105670008C918032D9F3CD3449F52E31310539F092
:10568000D8F42731310519F02C313105F9F4B093F4
:105690007104A0937004DF91CF911F910F91FF903F
:1056A000EF90DF90CF90BF90AF909F908F90089534
:1056B000F90186CFF9018CCF2537310538F027372E
:1056C000310528F3203A83E0380709F3D091C9085F
:1056D00040E050E0BA0110E000E0C12CD12C76018E
:1056E000C394FD0131968C91882309F47FC08132E7
:1056F000E1F4CD34D1F420323105B9F440936C0497
:1057000050936D0460936E0470936F04F093710472
:10571000E093700463E270E0CF010F94FC6800979F
:1057200009F4B9CFFC011082B6CF81548A3108F058
:1057300058C0DF019D91903291F0A0EDA90FAA30E1
:10574000E8F09E3271F4918190539A30B8F00115CF
:10575000110519F48F010150110990E013C0FD01EA
:10576000E8CF9D3211F09B3291F79181A0EDA90F06
:10577000AA3020F09E3259F79281E6CF9E2F9D1BD2
:10578000309759F3A82FB0E04601570104C0880CA8
:10579000991CAA1CBB1C8A95D2F7482959296A2949
:1057A0007B29AE5ABB4F9C9380818154DF018A31A3
:1057B00008F497CFDF018191882309F492CF90ED0F
:1057C000980F9A30B8F393ED980F923098F38B328C
:1057D00089F3CD010196EC91E03209F082CFDC0132
:1057E000F8CF0115110501F78D01DECF109371047B
:1057F0000093700440936C0450936D0460936E04A6
:1058000070936F0448CFBC0190E080E00D94792E36
:105810000D94792EFC01659175918591949108956F
:105820004F925F926F927F928F929F92AF92BF92B0
:10583000CF92DF92EF92FF92CF93DF93EC01FB01C7
:10584000C080D180E280F38027E137EB41ED58EB57
:10585000C701B6010F94196887FD8DC027E030E0BD
:105860004BE653E4C701B6010F94DA5E18160CF448
:1058700082C088809980AA80BB8027E137EB41ED08
:1058800058EBC501B4010F94196887FD74C027E077
:1058900030E045E753E4C501B4010F94DA5E181611
:1058A0000CF469C04090A0085090A1086090A20834
:1058B0007090A308A301920160E070E080EA91E497
:1058C0000F94F16527E137EB41ED58E30F94F16553
:1058D0009B01AC01C501B4010F94196887FD4BC051
:1058E000A301920160E070E087E593E40F94F16515
:1058F00027E137EB41ED58E30F94F2659B01AC01D2
:10590000C501B4010F94DA5E1816ACF18090A408BA
:105910009090A508A090A608B090A708A5019401B2
:1059200060E070E080EA91E40F94F16527E137EBE5
:1059300041ED58E30F94F1659B01AC01C701B6013D
:105940000F94196887FD17C0A501940160E070E00D
:1059500087E593E40F94F16527E137EB41ED58E3D8
:105960000F94F2659B01AC01C1E0C701B6010F9431
:10597000DA5E18160CF4C0E08C2FDF91CF91FF9007
:10598000EF90DF90CF90BF90AF909F908F907F90DF
:105990006F905F904F90089580E00C9489D19B01A7
:1059A000AC01485F5F4FBC016C5F7F4FCBCA0F9368
:1059B0001F93CF93DF9300D000D01F921F92CDB7DB
:1059C000DEB7FC018B0183A5811111C081E083A7A3
:1059D00084819581A681B781B05889839A83AB83EE
:1059E000BC83BE016F5F7F4F8EE898E0D8DF1D82D9
:1059F0001E821F82188620E030E040E05FE3609165
:105A0000C2137091C3138091C4139091C5130F9466
:105A1000F26569837A838B839C839E012B5F3F4F62
:105A2000AE014F5F5F4F6EEB73E18AEB93E18ADA71
:105A30001D821E821F82188620E030E040E05FE376
:105A4000F80160857185828593850F94F26569837D
:105A50007A838B839C83B8016C5F7F4F9E012B5FA1
:105A60003F4FAE014F5F5F4FC8016CDA28960FB60B
:105A7000F894DEBF0FBECDBFDF91CF911F910F9184
:105A800008952F923F924F925F926F927F928F92E2
:105A90009F92AF92BF92CF92DF92EF92FF920F93BD
:105AA0001F93CF93DF93CDB7DEB7A2970FB6F894CD
:105AB000DEBF0FBECDBF8C011B015E834D834090C6
:105AC000BA135090BB136090BC137090BD138090BC
:105AD000BE139090BF13A090C013B090C113DB0110
