:100000000C9485230C94C5230C94C5230C94C52310
:100010000C94C5230C94C5230C94C5230C94C523C0
:100020000C94C5230D94A3160D94A3160D94A3163A
:100030000C94C5230D9423200C94C5230C94C52344
:100040000C94C5230C94D0330C94C5230C94C52375
:100050000C94C5230C94C5230C9495300D94D91F92
:100060000C94C5230C9425E80C94EFE70C94C5235D
:100070000C94C5230C94C5230C94C5230C94C52360
:100080000C94C5230C94C5230C94C5230C94C52350
:100090000C94C5230C94C5230C94C5230C94C52340
:1000A0000C94C5230C94C5230C94C5230C94C52330
:1000B0000C94C5230C94C5230C94C5230C94C52320
:1000C0000C94C5230C94C5230C94C5230C94C52310
:1000D0000C94C5230C94C5230C94C5230C94C52300
:1000E0000C94C523084AD73B3BCE016E84BCBFFDB0
:1000F000C12F3D6C74319ABD56833DDA3D00C77FF8
:1001000011BED9E4BB4C3E916BAAAABE0000008090
:100110003F05A84CCDB2D44EB93836A9020C50B91F
:10012000918688083CA6AAAA2ABE000000803F004B
:100130000D9485170D9466170D94E4290D94D42918
:100140000D9454170D9472170D9497170D94A117D1
:100150000D94A5310D946A170D949B170D948D176E
:100160000D947B170D94A5170D946E170D94531EC7
:100170000D94DC290D9489170D9475170D947F1734
:100180000D944F170D942F190D94D8290D94ED2926
:100190000D9493174E414E494E495459494E46CD00
:1001A000CCCC3D0AD7233C17B7D13877CC2B32952E
:1001B00095E6241FB14F0A000020410000C842000C
:1001C000401C4620BCBE4CCA1B0E5AAEC59D7400D6
:1001D000407A10F35A00A0724E18090010A5D4E816
:1001E0000000E87648170000E40B54020000CA9AA9
:1001F0003B000000E1F505000080969800000040FB
:10020000420F000000A0860100000010270000003F
:1002100000E803000000006400000000000A000085
:100220000000000100000000002C76D888DC674F39
:100230000823DFC1DFAE59E1B1B796E5E3E453C669
:100240003AE651997696E8E6C28426EB898C9B6261
:10025000ED407C6FFCEFBC9C9F40F2BAA56FA5F40B
:1002600090055A2AF75C936B6CF9676DC11BFCE033
:10027000E40D47FEF520E6B500D0ED902E03009486
:100280003577050080841E080000204E0A0000001B
:10029000C80C333333330F986E12831141EF8D2125
:1002A00014893BE65516CFFEE6DB18D1844B381B8C
:1002B000F77C1D901DA4BBE424203284725E228151
:1002C00000C9F124ECA1E53D2750455447004C6599
:1002D00076656C00504C4100426574740044C3BCA8
:1002E0007365004CC3BC66746572004B6F6E6669C3
:1002F0006775726174696F6E005374616E646172C8
:10030000647765727465206C6164656E004B6F6E16
:100310006669672E206C6164656E004B6F6E66695E
:10032000672E2073706569636865726E00242045CE
:10033000696E7374656C6C756E67656E00536F6E75
:1003400064656E7665727361747A205A00457277BF
:100350002E2045696E7374656C6C756E67656E00F2
:1003600048617570746D656EC3BC003F005A75724C
:10037000C3BC636B0053746F70004B6F6E6669672C
:1003800075726174696F6E0054656D706572617429
:100390007572004265776567756E670053442D443A
:1003A0007275636B20666F72747365747A656E0024
:1003B0004A757374696572756E670053442D447293
:1003C00075636B2061626272656368656E00534499
:1003D0002D447275636B2070617573696572656E0B
:1003E00000496E666F002100486F74656E64207A64
:1003F00075206B616C74005A7572C3BC636B0057D7
:100400006569746572004732385A004732385900BE
:10041000486F6D6520400047323858004175746F51
:1004200020486F6D65004732380042657765677513
:100430006E67004D6F746F72656E206465616B74DA
:100440006976696572656E004D3834004D34382028
:10045000536F6E64656E74657374004732384F0A6B
:100460004D34382050313000426574742D4E697619
:10047000656C6C696572756E6700486F6D696E6753
:100480000048617570746D656EC3BC0024204265C0
:10049000747420566F7277C3A4726D656E00242049
:1004A000457874722E20566F7277C3A4726D656E94
:1004B0000054656D7065726174757200D402CE026D
:1004C000C90241626BC3BC686C656E002420566F24
:1004D0007277C3A4726D656E004CC3BC667465729E
:1004E00000426574740044C3BC7365004861757054
:1004F000746D656EC3BC004531005A005900580048
:100500004531005A00590058004531005A00590041
:1005100061757300616E005800544D43205472653C
:100520006962657200537465616C746843686F70CA
:100530002065696E7363682E005363687269747412
:100540006D6F6475730048796272696420746872B3
:100550006573686F6C6400547265696265722053DC
:1005600074726F6D004572772E2045696E737465E5
:100570006C6C756E67656E0042616279737465704C
:10058000205A00466C75737372617465004CC3BC6D
:100590006674657200426574740044C3BC73650080
:1005A0004765736368772E0048617570746D656E7A
:1005B000C3BC00486F6D696E6720676573636865CB
:1005C0006974657274006F70656E005452494747D4
:1005D00045524544003A20007A5F6D696E00795FAC
:1005E0006D696E00785F6D696E005265706F727430
:1005F000696E6720656E6473746F702073746174C4
:1006000075730A00203A2073796E635F706C616EB7
:100610005F706F736974696F6E0A00202063757272
:1006200072656E745F706F736974696F6E3D003EC2
:100630002000646F5F626C6F636B696E675F6D6FE4
:1006400076655F746F0020746F6F206C6F6E67202B
:10065000657874727573696F6E2070726576656EF9
:100660007465640A0020636F6C6420657874727529
:1006700073696F6E2070726576656E7465640A00CA
:10068000566F726865722025732573257320686F15
:100690006D656E0020706F736974696F6E5F73684B
:1006A000696674203D200020686F6D655F6F666627
:1006B000736574203D2000417869732000290A0089
:1006C0003C3C3C207365745F617869735F69735F5C
:1006D00061745F686F6D652800203A200A00202051
:1006E00063757272656E745F706F736974696F6E33
:1006F0003D005D203D20003E20686F6D655F6F66A8
:10070000667365745B002A2A2A205A20484F4D459B
:100710004420574954482050524F424520285A5FA0
:100720004D494E5F50524F42455F555345535F5AB6
:100730005F4D494E5F454E4453544F505F50494EB4
:1007400029202A2A2A0A3E2070726F62652E6F665F
:10075000667365742E7A203D2000000000000000C2
:10076000000000000000290A003E3E3E2073657430
:100770005F617869735F69735F61745F686F6D65EE
:1007800028005761726E696E673A20486F6D696E16
:10079000672042756D702044697669736F72203CE2
:1007A00020310A00020204290A003C3C3C20686F08
:1007B0006D65617869732800203A203E20414654D7
:1007C0004552207365745F617869735F69735F6117
:1007D000745F686F6D650A00202063757272656EC4
:1007E000745F706F736974696F6E3D006D6D0A00A0
:1007F00052652D62756D703A20006D6D0A004D6F67
:10080000766520417761793A20006D6D0A00486F66
:100810006D6520466173743A200000007543000046
:100820006B4300007A430000A0400000A04000009D
:100830000040290A003E3E3E20686F6D6561786980
:100840007328000000000100000001000080005536
:100850005555000000400033333300AAAA2A00494E
:1008600092240000002000C7711C0099991900D142
:10087000451700555515003BB113002449120011CE
:10088000111100000010000F0F0F00E3380E00439D
:10089000790D00CCCC0C00C3300C00E8A20B006436
:1008A000210B00AAAA0A00703D0A009DD809004247
:1008B0007B090092240900DCD30800888808001016
:1008C00042080000000800F0C10700878707007594
:1008D000500700711C07003EEB0600A1BC06006932
:1008E00090060066660600703E0600611806001756
:1008F000F4050074D105005BB00500B290050062FC
:100900007205005555050078390500B81E0500052B
:100910000505004EEC040087D40400A1BD0400903E
:10092000A7040049920400C17D0400EE690400C7D9
:10093000560400444404005C3204000821040041D1
:10094000100400000004003FF00300F8E00300265C
:10095000D20300C3C30300CCB503003AA803000AC6
:100960009B0300388E0300C08103009F750300D0F5
:10097000690300505E03001D5303003448030091D7
:100980003D03003333030016290300381F0300978B
:10099000150300300C0300030303000BFA020049A7
:1009A000F10200BAE802005CE002002DD802002D3E
:1009B000D0020059C80200B0C0020031B90200DA0A
:1009C000B10200AAAA0200A0A30200BC9C0200FA85
:1009D0009502005C8F0200DF8802008282020045DF
:1009E0007C02002776020027700200436A02007C26
:1009F000640200D05E02003F590200C8530200FFAB
:100A0000FDFCFAF8F6F4F2F0EEECEAE9E7E5E3E1F2
:100A1000E0DEDCDAD9D7D5D4D2D0CFCDCBCAC8C7A7
:100A2000C5C3C2C0BFBDBCBAB9B7B6B4B3B2B0AF2C
:100A3000ADACAAA9A8A6A5A4A2A1A09E9D9C9A9986
:100A4000989795949392908F8E8D8B8A89888786BC
:100A500084838281807F7E7D7B7A797877767574D6
:100A6000737271706F6E6D6C6B6A696867666564CE
:100A7000636261605F5E5D5C5B5A595858575655BA
:100A80005453525150504F4E4D4C4B4A4A4948478F
:100A90004646454443424241403F3E3E3D3C3B3B4F
:100AA0003A39383837363535343332323130302F01
:100AB0002E2E2D2C2B2B2A292928272726252524A5
:100AC000232322212120201F1E1E1D1C1C1B1B1A3C
:100AD00019191818171616151514131312121111C7
:100AE000100F0F0E0E0D0D0C0C0B0A0A0909080849
:100AF0000707060605050404030302020100002996
:100B00000A0050726F62653A3A646F5F7A5F726191
:100B100069736528006465706C6F793A2000203A2B
:100B20002050726F62653A3A7365745F6465706CE9
:100B30006F7965640A00202063757272656E745F58
:100B4000706F736974696F6E3D00206D61783A0053
:100B5000206D696E3A00417869732000000075438A
:100B600000006B4300007A4300000000000000001A
:100B70000000000045696E7374656C6C2E2067651B
:100B8000737065692E00290A002062797465733BD1
:100B900020637263200053657474696E6773205319
:100BA000746F726564202800454550524F4D2049AE
:100BB0006E697469616C697A65640A00486172647F
:100BC000636F6465642044656661756C7420536569
:100BD0007474696E6773204C6F616465640A0020E9
:100BE000286D6D2900203B204C6576656C696E6729
:100BF000200020204D3432302053004175746F2086
:100C0000426564204C6576656C696E67002046001D
:100C100020420020480020204D3134352053004D23
:100C20006174657269616C206865617475702070AB
:100C30006172616D65746572730020204D393036C4
:100C40000020543020450053746570706572206434
:100C500072697665722063757272656E7400202009
:100C60004D39313300205430204500487962726993
:100C700064205468726573686F6C640020204D3581
:100C8000363920533100543020450020580044723A
:100C900069766572207374657070696E67206D6F18
:100CA000646500204A00202047323920572049003F
:100CB00020204D3134392043203B20556E69747318
:100CC00020696E2043656C736975730A0054656D05
:100CD000706572617475726520556E697473002059
:100CE00020473231203B004C696E65617220556EA1
:100CF00069747300454550524F4D206461746173AF
:100D0000697A65206572726F722E0A00290A0020C6
:100D100062797465733B2063726320002073746F83
:100D20007265642073657474696E6773207265748C
:100D3000726965766564202800202863616C63759C
:100D40006C6174656429210A0020213D200045451D
:100D500050524F4D20435243206D69736D6174634F
:100D600068202D202873746F726564292000205339
:100D7000697A653A2000496E6465783A200000007F
:100D8000FA430000FA430000A0410000C8410000FF
:100D9000A0420000A0420000C84300001943F40133
:100DA0000000F40100003200000088130000204D14
:100DB00061726C696E3D563836290A0045455052BD
:100DC0004F4D2076657273696F6E206D69736D612A
:100DD0007463682028454550524F4D3D0024F4D49B
:100DE0003050C38E20C2A24017828B7011127A91AC
:100DF0000D816CD90AA861E108C7586607615143A3
:100E0000061E4B5D05C145A7041A411104093D9812
:100E100003713931034036DB0265339102D430541B
:100E200002802E1D02632CEE01752AC501B028A098
:100E300001102781018F2564012B244B01E022340E
:100E400001AC211F018D200D01801FFC00841EEDCF
:100E500000971DDF00B81CD200E61BC600201BBC9B
:100E600000641AB200B219A8000A19A0006A189901
:100E700000D117910040178B00B516840031167E03
:100E800000B31579003A157300C7146F0058146A3F
:100E900000EE1366008813630025135E00C7125B23
:100EA000006C12570015125400C111510070114FFF
:100EB0000021114B00D61049008D10470046104408
:100EC0000002104200C00F4000800F3E00420F3C65
:100ED00000060F3B00CB0E3800930E37005C0E353A
:100EE00000270E3400F30D3200C10D3100900D309B
:100EF00000600D2E00320D2D00050D2C00D90C2B9D
:100F000000AE0C2900850C29005C0C2700350C274D
:100F1000000E0C2600E80B2400C40B2400A00B23B9
:100F2000007D0B23005A0B2100390B2100180B20E8
:100F300000F80A1F00D90A1E00BB0A1E009D0A1DE8
:100F400000800A1D00630A1C00470A1B002C0A1BB4
:100F500000110A1A00F7091A00DD091900C409195D
:100F600000AB091900920917007B091800630917E3
:100F7000004C09160036091600200916000A09154A
:100F800000F5081500E0081400CC081400B8081497
:100F900000A4081400900813007D0812006B0813C9
:100FA00000580812004608120034081100230811E6
:100FB000001208110001081100F0071000E00710EE
:100FC00000D0071000C0071000B0070F00A10710E5
:100FD0000091070E0083070F0074070F0065070ECE
:100FE0000057070E0049070E003B070D002E070EA5
:100FF0000020070D0013070D0006070D00F9060C71
:1010000000ED060D00E0060C00D4060C00C8060C2E
:1010100000BC060C00B0060C00A4060B0099060CE0
:10102000008D060B0082060B0077060B006C060B8A
:101030000061060A0057060B004C060A0042060A29
:101040000038060A002E060A0024060A001A060ABC
:10105000001006090007060A00FD050900F405094D
:1010600000EB050900E2050900D9050900D00509D2
:1010700000C7050900BE050900B5050800AD050853
:1010800000A50509009C050800940508008C0508CA
:1010900000840508007C050800740508006C05073D
:1010A00000650508005D050700560508004E0507A8
:1010B000004705070040050800380507003105070F
:1010C000002A050700230507001C05060016050772
:1010D000000F0507000805060002050700FB0406CF
:1010E00000F5040700EE040600E8040600E2040729
:1010F00000DB040600D5040600CF040600C9040680
:1011000000C3040600BD040600B7040600B10405D0
:1011100000AC040600A6040600A00405009B04061B
:101120000095040500900406008A04050085040566
:1011300000800406007A04050075040500700405AB
:10114000006B04050066040500610405005C0405ED
:101150000057040500520405004D0405004804052D
:1011600000430405003E0404003A0405003504056C
:1011700000300404002C04050027040400230405A7
:10118000001E0404001A04040016040500110404DF
:10119000000D040400090405000404040000040414
:1011A00000FC030400F8030400F4030400F003044B
:1011B00000EC030400E8030400E4030400E003047B
:1011C00000DC030400D8030400D4030400D00304AB
:1011D00000CC030400C8030300C503030024F40487
:1011E000D9201BC40C5C0E9804C4095F026507710A
:1011F00001F405F900FB04B30048048700C103694A
:10120000005803550003034500BE023A0084023132
:101210000053022A002902250004022000E4011CD8
:1012200000C8011900AF01170098011400840113D0
:1012300000710110006101100051010E0043010D09
:101240000036010B002B010B0020010B00150109DA
:10125000000C01090003010800FB000800F300086E
:1012600000EB000700E4000600DE000600D80006E0
:1012700000D2000600CC000500C7000500C2000532
:1012800000BD000400B9000400B5000400B1000472
:1012900000AD000400A9000400A5000300A20003A3
:1012A000009F0004009B00030098000300950002CB
:1012B0000093000300900003008D0002008B0003E8
:1012C0000088000200860002008400030081000202
:1012D000007F0002007D0002007B00020079000216
:1012E0000077000100760002007400020072000125
:1012F00000710002006F0002006D0001006C00022E
:10130000006A000100690002006700010066000138
:10131000006500010064000200620001006100013C
:1013200000600001005F0002005D0001005C000140
:10133000005B0001005A0001005900010058000143
:101340000057000100560001005500010054000143
:101350000053000000530001005200010051000141
:1013600000500001004F0001004E0000004E00013F
:10137000004D0001004C0001004B0000004B00013B
:10138000004A000100490001004800000048000137
:101390000047000100460000004600010045000033
:1013A000004500010044000100430000004300012B
:1013B0000042000000420001004100000041000125
:1013C00000400001003F0000003F0001003E00001F
:1013D000003E0001003D0000003D0001003C000017
:1013E000003C0000003C0001003B0000003B00010D
:1013F000003A0000003A0001003900000039000105
:1014000000380000003800000038000100370000FC
:1014100000370001003600000036000000360001F1
:1014200000350000003500000035000100340000E8
:1014300000340000003400010033000000330000DD
:1014400000330001003200000032000000320001D1
:1014500000310000003100000031000100300000C8
:101460000030000000300001002F0000002F0000BD
:10147000002F0000002F0001002E0000002E0000B1
:10148000002E0001002D0000002D0000002D0000A6
:10149000002D0001002C0000002C0000002C00009A
:1014A000002C0001002B0000002B0000002B00008E
:1014B000002B0001002A0000002A0000002A000082
:1014C000002A000100290000002900000029000076
:1014D0000029000000290001002800000028000069
:1014E000002800000028000000280001002700005C
:1014F000002700000027000000270000002700014F
:101500000026000000260000002600000026000043
:101510000026000100250000002500000025000035
:101520000025000000250000002500010024000027
:10153000002400000024000000240000002400011A
:10154000002300000023000000230000002300000F
:1015500000230000002300000023000100220000FF
:1015600000220000002200000022000000220000F3
:1015700000220001002100000021000000210000E5
:1015800000210000002100000021000000210001D6
:1015900000200000002000000020000000200000CB
:1015A00000200000002000000020000000200001BA
:1015B000001F0000001F0000001F0000001F0000AF
:1015C000001F0000001F0000001F0001001E00009F
:1015D000001E0000001E0000001E00000039300048
:1015E000003325000087190000B00F0000DB080061
:1015F00000BD040000740200003F01000020436FA2
:10160000756E7420583A00004265747400453100CC
:101610004500626564002C2073797374656D2073D6
:10162000746F7070656421204865617465725F49EC
:10163000443A20004845495A454E204552464F4CB1
:10164000474C4F530048656174696E672066616955
:101650006C6564004D3131322053687574646F7766
:101660006E0070012C0190012701B0012201C00120
:101670001D01F00118011002130130020E01600279
:10168000090190020401C002FF000003FA004003B8
:10169000F5008003F000D003EB002004E6007004A6
:1016A000E100E004DC004005D700C005D2004006A0
:1016B000CD00D006C8008007C3003008BE00F00887
:1016C000B900C009B400B00AAF00B00BAA00D00C3A
:1016D000A500000EA000500F9B00C01096005012F5
:1016E000910000148C00C0158700B0178200B0195B
:1016F0007D00D01B7800001E730040206E009022F9
:101700006900F024640040275F0090295A00E02B14
:101710005500102E500020304B0010324600E033B0
:10172000410090353C001037370070383200A03946
:101730002D00B03A2800A03B2300603C1E00103D65
:101740001900903D1400103E0F00703E0A00C03E8C
:101750000500003F0000403FFBFF803FF6FFC03F19
:10176000F1FF200820C39C4245525343485249543C
:1017700054454E004D415854454D50207472696790
:10178000676572656400200820554E5445525343E6
:101790004852495454454E004D494E54454D5020F1
:1017A000747269676765726564002008204E49435A
:1017B0004854204552524549434854005468657284
:1017C0006D616C2052756E6177617900202F002069
:1017D00042403A0020403A0020573A0020573A0051
:1017E0004C4556454C494E4700434F4D4D554E498B
:1017F000434154494F4E0044525952554E004552B0
:10180000524F525300494E464F004543484F003B0C
:10181000200020496E76616C696420657874727569
:10182000646572200047322F473320626164207064
:101830006172616D65746572730A005761727465D7
:101840006E2E2E2E005A2050726F626520506173EA
:1018500074204265640A005A2D536F6E64652061DE
:1018600075C39F657268616C6200203A20686F6D75
:10187000655F7A5F736166656C790A002020646534
:101880007374696E6174696F6E3D00686F6D655F3A
:101890007A5F736166656C79005261697365205A7D
:1018A00020286265666F726520686F6D696E6729B2
:1018B00020627920003E20686F6D696E67206E6F30
:1018C00074206E65656465642C20736B69700A0012
:1018D00047323800205A3A200020593A2000426509
:1018E0006420583A20004D65736820706F696E74EB
:1018F000206F7574206F662072616E67650A004BF9
:101900006C69636B207A756D20466F7274736574B1
:101910007A656E004D6F746F72656E20616E6765DB
:10192000736368616C746574002569730025696D63
:1019300020256973002569682025696D2025697354
:1019400000256964202569682025696D2025697353
:101950000025697920256964202569682025696D3D
:1019600020256973005072696E742074696D653A40
:1019700020006F6B006F6666000A180518FE17F7E7
:1019800017E917E01744454255473A004D313133C6
:10199000205300456E6465722D33204F46462E005D
:1019A000434F4E4649475F4558504F5254004D45AE
:1019B00041545041434B00434F4F4C45525F5445B7
:1019C0004D5045524154555245004348414D4245C2
:1019D000525F54454D504552415455524500424185
:1019E00042595354455050494E47004152435300C9
:1019F0004D4F54494F4E5F4D4F4445530054484559
:101A0000524D414C5F50524F54454354494F4E0044
:101A1000455854454E4445445F4D3230004C4F4E7E
:101A2000475F46494C454E414D45004155544F5244
:101A300045504F52545F53445F53544154555300E3
:101A400053445F5752495445005245504541540054
:101A50005344434152440050524F4D50545F5355EC
:101A600050504F525400484F53545F414354494FD4
:101A70004E5F434F4D4D414E445300454D455247F7
:101A8000454E43595F5041525345520043415345DF
:101A90005F4C494748545F4252494748544E45536A
:101AA0005300544F47474C455F4C494748545300F7
:101AB000534F4654574152455F504F57455200428D
:101AC00055494C445F50455243454E54004C455691
:101AD000454C494E475F44415441005A5F50524F74
:101AE00042450052554E4F5554004155544F4C45B8
:101AF00056454C005052494E545F4A4F4200505296
:101B00004F4752455353004155544F5245504F5241
:101B1000545F54454D50004155544F5245504F521B
:101B2000545F504F5300564F4C554D455452494306
:101B300000454550524F4D0042494E4152595F4673
:101B4000494C455F5452414E53464552005345520D
:101B500049414C5F584F4E5F584F464600464952E8
:101B60004D574152455F4E414D453A4D61726C694A
:101B70006E20322E302E392E3320284170722031C3
:101B80003620323032322031393A34313A35352943
:101B900020534F555243455F434F44455F55524C88
:101BA0003A6769746875622E636F6D2F4D61726C50
:101BB000696E4669726D776172652F4D61726C69ED
:101BC0006E2050524F544F434F4C5F56455253492D
:101BD0004F4E3A312E30204D414348494E455F54D7
:101BE0005950453A456E6465722D3320455854521C
:101BF000554445525F434F554E543A31205555494F
:101C0000443A63656465326132662D343161322D48
:101C1000343734382D396231322D633535633632FD
:101C20006633363766660A002F2F004D3134352073
:101C3000533C696E6465783E206F7574206F662032
:101C400072616E67652028302D31290A003F4A20D5
:101C50006F7574206F662072616E67652028302E64
:101C6000303120746F20302E33290A0020204D613E
:101C7000783A2000200020204D696E3A2000203B59
:101C8000200020204D323131205300536F667420E4
:101C9000656E6473746F70730046523A0020466C30
:101CA0006F773A200064697300656E0043290A006B
:101CB00061626C656420286D696E2074656D7020AA
:101CC00000436F6C6420657874727564657320617D
:101CD000726520004D34323120696E636F72726517
:101CE000637420706172616D6574657220757361D3
:101CF00067650A004D65736820706F696E74206FA8
:101D00007574206F662072616E67650A00486F6D9A
:101D1000657665727361747A20616B7469760045CB
:101D200072723A20546F6F206661722100546F6F97
:101D3000206661722066726F6D20726566657265DD
:101D40006E636520706F696E740A00454550524F8E
:101D50004D204F4B0A00290A0020746F20003F5A83
:101D6000206F7574206F662072616E676520280091
:101D70003F59206D757374206265203020284E4FC6
:101D80005A5A4C455F41535F50524F4245292E0AE3
:101D9000003F58206D757374206265203020284EF6
:101DA0004F5A5A4C455F41535F50524F4245292E7E
:101DB0000A00206472697665722063757272656EBE
:101DC000743A2000206472697665722063757272BD
:101DD000656E743A200020647269766572206375BE
:101DE0007272656E743A20002064726976657220A2
:101DF00063757272656E743A200073707265616407
:101E00004379636C6500737465616C746843686FD3
:101E1000700020647269766572206D6F64653A099E
:101E2000007370726561644379636C6500737465F7
:101E3000616C746843686F700020647269766572C3
:101E4000206D6F64653A090073707265616443794F
:101E5000636C6500737465616C746843686F7000CF
:101E600020647269766572206D6F64653A0900734B
:101E700070726561644379636C6500737465616C4D
:101E8000746843686F700020647269766572206DB3
:101E90006F64653A090020737465616C7468436807
:101EA0006F70206D61782073706565643A20002042
:101EB000737465616C746843686F70206D6178201D
:101EC00073706565643A200020737465616C746892
:101ED00043686F70206D61782073706565643A2087
:101EE0000020737465616C746843686F70206D6165
:101EF000782073706565643A2000290A002E2E2E22
:101F0000280054006F6B0020204D323036205800DE
:101F1000486F6D65206F6666736574004361703A43
:101F200000203B0020204D383531205830205930DA
:101F3000205A005A2D50726F6265204F6666736595
:101F400074006BC3BC686C742E2E2E006865697AB1
:101F5000742E2E2E004531202553004265747420C6
:101F60006BC3BC686C742E2E2E004265747420689E
:101F700065697A742E2E2E0023646566696E65206D
:101F800044454641554C545F00626564004B6420F3
:101F9000004B6920004B702000504944204175746B
:101FA0006F74756E652066696E697368656421205B
:101FB00050757420746865206C617374204B702CAC
:101FC000204B6920616E64204B6420636F6E7374D4
:101FD000616E74732066726F6D2062656C6F77201E
:101FE000696E746F20436F6E66696775726174699C
:101FF0006F6E2E680A00504944204175746F7475E5
:102000006E65206661696C6564212074696D656F19
:1020100075740A00504944204175746F74756E657B
:10202000206661696C6564212054656D706572611C
:102030007475726520746F6F20686967680A005054
:102040004944204379636C65730025532025692F2B
:10205000256900204B643A2000204B693A2000207B
:102060004B703A200020436C6173736963205049C0
:1020700044200A00204E6F206F76657273686F6F80
:10208000740A002054753A2000204B753A20002035
:102090006D61783A2000206D696E3A200020643A24
:1020A000200020626961733A2000576169742066DC
:1020B0006F7220686561742075702E2E2E00504955
:1020C00044204175746F74756E6520737461727409
:1020D0000A00504944204175746F74756E6520661E
:1020E00061696C6564212054656D706572617475F9
:1020F000726520746F6F20686967680A00504944F0
:10210000204175746F74756E6500504944204175A7
:10211000746F74756E65206661696C656421204218
:102120006164206865617465722069640A004572A3
:10213000723A207574663820666F6E74206E6F7404
:1021400020696E697469616C697A65642E004572F4
:10215000723A207574663820666F6E74206E6F74E4
:1021600020696E697469616C697A65642E004572D4
:10217000723A207574663820666F6E74206E6F74C4
:1021800020696E697469616C697A65642E004265C4
:10219000747400476568C3A475736500202020200F
:1021A000202020002020202000657272001FE020E7
:1021B0001020102010102010202010201030300887
:1021C00040048003001FE03FF03FF03FF01FE01F9E
:1021D000E03FF03FF03FF00FC0078003003FFFF00B
:1021E00038007030FC3020FC102078102030102C8B
:1021F00000D02E31D02F7BD02F7BD02E31D02C0091
:10220000D020301020781020FC1030FC30380070C6
:102210003FFFF03FFFF038007031863023871027F2
:1022200087902F87D02F03D020301020781020786F
:10223000102030102F03D02F87D0278790238710AE
:102240003186303800703FFFF01FFFF81FFFF804A1
:10225000104002082002082004104008208010418D
:10226000001041000820800410400000001FFFF80B
:102270001FFFF8F80180000C480080001243C38C57
:10228000D00271249267CC41249E400249249040A0
:1022900012FBB3CEE00C63616E63656C0044727533
:1022A000636B206162676562726F6368656E007060
:1022B000617573650050617573652E2E2E00726511
:1022C00073756D650046696C616D656E74647572D9
:1022D00063686D6573736572004520696E206D6D6E
:1022E000C2B3004D3330332055312045256920538A
:1022F000256900504944204175746F74756E6520DE
:102300002A005049442D44202A005049442D492098
:102310002A005049442D50202A0020082046616B95
:10232000746F72002008206D6178002008206D69AC
:102330006E0061757300616E004175746F205465A5
:102340006D706572617475720056206D696E204CF7
:1023500065657266616872740056206D696E200052
:1023600056206D617820450056206D6178205A0016
:1023700056206D617820590056206D6178205800F4
:1023800041206D617820450041206D6178205A0020
:1023900041206D617820590041206D6178205800FE
:1023A00041204C6565726661687274004120456920
:1023B0006E7A75670042657363686C65756E6967F0
:1023C000756E6700536F6E64656E766572736174C7
:1023D0007A205A00452053746570732F6D6D005A32
:1023E0002053746570732F6D6D00592053746570A0
:1023F000732F6D6D00582053746570732F6D6D00D1
:102400004572772E2045696E7374656C6C756E67C6
:10241000656E003F0041626272656368656E0042EE
:10242000657374C3A4746967656E004D34323800F7
:102430005765726B7365696E7374656C6C756E67E6
:10244000656E0046696C616D656E740054656D70F3
:1024500065726174757200544D43205472656962EF
:1024600065720053746570732F6D6D00536F6E64E9
:10247000656E7665727361747A004A756E6374690D
:102480006F6E204465760042657363686C65756E97
:102490006967756E6700476573636877696E64691D
:1024A000676B656974005365747A6520486F6D6564
:1024B0007665727361747A004B6F6E6669677572C8
:1024C0006174696F6E003F004EC3A46368737465E6
:1024D0002045636B650046657274696700576569DE
:1024E0007465720058595A20686F6D656E005A2DD8
:1024F0005765727400496E646578205900496E64AE
:1025000065782058004B6F6E6669672E2073706582
:1025100069636865726E004B6F6E6669672E206C2A
:102520006164656E004265747420617573726963DD
:102530006874656E00536F6E64656E766572736164
:10254000747A205A00417573626C656E6468C3B614
:1025500068650061757300616E00426574742D4E8C
:102560006976656C6C696572756E67004E65747A24
:10257000206265617262656974656E00426574749B
:10258000206E6976656C6C696572656E00473239DC
:102590004E00473239004175746F20486F6D6500F9
:1025A0004265776567756E6700000C0F00FE0702D5
:1025B0002503BB01FFFE0AFE08FE05080806000011
:1025C00040F0C88888987810050808060000C0F810
:1025D0008888888888F80505050600012030F830CD
:1025E000200508080600002070F820202020E005C3
:1025F00009090600FF2070A8A8B888887020070580
:1026000005070001D86C366CD80509090600FFF8EB
:10261000A88888888888A8F8050A0A0600FE20503D
:1026200050505088A8A8887003030306000340A0F8
:1026300040FFFFFFFFFFFFFFFFFFFFFFFFFFFFFF69
:10264000FFFFFFFFFFFFFF0000000605FF01070778
:10265000060200808080808000800303030601055D
:10266000A0A0A005060606000050F85050F850053E
:1026700009090600FF2070A8A07028A8702005078F
:1026800007060000C8C810204098980507070600F4
:102690000040A0A040A890680103030602058080C6
:1026A000800309090601FF204040808080404020CF
:1026B0000309090601FF804040202020404080059A
:1026C000070706000020A8702070A8200505050651
:1026D00000012020F820200203030601FFC04080F3
:1026E000050101060003F8020202060100C0C00550
:1026F0000707060000081010204040800507070665
:102700000000708898A8C888700307070601004079
:10271000C040404040E005070706000070880810F0
:102720002040F8050707060000F8081030088870F8
:1027300005070706000010305090F8101005070735
:10274000060000F880F008088870050707060000FA
:10275000304080F0888870050707060000F80810F0
:1027600010202020050707060000708888708888E0
:102770007005070706000070888878081060020559
:1027800005060100C0C000C0C00206060601FFC069
:10279000C000C040800305050601012040804020A4
:1027A000050303060002F800F80305050601018091
:1027B0004020408005070706000070881020200098
:1027C000200507070600007088B8A8B880700507C4
:1027D00007060000708888F88888880507070600C3
:1027E00000F04848704848F0050707060000708868
:1027F0008080808870050707060000F04848484838
:1028000048F0050707060000F88080F08080F80592
:102810000707060000F88080F08080800507070623
:10282000000070888080988870050707060000887F
:102830008888F8888888030707060100E040404040
:102840004040E005070706000038101010109060A7
:102850000507070600008890A0C0A090880507071C
:10286000060000808080808080F805070706000051
:1028700088D8A8888888880507070600008888C83F
:10288000A8988888050707060000708888888888C7
:1028900070050707060000F08888F0808080050733
:1028A0000706000070888888A8906805070706005A
:1028B00000F08888F0A0908805070706000070885F
:1028C0008070088870050707060000F82020202087
:1028D00020200507070600008888888888887005FA
:1028E00007070600008888888850502005070706DB
:1028F000000088888888A8A8500507070600008877
:1029000088502050888805070706000088885020D6
:10291000202020050707060000F80810204080F856
:102920000309090601FFE080808080808080E00547
:102930000707060000804040201010080309090620
:1029400001FFE020202020202020E00503030600D6
:10295000052050880501010600FEF8030303060167
:102960000580402005050506000070087888780578
:1029700007070600008080F0888888F005050506B6
:10298000000070808088700507070600000808783E
:10299000888888780505050600007088F080700535
:1029A0000707060000304840E040404005070706A2
:1029B00000FE708888887808700507070600008088
:1029C00080F0888888880307070601004000C0401F
:1029D0004040E00409090601FE10003010101010FC
:1029E000906005070706000080808890E0908803CB
:1029F0000707060100C04040404040E005050506CD
:102A00000000D0A8A8A8A8050505060000B0C88841
:102A10008888050505060000708888887005070706
:102A20000600FEF0888888F080800507070600FE13
:102A300078888888780808050505060000B0C880F1
:102A4000808005050506000078807008F0050707FE
:102A50000600002020F820202018050505060000AB
:102A600088888898680505050600008888885020B1
:102A70000505050600008888A8A85005050506007C
:102A80000088502050880507070600FE8888885077
:102A9000204080050505060000F8102040F80309D5
:102AA000090601FF204040408040404020010909C4
:102AB0000602FF8080808080808080800309090674
:102AC00001FF804040402040404080050303060055
:102AD0000248A890FFFFFFFFFFFFFFFFFFFFFFFF80
:102AE000FFFFFFFFFFFFFFFFFFFFFFFFFFFFFFFFF6
:102AF000FFFFFFFFFF0000000605FF0107070602BA
:102B000000800080808080800507070600FF20701D
:102B1000A8A0A87020050707060000304840E04044
:102B200048B0050505060000A8508850A80507070D
:102B30000600008850F820F8202001070706020050
:102B4000808080008080800408080601007080601A
:102B500090906010E0030101060107A00607070638
:102B600000007884B4A4B4847803050506010460E9
:102B7000A06000E00505050600002850A0502805CB
:102B80000303060001F80808030101060103E0063B
:102B900007070600007884B4A4A484780501010620
:102BA0000007F8040404060105609090600507071B
:102BB0000600002020F8202000F803050506010487
:102BC00040A02040E0030505060104C0204020C0CD
:102BD0000303030601052040800507070600FE8861
:102BE000888898E8808005080806000078E8E8E80A
:102BF00068282828020202060203C0C00302020657
:102C000001FE20C003050506010440C04040E0036A
:102C1000050506010540A04000E005050506000089
:102C2000A0502850A0050A0A06000040C048506085
:102C300050B0507810050A0A06000040C0485060A5
:102C400050A8081038050A0A060000C0204830E0E5
:102C500050B05078100507070600002000202040E3
:102C60008870050A0A060000402000708888F888ED
:102C70008888050A0A060000102000708888F888F5
:102C80008888050A0A060000205000708888F888A5
:102C90008888050A0A06000068B000708888F888ED
:102CA00088880509090600005000708888F888881F
:102CB00088050A0A060000205020708888F8888855
:102CC0008805070706000078A0A0F0A0A0B80509B5
:102CD000090600FE708880808088701060050A0AEE
:102CE000060000402000F88080F08080F8050A0A85
:102CF000060000102000F88080F08080F8050A0AA5
:102D0000060000205000F88080F08080F805090956
:102D10000600005000F88080F08080F8030A0A0660
:102D20000100804000E04040404040E0030A0A06C5
:102D30000100204000E04040404040E0030A0A0615
:102D4000010040A000E04040404040E00309090687
:102D50000100A000E04040404040E00507070600B9
:102D600000704848E8484870050A0A06000068B044
:102D7000008888C8A8988888050A0A0600004020AC
:102D80000070888888888870050A0A06000010206C
:102D90000070888888888870050A0A06000020501C
:102DA0000070888888888870050A0A06000068B064
:102DB000007088888888887005090906000050001E
:102DC000708888888888700505050600018850206D
:102DD00050880509090600FF087098A8A8A8C870BF
:102DE00080050A0A060000402000888888888888B4
:102DF00070050A0A060000102000888888888888E4
:102E000070050A0A06000020500088888888888893
:102E10007005090906000050008888888888887035
:102E2000050A0A0600001020008888502020202073
:102E300004070706010080E0909090E080050707F6
:102E4000060000708890A09088B005080806000071
:102E500040200070087888780508080600001020D7
:102E60000070087888780508080600002050007077
:102E70000878887805080806000068B000700878AF
:102E800088780507070600005000700878887805E4
:102E9000080806000020502070087888780505058D
:102EA000060000702870A0780507070600FE7088ED
:102EB00080887010600508080600004020007088B7
:102EC000F080700508080600001020007088F0806F
:102ED000700508080600002050007088F08070051A
:102EE000070706000050007088F08070030808068D
:102EF0000100804000C0404040E003080806010097
:102F0000204000C0404040E003080806010040A007
:102F100000C0404040E0030707060100A000C04099
:102F20004040E005090906000050205008788888D4
:102F3000887005080806000068B000B0C888888856
:102F40000508080600004020007088888870050881
:102F500008060000102000708888887005080806A0
:102F6000000020500070888888700508080600005E
:102F700068B0007088888870050707060000500058
:102F800070888888700505050600012000F800207B
:102F90000505050600007898A8C8F0050808060091
:102FA0000040200088888888700508080600001006
:102FB00020008888888870050808060000205000D6
:102FC0008888888870050707060000500088888870
:102FD0008870050A0A0600FE1020008888885020A4
:102FE00040800509090600FE8080F0888888F0800E
:102FF000800509090600FE5000888888502040801E
:10300000414E474548414C54454E005072696E74DC
:1030100065722073746F70706564206475652074C8
:103020006F206572726F72732E2046697820746803
:1030300065206572726F7220616E64207573652001
:103040004D39393920746F20726573746172742E32
:10305000202854656D70657261747572652069739E
:103060002072657365742E20536574206974206125
:10307000667465722072657374617274696E672913
:103080000A004E6F20436865636B73756D20776926
:103090007468206C696E65206E756D6265722C2097
:1030A0004C617374204C696E653A200063686563F7
:1030B0006B73756D206D69736D617463682C204C42
:1030C000617374204C696E653A20004C696E65200E
:1030D0004E756D626572206973206E6F74204C614D
:1030E0007374204C696E65204E756D6265722B316C
:1030F0002C204C617374204C696E653A20004D3170
:1031000031300053657269616C207374617475733A
:10311000206D69736D617463680A002121204B4939
:103120004C4C20636175736564206279204B494C77
:103130004C20627574746F6E2F70696E0A002121C5
:10314000204B494C4C206361757365642062792083
:10315000746F6F206D75636820696E616374697642
:10316000652074696D65202D2063757272656E74BB
:1031700020636F6D6D616E643A2000627573793AF9
:103180002070617573656420666F7220696E70755A
:10319000740A00627573793A2070617573656420F2
:1031A000666F7220757365720A00627573793A20D2
:1031B00070726F63657373696E670A004269747435
:1031C00065206E65757374617274656E0044525546
:1031D000434B455220474553544F505054002553BC
:1031E0003A20255300706F7765726F666600414222
:1031F000474542524F4348454E005072696E7465D0
:10320000722068616C7465642E206B696C6C28296F
:103210002063616C6C6564210A006563686F3A0025
:103220004572726F723A004F4646004F4E0066611B
:103230006C7365007472756500202864697361623F
:103240006C6564290A0020280041424C2041646AD0
:103250007573746D656E74205A005A2046616465FA
:103260003A20002028656E61626C6564290A00417D
:10327000626F76650053616D65205A20617300426C
:10328000656C6F77004175746F20426564204C65F2
:1032900076656C696E673A2042494C494E45415209
:1032A00000204E6F7A7A6C65290A0020280050723F
:1032B0006F6265204F666673657420583020593000
:1032C000205A0050726F62653A204E4F5A5A4C4550
:1032D0005F41535F50524F42450A004D6163686938
:1032E0006E6520547970653A204361727465736924
:1032F000616E0A005D0A004578747261706F6C61DE
:103300007465205B0042696C696E656172204C6572
:1033100076656C696E6720477269643A0A00203AE4
:10332000202E2E2E4E6F77204F4E0A0020206375E0
:103330007272656E745F706F736974696F6E3D0051
:10334000203A204C6576656C696E67204F46460AC8
:1033500000202063757272656E745F706F7369749C
:10336000696F6E3D00203A202E2E2E4E6F77204F33
:1033700046460A00202063757272656E745F706F36
:10338000736974696F6E3D00203A204C6576656CF8
:10339000696E67204F4E0A00202063757272656E59
:1033A000745F706F736974696F6E3D0072657365E9
:1033B000745F6265645F6C6576656C0A00303D2EF3
:1033C00033323500313D2E3138006D6178002F33B6
:1033D00031002F3331002F333100303D2E33323561
:1033E00000313D2E3138006D6178002F3331002FD0
:1033F0003331002F333100303D2E33323500313D33
:103400002E3138006D6178002F3331002F333100B9
:103410002F333100303D2E33323500313D2E3138DF
:10342000006D6178002F3331002F3331002F33319D
:1034300000092042616420726573706F6E736521AC
:1034400000092042616420726573706F6E7365219C
:1034500000092042616420726573706F6E7365218C
:1034600000092042616420726573706F6E7365217C
:10347000004C4F570048494748004F4B0045727277
:103480006F723A20416C6C200020636F6E6E656332
:1034900074696F6E2E2E2E200054657374696E67EA
:1034A00020004C4F570048494748004F4B00457299
:1034B000726F723A20416C6C200020636F6E6E65F3
:1034C0006374696F6E2E2E2E200054657374696EBE
:1034D0006720004C4F570048494748004F4B004574
:1034E00072726F723A20416C6C200020636F6E6EB6
:1034F000656374696F6E2E2E2E2000546573746997
:103500006E6720004C4F570048494748004F4B001A
:103510004572726F723A20416C6C200020636F6EAE
:103520006E656374696F6E2E2E2E20005465737461
:10353000696E672000544D432056657262696E645F
:10354000756E67736665686C657200473236206118
:1035500062676562726F6368656E00473236204449
:10356000C3BC7365206175666865697A656E0047DE
:103570003236206865697A74204265747400576138
:103580006974696E6720666F722068656174757012
:103590002E0A004665737465204CC3A46E676520CF
:1035A0005072696D65005072696D696E672066655D
:1035B00072746967004D616E75656C6C205072693C
:1035C0006D652E2E2E00473236207665726C617343
:1035D00073656E003F537065636966696564205862
:1035E0002C5920636F6F7264696E617465206F750A
:1035F00074206F6620626F756E64732E0A003F2818
:10360000522965706561742076616C7565206E6FF6
:103610007420706C61757369626C653B206D7573A5
:1036200074206265206174206C6561737420312E92
:103630000A003F537065636966696564206E6F7A3E
:103640007A6C652074656D70657261747572652041
:103650006E6F7420706C61757369626C652E0A0000
:103660003F5370656369666965642066696C616D66
:10367000656E742073697A65206E6F7420706C615A
:10368000757369626C652E0A003F537065636966E5
:10369000696564207072696D65206C656E67746819
:1036A000206E6F7420706C61757369626C652E0A90
:1036B000003F537065636966696564206E6F7A7A4E
:1036C0006C652073697A65206E6F7420706C61750B
:1036D0007369626C652E0A003F526574726163748F
:1036E000696F6E204D756C7469706C696572206DC0
:1036F00075737420626520737065636966696564BB
:103700002E0A003F537065636966696564205265DF
:103710007472616374696F6E204D756C7469706C3E
:10372000696572206E6F7420706C61757369626C6C
:10373000652E0A003F537065636966696564206C95
:103740006179657220686569676874206E6F74209E
:10375000706C61757369626C652E0A0043292E0ACC
:10376000003F537065636966696564206265642023
:1037700074656D7065726174757265206E6F74200A
:10378000706C61757369626C65202834302D004758
:103790003236207374617274696E672E2E2E0A00A1
:1037A0004F46460A0046616465204865696768744B
:1037B0002000426564204C6576656C696E67200068
:1037C0004661696C656420746F20656E61626C652A
:1037D00020426564204C6576656C696E670A004915
:1037E0006E76616C6964206D6573682E0A003E3EDA
:1037F0003E003C3C3C0020636F72726563746564FC
:10380000205A3A0047323920756E636F72726563D1
:10381000746564205A3A00203A203E2070726F622C
:10382000696E6720636F6D706C6574650A00202097
:1038300063757272656E745F706F736974696F6EB1
:103840003D004D65737370756E6B740025532025B4
:10385000692F2569002E0A002F0050726F62696E71
:1038600067206D65736820706F696E742000202872
:1038700044525952554E2900473239204175746FD0
:1038800020426564204C6576656C696E67003F2058
:10389000284C2C522C462C4229206F7574206F66C0
:1038A00020626F756E64732E0A002042002046006D
:1038B000205200473239204C003F28562965726259
:1038C0006F7365206C6576656C20696D706C6175D1
:1038D0007369626C652028302D34292E0A004261FC
:1038E00064205A2076616C75650A004E6F2062690B
:1038F0006C696E65617220677269640A00473238CC
:103900004C30003E204175746F2D6C6576656C20DF
:103910006E6F74206E65656465642C20736B6970CE
:103920000A004732390041627765696368756E67DE
:103930000025533A2025730046696E6973686564F3
:10394000210A003A207A3A2000206F662000476F53
:10395000696E6720746F3A20580043570A0020644C
:1039600069723A0020616E676C653A005374617247
:1039700074207261646975733A004D343820507553
:103980006E6B740025533A2025642F256400506F18
:10399000736974696F6E696E6720746865207072F0
:1039A0006F62652E2E2E0A003F4C656773206F668E
:1039B000206D6F76656D656E7420696D706C6175D4
:1039C0007369626C652028302D3135292E0A003F3D
:1039D0002028582C5929206F7574206F6620626F3B
:1039E000756E64732E0A005A7520776569742064B9
:1039F000726175C39F656E003F53616D706C652089
:103A000073697A65206E6F7420706C61757369627A
:103A10006C652028342D3530292E0A004D3438208D
:103A20005A2D50726F6265205265706561746162D3
:103A3000696C69747920546573740A003F285629AB
:103A40006572626F7365206C6576656C20696D7058
:103A50006C61757369626C652028302D34292E0ADB
:103A6000005374616E6461726420446576696174A8
:103A7000696F6E3A20002052616E67653A2000201F
:103A80004D61783A2000204D696E3A20002053693C
:103A9000676D613A20004D65616E3A200020440058
:103AA00020204D3230302053002028446973616259
:103AB0006C6564293A0046696C616D656E742073AB
:103AC000657474696E67730020204D323031205860
:103AD000004D617820416363656C65726174696F44
:103AE0006E2028756E6974732F7332290020204D63
:103AF0003230332058004D6178206665656472610C
:103B00007465732028756E6974732F7329002052B1
:103B10000020204D323034205000416363656C65D5
:103B2000726174696F6E2028756E6974732F7332B9
:103B3000292028503C7072696E742D616363656C36
:103B40003E20523C726574726163742D61636365DB
:103B50006C3E20543C74726176656C2D61636365C4
:103B60006C3E2900204A0020540020530020204DA4
:103B7000323035204200416476616E6365642028EE
:103B8000423C6D696E5F7365676D656E745F7469E5
:103B90006D655F75733E20533C6D696E5F6665654C
:103BA00064726174653E20543C6D696E5F7472612D
:103BB00076656C5F66656564726174653E204A3C3B
:103BC0006A756E635F6465763E2900204400204973
:103BD0000020204D333031205000486F74656E64F2
:103BE000205049440020440020490020204D33301B
:103BF0003420500042656420504944004452565FCE
:103C0000535441545553090050574D5F5343414C51
:103C100045090050574D434F4E460900434F4F4C06
:103C2000434F4E46090043484F50434F4E4609000C
:103C3000544849474809090054434F4F4C5448528F
:103C40005309005450574D5448525309005453548B
:103C5000455009090054504F574552444F574E099B
:103C600000494F494E09090047535441540909007E
:103C700049484F4C445F4952554E090047434F4E07
:103C80004609090009004472697665722072656709
:103C90006973746572733A0A00733276736209004D
:103CA00073327673610900313230430900313433A5
:103CB0004309003135304309003135374309006F7E
:103CC0007409006F747077090073326761090073BB
:103CD00032676209006F6C6109006F6C62090073E2
:103CE000747374090073675F726573756C74004454
:103CF00052565354415455530075537465702063A4
:103D00006F756E74005374616C6C677561726420BA
:103D10007468727300202D7374617274090068797D
:103D200073746572657369730A202D656E6409008A
:103D3000626C616E6B2074696D65006F66662074DD
:103D4000696D650070776D206772616420617574BC
:103D50006F0070776D206F6666736574206175748F
:103D60006F0070776D207363616C65206175746F8F
:103D70000070776D207363616C652073756D004F03
:103D800054207072657761726E005B6D6D2F735D8C
:103D9000090050574D207468726573682E00747363
:103DA0007465700900696E7465727009006D7374D2
:103DB0006570730900737465616C746843686F7033
:103DC000007673656E7365090050574D207363610B
:103DD0006C650043532061637475616C00486F6CBF
:103DE000642063757272656E740052756E2063751F
:103DF0007272656E74004D41582063757272656E03
:103E00007400524D532063757272656E7400536571
:103E1000742063757272656E7400456E61626C65C4
:103E2000640900090002FFFFFFFFEFFFFFFFFFFF34
:103E3000FFFFFFFFFFEFEFFFFFFFFFFFFFFFFFFFB2
:103E4000E7DFFFFFFFFFFFFFFFFFFFE7DFFFFFFFF2
:103E5000FFFFFFFFFFFFE3DFFFFFFFFFFFFFFFFFAE
:103E6000FFF3CFFFFFFFFFFFFFFFFFE1E1CFFFFF0A
:103E7000FFFFFFFFFE78000003DDFFFFFFFFFEFFF7
:103E8000807E0001EEFFFFFFFFFE7DCFFC0000F70C
:103E90007FFFFFFFFF8E060000007BBFFFFFFFFFDD
:103EA000C0000000007DDFFFFFFFFFFC01FE0000FF
:103EB0003EE7FFFFFFFFFFFFFC00031F73FFFFFF55
:103EC000FFFFFFF800018F81FFFFFFFFFFFFE00012
:103ED0000083F9FFFFFFFFFFFF00FC0000F0FFFF82
:103EE000FFFFFFE00FFFC00000FFFFFFFFFE03FF2B
:103EF000FFC00000FFFFFFFFFFFFFFF9000000FF12
:103F0000FFFFFFFFFFFFFC0007C0FFFFFFFFFFFFFA
:103F1000FFFF0007E0FFFFFFFFFFFFFFFFE007F1EC
:103F2000FFFFFFFFFFFFFFFFFC07F9FFFFFFFFFFA2
:103F3000FFFFFFFF03F9FFFFFFFFFFFFFFFFFF830F
:103F4000F9FFFFFFFFFFFFFFFFFFC3FFFFFFFFFFC3
:103F5000FFFFFFFFFFE1FFFFFFFFFFFFFFFFFFFF8F
:103F6000F0BFFFFFFFFFFFFFFFFFFBF83FFFFFFF7B
:103F7000FFFFFFFFFFF9F83FFFFFFFFFFFFFFFFF1E
:103F80007EF0FFFFFFFFFFFFFFFFFF8E03FFFFFF3E
:103F9000FFFFFFFFFFFFE01FFFFFFFFFFFFFFFFF30
:103FA000FFFFFFFFFFFFFFFFFFFFFFFFFFFFFFFF21
:103FB000FFFFFFFFFFFFFFFFFF7FFFFFFFFF00008F
:103FC0007FFFFFF87FFFFFFFFF80007FFFFFE07FA5
:103FD000FFFFFFFFC3FCFFFFFFF8FFFFFFFFFFC373
:103FE000FCFFFFFFF8FFFFFFFFFF87FDFFFFFFF173
:103FF000FFFFFFFFFF87FFFFFFFFF1FFFFFFFFFF57
:104000000FE7F30FFC23FC3FFFFFFF0FEF8007F0EC
:1040100003F01E007FFE1FCF8187C787C70C007F7C
:10402000FE001FC7C78FC79F0F0CFFFE001F878FA3
:104030001F8F1F0F1FFFFC3F9F8F8F1F8E001E3F84
:10404000FFFC7F3F0F1E3F1E3FFE3FFFF87FFF1F1D
:104050001C3F1C7FFC7FFFF8FFFF1E1C7E1C7FFCAB
:104060007FFFF0FFCE3E3C7E3C7FB8FFFFF0FF9E1F
:104070003C387C387E78FFFFE1FF3C7C787C783CE4
:10408000F1FFFFE1F8387878101801F1FFFF000028
:1040900060203C007C07807FFFFFFFFFFFFE1FFECC
:1040A0001FFFFFFF6D61726C696E66772E6F72671E
:1040B00000322E302E392E33001FFFFFFFFFFFFF8F
:1040C000600000000001FF400000000000FF8000D1
:1040D000000000007F83CF00000C303F87FF80008E
:1040E0000C301F867980000C000F8C30C7838C3019
:1040F000E78C30CFC7CC31F38C30DCECEC33B98CAF
:1041000030D86C6C33198C30D06C0C33198C30D89F
:104110006C0C33198C30DC6C0E3B198C30CF7C0767
:104120009F198C30C77C038F1940000000000002EB
:10413000600000000000061FFFFFFFFFFFF81000F7
:10414000C90210012C014001220170011801B001C7
:104150000E01F00104015002FA00B002F000300339
:10416000E600D003DC009004D2007005C800A00671
:10417000BE000008B400B009AA00D00BA000600E79
:10418000960060118C000015820020197800C01D77
:104190006E00A0226400B0275A00902C500000311D
:1041A0004600E0343C0010383200903A2800603C71
:1041B0001E00A03D1400803E0A00203F0000202089
:1041C000506C616E6E657242756666657242797496
:1041D00065733A20002046726565204D656D6F72EB
:1041E000793A200020436F6D70696C65643A204114
:1041F000707220313620323032320A00204C617326
:104200007420557064617465643A20323032312D07
:1042100031322D3235207C20417574686F723A201E
:10422000287363686E6F6F672C20456E6465722D0E
:10423000332E78290A004D61726C696E20322E305F
:104240002E392E330A0020536F6674776172652011
:1042500052657365740A00205761746368646F6700
:104260002052657365740A002042726F776E206F6A
:1042700075742052657365740A0020457874657200
:104280006E616C2052657365740A00506F776572B9
:1042900055700A0073746172740A00456E64737419
:1042A0006F7070002553202563202563202563202F
:1042B000256300205A3A0020593A0020583A0065F8
:1042C0006E6473746F7073206869743A2000000024
:1042D0002100240027002A002D00300033000101B6
:1042E0000000040107010A0100000A0B02090C0D7D
:1042F0000E08070304010000000000000000000099
:1043000000000000000000000000000000000000AD
:10431000000000001211100000000000000000006A
:10432000000000000000000000000000000000008D
:1043300020002300260029002C002F00320000015D
:1043400000000301060109010000220025002800E9
:104350002B002E003100340002010000050108018D
:104360000B010505050507050808080802020202F9
:104370000A0A080804040404010101010101010101
:104380000303030303030303040707070C0C0C0CCC
:104390000C0C0C0C020202020606060606060606B5
:1043A0000B0B0B0B0B0B0B0B010210202008081042
:1043B0002040102040800201020108040201010295
:1043C000040810204080804020100804020180046E
:1043D00002018040201008040201080402010102C9
:1043E00004081020408001020408102040800020B2
:1043F0002573206D6D002020302C3120206D6D0044
:104400002020312C3020206D6D002031302C3020C8
:10441000206D6D0041636873656E20626577656726
:10442000656E0042657765676520457874727564CE
:10443000657200426577656765205A004265776559
:104440006765205900426577656765205800FFFF62
:10445000FF290A005D005B002C20002C20002E2E7E
:104460002E2800646F5F686F6D696E675F6D6F7691
:10447000650050726F62653A3A70726F62655F6490
:104480006F776E5F746F5F7A00205472696767653B
:10449000726564206561726C792E00204E6F207405
:1044A0007269676765722E002050726F62652066C0
:1044B00061696C21202D00534C4F570050726F6280
:1044C000653A3A72756E5F7A5F70726F626500501E
:1044D000726F62696E67204661696C65640A00509C
:1044E000726F62696E67206765736368656974657A
:1044F000727400205A3A200020593A200042656424
:1045000020583A2000506F736974696F6E204E6FA7
:104510007420526561636861626C650A00203A200C
:104520000A00202063757272656E745F706F736924
:1045300074696F6E3D005F72656C617469766529A0
:104540000A002C20002C20002C20002C20002E2ED5
:104550002E280050726F62653A3A70726F62655F22
:1045600061745F706F696E7400456E6465722D339F
:104570002062657265697400447275636B742E2ED7
:104580002E00447275636B20706175736965727477
:104590002E2E2E0030780020496E76616C696420E2
:1045A0004520737465707065722000204520737417
:1045B0006570706572206E6F7420737065636966D4
:1045C0006965640A00496E76616C69642065787477
:1045D00072756465720A00220A00556E6B6E6F7701
:1045E0006E20636F6D6D616E643A2022002045007D
:1045F000205A0020590020204D3932205800537491
:104600006570732070657220756E69740020453A7C
:1046100000205A3A0020593A00583A004572726F09
:10462000722077726974696E6720746F20454550F7
:10463000524F4D210A00DB0FC93F45BCDA3F8FB313
:104640000240FCF0274056946140FE4B9B4084A5FD
:10465000D840E0231841346A5641E859974164DB59
:10466000D5416E271742B4B75542CE1A9742C8AE0D
:10467000D542B5885A43D40684BFA65FA7BF74430A
:10468000E0BF10B11AC01C2C58C0E8F697C0B8495A
:10469000D6C04E4E17C124D355C1802497C1A0B5B2
:1046A000D5C1121A17C244AE55C2781797C26CAC66
:1046B000D5C267885AC320746F6F206C6F6E6720F5
:1046C000657874727573696F6E2070726576656E49
:1046D0007465640A0020636F6C6420657874727579
:1046E00073696F6E2070726576656E7465640A001A
:1046F0006F6B0A00526573656E643A20002F2F615C
:104700006374696F6E3A0000A80011241FBECFEFDA
:10471000D1E2DEBFCDBF00E00CBF84B78093C420E0
:1047200014BE0FB6F894A8958091600088618093BC
:104730006000109260000FBE13E0A0E0B2E0EEEB6C
:10474000FFE802E00BBF02C007900D92A83DB10741
:10475000D9F720E2A8EDB3E001C01D92A43CB20756
:10476000E1F713E2C5E8D3E200E006C021970109B2
:10477000802FFE010F947944C438D10780E00807E8
:10478000A9F70F9418330D94DD470C940000FC0139
:1047900090E1A6E0B5E001900D929A95E1F70895B9
:1047A000EF92FF920F931F93E0923804F092390436
:1047B00000933A0410933B0460933C0470933D04CF
:1047C00080933E049FEFFF27621B730B840B30F432
:1047D000809570956195790B890B992790932F0798
:1047E000A6E06A9F00922307512DEE277A9F500D75
:1047F000E11D8A9FE00D50932407E0932507AFE069
:104800006A9F00922707512DEE277A9F500DE11DD8
:104810008A9FE00D50932807E0932907AAE06A9F3A
:1048200000922B07512DEE277A9F500DE11D8A9F94
:10483000E00D50932C07E0932D071F910F91FF90EF
:10484000EF9008959F92AF92BF92CF92DF92EF9236
:10485000FF920F931F93CF93DF9300D01F921F926D
:10486000CDB7DEB7EFEFF9E00027BB27462F572F74
:10487000A82FAA2341F4A52F542FB85FAA2319F417
:10488000A52F5527B85FA03138F45295A295452F32
:104890004F70507FA42BBC5FA03428F4550FAA1F83
:1048A000550FAA1FBE5FA03818F4550FAA1FB39565
:1048B000550FAA1FEA0FF01F449151E0AA27B850E4
:1048C00079F1C0F0B0FF02C0440F551FB1FF04C022
:1048D000440F551F440F551FB2FF06C05295429515
:1048E000142F1F70407F512BB3FF1AC0A52F542FD8
:1048F000442716C0B195B0FF02C055954795B1FF4A
:1049000004C05595479555954795B2FF05C05295FA
:10491000407F4295452B5F70B3FF02C0452F55275E
:10492000DD24CC24BB24B2E0649FD018C108B00AB7
:10493000B00B749FC018B108B00B849FB018B109B8
:10494000659FC018B108B00B759FB018B109859F5D
:10495000B0196A9FB018B1097A9FB0194D9DA12C6A
:1049600099243327992722275D9DA00C911C301F85
:10497000901F201FAD9D900C311D901F201F4C9D3E
:10498000A00C911C301F901F201F5C9D900C311DAE
:10499000901F201FAC9D300D911D201F4B9D900C32
:1049A000311D901F201F5B9D300D911D201FAB9D61
:1049B000900D211D4B9F300D911D201F5B9F900D71
:1049C000211DAB9F200DB1E0BB24CC24DD24639FCF
:1049D000D018C108B00AB00B739FC018B108B00B53
:1049E000839FB018B109699FC018B108B00B799FB7
:1049F000B018B109899FB019629FB018B109729FB0
:104A0000B019D61AC70AB80A20F0B1E03B0F901FC0
:104A1000201F1124792F632F90E0822F0F900F9089
:104A20000F900F900F90DF91CF911F910F91FF90FA
:104A3000EF90DF90CF90BF90AF909F900895CF926E
:104A4000DF92EF92FF9280910204882309F457C00D
:104A5000C090FE03D090FF03E0900004F0900104AA
:104A600020E030E0A901C701B6010F94B23D8823D0
:104A700009F445C020E030E040E05FE3C701B60143
:104A80000F94173E9B01AC010F94173E2BED3FE0B6
:104A900049E450E40F94173E9B01AC0160E070E0E4
:104AA00080E89FE30F94A6456B017C01C092F4035C
:104AB000D092F503E092F603F092F70360910B02B7
:104AC00070910C02072E000C880B990B0F94B83DC7
:104AD0002AE037ED43E25CE30F94173EA70196010D
:104AE0000F94173E60937E0270937F028093800242
:104AF00090938102FF90EF90DF90CF900895C12CAA
:104B0000D12C80E8E82E8FE3F82ED0CFFC01708105
:104B1000472F50E0062E02C0559547950A94E2F7BC
:104B200040FF14C04091E70350E0062E02C05595A7
:104B300047950A94E2F740FF09C021E030E001C048
:104B4000220F6A95EAF720952723208308959C0178
:104B5000283E83E03807D0F1C90168EE73E00F9476
:104B60005244CB016AE070E00F945244805D809320
:104B7000DD0380E22436310558F0C90164E670E0B7
:104B80000F945244CB016AE070E00F945244805D70
:104B90008093DE0380E22A30310558F0EAE0F0E04D
:104BA000C901BF010F945244CB01BF010F9452447D
:104BB000805D8093DF03C9016AE070E00F94524486
:104BC000805D8093E0038DED93E0089580E2CFCF88
:104BD00024E6829FC001112481589F4F6FEF70E03F
:104BE0000F946644262F81E3643609F080E28093B7
:104BF000DD0390E22A3040F03AE0822F632F0F94D9
:104C000039440F943944905D9093DE03822F6AE01B
:104C10000F943944905D9093DF0385E28093E00325
:104C20008DED93E0089560910B0270910C02072EB8
:104C3000000C880B990B0F94B83D2AE037ED43E246
:104C40005CE30F94173E2091F4033091F5034091FB
:104C5000F6035091F7030F94173E60937E02709312
:104C60007F0280938002909381020895CF93DF9317
:104C7000EC01CB01BA010F94B83D2DEC3CEC4CECAF
:104C80005DE30F94A6450F94134679836883DF9103
:104C9000CF9108950F94B83D2DEC3CEC4CEC5DE3C6
:104CA0000F94A6450F941346CB0151CF8091641207
:104CB000811104C080913F128093D6120895CF9342
:104CC000DF93EC01CB01BA010F94B83D29EC38EC2D
:104CD00048EC5EE30F94A64520E030E040E05FE35F
:104CE0000F94CA440F9413466883DF91CF910895BF
:104CF0000F94B83D29EC38EC48EC5EE30F94A645E0
:104D000020E030E040E05FE30F94CA440F94134684
:104D1000862F5ECFE091641286E0E802F001112454
:104D2000E95DFD4E80913F1290E095838483089564
:104D3000CF93DF93C0915704D0915804209729F165
:104D400060915304709154048091550490915604DD
:104D50000F940E466E5F7F4F24976C177D07ACF45F
:104D600070934305609342050F948719605E714B01
:104D70008F4F9F4F60934405709345058093460580
:104D800090934705DF91CF910895109244051092BA
:104D900045051092460510924705F4CFC9CF6091A2
:104DA000471F70E090E080E00D949B256091441FC8
:104DB0007091451F81E19FE10D948F2860917B1FC9
:104DC00070917C1F88E49FE10D948F286091B21F41
:104DD0007091B31F8FE79FE10D948F286091E91FB9
:104DE0007091EA1F86EB9FE10D948F2860917E1FE2
:104DF00070E090E080E00D94EA256091B51F70E0CE
:104E000090E080E00D9439266091EC1F70E090E016
:104E100080E00D9488260D940C110D9414110D94BE
:104E20001C110D9424114091370421E042276CE0BD
:104E300070E00D944A104091370421E0422764E06D
:104E400070E00D944A104091370421E0422761E060
:104E500070E00D944A104091370421E0422761E050
:104E600070E00D944A104091370421E0422768E039
:104E700070E00D944A104091370421E042276CE025
:104E800070E00D944A1041E061E070E00D944A102A
:104E90004091370421E042270D944A106CE070E005
:104EA0000D94C81864E070E00D94C81861E070E0DB
:104EB0000D94C81861E070E00D94C8186CE070E0C3
:104EC0000D94C818CF93C82FCB010E94E2CD85ED79
:104ED00095E00E94E2CD86EC95E0CC2311F08BECBE
:104EE00095E0CF910C94E7D820E040E070E060E0DE
:104EF00083E297E40E94948081E0809345121092AF
:104F0000D9031092D803089520E040E070E060E0FB
:104F10008FE99CE20C94948021E020934512FC01DF
:104F200080819181A281B3818093000290930102DC
:104F3000A0930202B093030220E040E070E060E042
:104F400080913D1290913E120C949480CF93DF9308
:104F500000D01F92CDB7DEB78DEC9CECACECBCE37F
:104F600089839A83AB83BC83CE010196D5DF0F90F2
:104F70000F900F900F90DF91CF910895CF93DF9313
:104F800000D01F92CDB7DEB78DEC9CECACECBDE34E
:104F900089839A83AB83BC83CE010196BDDF0F90DA
:104FA0000F900F900F90DF91CF910895CF93DF93E3
:104FB00000D01F92CDB7DEB780E090E0A0E8BFE35D
:104FC00089839A83AB83BC83CE010196A5DF0F90C2
:104FD0000F900F900F90DF91CF910895CF93DF93B3
:104FE00000D01F92CDB7DEB780E090E0A0E2B1E440
:104FF00089839A83AB83BC83CE0101968DDF0F90AA
:105000000F900F900F90DF91CF9108953F924F92A4
:105010005F926F927F928F929F92AF92BF92CF9248
:10502000DF92EF92FF920F931F93CF93DF930F9432
:105030005913C091461285E0682E6C0E02E096E08E
:10504000E92E94E0F92ED4E0DC1B772473942BE056
:10505000C22E24E0D22E13E01C1B37E1A32E34E035
:10506000B32E502E5C1A46E2842E44E0942E472C38
:105070004C1A3C2E3194C11138C0809148128823BB
:10508000B1F080917D02882359F081E0909148121F
:10509000911180E024E04AE254E0632D0F946612FF
:1050A000CF5FC611E8CF85E0809347120CC0809196
:1050B000441210924412882321F30E94A28180910D
:1050C0005D128823F1F2DF91CF911F910F91FF9034
:1050D000EF90DF90CF90BF90AF909F908F907F9098
:1050E0006F905F904F903F900895C13001F590917F
:1050F0004812913069F080917D02882389F281E025
:10510000913009F080E020E24CE154E0642DC6CFFC
:105110008091441210924412882369F39092BC0B40
:105120008092BB0B80915D12882329F3CCCFC230D3
:1051300009F055C01092641290914812923071F0AB
:1051400080917D02882309F4ABCF81E0923009F091
:1051500080E020E240E154E0652DA0CF8091441230
:1051600010924412882361F3B092BC0BA092BB0B47
:1051700080915D12882321F3A6CF709264129091E2
:105180004812933071F080917D02882309F488CF12
:1051900081E0933009F080E020E240E154E0612FAB
:1051A0007DCF8091441210924412882361F3D092F3
:1051B000BC0BC092BB0B80915D12882321F383CF7F
:1051C00080914412109244128823A1F0F092BC0BFB
:1051D000E092BB0B80915D12882361F074CFC330E5
:1051E00061F2C43009F05CCF0093641290914812D0
:1051F000943031F380917D02882309F451CF81E00E
:10520000943009F080E020E240E154E06D2F46CF79
:1052100066E376E28AE496E20C94DD8E6FE576E250
:1052200088E796E20C94DD8EBF92CF92DF92EF92E8
:10523000FF920F931F93CF93DF930F945913C09155
:10524000461285E0C82ECC0ED4E0DC1B13E01C1BFC
:1052500082E0F82EFC1A81E0E82EEC1ABC2EB19404
:10526000C11130C0809148128823B1F080917D0235
:10527000882359F081E090914812911180E024E058
:1052800049E155E06B2D0F946612CF5FCC12E8CF49
:1052900085E0809347120CC0809144121092441212
:1052A000882321F30E94A28180915D128823F1F26C
:1052B000DF91CF911F910F91FF90EF90DF90CF90F2
:1052C000BF900895C13081F5809148128130C9F0B6
:1052D00080917D028823C9F2DD24D3948091481205
:1052E000813009F0D12C8091E91F9091EA1F2FDCC9
:1052F00000E09C014EEF54E06E2D8D2D0E94AF8F8B
:10530000C4CF8091441210924412882309F34EEEC8
:1053100056E269EE7FE18EEF94E00F945D16809186
:105320005D128823A9F2C4CFC23009F06FC080910A
:1053300048128230B9F080917D02882309F4A5CF0C
:10534000DD24D39480914812823009F0D12C8091D1
:10535000B21F9091B31FFBDB00E09C014CEF54E0C7
:105360006F2DCBCF8091441210924412882319F3F1
:1053700046EE56E262EB7FE18CEF94E00F945D160F
:1053800080915D128823B9F293CF809148128330C7
:10539000B9F080917D02882309F477CFDD24D3947E
:1053A00080914812833009F0D12C80917B1F90911D
:1053B0007C1FCDDB00E09C014AEF54E0612F9DCFC4
:1053C0008091441210924412882319F34EED56E254
:1053D0006BE77FE18AEF94E00F945D1680915D1298
:1053E0008823B9F265CF8091441210924412882329
:1053F000B9F046ED56E264E47FE187EF94E00F9464
:105400005D1680915D12882359F052CFC33009F4A4
:10541000BCCFC43009F039CF80914812843019F3E1
:1054200080917D02882309F430CFDD24D3948091CC
:105430004812843009F0D12C8091441F9091451F6F
:1054400086DB00E09C0147EF54E06D2F56CF8F9232
:105450009F92AF92BF92CF92DF92EF92FF920F9303
:105460001F93CF93DF930F945913C091461285E099
:10547000B82EBC0ED1E011E093E0F92E85E0E82EC5
:10548000EC1A84E0D82EDC1AAF2CAC1A82E0C82EBD
:10549000CC1A9D2E9C1A8C2E8194C1112EC0DD2316
:1054A000D9F0809148121816BCF040914D125091DD
:1054B0004E1260914F12709150124F5F5F4F6F4FBD
:1054C0007F4F40934D1250934E1260934F12709342
:1054D00050128F5F8093481280917D02882331F0B3
:1054E00041E065E275E0882D0F940112CF5FBC1298
:1054F000D4CF86E08093471224C0C13079F58091E3
:105500004812813091F080917D02882361F081E022
:1055100090914812913009F080E024E049E155E093
:10552000692D0F946612D0E0E1CF80914412109261
:105530004412882341F30E94A28180915D12882346
:1055400011F3DF91CF911F910F91FF90EF90DF90BA
:10555000CF90BF90AF909F908F900895C23009F088
:10556000A8C0809148128230C9F080917D028823C2
:10557000D1F281E090914812923009F080E0909150
:10558000EB1F24E135E0911102C020E135E001E09C
:1055900047E155E06C2D0E94AF8FC5CF809144123A
:1055A00010924412882309F38091EB1F8127809386
:1055B000EB1FF0927D022FDC80915D128823A9F20F
:1055C000C0CF8091441210924412882309F479C00C
:1055D0008091B41F81278093B41FC0937D021DDC8E
:1055E00080915D12882309F46CC0ABCFC43079F58B
:1055F000809148128430C1F080917D02882309F4A3
:1056000092CF81E090914812943009F080E090911F
:105610007D1F24E135E0911102C020E135E001E079
:105620004CE055E06D2DB7CF80914412109244129A
:10563000882311F380917D1F812780937D1FF09235
:105640007D02EDDB80915D128823B1F27ACFC53007
:1056500009F04CCF809148128530C1F080917D02D5
:10566000882309F460CF81E090914812953009F0C9
:1056700080E09091461F24E135E0911102C020E1C5
:1056800035E001E049E055E06E2D85CF8091441270
:1056900010924412882311F38091461F8127809332
:1056A000461FF0927D02BDDB80915D128823B1F22E
:1056B00048CFC33009F09ACF80914812833009F463
:1056C00080CF80917D02882309F42DCF81E09091D5
:1056D0004812933009F080E09091B41F24E135E046
:1056E000911102C020E135E001E04EE055E06A2D65
:1056F00052CF60913F128FEF0D945B3180913F123A
:10570000682F0D945B316FEF80913F120D945B31E8
:105710004F925F926F927F928F929F92AF92BF92C1
:10572000CF92DF92EF92FF920F931F93CF93DF936D
:1057300000913F120F945913C091461210E0000FD0
:10574000111F04541B4F95E0592E5C0E2CE8E22EDD
:1057500024E0F22ED3E0DC1B33E8C32E3BE2D32E51
:105760004EE9A42E44E0B42E82E0782E7C1A5CEC44
:10577000852E54E0952E81E0682E6C1A4C2E4194B3
:10578000C11137C0809148128823B1F080917D0209
:10579000882359F081E090914812911180E024E033
:1057A00041EB54E0642D0F946612CF5FC511E8CF32
:1057B00084E0809347120CC08091441210924412EE
:1057C000882321F30E94A28180915D128823F1F247
:1057D000DF91CF911F910F91FF90EF90DF90CF90CD
:1057E000BF90AF909F908F907F906F905F904F9001
:1057F0000895C13059F5F8018591949190936612FE
:105800008093651280914812813081F080917D02F1
:10581000882359F21F929F928F926F9281E090910C
:105820004812913009F473C080E071C08091441235
:1058300010924412882351F380913F12682F0F94E5
:105840005B3180915D12882309F3C2CFC23009F029
:1058500041C0F801859194919093661280936512EE
:10586000809148128230D1F080917D02882309F422
:105870009CCFDF92CF92BF92AF927F9281E09091C6
:105880004812923009F080E08F930E9486800F903A
:105890000F900F900F900F900F9087CF8091441230
:1058A00010924412882301F32EDF80915D12882329
:1058B000D9F28ECF80914412109244128823C1F005
:1058C00060913F128FEF0F945B3180915D128823BE
:1058D00079F07ECFC33009F068CFF80185919491BB
:1058E000909366128093651280914812833011F371
:1058F00080917D02882309F458CF1F92FF92EF9286
:10590000DF9381E090914812933009F08DCF8F930F
:105910000E9486800F900F900F900F900F9045CFB0
:105920006CE178E582E00D94432F60E278E581E058
:105930000D94432F64E278E580E00D94432F64EDED
:1059400075E583E00D94432FEF92FF920F931F9321
:1059500086EEE82E83E0F82E08EE13E030E020E03B
:1059600044E857E267EF73E08FEF93E00F94E8228B
:105970001F910F91FF90EF900895EF92FF920F9378
:105980001F938BE6E82E83E0F82E0BEB13E030E05C
:1059900020E040E752E86DE673E085E793E00F947E
:1059A000E8221F910F91FF90EF900895EF92FF92E0
:1059B0000F931F93CF937B018A01C2E48F3F09F0BD
:1059C000C4E580E20E9447CB8C2F0E9447CB8AE33C
:1059D0000E9447CBF701608171818281938142E00F
:1059E0000F94882A8CEC97E10E94E2CDF801608147
:1059F00071818281938142E00F94882A62E070E095
:105A000080E090E0CF911F910F91FF90EF900D9467
:105A100095181F93CF93DF9300D000D01F921F9251
:105A2000CDB7DEB7182F6091570470915804072E38
:105A3000000C880B990B0F94B83D6D837E838F8388
:105A400098878091530490915404A0915504B0918B
:105A5000560489839A83AB83BC83AE014B5F5F4F4F
:105A6000BE016F5F7F4F80E0A1DF609118127091DF
:105A70001912072E000C880B990B0F94B83D6D83FB
:105A80007E838F8398878091141290911512A09134
:105A90001612B091171289839A83AB83BC83AE012F
:105AA0004B5F5F4FBE016F5F7F4F8FEF7FDF609176
:105AB0001A121F3F39F087E11802F0011124E15B4F
:105AC000FB4F628570E084ED97E10E94CDD8609134
:105AD0001A1270E08FEC97E10E94CDD828960FB68D
