:100000000C94C7250C9407260C9407260C940726FD
:100010000C9407260C9407260C9407260C940726AC
:100020000C9407260D94FF210D94FF210D94FF21C0
:100030000C9407260D94D2180C9407260C940726CE
:100040000C9407260C94D6870C9407260C9407264C
:100050000C9407260C9407260C9458800D94B52117
:100060000C9407260C9413E70C9409E70C940726CC
:100070000C9407260C9407260C9407260C9407264C
:100080000C9407260C9407260C9407260C9407263C
:100090000C9407260C9407260C9407260C9407262C
:1000A0000C9407260C9407260C9407260C9407261C
:1000B0000C9407260C9407260C9407260C9407260C
:1000C0000C9407260C9407260C9407260C940726FC
:1000D0000C9407260C9407260C9407260C940726EC
:1000E0000C940726084AD73B3BCE016E84BCBFFD6B
:1000F000C12F3D6C74319ABD56833DDA3D00C77FF8
:1001000011BED9E4BB4C3E916BAAAABE0000008090
:100110003F05A84CCDB2D44EB93836A9020C50B91F
:10012000918688083CA6AAAA2ABE000000803F004B
:100130000C9456420C943BF70C9424770C9418D3EF
:100140000C94BED10C94B3F60C94D4E50C9413D358
:100150000C9474FF0C940AF90C94BDF30C943AF4CB
:100160000C9481E50C944C280C9458D20D942127C2
:100170000C948BF50C9451F80C94B0D10C94253E52
:100180000C9421750C9492F80C94B1350C942CF6C7
:100190000C9477F40C94DEA70C9449290C94D22784
:1001A0000C94802A0C941AF70D9418270C94A9D259
:1001B0000C94BE270C945AC60C94DDD10C9409768D
:1001C0000D9476180C94D5F30C9411410C9402D331
:1001D0000C94E87A0D94A2180C9460F80C94FE2A02
:1001E0000C9437D20C94A6F80D9434310C9489F702
:1001F0000C9486F30C9448D20C944DB00C94FEF2FF
:100200000C94E8E50D947B180C94A0FD0C949BD203
:100210000C94F9FE0C94AC790C9489E50C94EDF2F5
:100220000C94A3F20C94AFF50C94DD740C9490290B
:100230000C94F5F90C94D14F0C94E7F80C94D3F886
:100240000C9468F20C94CD280C9498F70C94C1D1BE
:100250000D94BE180C9451E50C94EAF70C94202BE5
:100260000C94B6F20C94FCA90C945BE50C94372B1F
:100270000C9413D20C9492350C9430770C94F7F5BF
:100280000C94B5F80C942AD30C9497F50C94C5F300
:100290000C9450290C9425300C946E280C94ECD1BD
:1002A0000C94CDD10C946C740C9425720C949F3BDF
:1002B0000C9449740C94ECF40C9425260C94892924
:1002C0000C94F8F40C94C3310C948CF20C941A2B0B
:1002D0000C94A53B0C9478F50C94C6F40C94BE7564
:1002E0000C948D3B0C9479E50C94A5F70C94E47474
:1002F0000C94A1FD0C9422760C94FC500C94D1F734
:100300000C9498F20C94D8F80C9414F60C9456E5CE
:100310000C944B2B0C94B9D10C94122B0C9416F317
:100320000C9435F90C9446F40C949FF40D9424200D
:100330000C94AFF90C9480F20C94A7790C948FD2A2
:100340000C94C33B0C94B1D20C94873B0C942E2894
:100350000C94C6740C94C2F20C94C3D20C94EFD2D9
:100360000C9410D30D94C2180C941AD20C94B6E5C8
:100370000C942EF80C94414A0C9431F60C940EF423
:100380000C945EF40D948D180C94B4F70C9484F5D1
:100390000C948C750C9451F70C94F0750C9453D20A
:1003A0000C943F2B0D94FA1A0C942EF30C94FE2D02
:1003B0000C9474F80C9470F20C9488D20C94F9F7A5
:1003C0000C94CA280D94C8180C94CDD20C94ACD2BD
:1003D0000C9427F50C94B0460C94F8B10C9460F58D
:1003E0000C94BA7A0C94C0F50C941A280C944FF51E
:1003F0000C94AB3B0C9480740C94142B0C941FD372
:100400000D9495180C946FF80C94F0270C943C8A7A
:100410000C94C6D10C94CE740C9495490C948BF426
:100420000C948FA50C9447780C94162B0C94BAB3AB
:100430000C94432B0C94B13B0C94933B0C945BF5C4
:100440000D942B270C94A4D20C9459F30C94082BE4
:100450000D94B4180C9413FE0C94DCB20C944ED290
:100460000C9426D20C94F2290C9417260C9465E572
:100470000C9490F30C940DF70C9488FD0C94ED29DA
:100480000C94D9F40C94E0440C94DFF50D949C1872
:100490000C9424F70C9452F40C94704B0D94911816
:1004A0000C94D0350C9476D10C94B57A0D940E271B
:1004B0000C949DD10C94FDFD0C949C280C9434D389
:1004C0000C94C0E50C948BF90C9446F70C943DF811
:1004D0000C94BDD20C9407F50C948F2F0C9483F8D8
:1004E0000C94A7E50C9443F50D94A6180C94ED2FED
:1004F0000C94BEA80C942EF40C9436FD0C949FF32F
:100500000C94602E0C94FEF30C94F9F20C948EFF74
:100510000C94BE740C944A290C94D7D20C94B3F466
:100520000C9405F90D94AC180C948FFF0C94A1F861
:100530000C9403F60C9462D20C94BF7A0C94D8D12C
:100540000C9446F30C94D6740C9409260C9420F663
:100550000C94D5F20C94B8D20C941C2B0C94E82972
:100560000C948D740C94D7750C9408F60C9468F365
:100570000C94883C0C94AF740C949AAF0C94C97A88
:100580000C9491F70C9480730C94A4D10C946CF59A
:100590000C942FD20C94472F0C942FFF0C9401FF36
:1005A0000C94CAE50C949DE50C94B4F50C9481F779
:1005B0000C949C750C94BD2A0C941EF40C9408F8B1
:1005C0000C94B6740C943B2B0C942A770C94182B37
:1005D0000C94DB290C94D2D10C94D9A70C9433261B
:1005E0000C94993B0C9434D20C94DBF70C9460F986
:1005F0000C9417F50C9419FA0C94F02F0C94D8F570
:100600000C94E1F20C94C47A0C945A280C94AAF23B
:100610000C9442F80C94C3F70C94F6D20C9460F24C
:100620000C940BD30C94FDAD0C94AEF30D94CC183C
:100630000C9485280C9430F70C9410F80C941FF847
:100640000C94682F0C94B1800C9442280C940628CA
:100650000D94BA180C944A9B0C94CCF50C94C4F8E5
:100660000C9472F60C9452FF0C94E6270C94EEF660
:100670000C94EBF50C9424D30C94F6F80D94B0186C
:100680000C9443D20C9493E50C94D2F90C94C8D2F8
:100690000C94F5F30C94DEE50C942FD30C9477F3C3
:1006A0000C94BD3B0C9425F70C94E5F30C9463F487
:1006B0000C9496740C94E3A70C94D1290C94D52D2A
:1006C0000C94C72A0C941E2B0C9419FF0C9477F2EF
:1006D0000C94B3280C94A3F50C9437F50D941327C0
:1006E0000C9491FF0C94E2D10C94E0890C94872F28
:1006F0000C9496310C94AEB60C94CEF20C946FE53B
:100700000D9499180C94B73B0C943CD24E414E4931
:100710004E495459494E46CDCCCC3D0AD7233C17BF
:10072000B7D13877CC2B329595E6241FB14F0A000C
:100730000020410000C84200401C4620BCBE4CCAFC
:100740001B0E5AAEC59D7400407A10F35A00A07279
:100750004E18090010A5D4E80000E87648170000FC
:10076000E40B54020000CA9A3B000000E1F50500CA
:100770000080969800000040420F000000A0860113
:10078000000000102700000000E8030000000064E3
:1007900000000000000A000000000001000000004E
:1007A000002C76D888DC674F0823DFC1DFAE59E123
:1007B000B1B796E5E3E453C63AE651997696E8E692
:1007C000C28426EB898C9B62ED407C6FFCEFBC9C65
:1007D0009F40F2BAA56FA5F490055A2AF75C936B77
:1007E0006CF9676DC11BFCE0E40D47FEF520E6B532
:1007F00000D0ED902E0300943577050080841E080C
:100800000000204E0A000000C80C333333330F9829
:100810006E12831141EF8D2114893BE65516CFFEF0
:10082000E6DB18D1844B381BF77C1D901DA4BBE47C
:1008300024203284725E228100C9F124ECA1E53DBE
:10084000274C4556454C494E4700434F4D4D554E5C
:1008500049434154494F4E0044525952554E004568
:1008600052524F525300494E464F004543484F00A5
:1008700047322F47332062616420706172616D6579
:10088000746572730A0057617274656E2E2E2E00A5
:100890005A2050726F626520506173742042656403
:1008A0000A005A2D536F6E6465206175C39F65728F
:1008B00068616C6200203A20686F6D655F7A5F73D3
:1008C0006166656C790A00202064657374696E61E5
:1008D00074696F6E3D00686F6D655F7A5F73616606
:1008E000656C79005261697365205A2028626566DB
:1008F0006F726520686F6D696E67292062792000CC
:100900003E20686F6D696E67206E6F74206E65653E
:100910006465642C20736B69700A004732380020CC
:100920005A3A200020593A200042656420583A2063
:10093000004D65736820706F696E74206F75742048
:100940006F662072616E67650A004B6C69636B208D
:100950007A756D20466F72747365747A656E004D9A
:100960006F746F72656E20616E6765736368616C2A
:10097000746574002569730025696D20256973000D
:100980002569682025696D20256973002569642023
:100990002569682025696D202569730025697920FE
:1009A000256964202569682025696D202569730003
:1009B0005072696E742074696D653A20006F6B0027
:1009C0006F6666006B0866085F0858084A084108A9
:1009D00044454255473A004D3131322053687574D1
:1009E000646F776E004D313133205300456E64657E
:1009F000722D33204F46462E00434F4E4649475FE7
:100A00004558504F5254004D4541545041434B00BE
:100A1000434F4F4C45525F54454D504552415455FC
:100A20005245004348414D4245525F54454D504563
:100A30005241545552450042414259535445505039
:100A4000494E470041524353004D4F54494F4E5F6A
:100A50004D4F44455300544845524D414C5F505210
:100A60004F54454354494F4E00455854454E444514
:100A7000445F4D3230004C4F4E475F46494C454E27
:100A8000414D45004155544F5245504F52545F53CC
:100A9000445F5354415455530053445F5752495493
:100AA000450052455045415400534443415244008F
:100AB00050524F4D50545F535550504F5254004870
:100AC0004F53545F414354494F4E5F434F4D4D4147
:100AD0004E445300454D455247454E43595F5041A2
:100AE0005253455200434153455F4C494748545F78
:100AF0004252494748544E45535300544F47474C80
:100B0000455F4C494748545300534F465457415250
:100B1000455F504F574552004255494C445F504540
:100B20005243454E54004C4556454C494E475F4450
:100B3000415441005A5F50524F42450052554E4F6A
:100B40005554004155544F4C4556454C0050524960
:100B50004E545F4A4F420050524F47524553530044
:100B60004155544F5245504F52545F54454D5000DB
:100B70004155544F5245504F52545F504F530056B9
:100B80004F4C554D455452494300454550524F4DE9
:100B90000042494E4152595F46494C455F545241CB
:100BA0004E534645520053455249414C5F584F4EB3
:100BB0005F584F4646004649524D574152455F4E99
:100BC000414D453A4D61726C696E20322E302E399E
:100BD0002E332028417072202033203230323220D0
:100BE00031363A31383A35382920534F555243453A
:100BF0005F434F44455F55524C3A6769746875626C
:100C00002E636F6D2F4D61726C696E4669726D77E0
:100C10006172652F4D61726C696E2050524F544F56
:100C2000434F4C5F56455253494F4E3A312E302078
:100C30004D414348494E455F545950453A456E64CD
:100C400065722D332045585452554445525F434FE9
:100C5000554E543A3120555549443A6365646532DE
:100C60006132662D343161322D343734382D39629A
:100C700031322D6335356336326633363766660A70
:100C8000002F2F004D31343520533C696E64657858
:100C90003E206F7574206F662072616E6765202834
:100CA000302D31290A003F4A206F7574206F66206D
:100CB00072616E67652028302E303120746F2030CD
:100CC0002E33290A0020204D61783A200020002090
:100CD000204D696E3A2000203B200020204D32310B
:100CE00031205300536F667420656E6473746F70A7
:100CF000730046523A0020466C6F773A20006469D0
:100D00007300656E0043290A0061626C65642028E7
:100D10006D696E2074656D702000436F6C64206592
:100D2000787472756465732061726520004D343289
:100D30003120696E636F72726563742070617261D5
:100D40006D657465722075736167650A004D657322
:100D50006820706F696E74206F7574206F662072E2
:100D6000616E67650A00486F6D65766572736174C0
:100D70007A20616B746976004572723A20546F6F05
:100D8000206661722100546F6F2066617220667266
:100D90006F6D207265666572656E636520706F6940
:100DA0006E740A00454550524F4D204F4B0A0029A2
:100DB0000A0020746F20003F5A206F7574206F6600
:100DC0002072616E67652028003F59206D7573742D
:100DD000206265203020284E4F5A5A4C455F4153BF
:100DE0005F50524F4245292E0A003F58206D7573BF
:100DF00074206265203020284E4F5A5A4C455F417E
:100E0000535F50524F4245292E0A00206472697682
:100E100065722063757272656E743A200020647288
:100E2000697665722063757272656E743A2000206F
:100E30006472697665722063757272656E743A20A9
:100E400000206472697665722063757272656E74D3
:100E50003A20007370726561644379636C65007356
:100E60007465616C746843686F70002064726976A1
:100E70006572206D6F64653A090073707265616414
:100E80004379636C6500737465616C746843686F63
:100E9000700020647269766572206D6F64653A092E
:100EA000007370726561644379636C650073746587
:100EB000616C746843686F70002064726976657253
:100EC000206D6F64653A09007370726561644379DF
:100ED000636C6500737465616C746843686F70005F
:100EE00020647269766572206D6F64653A0900202E
:100EF000737465616C746843686F70206D617820ED
:100F000073706565643A200020737465616C746861
:100F100043686F70206D61782073706565643A2056
:100F20000020737465616C746843686F70206D6134
:100F3000782073706565643A200020737465616C75
:100F4000746843686F70206D6178207370656564A4
:100F50003A2000290A002E2E2E280054006F6B0024
:100F600020204D323036205800486F6D65206F6666
:100F700066736574004361703A00203B0020204D89
:100F8000383531205830205930205A005A2D5072AF
:100F90006F6265204F6666736574006BC3BC686CD6
:100FA000742E2E2E006865697A742E2E2E0045311F
:100FB0002025530042657474206BC3BC686C742E8A
:100FC0002E2E0042657474206865697A742E2E2E68
:100FD0000023646566696E652044454641554C545E
:100FE0005F00626564004B6420004B6920004B7019
:100FF0002000504944204175746F74756E652066F9
:10100000696E697368656421205075742074686521
:10101000206C617374204B702C204B6920616E64CE
:10102000204B6420636F6E7374616E7473206672FC
:101030006F6D2062656C6F7720696E746F20436FEF
:101040006E66696775726174696F6E2E680A00500A
:101050004944204175746F74756E65206661696CD2
:101060006564212074696D656F75740A0050494488
:10107000204175746F74756E65206661696C656476
:10108000212054656D706572617475726520746F8E
:101090006F20686967680A00504944204379636C8F
:1010A00065730025532025692F256900204B643A7C
:1010B0002000204B693A2000204B703A200020434A
:1010C0006C617373696320504944200A00204E6F9D
:1010D000206F76657273686F6F740A002054753ADA
:1010E0002000204B753A2000206D61783A200020C6
:1010F0006D696E3A200020643A20002062696173B5
:101100003A20005761697420666F722068656174C7
:101110002075702E2E2E00504944204175746F7436
:10112000756E652073746172740A005049442041E1
:1011300075746F74756E65206661696C65642120D5
:1011400054656D706572617475726520746F6F207F
:10115000686967680A00504944204175746F747566
:101160006E6500504944204175746F74756E65203A
:101170006661696C65642120426164206865617400
:1011800065722069640A004572723A207574663887
:1011900020666F6E74206E6F7420696E6974696169
:1011A0006C697A65642E004572723A2075746638EF
:1011B00020666F6E74206E6F7420696E6974696149
:1011C0006C697A65642E004572723A2075746638CF
:1011D00020666F6E74206E6F7420696E6974696129
:1011E0006C697A65642E004265747400476568C353
:1011F000A4757365002020202020202000202020BE
:101200002000657272001FE02010201020101020B6
:1012100010202010201030300840048003001FE010
:101220003FF03FF03FF01FE01FE03FF03FF03FF0A6
:101230000FC0078003003FFFF038007030FC302003
:10124000FC102078102030102C00D02E31D02F7BB5
:10125000D02F7BD02E31D02C00D020301020781011
:1012600020FC1030FC303800703FFFF03FFFF038BA
:1012700000703186302387102787902F87D02F0367
:10128000D02030102078102078102030102F03D07C
:101290002F87D02787902387103186303800703F02
:1012A000FFF01FFFF81FFFF804104002082002089B
:1012B00020041040082080104100104100082080C8
:1012C0000410400000001FFFF81FFFF8F801800025
:1012D0000C480080001243C38CD00271249267CC6A
:1012E00041249E40024924904012FBB3CEE00C639F
:1012F000616E63656C00447275636B206162676543
:1013000062726F6368656E0070617573650050612D
:101310007573652E2E2E00726573756D65004545DB
:1013200050524F4D2056657273696F6E2046656846
:101330006C657200454550524F4D20496E6465788A
:10134000204665686C657200454550524F4D2043FC
:101350005243204665686C6572003F0049676E6FB6
:1013600072696572656E005265736574656E0057CB
:1013700065726B7365696E7374656C6C756E6765A9
:101380006E0046696C616D656E7464757263686D3C
:101390006573736572004520696E206D6DC2B30080
:1013A0004D333033205531204525692053256900C0
:1013B000504944204175746F74756E65202A005041
:1013C00049442D44202A005049442D49202A0050E8
:1013D00049442D50202A0020082046616B746F720A
:1013E000002008206D6178002008206D696E006182
:1013F000757300616E004175746F2054656D706582
:1014000072617475720056206D696E204C6565724C
:1014100066616872740056206D696E200056206DFA
:10142000617820450056206D6178205A0056206D65
:10143000617820590056206D617820580041206D58
:10144000617820450041206D6178205A0041206D6F
:10145000617820590041206D617820580041204C6E
:10146000656572666168727400412045696E7A75BF
:10147000670042657363686C65756E6967756E6752
:1014800000536F6E64656E7665727361747A205A6C
:1014900000452053746570732F6D6D005A2053748E
:1014A0006570732F6D6D00592053746570732F6DC7
:1014B0006D00582053746570732F6D6D0045727701
:1014C0002E2045696E7374656C6C756E67656E0071
:1014D0003F0041626272656368656E0042657374C5
:1014E000C3A4746967656E004D3432380057657265
:1014F0006B7365696E7374656C6C756E67656E0091
:1015000046696C616D656E740054656D70657261DD
:1015100074757200544D432054726569626572009F
:1015200053746570732F6D6D00536F6E64656E76C6
:1015300065727361747A004A756E6374696F6E20A8
:101540004465760042657363686C65756E6967759E
:101550006E6700476573636877696E6469676B657A
:101560006974005365747A6520486F6D657665729D
:101570007361747A004B6F6E666967757261746926
:101580006F6E003F004EC3A46368737465204563AB
:101590006B650046657274696700576569746572AA
:1015A0000058595A20686F6D656E005A2D57657244
:1015B0007400496E646578205900496E646578202E
:1015C00058004B6F6E6669672E207370656963689B
:1015D00065726E004B6F6E6669672E206C61646584
:1015E0006E00426574742061757372696368746516
:1015F0006E00536F6E64656E7665727361747A20E7
:101600005A00417573626C656E6468C3B6686500A4
:1016100061757300616E00426574742D4E69766564
:101620006C6C696572756E67004E65747A206265D0
:10163000617262656974656E0042657474206E69DA
:1016400076656C6C696572656E004732394E00478D
:101650003239004175746F20486F6D6500426577BF
:101660006567756E6700426574740044C3BC73653A
:10167000004CC3BC66746572004B6F6E666967751B
:10168000726174696F6E00000C0F00FE0702250383
:10169000BB01FFFE0AFE08FE05080806000040F038
:1016A000C88888987810050808060000C0F888885F
:1016B000888888F80505050600012030F8302005E7
:1016C00008080600002070F820202020E005090905
:1016D0000600FF2070A8A8B88888702007050507B5
:1016E0000001D86C366CD80509090600FFF8A888F7
:1016F00088888888A8F8050A0A0600FE20505050FD
:101700005088A8A8887003030306000340A040FF88
:10171000FFFFFFFFFFFFFFFFFFFFFFFFFFFFFFFFD9
:10172000FFFFFFFFFF0000000605FF01070706029D
:101730000080808080800080030303060105A0A054
:10174000A005060606000050F85050F8500509099B
:101750000600FF2070A8A07028A8702005070706C3
:101760000000C8C8102040989805070706000040F0
:10177000A0A040A8906801030306020580808003B2
:1017800009090601FF204040808080404020030975
:10179000090601FF804040202020404080050707C7
:1017A00006000020A8702070A8200505050600018D
:1017B0002020F820200203030601FFC0408005011D
:1017C00001060003F8020202060100C0C005070777
:1017D00006000008101020404080050707060000A2
:1017E000708898A8C8887003070706010040C040A9
:1017F000404040E0050707060000708808102040C0
:10180000F8050707060000F808103008887005077B
:101810000706000010305090F8101005070706006A
:1018200000F880F0080888700507070600003040BF
:1018300080F0888870050707060000F8081010205F
:1018400020200507070600007088887088887005CA
:1018500007070600007088887808106002050506F2
:101860000100C0C000C0C00206060601FFC0C000E3
:10187000C04080030505060101204080402005038B
:1018800003060002F800F803050506010180402068
:101890004080050707060000708810202000200502
:1018A00007070600007088B8A8B88070050707060B
:1018B0000000708888F8888888050707060000F00F
:1018C0004848704848F00507070600007088808087
:1018D000808870050707060000F04848484848F02F
:1018E000050707060000F88080F08080F8050707EC
:1018F000060000F88080F080808005070706000061
:10190000708880809888700507070600008888889E
:10191000F8888888030707060100E04040404040FF
:10192000E00507070600003810101010906005074A
:10193000070600008890A0C0A09088050707060051
:1019400000808080808080F805070706000088D826
:10195000A8888888880507070600008888C8A8988E
:1019600088880507070600007088888888887005C1
:101970000707060000F08888F080808005070706CA
:10198000000070888888A89068050707060000F0A6
:101990008888F0A09088050707060000708880708E
:1019A000088870050707060000F820202020202066
:1019B000050707060000888888888888700507075B
:1019C0000600008888888850502005070706000018
:1019D00088888888A8A850050707060000888850CE
:1019E000205088880507070600008888502020209E
:1019F00020050707060000F80810204080F80309BA
:101A0000090601FFE080808080808080E005070774
:101A1000060000804040201010080309090601FF5D
:101A2000E020202020202020E005030306000520E0
:101A300050880501010600FEF80303030601058036
:101A4000402005050506000070087888780507071E
:101A50000600008080F0888888F0050505060000F3
:101A6000708080887005070706000008087888885D
:101A700088780505050600007088F0807005070766
:101A8000060000304840E04040400507070600FEE1
:101A9000708888887808700507070600008080F045
:101AA000888888880307070601004000C04040403E
:101AB000E00409090601FE100030101010109060BB
:101AC00005070706000080808890E09088030707DC
:101AD000060100C04040404040E00505050600000A
:101AE000D0A8A8A8A8050505060000B0C888888861
:101AF0000505050600007088888870050707060040
:101B0000FEF0888888F080800507070600FE788848
:101B10008888780808050505060000B0C880808020
:101B200005050506000078807008F0050707060027
:101B3000002020F8202020180505050600008888D0
:101B400088986805050506000088888850200505E6
:101B5000050600008888A8A850050505060000882D
:101B6000502050880507070600FE888888502040CE
:101B700080050505060000F8102040F80309090655
:101B800001FF2040404080404040200109090602FA
:101B9000FF8080808080808080800309090601FFAB
:101BA000804040402040404080050303060002483A
:101BB000A890FFFFFFFFFFFFFFFFFFFFFFFFFFFFFB
:101BC000FFFFFFFFFFFFFFFFFFFFFFFFFFFFFFFF25
:101BD000FFFFFF0000000605FF0107070602008067
:101BE0000080808080800507070600FF2070A8A085
:101BF000A87020050707060000304840E04048B0C4
:101C0000050505060000A8508850A805070706002E
:101C1000008850F820F82020010707060200808085
:101C20008000808080040808060100708060909029
:101C30006010E0030101060107A006070706000087
:101C40007884B4A4B4847803050506010460A06018
:101C500000E00505050600002850A05028050303F4
:101C6000060001F80808030101060103E006070762
:101C70000600007884B4A4A4847805010106000756
:101C8000F80404040601056090906005070706004B
:101C9000002020F8202000F803050506010440A0DC
:101CA0002040E0030505060104C0204020C00303D6
:101CB000030601052040800507070600FE88888886
:101CC00098E8808005080806000078E8E8E86828B9
:101CD0002828020202060203C0C00302020601FE17
:101CE00020C003050506010440C04040E00305058F
:101CF00006010540A04000E0050505060000A050D3
:101D00002850A0050A0A06000040C048506050B0A4
:101D1000507810050A0A06000040C048506050A8DC
:101D2000081038050A0A060000C0204830E050B00C
:101D3000507810050707060000200020204088701A
:101D4000050A0A060000402000708888F888888804
:101D5000050A0A060000102000708888F888888824
:101D6000050A0A060000205000708888F8888888D4
:101D7000050A0A06000068B000708888F88888881C
:101D80000509090600005000708888F888888805D1
:101D90000A0A060000205020708888F88888880584
:101DA000070706000078A0A0F0A0A0B80509090662
:101DB00000FE708880808088701060050A0A060026
:101DC00000402000F88080F08080F8050A0A0600B4
:101DD00000102000F88080F08080F8050A0A0600D4
:101DE00000205000F88080F08080F8050909060086
:101DF000005000F88080F08080F8030A0A06010095
:101E0000804000E04040404040E0030A0A060100F4
:101E1000204000E04040404040E0030A0A06010044
:101E200040A000E04040404040E0030909060100B6
:101E3000A000E04040404040E00507070600007079
:101E40004848E8484870050A0A06000068B000885B
:101E500088C8A8988888050A0A06000040200070F3
:101E6000888888888870050A0A060000102000709B
:101E7000888888888870050A0A060000205000704B
:101E8000888888888870050A0A06000068B0007093
:101E900088888888887005090906000050007088C5
:101EA00088888888700505050600018850205088BC
:101EB0000509090600FF087098A8A8A8C870800541
:101EC0000A0A0600004020008888888888887005F3
:101ED0000A0A060000102000888888888888700513
:101EE0000A0A0600002050008888888888887005C3
:101EF0000909060000500088888888888870050ACB
:101F00000A060000102000888850202020200407A6
:101F10000706010080E0909090E08005070706002A
:101F200000708890A09088B0050808060000402046
:101F300000700878887805080806000010200070F6
:101F40000878887805080806000020500070087896
:101F5000887805080806000068B00070087888785E
:101F60000507070600005000700878887805080803
:101F700006000020502070087888780505050600C6
:101F800000702870A0780507070600FE708880881A
:101F90007010600508080600004020007088F0807E
:101FA000700508080600001020007088F080700599
:101FB00008080600002050007088F08070050707B0
:101FC00006000050007088F08070030808060100C9
:101FD000804000C0404040E0030808060100204067
:101FE00000C0404040E003080806010040A000C0D7
:101FF000404040E0030707060100A000C040404009
:10200000E00509090600005020500878888888708B
:1020100005080806000068B000B0C8888888050870
:1020200008060000402000708888887005080806AF
:1020300000001020007088888870050808060000DD
:10204000205000708888887005080806000068B075
:1020500000708888887005070706000050007088A7
:102060008888700505050600012000F80020050598
:10207000050600007898A8C8F0050808060000408A
:102080002000888888887005080806000010200055
:102090008888888870050808060000205000888815
:1020A00088887005070706000050008888888870B7
:1020B000050A0A0600FE102000888888502040800B
:1020C0000509090600FE8080F0888888F080800578
:1020D00009090600FE50008888885020408050453D
:1020E000544700504C41005374616E6461726477D0
:1020F00065727465206C6164656E004B6F6E666915
:10210000672E206C6164656E004B6F6E6669672E8A
:102110002073706569636865726E00242045696E7E
:102120007374656C6C756E67656E00536F6E646575
:102130006E7665727361747A205A004572772E202C
:1021400045696E7374656C6C756E67656E00486189
:102150007570746D656EC3BC003F005A7572C3BC68
:10216000636B0053746F70004B6F6E6669677572B6
:102170006174696F6E0054656D706572617475721B
:10218000004265776567756E670053442D4472752C
:10219000636B20666F72747365747A656E004A753E
:1021A0007374696572756E670053442D447275636C
:1021B0006B2061626272656368656E0053442D44F2
:1021C0007275636B2070617573696572656E004925
:1021D0006E666F002100486F74656E64207A75200A
:1021E0006B616C74005A7572C3BC636B0057656990
:1021F000746572004732385A004732385900486FC8
:102200006D6520400047323858004175746F204892
:102210006F6D6500473238004265776567756E6798
:10222000004D6F746F72656E206465616B746976C2
:10223000696572656E004D383400426574742D4EC8
:102240006976656C6C696572756E6700486F6D695B
:102250006E670048617570746D656EC3BC002420A4
:102260004265747420566F7277C3A4726D656E00F8
:102270002420457874722E20566F7277C3A4726D35
:10228000656E0054656D7065726174757200E3204F
:10229000DE2041626BC3BC686C656E002420566F03
:1022A0007277C3A4726D656E004CC3BC66746572B0
:1022B00000426574740044C3BC7365004861757066
:1022C000746D656EC3BC004531005A00590058005A
:1022D0004531005A00590058004531005A00590054
:1022E00061757300616E005800544D43205472654F
:1022F0006962657200537465616C746843686F70DD
:102300002065696E7363682E005363687269747424
:102310006D6F6475730048796272696420746872C5
:102320006573686F6C6400547265696265722053EE
:1023300074726F6D004572772E2045696E737465F7
:102340006C6C756E67656E0042616279737465705E
:10235000205A00466C75737372617465004CC3BC7F
:102360006674657200426574740044C3BC73650092
:102370004765736368772E0048617570746D656E8C
:10238000C3BC00486F6D696E6720676573636865DD
:102390006974657274006F70656E005452494747E6
:1023A00045524544003A20007A5F6D696E00795FBE
:1023B0006D696E00785F6D696E005265706F727442
:1023C000696E6720656E6473746F702073746174D6
:1023D00075730A00203A2073796E635F706C616ECA
:1023E0005F706F736974696F6E0A00202063757285
:1023F00072656E745F706F736974696F6E3D003ED5
:102400002000646F5F626C6F636B696E675F6D6FF6
:1024100076655F746F0020746F6F206C6F6E67203D
:10242000657874727573696F6E2070726576656E0B
:102430007465640A0020636F6C642065787472753B
:1024400073696F6E2070726576656E7465640A00DC
:10245000566F726865722025732573257320686F27
:102460006D656E0020706F736974696F6E5F73685D
:10247000696674203D200020686F6D655F6F666639
:10248000736574203D2000417869732000290A009B
:102490003C3C3C207365745F617869735F69735F6E
:1024A00061745F686F6D652800203A200A00202063
:1024B00063757272656E745F706F736974696F6E45
:1024C0003D005D203D20003E20686F6D655F6F66BA
:1024D000667365745B002A2A2A205A20484F4D45AE
:1024E0004420574954482050524F424520285A5FB3
:1024F0004D494E5F50524F42455F555345535F5AC9
:102500005F4D494E5F454E4453544F505F50494EC6
:1025100029202A2A2A0A3E2070726F62652E6F6671
:10252000667365742E7A203D2000000000000000D4
:10253000000000000000290A003E3E3E2073657442
:102540005F617869735F69735F61745F686F6D6500
:1025500028005761726E696E673A20486F6D696E28
:10256000672042756D702044697669736F72203CF4
:1025700020310A00020204290A003C3C3C20686F1A
:102580006D65617869732800203A203E20414654E9
:102590004552207365745F617869735F69735F6129
:1025A000745F686F6D650A00202063757272656ED6
:1025B000745F706F736974696F6E3D006D6D0A00B2
:1025C00052652D62756D703A20006D6D0A004D6F79
:1025D000766520417761793A20006D6D0A00486F79
:1025E0006D6520466173743A200000006B43000063
:1025F0006B4300007A430000A0400000A0400000B0
:102600000040290A003E3E3E20686F6D6561786992
:102610007328000000000100000001000080005548
:102620005555000000400033333300AAAA2A004960
:1026300092240000002000C7711C0099991900D154
:10264000451700555515003BB113002449120011E0
:10265000111100000010000F0F0F00E3380E0043AF
:10266000790D00CCCC0C00C3300C00E8A20B006448
:10267000210B00AAAA0A00703D0A009DD809004259
:102680007B090092240900DCD30800888808001028
:1026900042080000000800F0C107008787070075A6
:1026A000500700711C07003EEB0600A1BC06006944
:1026B00090060066660600703E0600611806001768
:1026C000F4050074D105005BB00500B2900500620E
:1026D0007205005555050078390500B81E0500053E
:1026E0000505004EEC040087D40400A1BD04009051
:1026F000A7040049920400C17D0400EE690400C7EC
:10270000560400444404005C3204000821040041E3
:10271000100400000004003FF00300F8E00300266E
:10272000D20300C3C30300CCB503003AA803000AD8
:102730009B0300388E0300C08103009F750300D007
:10274000690300505E03001D5303003448030091E9
:102750003D03003333030016290300381F0300979D
:10276000150300300C0300030303000BFA020049B9
:10277000F10200BAE802005CE002002DD802002D50
:10278000D0020059C80200B0C0020031B90200DA1C
:10279000B10200AAAA0200A0A30200BC9C0200FA97
:1027A0009502005C8F0200DF8802008282020045F1
:1027B0007C02002776020027700200436A02007C38
:1027C000640200D05E02003F590200C8530200FFBD
:1027D000FDFCFAF8F6F4F2F0EEECEAE9E7E5E3E105
:1027E000E0DEDCDAD9D7D5D4D2D0CFCDCBCAC8C7BA
:1027F000C5C3C2C0BFBDBCBAB9B7B6B4B3B2B0AF3F
:10280000ADACAAA9A8A6A5A4A2A1A09E9D9C9A9998
:10281000989795949392908F8E8D8B8A89888786CE
:1028200084838281807F7E7D7B7A797877767574E8
:10283000737271706F6E6D6C6B6A696867666564E0
:10284000636261605F5E5D5C5B5A595858575655CC
:102850005453525150504F4E4D4C4B4A4A494847A1
:102860004646454443424241403F3E3E3D3C3B3B61
:102870003A39383837363535343332323130302F13
:102880002E2E2D2C2B2B2A292928272726252524B7
:10289000232322212120201F1E1E1D1C1C1B1B1A4E
:1028A00019191818171616151514131312121111D9
:1028B000100F0F0E0E0D0D0C0C0B0A0A090908085B
:1028C00007070606050504040303020201000029A8
:1028D0000A0050726F62653A3A646F5F7A5F7261A4
:1028E00069736528006465706C6F793A2000203A3E
:1028F0002050726F62653A3A7365745F6465706CFC
:102900006F7965640A00202063757272656E745F6A
:10291000706F736974696F6E3D00206D61783A0065
:10292000206D696E3A0041786973200000006B43A6
:1029300000006B4300007A4300000000000000002C
:102940000000000045696E7374656C6C2E2067652D
:10295000737065692E00290A002062797465733BE3
:1029600020637263200053657474696E677320532B
:10297000746F72656420280048617264636F6465D7
:10298000642044656661756C742053657474696E67
:102990006773204C6F616465640A0020286D6D299F
:1029A00000203B204C6576656C696E672000202016
:1029B0004D3432302053004175746F2042656420DD
:1029C0004C6576656C696E670020460020420020E9
:1029D000480020204D3134352053004D617465721C
:1029E00069616C2068656174757020706172616DD9
:1029F00065746572730020204D39303600205430E4
:102A00002045005374657070657220647269766544
:102A1000722063757272656E740020204D393133F7
:102A2000002054302045004879627269642054685F
:102A3000726573686F6C640020204D353639205301
:102A40003100543020450020580044726976657288
:102A5000207374657070696E67206D6F6465002007
:102A60004A002020473239205720490020204D318C
:102A700034392043203B20556E69747320696E20E1
:102A800043656C736975730A0054656D7065726196
:102A90007475726520556E69747300202047323159
:102AA000203B004C696E65617220556E697473003D
:102AB000454550524F4D206461746173697A6520B9
:102AC0006572726F722E0A00290A0020627974659D
:102AD000733B2063726320002073746F72656420FF
:102AE00073657474696E6773207265747269657654
:102AF0006564202800202863616C63756C617465CF
:102B00006429210A0020213D2000454550524F4DA7
:102B100020435243206D69736D61746368202D20DA
:102B20002873746F7265642920002053697A653AAE
:102B30002000496E6465783A20000000FA430000E6
:102B4000FA430000A0410000C8410000A04200007C
:102B5000A0420000C8430000BA42F4010000F401A2
:102B600000003200000088130000204D61726C6983
:102B70006E3D563836290A00454550524F4D207655
:102B8000657273696F6E206D69736D61746368201F
:102B900028454550524F4D3D0024F4D43050C38E4B
:102BA00020C2A24017828B7011127A910D816CD9CC
:102BB0000AA861E108C7586607615143061E4B5DCC
:102BC00005C145A7041A411104093D980371393123
:102BD000034036DB0265339102D4305402802E1D4F
:102BE00002632CEE01752AC501B028A001102781CF
:102BF000018F2564012B244B01E0223401AC211FFD
:102C0000018D200D01801FFC00841EED00971DDF4B
:102C100000B81CD200E61BC600201BBC00641AB220
:102C200000B219A8000A19A0006A189900D11791DA
:102C30000040178B00B516840031167E00B315795D
:102C4000003A157300C7146F0058146A00EE13663B
:102C5000008813630025135E00C7125B006C1257D7
:102C60000015125400C111510070114F0021114B79
:102C700000D61049008D1047004610440002104253
:102C800000C00F4000800F3E00420F3C00060F3B8B
:102C900000CB0E3800930E37005C0E3500270E3443
:102CA00000F30D3200C10D3100900D3000600D2E8B
:102CB00000320D2D00050D2C00D90C2B00AE0C2977
:102CC00000850C29005C0C2700350C27000E0C2613
:102CD00000E80B2400C40B2400A00B23007D0B2371
:102CE000005A0B2100390B2100180B2000F80A1F95
:102CF00000D90A1E00BB0A1E009D0A1D00800A1D85
:102D000000630A1C00470A1B002C0A1B00110A1A48
:102D100000F7091A00DD091900C4091900AB0919E7
:102D200000920917007B091800630917004C091667
:102D30000036091600200916000A091500F50815C5
:102D400000E0081400CC081400B8081400A408140B
:102D500000900813007D0812006B08130058081239
:102D6000004608120034081100230811001208114F
:102D70000001081100F0071000E0071000D0071054
:102D800000C0071000B0070F00A107100091070E48
:102D90000083070F0074070F0065070E0057070E2A
:102DA0000049070E003B070D002E070E0020070DFF
:102DB0000013070D0006070D00F9060C00ED060DC7
:102DC00000E0060C00D4060C00C8060C00BC060C83
:102DD00000B0060C00A4060B0099060C008D060B33
:102DE0000082060B0077060B006C060B0061060ADA
:102DF0000057060B004C060A0042060A0038060A75
:102E0000002E060A0024060A001A060A0010060907
:102E10000007060A00FD050900F4050900EB050995
:102E200000E2050900D9050900D0050900C7050918
:102E300000BE050900B5050800AD050800A5050997
:102E4000009C050800940508008C0508008405080E
:102E5000007C050800740508006C0507006505087E
:102E6000005D050700560508004E050700470507E9
:102E7000004005080038050700310507002A05074E
:102E800000230507001C050600160507000F0507AF
:102E9000000805060002050700FB040600F504070C
:102EA00000EE040600E8040600E2040700DB040666
:102EB00000D5040600CF040600C9040600C30406BA
:102EC00000BD040600B7040600B1040500AC04060A
:102ED00000A6040600A00405009B04060095040556
:102EE00000900406008A040500850405008004069D
:102EF000007A04050075040500700405006B0405E4
:102F00000066040500610405005C04050057040523
:102F100000520405004D0405004804050043040563
:102F2000003E0404003A04050035040500300404A2
:102F3000002C04050027040400230405001E0404DB
:102F4000001A04040016040500110404000D040412
:102F500000090405000404040000040400FC030448
:102F600000F8030400F4030400F0030400EC03047D
:102F700000E8030400E4030400E0030400DC0304AD
:102F800000D8030400D4030400D0030400CC0304DD
:102F900000C8030300C503030024F404D9201BC4A4
:102FA0000C5C0E9804C4095F0265077101F405F911
:102FB00000FB04B30048048700C1036900580355AF
:102FC0000003034500BE023A008402310053022A86
:102FD000002902250004022000E4011C00C8011998
:102FE00000AF011700980114008401130071011053
:102FF000006101100051010E0043010D0036010B6C
:10300000002B010B0020010B00150109000C010928
:103010000003010800FB000800F3000800EB0007B4
:1030200000E4000600DE000600D8000600D200061C
:1030300000CC000500C7000500C2000500BD00046B
:1030400000B9000400B5000400B1000400AD0004A4
:1030500000A9000400A5000300A20003009F0004D3
:10306000009B0003009800030095000200930003FA
:1030700000900003008D0002008B00030088000216
:10308000008600020084000300810002007F00022D
:10309000007D0002007B0002007900020077000141
:1030A000007600020074000200720001007100024C
:1030B000006F0002006D0001006C0002006A000158
:1030C0000069000200670001006600010065000160
:1030D0000064000200620001006100010060000164
:1030E000005F0002005D0001005C0001005B000168
:1030F000005A00010059000100580001005700016A
:10310000005600010055000100540001005300006A
:103110000053000100520001005100010050000165
:10312000004F0001004E0000004E0001004D000164
:10313000004C0001004B0000004B0001004A000160
:10314000004900010048000000480001004700015C
:103150000046000000460001004500000045000157
:103160000044000100430000004300010042000051
:103170000042000100410000004100010040000148
:10318000003F0000003F0001003E0000003E000143
:10319000003D0000003D0001003C0000003C00003C
:1031A000003C0001003B0000003B0001003A000031
:1031B000003A000100390000003900010038000029
:1031C000003800000038000100370000003700011F
:1031D0000036000000360000003600010035000017
:1031E000003500000035000100340000003400000C
:1031F0000034000100330000003300000033000100
:1032000000320000003200000032000100310000F6
:1032100000310000003100010030000000300000EB
:1032200000300001002F0000002F0000002F0000E0
:10323000002F0001002E0000002E0000002E0001D3
:10324000002D0000002D0000002D0000002D0001C9
:10325000002C0000002C0000002C0000002C0001BD
:10326000002B0000002B0000002B0000002B0001B1
:10327000002A0000002A0000002A0000002A0001A5
:10328000002900000029000000290000002900009A
:10329000002900010028000000280000002800008C
:1032A000002800000028000100270000002700007F
:1032B0000027000000270000002700010026000072
:1032C0000026000000260000002600000026000165
:1032D000002500000025000000250000002500005A
:1032E000002500000025000100240000002400004B
:1032F000002400000024000000240001002300003E
:103300000023000000230000002300000023000031
:103310000023000000230001002200000022000022
:103320000022000000220000002200000022000114
:103330000021000000210000002100000021000009
:1033400000210000002100000021000100200000F9
:1033500000200000002000000020000000200000ED
:10336000002000000020000000200001001F0000DD
:10337000001F0000001F0000001F0000001F0000D1
:10338000001F0000001F0001001E0000001E0000C2
:10339000001E0000001E0000003930000033250030
:1033A0000087190000B00F0000DB080000BD04001A
:1033B00000740200003F01000020436F756E74200E
:1033C000583A00004265747400453100450062655A
:1033D00064002C2073797374656D2073746F707042
:1033E000656421204865617465725F49443A200034
:1033F0004845495A454E204552464F4C474C4F533D
:103400000048656174696E67206661696C65640077
:1034100070012C0190012701B0012201C0011D01A2
:10342000F00118011002130130020E0160020901BF
:1034300090020401C002FF000003FA004003F500FF
:103440008003F000D003EB002004E6007004E100EC
:10345000E004DC004005D700C005D2004006CD00E6
:10346000D006C8008007C3003008BE00F008B900CD
:10347000C009B400B00AAF00B00BAA00D00CA50080
:10348000000EA000500F9B00C0109600501291003B
:1034900000148C00C0158700B0178200B0197D00A1
:1034A000D01B7800001E730040206E00902269003F
:1034B000F024640040275F0090295A00E02B55005B
:1034C000102E500020304B0010324600E0334100F7
:1034D00090353C001037370070383200A0392D008D
:1034E000B03A2800A03B2300603C1E00103D1900AC
:1034F000903D1400103E0F00703E0A00C03E0500D3
:10350000003F0000403FFBFF803FF6FFC03FF1FF60
:10351000200820C39C4245525343485249545445C5
:103520004E004D415854454D50207472696767658F
:1035300072656400200820554E544552534348524A
:10354000495454454E004D494E54454D50207472D7
:1035500069676765726564002008204E49434854D6
:1035600020455252454943485400546865726D6184
:103570006C2052756E6177617900202F00204240E7
:103580003A0020403A0020573A0020573A00414E76
:10359000474548414C54454E005072696E746572FF
:1035A0002073746F707065642064756520746F207B
:1035B0006572726F72732E20466978207468652078
:1035C0006572726F7220616E6420757365204D396B
:1035D000393920746F20726573746172742E2028DB
:1035E00054656D70657261747572652069732072BF
:1035F000657365742E205365742069742061667448
:1036000065722072657374617274696E67290A004D
:103610004E6F20436865636B73756D2077697468BE
:10362000206C696E65206E756D6265722C204C6130
:103630007374204C696E653A2000636865636B7330
:10364000756D206D69736D617463682C204C6173B6
:1036500074204C696E653A20004C696E65204E7589
:103660006D626572206973206E6F74204C61737493
:10367000204C696E65204E756D6265722B312C2071
:103680004C617374204C696E653A20004D313130C5
:103690000053657269616C20737461747573206D79
:1036A00069736D617463680A002121204B494C4C99
:1036B00020636175736564206279204B494C4C200E
:1036C000627574746F6E2F70696E0A002121204B31
:1036D000494C4C2063617573656420627920746F76
:1036E0006F206D75636820696E616374697665200B
:1036F00074696D65202D2063757272656E74206328
:103700006F6D6D616E643A2000627573793A207056
:10371000617573656420666F7220696E7075740AD6
:1037200000627573793A2070617573656420666F05
:103730007220757365720A00627573793A2070722F
:103740006F63657373696E670A00426974746520FC
:103750006E65757374617274656E00445255434BA7
:10376000455220474553544F5050540025533A205A
:10377000255300706F7765726F666600414247455A
:1037800042524F4348454E005072696E7465722034
:1037900068616C7465642E206B696C6C28292063E9
:1037A000616C6C6564210A006563686F3A0045725C
:1037B000726F723A004F4646004F4E0066616C735E
:1037C00065007472756500202864697361626C65B8
:1037D00064290A0020280041424C2041646A757324
:1037E000746D656E74205A005A20466164653A20F3
:1037F000002028656E61626C6564290A0041626F71
:1038000076650053616D65205A2061730042656CD6
:103810006F77004175746F20426564204C65766552
:103820006C696E673A2042494C494E45415200202E
:103830004E6F7A7A6C65290A0020280050726F62F8
:1038400065204F6666736574205830205930205AC1
:103850000050726F62653A204E4F5A5A4C455F4194
:10386000535F50524F42450A004D616368696E656F
:1038700020547970653A2043617274657369616E92
:103880000A00303D2E33323500313D2E3138006D87
:103890006178002F3331002F3331002F3331003066
:1038A0003D2E33323500313D2E3138006D617800C8
:1038B0002F3331002F3331002F333100303D2E3381
:1038C000323500313D2E3138006D6178002F3331B3
:1038D000002F3331002F333100303D2E333235008D
:1038E000313D2E3138006D6178002F3331002F3398
:1038F00031002F33310009204261642072657370FA
:103900006F6E7365210009204261642072657370D7
:103910006F6E7365210009204261642072657370C7
:103920006F6E7365210009204261642072657370B7
:103930006F6E736521004C4F570048494748004F50
:103940004B004572726F723A20416C6C200020630C
:103950006F6E6E656374696F6E2E2E2E2000546537
:103960007374696E6720004C4F5700484947480000
:103970004F4B004572726F723A20416C6C200020F0
:10398000636F6E6E656374696F6E2E2E2E20005409
:10399000657374696E6720004C4F5700484947486B
:1039A000004F4B004572726F723A20416C6C2000E0
:1039B00020636F6E6E656374696F6E2E2E2E20000D
:1039C00054657374696E6720004C4F57004849472F
:1039D00048004F4B004572726F723A20416C6C2068
:1039E0000020636F6E6E656374696F6E2E2E2E20DD
:1039F0000054657374696E672000544D432056650A
:103A00007262696E64756E67736665686C65720074
:103A10005D0A004578747261706F6C617465205B3B
:103A20000042696C696E656172204C6576656C69EF
:103A30006E6720477269643A0A00203A202E2E2EC3
:103A40004E6F77204F4E0A00202063757272656EAC
:103A5000745F706F736974696F6E3D00203A204C1B
:103A60006576656C696E67204F46460A00202063C4
:103A7000757272656E745F706F736974696F6E3D95
:103A800000203A202E2E2E4E6F77204F46460A00F9
:103A9000202063757272656E745F706F73697469EC
:103AA0006F6E3D00203A204C6576656C696E67202C
:103AB0004F4E0A00202063757272656E745F706FDE
:103AC000736974696F6E3D0072657365745F6265DA
:103AD000645F6C6576656C0A004732362061626708
:103AE0006562726F6368656E004732362044C3BCFE
:103AF0007365206175666865697A656E0047323660
:103B0000206865697A74204265747400576169742D
:103B1000696E6720666F72206865617475702E0A21
:103B2000004665737465204CC3A46E6765205072AF
:103B3000696D65005072696D696E672066657274A3
:103B40006967004D616E75656C6C205072696D65BA
:103B50002E2E2E00473236207665726C61737365A7
:103B60006E003F53706563696669656420582C591F
:103B700020636F6F7264696E617465206F75742065
:103B80006F6620626F756E64732E0A003F2852299B
:103B900065706561742076616C7565206E6F742048
:103BA000706C61757369626C653B206D7573742010
:103BB0006265206174206C6561737420312E0A0087
:103BC0003F537065636966696564206E6F7A7A6CCD
:103BD000652074656D7065726174757265206E6FB5
:103BE0007420706C61757369626C652E0A003F53B6
:103BF00070656369666965642066696C616D656E90
:103C0000742073697A65206E6F7420706C617573AF
:103C100069626C652E0A003F537065636966696569
:103C200064207072696D65206C656E677468206EC3
:103C30006F7420706C61757369626C652E0A003F49
:103C4000537065636966696564206E6F7A7A6C6526
:103C50002073697A65206E6F7420706C617573696A
:103C6000626C652E0A003F52657472616374696FFD
:103C70006E204D756C7469706C696572206D75731A
:103C800074206265207370656369666965642E0AD5
:103C9000003F53706563696669656420526574729C
:103CA000616374696F6E204D756C7469706C6965C1
:103CB00072206E6F7420706C61757369626C652E12
:103CC0000A003F537065636966696564206C6179B9
:103CD000657220686569676874206E6F7420706C07
:103CE00061757369626C652E0A0043292E0A003FD4
:103CF00053706563696669656420626564207465F4
:103D00006D7065726174757265206E6F7420706C71
:103D100061757369626C65202834302D0047323636
:103D2000207374617274696E672E2E2E0A004F46DE
:103D3000460A00466164652048656967687420002A
:103D4000426564204C6576656C696E67200046614B
:103D5000696C656420746F20656E61626C652042D9
:103D60006564204C6576656C696E670A00496E76FD
:103D7000616C6964206D6573682E0A003E3E3E00EA
:103D80003C3C3C0042657474206865697A742E2E50
:103D90002E005761697420666F7220626564206826
:103DA000656174696E672E2E2E0A002900626564B3
:103DB00020280020616E6420002900686F74656E01
:103DC0006420280050726568656174696E67200020
:103DD00050726568656174696E672E2E2E002063CF
:103DE0006F72726563746564205A3A0047323920F5
:103DF000756E636F72726563746564205A3A002051
:103E00003A203E2070726F62696E6720636F6D703A
:103E10006C6574650A00202063757272656E745F4C
:103E2000706F736974696F6E3D004D657373707563
:103E30006E6B740025532025692F2569002E0A001A
:103E40002F0050726F62696E67206D657368207015
:103E50006F696E742000202844525952554E290033
:103E6000473239204175746F20426564204C657675
:103E7000656C696E67003F20284C2C522C462C4202
:103E800029206F7574206F6620626F756E64732EC3
:103E90000A00204200204600205200473239204CC0
:103EA000003F2856296572626F7365206C657665E0
:103EB0006C20696D706C61757369626C6520283067
:103EC0002D34292E0A00426164205A2076616C75D7
:103ED000650A004E6F2062696C696E6561722067C9
:103EE0007269640A004732384C30003E20417574D4
:103EF0006F2D6C6576656C206E6F74206E656564E1
:103F000065642C20736B69700A00473239002044C5
:103F10000020204D32303020530020284469736146
:103F2000626C6564293A0046696C616D656E742047
:103F300073657474696E67730020204D32303120D0
:103F400058004D617820416363656C6572617469E6
:103F50006F6E2028756E6974732F733229002020CC
:103F60004D3230332058004D6178206665656472AB
:103F7000617465732028756E6974732F732900202E
:103F8000520020204D323034205000416363656C74
:103F900065726174696F6E2028756E6974732F7312
:103FA00032292028503C7072696E742D61636365FC
:103FB0006C3E20523C726574726163742D61636360
:103FC000656C3E20543C74726176656C2D61636350
:103FD000656C3E2900204A00205400205300202018
:103FE0004D323035204200416476616E6365642055
:103FF00028423C6D696E5F7365676D656E745F74B2
:10400000696D655F75733E20533C6D696E5F6665D3
:104010006564726174653E20543C6D696E5F7472B4
:104020006176656C5F66656564726174653E204AA1
:104030003C6A756E635F6465763E2900204400200B
:10404000490020204D333031205000486F74656E98
:1040500064205049440020440020490020204D3372
:104060003034205000426564205049440044525688
:104070005F535441545553090050574D5F534341CA
:104080004C45090050574D434F4E460900434F4F92
:104090004C434F4E46090043484F50434F4E46094C
:1040A00000544849474809090054434F4F4C54486D
:1040B000525309005450574D544852530900545319
:1040C00054455009090054504F574552444F574EDC
:1040D0000900494F494E0909004753544154090901
:1040E0000049484F4C445F4952554E090047434FE1
:1040F0004E460909000900447269766572207265AE
:10410000676973746572733A0A0073327673620971
:104110000073327673610900313230430900313463
:104120003343090031353043090031353743090045
:104130006F7409006F74707709007332676109004A
:104140007332676209006F6C6109006F6C6209006D
:1041500073747374090073675F726573756C7400B0
:10416000445256535441545553007553746570204E
:10417000636F756E74005374616C6C677561726403
:10418000207468727300202D737461727409006862
:104190007973746572657369730A202D656E64099D
:1041A00000626C616E6B2074696D65006F666620DD
:1041B00074696D650070776D206772616420617548
:1041C000746F0070776D206F66667365742061751B
:1041D000746F0070776D207363616C652061757416
:1041E0006F0070776D207363616C652073756D006F
:1041F0004F54207072657761726E005B6D6D2F7326
:104200005D090050574D207468726573682E007404
:10421000737465700900696E7465727009006D735E
:10422000746570730900737465616C746843686FBA
:1042300070007673656E7365090050574D20736387
:10424000616C650043532061637475616C00486F55
:104250006C642063757272656E740052756E2063B3
:10426000757272656E74004D415820637572726587
:104270006E7400524D532063757272656E740053F4
:1042800065742063757272656E7400456E61626C50
:104290006564090009003B200020496E76616C6965
:1042A00064206578747275646572200000002100D6
:1042B000240027002A002D003000330001010000F7
:1042C000040107010A0100000A0B02090C0D0E0887
:1042D00007030401000000000000000000000000CF
:1042E00000000000000000000000000000000000CE
:1042F000000012111000000000000000000000008B
:1043000000000000000000000000000002FFFFFFAE
:10431000FFEFFFFFFFFFFFFFFFFFFFFFEFEFFFFFDD
:10432000FFFFFFFFFFFFFFE7DFFFFFFFFFFFFFFFD5
:10433000FFFFE7DFFFFFFFFFFFFFFFFFFFE3DFFF01
:10434000FFFFFFFFFFFFFFFFF3CFFFFFFFFFFFFFB9
:10435000FFFFE1E1CFFFFFFFFFFFFFFE780000035B
:10436000DDFFFFFFFFFEFF807E0001EEFFFFFFFF8E
:10437000FE7DCFFC0000F77FFFFFFFFF8E060000F1
:10438000007BBFFFFFFFFFC0000000007DDFFFFFDD
:10439000FFFFFC01FE00003EE7FFFFFFFFFFFFFC09
:1043A00000031F73FFFFFFFFFFFFF800018F81FF76
:1043B000FFFFFFFFFFE0000083F9FFFFFFFFFFFFAC
:1043C00000FC0000F0FFFFFFFFFFE00FFFC0000058
:1043D000FFFFFFFFFE03FFFFC00000FFFFFFFFFF27
:1043E000FFFFF9000000FFFFFFFFFFFFFFFC0007DA
:1043F000C0FFFFFFFFFFFFFFFF0007E0FFFFFFFF22
:10440000FFFFFFFFE007F1FFFFFFFFFFFFFFFFFCE4
:1044100007F9FFFFFFFFFFFFFFFFFF03F9FFFFFFAC
:10442000FFFFFFFFFFFF83F9FFFFFFFFFFFFFFFF1E
:10443000FFC3FFFFFFFFFFFFFFFFFFFFE1FFFFFFE6
:10444000FFFFFFFFFFFFFFF0BFFFFFFFFFFFFFFFCB
:10445000FFFBF83FFFFFFFFFFFFFFFFFF9F83FFF04
:10446000FFFFFFFFFFFFFF7EF0FFFFFFFFFFFFFFEC
:10447000FFFF8E03FFFFFFFFFFFFFFFFFFE01FFFB8
:10448000FFFFFFFFFFFFFFFFFFFFFFFFFFFFFFFF3C
:10449000FFFFFFFFFFFFFFFFFFFFFFFFFFFFFFFF2C
:1044A0007FFFFFFFFF00007FFFFFF87FFFFFFFFFA1
:1044B00080007FFFFFE07FFFFFFFFFC3FCFFFFFFE8
:1044C000F8FFFFFFFFFFC3FCFFFFFFF8FFFFFFFF49
:1044D000FF87FDFFFFFFF1FFFFFFFFFF87FFFFFFEC
:1044E000FFF1FFFFFFFFFF0FE7F30FFC23FC3FFF90
:1044F000FFFF0FEF8007F003F01E007FFE1FCF814C
:1045000087C787C70C007FFE001FC7C78FC79F0FD5
:104510000CFFFE001F878F1F8F1F0F1FFFFC3F9F89
:104520008F8F1F8E001E3FFFFC7F3F0F1E3F1E3FE1
:10453000FE3FFFF87FFF1F1C3F1C7FFC7FFFF8FF43
:10454000FF1E1C7E1C7FFC7FFFF0FFCE3E3C7E3CAE
:104550007FB8FFFFF0FF9E3C387C387E78FFFFE19C
:10456000FF3C7C787C783CF1FFFFE1F838787810EC
:104570001801F1FFFF000060203C007C07807FFFF6
:10458000FFFFFFFFFE1FFE1FFFFFFF6D61726C69E3
:104590006E66772E6F726700322E302E392E330002
:1045A0001FFFFFFFFFFFFF600000000001FF400052
:1045B00000000000FF8000000000007F83CF0000AB
:1045C0000C303F87FF80000C301F867980000C0084
:1045D0000F8C30C7838C30E78C30CFC7CC31F38C55
:1045E00030DCECEC33B98C30D86C6C33198C30D0B7
:1045F0006C0C33198C30D86C0C33198C30DC6C0E8D
:104600003B198C30CF7C079F198C30C77C038F19E6
:1046100040000000000002600000000000061FFFD4
:10462000FFFFFFFFF81000C90210012C014001221A
:104630000170011801B0010E01F00104015002FAED
:1046400000B002F0003003E600D003DC009004D29A
:10465000007005C800A006BE000008B400B009AA9A
:1046600000D00BA000600E960060118C0000158237
:104670000020197800C01D6E00A0226400B0275AE7
:1046800000902C500000314600E0343C00103832DD
:1046900000903A2800603C1E00A03D1400803E0AB5
:1046A00000203F00002020506C616E6E65724275E4
:1046B0006666657242797465733A200020467265B9
:1046C00065204D656D6F72793A200020436F6D70E3
:1046D000696C65643A204170722020332032303298
:1046E000320A00204C6173742055706461746564F3
:1046F0003A20323032312D31322D3235207C20417A
:104700007574686F723A20287363686E6F6F672CD8
:1047100020456E6465722D33290A004D61726C6903
:104720006E20322E302E392E330A0020536F6674DD
:10473000776172652052657365740A002057617451
:104740006368646F672052657365740A0020427263
:104750006F776E206F75742052657365740A002040
:1047600045787465726E616C2052657365740A00D9
:10477000506F77657255700A0073746172740A0025
:10478000456E6473746F7070002553202563202577
:104790006320256320256300205A3A0020593A00FF
:1047A00020583A00656E6473746F70732068697482
:1047B0003A2000000020002300260029002C002FB2
:1047C000003200000100000301060109010000227F
:1047D00000250028002B002E0031003400020100CB
:1047E00000050108010B0105050505070508080876
:1047F00008020202020A0A08080404040401010172
:104800000101010101030303030303030304070779
:10481000070C0C0C0C0C0C0C0C0202020206060617
:1048200006060606060B0B0B0B0B0B0B0B010210FF
:1048300020200808102040102040800201020108BA
:10484000040201010204081020408080402010086A
:1048500004020180040201804020100804020108C3
:104860000402010102040810204080010204081023
:1048700020408000202573206D6D002020302C31D9
:1048800020206D6D002020312C3020206D6D002007
:1048900031302C3020206D6D0041636873656E20CF
:1048A0006265776567656E00426577656765204577
:1048B0007874727564657200426577656765205A21
:1048C00000426577656765205900426577656765D1
:1048D000205800FFFFFF290A005D005B002C20002C
:1048E0002C20002E2E2E2800646F5F686F6D696E7D
:1048F000675F6D6F76650050726F62653A3A7072ED
:104900006F62655F646F776E5F746F5F7A002054CB
:104910007269676765726564206561726C792E00E3
:10492000204E6F20747269676765722E0020507286
:104930006F6265206661696C21202D00534C4F57D2
:104940000050726F62653A3A72756E5F7A5F70728C
:104950006F62650050726F62696E67204661696CB4
:1049600065640A0050726F62696E672067657363E1
:104970006865697465727400205A3A200020593ABB
:10498000200042656420583A2000506F73697469B2
:104990006F6E204E6F7420526561636861626C6552
:1049A0000A00203A200A00202063757272656E7436
:1049B0005F706F736974696F6E3D005F72656C61E3
:1049C00074697665290A002C20002C20002C200018
:1049D0002C20002E2E2E280050726F62653A3A70FD
:1049E000726F62655F61745F706F696E7400456EAF
:1049F0006465722D33206265726569740044727556
:104A0000636B742E2E2E00447275636B207061757B
:104A100073696572742E2E2E0030780020496E76F0
:104A2000616C696420452073746570706572200044
:104A300020452073746570706572206E6F742073EA
:104A400070656369666965640A00496E76616C69C0
:104A5000642065787472756465720A00220A0055D4
:104A60006E6B6E6F776E20636F6D6D616E643A2052
:104A70002200204500205A0020590020204D3932C4
:104A800020580053746570732070657220756E69CC
:104A90007400DB0FC93F45BCDA3F8FB30240FCF026
:104AA000274056946140FE4B9B4084A5D840E023AC
:104AB0001841346A5641E859974164DBD5416E2765
:104AC0001742B4B75542CE1A9742C8AED542B58800
:104AD0005A43D40684BFA65FA7BF7443E0BF10B19A
:104AE0001AC01C2C58C0E8F697C0B849D6C04E4E24
:104AF00017C124D355C1802497C1A0B5D5C1121ABE
:104B000017C244AE55C2781797C26CACD5C267883D
:104B10005AC320746F6F206C6F6E67206578747253
:104B20007573696F6E2070726576656E7465640A60
:104B30000020636F6C6420657874727573696F6EA2
:104B40002070726576656E7465640A006F6B0A008A
:104B5000526573656E643A200020453A00205A3A47
:104B60000020593A00583A004572726F72207772ED
:104B70006974696E6720746F20454550524F4D210E
:104B80000A002F2F616374696F6E3A00F4001124DC
:104B90001FBECFEFD1E2DEBFCDBF00E00CBF84B7B8
:104BA0008093191314BE0FB6F894A89580916000F5
:104BB000886180936000109260000FBE13E0A0E057
:104BC000B2E0EAECFFE802E00BBF02C007900D92F2
:104BD000A83CB107D9F723E1A8ECB3E001C01D92CE
:104BE000A931B207E1F715E2C7ECD5E200E006C053
:104BF00021970109802FFE010F944D47C63CD10734
:104C000080E00807A9F70F94A5320D94E3470C94B0
:104C10000000E091EA0986E0E802F0011124EB547B
:104C2000F64F8091C80990E0958384830895CF93CF
:104C3000DF93EC01CB01BA010F94583D688379836F
:104C40008A839B83DF91CF910895CF93DF93EC010B
:104C5000CB01BA010F94583D688379838A839B8383
:104C6000DF91CF910895CF93DF93EC01CB01BA018F
:104C70000F94583D0F946C456883DF91CF91089550
:104C80008F929F92AF92BF92CF92DF92EF92FF925C
:104C9000CF936B017C0120E030E0A9010F94513DDE
:104CA00087FD9FC06DEB77E386E095E3A701960152
:104CB0000F94F9436B017C0120E030E040E251E4C5
:104CC0000F94B73D20E030E048EC52E40F94B73D3C
:104CD0004B015C0120E030E0A901C701B6010F944F
:104CE000513D20E030E040EA50E487FF04C020E07E
:104CF00030E040EA50ECC501B4010F94F94320E0E4
:104D000030E040E251E40F94F3440F9465456B01A9
:104D10007C018BE2F7FE09C0F094E094D094C0943B
:104D2000C11CD11CE11CF11C8DE28093A305C701BD
:104D3000B60120E137E240E050E00F94B7438AE04B
:104D4000882E912CA12CB12CCA01B901A501940186
:104D50000F94B743605D6093A405C701B60128EEC8
:104D600033E040E050E00F94B743CA01B901A50118
:104D700094010F94B743605D6093A505C701B60128
:104D800024E630E040E050E00F94B743CA01B90197
:104D9000A50194010F94B743605D6093A6058EE270
:104DA0008093A705C701B601A50194010F94B743ED
:104DB000C62FCA01B901A50194010F94B743605DE4
:104DC0006093A805C05DC093A90583EA95E0CF91E3
:104DD000FF90EF90DF90CF90BF90AF909F908F901B
:104DE00008956DEB77E386E095EB60CF8F929F920D
:104DF000AF92BF92CF92DF92EF92FF92CF936B016F
:104E00007C0120E030E0A9010F94513D87FDAAC04C
:104E10006DEB77E386E095E3A70196010F94F943E4
:104E20006B017C0120E030E0A9010F94513D87FF28
:104E30009EC0C701B601905820E030E040E251E446
:104E40000F94B73D20E030E040E251E40F94B73DCD
:104E500020E030E040EA50E40F94F94320E030E0F5
:104E600040E251E40F94F3440F9465456B017C01DB
:104E700080E28093A30560E280E1C81687E2D8064D
:104E8000E104F1048CF0C701B60120E137E240E013
:104E900050E00F94B743CA01B9012AE030E040E086
:104EA00050E00F94B743605D6093A40560E288EE24
:104EB000C81683E0D806E104F1048CF0C701B601FE
:104EC00028EE33E040E050E00F94B743CA01B90147
:104ED0002AE030E040E050E00F94B743605D60931B
:104EE000A50560E284E6C816D104E104F1048CF063
:104EF000C701B60124E630E040E050E00F94B7432C
:104F0000CA01B9012AE030E040E050E00F94B74315
:104F1000605D6093A6058AE0882E912CA12CB12CAF
:104F2000C701B601A50194010F94B743C62FCA016A
:104F3000B901A50194010F94B743605D6093A70583
:104F40008EE28093A805C05DC093A90583EA95E031
:104F5000CF91FF90EF90DF90CF90BF90AF909F9058
:104F60008F9008956DEB77E386E095EB55CF20E0C9
:104F700030E040E251E4C701B60162CFCF93DF9346
:104F8000EC01CB01BA010F94583D20E030E040E243
:104F900051E40F94F344688379838A839B83DF9180
:104FA000CF910895CF93DF93EC01CB01BA010F9419
:104FB000583D20E030E040E251E40F94F344688330
:104FC00079838A839B83DF91CF9108950F94583D15
:104FD00020E030E040E251E40F94F3440C94F626D4
:104FE000CF93DF93EC01CB01BA010F94583D2AE037
:104FF00037ED43E25DE30F94F3440F946C4568830F
:1050000079838A839B83DF91CF910895CF93DF9338
:10501000EC01CB01BA010F94583D2AE037ED43E291
:105020005DE30F94F344688379838A839B83DF91E4
:10503000CF910895CF93DF93EC01CB01BA010F9488
:10504000583D20E030E048EC52E40F94F34468838C
:1050500079838A839B83DF91CF910895CF93DF93E8
:10506000EC01CB01BA010F94583D20E030E048EC50
:1050700052E40F94F344688379838A839B83DF919E
:10508000CF9108950F94583D20E030E048EC52E471
:105090000F94F3440C944026CF93DF93EC01CB01A3
:1050A000BA010F94583D0F94654579836883DF9169
:1050B000CF910895CF93DF93EC01CB01BA010F9408
:1050C000583D20E030E04AE754E40F94F34468830D
:1050D00079838A839B83DF91CF9108952CEA35EC05
:1050E00047E25EE360919305709194058091950588
:1050F000909196050F94F3446093290670932A06C5
:1051000080932B0690932C0608952CEA35EC47E209
:105110005EE3609197057091980580919905909153
:105120009A050F94B73D60932506709326068093E9
:1051300027069093280608952CEA35EC47E25EE3B3
:1051400060919305709194058091950590919605D5
:105150000F94F3446093290670932A0680932B06DC
:1051600090932C0608952CEA35EC47E25EE36091BB
:105170009705709198058091990590919A050F94E3
:10518000B73D60932506709326068093270690937B
:1051900028060895FC0184910895FC0180810895FA
:1051A000FC01A081B1811C92A281B3818C918F5F9F
:1051B0008C930280F381E02D90818CE0989F800D8C
:1051C0001124E0E7F2E113AE84AF0895009751F0A7
:1051D000FC0180E09191992331F0907C9038D1F3DB
:1051E0008F5FF8CF80E00895139800C087FD43C01B
:1051F000179800C0139A00C000C0139800C086FD25
:1052000046C0179800C0139A00C000C0139800C091
:1052100085FD3BC0179800C0139A00C000C01398CA
:1052200000C084FD30C0179800C0139A00C000C0B1
:10523000139800C083FD25C0179800C0139A00C0C2
:1052400000C0139800C082FD1AC0179800C0139ABE
:1052500000C000C0139800C081FD0FC0179800C0A7
:10526000139A00C000C0139800C0179800C0139A8A
:1052700000C000C00895179ABCCF179AF0CF179AB4
:10528000E5CF179ADACF179ACFCF179AC4CF179ACC
:10529000B9CF089590E080E0089590E080E008950F
:1052A000CF92DF92EF92FF920F94583D6B017C01F9
:1052B00020E030E0A9010F94513D2DEB37E346E0AB
:1052C00055E387FF04C02DEB37E346E055EBC701FC
:1052D000B6010F94F9436B017C0120E030E0A90195
:1052E0000F94513D20E030E040E05FE387FF04C0D1
:1052F00020E030E040E05FEBC701B6010F94F943D6
:105300000F946545CB01FF90EF90DF90CF900C9408
:1053100067A80F94583D0F946545CB010C9467A87E
:1053200080918102882341F06091910570919205EE
:1053300041E081E00D949C130895CF92DF92EF92AB
:10534000FF92CF93DF9300D01F92CDB7DEB76B01F2
:105350007C0120E030E0A9010F94513D87FD1CC085
:105360006DEB77E386E095E3A70196010F94F9438F
:1053700069837A838B839C8360E2CE0101960E94CD
:1053800077A40F900F900F900F90DF91CF91FF9027
:10539000EF90DF90CF9008956DEB77E386E095EB8B
:1053A000E3CF0F94583D20E030E04AE754E40F94F7
:1053B000F3440C949D290F94583D0F946C45862F0F
:1053C0000C949CA89091C60581E089270C94B9D5CE
:1053D00061E088EC99E00C9475D68EEF0E941CA0D9
:1053E0000C94A8A080E090E0A0E8B0E480933B118A
:1053F00090933C11A0933D11B0933E1188EC92E044
:105400000E9414A080E090E0A0EFB1E480933311FB
:1054100090933411A0933511B093361180933711C6
:1054200090933811A0933911B0933A11E0919C05F3
:10543000EE0FFF0BE855FD4F808191818330910580
:1054400049F184309105D9F1029761F480E090E050
:10545000ADE4B3E48093331190933411A0933511EC
:10546000B093361180EB92E00E9414A010923B1191
:1054700010923C1110923D1110923E1188EC92E076
:105480000E9414A080919C058F5F8430ECF480937F
:105490009C05089580E090E0ADE4B3E4809333117F
:1054A00090933411A0933511B09336118093371136
:1054B00090933811A0933911B0933A11D3CF80E073
:1054C00090E0ADE4B3E4F2CF10929C050895CF9341
:1054D000DF9300D01F92CDB7DEB70F946C450F94C9
:1054E000563D69837A838B839C83CE0101960E940B
:1054F000F4A30F900F900F900F90DF91CF9108952C
:105500000F94583D2AE037ED43E25DE30F94F344F6
:105510000C94672ACF92DF92EF92FF92CF93DF93A2
:1055200000D01F92CDB7DEB76B017C0120E030E0E8
:10553000A9010F94513D87FD1BC06DEB77E386E019
:1055400095E3A70196010F94F94369837A838B83CE
:105550009C83CE0101960E94F4A30F900F900F90B0
:105560000F90DF91CF91FF90EF90DF90CF90089553
:105570006DEB77E386E095EBE4CF0F94583D2AE09E
:1055800037ED43E25DE30F94F3440C948A2A0F94C1
:10559000583D0C948A2ACF92DF92EF92FF92CF93DC
:1055A000DF9300D01F92CDB7DEB76B017C0120E006
:1055B00030E0A9010F94513D87FD1BC06DEB77E3EF
:1055C00086E095E3A70196010F94F94369837A83F6
:1055D0008B839C83CE0101960E9413A50F900F90A0
:1055E0000F900F90DF91CF91FF90EF90DF90CF90D1
:1055F00008956DEB77E386E095EBE4CF0F94583D8B
:1056000020E030E040E251E40F94F3440C94CB2AC4
:105610000F94583D20E030E048EC52E40F94F344FE
:105620000C9463B50C94988A0C94988A0C94988A7C
:105630000C94988A0C944A8A0C944A8A0C944A8A4C
:105640000C944A8A63E972E084E690E00E94C2AD5D
:105650006AEB72E084E690E00C94C2AD81110C9488
:10566000222B68EB71E084E190E00C94C2AD0E94C3
:10567000EEBE0C942E2B0E94E0BE0C942E2B0E94AA
:105680000EA20C94222B0F945E1387E193E10F94EA
:10569000190F0C94A2A3BF92CF92DF92EF92FF92C8
:1056A0000F931F93CF93DF936B01E9014A3009F405
:1056B000E1C0453109F089C0DB011296ED91FC9102
:1056C0001281C681D781159A00C0000086E290E061
:1056D0000197F0F7012F0295007F20E1B22EB10E65
:1056E00088EF0E94F42800C0000086E290E0019755
:1056F000F0F7103208F0A8C0812F807780680E94F0
:10570000F428802F0E94F42800C0000086E290E078
:105710000197F0F780E80E94F42880E00E94F428C6
:1057200000C0000086E290E00197F0F78AEF0E9447
:10573000F42800C0000086E290E00197F0F77E01B7
:10574000B0E1EB0EF11C8881807F0E94F4288991E2
:105750008295807F0E94F428CE15DF05A1F700C056
:10576000000086E290E00197F0F71F5F005F1B11D9
:10577000B7CF1598D6011296ED91FC918081928158
:10578000980F92832181921708F0BAC194819F5F8C
:1057900094839381890F821710F08FEF820F838398
:1057A000458150E0440F551F70E060E0868197818D
:1057B0000F94A24781E0DF91CF911F910F91FF904D
:1057C000EF90DF90CF90BF900895FB01028113818D
:1057D000423309F497C108F49FC1463409F48CC1DF
:1057E000473409F494C14B3329F789812B81D801BF
:1057F00012967C91129713963C91213009F4D1C1F5
:10580000233009F0B2C148EF480F582F91E0341708
:1058100008F490E031E0541708F030E0492F432BB2
:1058200061E0571708F460E0462319F4932309F464
:10583000C1CFFA8030E0F901EC56FD4FD0802057FF
:105840003D4FF901E080AAC180EE810F8068807F22
:105850000E94F428812F8295807F0E94F42800C046
:10586000000086E290E00197F0F780E80E94F428BB
:1058700080E854CF0D9A15980F9A17980B9A139A9F
:10588000159A00C0000086E290E00197F0F788E7E3
:1058900090E0CEE9DFE0FE013197F1F70197D9F70B
:1058A00088EF0E94F42800C0000086E290E0019793
:1058B000F0F780E20E94F42880E00E94F42800C003
:1058C000000086E290E00197F0F780E00E94F42863
:1058D00080E80E94F42800C0000086E290E0019772
:1058E000F0F780E00E94F42880E10E94F42800C0D4
:1058F000000086E290E00197F0F7CE010197F1F702
:10590000CE010197F1F7CE010197F1F7CE01019792
:10591000F1F7CE010197F1F7CE010197F1F7CE0132
:105920000197F1F7CE010197F1F7CE010197F1F759
:10593000CE010197F1F7CE010197F1F7CE01019762
:10594000F1F7CE010197F1F7CE010197F1F7219719
:10595000F1F780E20E94F42880E40E94F42800C05D
:10596000000086E290E00197F0F780E20E94F428C0
:1059700080E60E94F42800C0000086E290E00197D3
:10598000F0F7D0E0C0E08C2F807780680E94F42888
:105990008D2F0E94F42800C0000086E290E001975D
:1059A000F0F780E80E94F42880E00E94F42800C00C
:1059B000000086E290E00197F0F78AEF0E94F42859
:1059C00000C0000086E290E00197F0F780E21398B3
:1059D00000C0179800C0139A00C000C0139800C000
:1059E000179800C0139A00C000C0139800C0179801
:1059F00000C0139A00C000C0139800C0179800C0E0
:105A0000139A00C000C0139800C0179800C0139AE2
:105A100000C000C0139800C0179800C0139A00C0BF
:105A200000C0139800C0179800C0139A00C000C0AF
:105A3000139800C0179800C0139A00C000C01398B4
:105A400000C0179800C0139A00C000C0139800C08F
:105A5000179800C0139A00C000C0139800C0179890
:105A600000C0139A00C000C0139800C0179800C06F
:105A7000139A00C000C0139800C0179800C0139A72
:105A800000C000C0139800C0179800C0139A00C04F
:105A900000C0139800C0179800C0139A00C000C03F
:105AA000139800C0179800C0139A00C000C000C02F
:105AB0000000E6E2F0E03197F0F7815009F087CF7F
:105AC00088EF0E94F42800C0000086E290E0019771
:105AD000F0F7CF5FD05FC03209F055CF80E00E9471
