:100000000C94D5230C9415240C9415240C941524CD
:100010000C9415240C9415240C9415240C9415247C
:100020000C9415240D9412180D9412180D94121896
:100030000C9415240D9492210C9415240C941524E1
:100040000C9415240C9490830C9415240C94152472
:100050000C9415240C9415240C94247C0D944821A4
:100060000C9415240C9417EA0C940DEA0C941524A6
:100070000C9415240C9415240C9415240C9415241C
:100080000C9415240C9415240C9415240C9415240C
:100090000C9415240C9415240C9415240C941524FC
:1000A0000C9415240C9415240C9415240C941524EC
:1000B0000C9415240C9415240C9415240C941524DC
:1000C0000C9415240C9415240C9415240C941524CC
:1000D0000C9415240C9415240C9415240C941524BC
:1000E0000C941524084AD73B3BCE016E84BCBFFD5F
:1000F000C12F3D6C74319ABD56833DDA3D00C77FF8
:1001000011BED9E4BB4C3E916BAAAABE0000008090
:100110003F05A84CCDB2D44EB93836A9020C50B91F
:10012000918688083CA6AAAA2ABE000000803F004B
:100130000D9410190D94FC180D94E4180D94DD180D
:100140000D94BE180D94E6290D94E1180D94141920
:100150000D94DE290D94F8180D940A190D94EA18DF
:100160000D94EE180D94DA290D94D9180D94D51824
:100170000D94F4180D94EF290D9402190D9406199D
:100180000D94A7310D949E1A0D94C3180D94D62981
:100190000D94C21F4E414E494E495459494E46CDC9
:1001A000CCCC3D0AD7233C17B7D13877CC2B32952E
:1001B00095E6241FB14F0A000020410000C842000C
:1001C000401C4620BCBE4CCA1B0E5AAEC59D7400D6
:1001D000407A10F35A00A0724E18090010A5D4E816
:1001E0000000E87648170000E40B54020000CA9AA9
:1001F0003B000000E1F505000080969800000040FB
:10020000420F000000A0860100000010270000003F
:1002100000E803000000006400000000000A000085
:100220000000000100000000002C76D888DC674F39
:100230000823DFC1DFAE59E1B1B796E5E3E453C669
:100240003AE651997696E8E6C28426EB898C9B6261
:10025000ED407C6FFCEFBC9C9F40F2BAA56FA5F40B
:1002600090055A2AF75C936B6CF9676DC11BFCE033
:10027000E40D47FEF520E6B500D0ED902E03009486
:100280003577050080841E080000204E0A0000001B
:10029000C80C333333330F986E12831141EF8D2125
:1002A00014893BE65516CFFEE6DB18D1844B381B8C
:1002B000F77C1D901DA4BBE424203284725E228151
:1002C00000C9F124ECA1E53D274C4556454C494E6B
:1002D0004700434F4D4D554E49434154494F4E0001
:1002E00044525952554E004552524F525300494EB6
:1002F000464F004543484F003B200020496E766141
:100300006C69642065787472756465722000473288
:100310002F47332062616420706172616D6574657E
:1003200072730A0057617274656E2E2E2E005A2069
:1003300050726F62652050617374204265640A00D8
:100340005A2D536F6E6465206175C39F6572686135
:100350006C6200203A20686F6D655F7A5F7361663A
:10036000656C790A00202064657374696E61746934
:100370006F6E3D00686F6D655F7A5F736166656C77
:1003800079005261697365205A20286265666F7230
:100390006520686F6D696E672920627920003E20B4
:1003A000686F6D696E67206E6F74206E6565646539
:1003B000642C20736B69700A0047323800205A3A67
:1003C000200020593A200042656420583A20004D10
:1003D00065736820706F696E74206F7574206F6626
:1003E0002072616E67650A004B6C69636B207A75D9
:1003F0006D20466F72747365747A656E004D6F740C
:100400006F72656E20616E6765736368616C746599
:1004100074002569730025696D20256973002569BD
:10042000682025696D202569730025696420256988
:10043000682025696D202569730025697920256963
:1004400064202569682025696D2025697300507234
:10045000696E742074696D653A20006F6B006F6679
:100460006600F302EE02E702E002D202C90244454E
:100470004255473A004D3131322053687574646FEC
:10048000776E004D313133205300456E6465722D17
:1004900033204F46462E00434F4E4649475F45584E
:1004A000504F5254004D4541545041434B00434F2F
:1004B0004F4C45525F54454D50455241545552455D
:1004C000004348414D4245525F54454D50455241CD
:1004D0005455524500424142595354455050494E9B
:1004E000470041524353004D4F54494F4E5F4D4FCB
:1004F00044455300544845524D414C5F50524F546F
:10050000454354494F4E00455854454E4445445F79
:100510004D3230004C4F4E475F46494C454E414DA1
:1005200045004155544F5245504F52545F53445F1C
:100530005354415455530053445F57524954450056
:100540005245504541540053444341524400505297
:100550004F4D50545F535550504F525400484F53D5
:10056000545F414354494F4E5F434F4D4D414E44BC
:100570005300454D455247454E43595F50415253F4
:10058000455200434153455F4C494748545F4252EE
:10059000494748544E45535300544F47474C455FD5
:1005A0004C494748545300534F4654574152455FB6
:1005B000504F574552004255494C445F50455243B5
:1005C000454E54004C4556454C494E475F444154B6
:1005D00041005A5F50524F42450052554E4F5554BC
:1005E000004155544F4C4556454C005052494E54CD
:1005F0005F4A4F420050524F4752455353004155B6
:10060000544F5245504F52545F54454D5000415540
:10061000544F5245504F52545F504F5300564F4C19
:10062000554D455452494300454550524F4D0042A7
:10063000494E4152595F46494C455F5452414E53D1
:100640004645520053455249414C5F584F4E5F5802
:100650004F4646004649524D574152455F4E414D27
:10066000453A4D61726C696E20322E302E392E3330
:100670002028417072202039203230323220313629
:100680003A32313A32362920534F555243455F436F
:100690004F44455F55524C3A6769746875622E63E2
:1006A0006F6D2F4D61726C696E4669726D77617204
:1006B000652F4D61726C696E2050524F544F434FFD
:1006C0004C5F56455253494F4E3A312E30204D41E2
:1006D0004348494E455F545950453A456E646572EA
:1006E0002D332045585452554445525F434F554E83
:1006F000543A3120555549443A6365646532613254
:10070000662D343161322D343734382D396231322F
:100710002D6335356336326633363766660A002F09
:100720002F004D31343520533C696E6465783E208E
:100730006F7574206F662072616E67652028302D9A
:1007400031290A003F4A206F7574206F662072615C
:100750006E67652028302E303120746F20302E33A4
:10076000290A0020204D61783A2000200020204DE9
:10077000696E3A2000203B200020204D323131208C
:100780005300536F667420656E6473746F707300EA
:1007900046523A0020466C6F773A20006469730035
:1007A000656E0043290A0061626C656420286D69EA
:1007B0006E2074656D702000436F6C6420657874E2
:1007C00072756465732061726520004D343231208A
:1007D000696E636F727265637420706172616D65BA
:1007E0007465722075736167650A004D65736820D2
:1007F000706F696E74206F7574206F662072616E01
:1008000067650A00486F6D657665727361747A205A
:10081000616B746976004572723A20546F6F20667E
:1008200061722100546F6F206661722066726F6D75
:10083000207265666572656E636520706F696E749F
:100840000A00454550524F4D204F4B0A00290A00DF
:1008500020746F20003F5A206F7574206F662072DD
:10086000616E67652028003F59206D7573742062A2
:1008700065203020284E4F5A5A4C455F41535F50F7
:10088000524F4245292E0A003F58206D757374203F
:100890006265203020284E4F5A5A4C455F41535FC5
:1008A00050524F4245292E0A0020647269766572C3
:1008B0002063757272656E743A20002064726976E6
:1008C00065722063757272656E743A2000206472DE
:1008D000697665722063757272656E743A200020C5
:1008E0006472697665722063757272656E743A20FF
:1008F000007370726561644379636C65007374653D
:10090000616C746843686F70002064726976657208
:10091000206D6F64653A0900737072656164437994
:10092000636C6500737465616C746843686F700014
:1009300020647269766572206D6F64653A09007390
:1009400070726561644379636C6500737465616C92
:10095000746843686F700020647269766572206DF8
:100960006F64653A09007370726561644379636C02
:100970006500737465616C746843686F700020640F
:100980007269766572206D6F64653A090020737430
:1009900065616C746843686F70206D617820737056
:1009A0006565643A200020737465616C74684368FF
:1009B0006F70206D61782073706565643A20002047
:1009C000737465616C746843686F70206D61782022
:1009D00073706565643A200020737465616C746897
:1009E00043686F70206D61782073706565643A208C
:1009F00000290A002E2E2E280054006F6B002020A4
:100A00004D323036205800486F6D65206F66667332
:100A10006574004361703A00203B0020204D38355A
:100A200031205830205930205A005A2D50726F62B0
:100A300065204F6666736574006BC3BC686C742E6A
:100A40002E2E006865697A742E2E2E0045312025E1
:100A5000530042657474206BC3BC686C742E2E2ED8
:100A60000042657474206865697A742E2E2E002306
:100A7000646566696E652044454641554C545F0087
:100A8000626564004B6420004B6920004B702000BD
:100A9000504944204175746F74756E652066696EA7
:100AA0006973686564212050757420746865206CD2
:100AB000617374204B702C204B6920616E64204B55
:100AC0006420636F6E7374616E74732066726F6DF1
:100AD0002062656C6F7720696E746F20436F6E665D
:100AE000696775726174696F6E2E680A00504944B7
:100AF000204175746F74756E65206661696C6564FC
:100B0000212074696D656F75740A00504944204155
:100B100075746F74756E65206661696C65642120FB
:100B200054656D706572617475726520746F6F20A5
:100B3000686967680A00504944204379636C6573AB
:100B40000025532025692F256900204B643A200099
:100B5000204B693A2000204B703A200020436C6102
:100B60007373696320504944200A00204E6F206F40
:100B700076657273686F6F740A002054753A2000AE
:100B8000204B753A2000206D61783A2000206D6975
:100B90006E3A200020643A200020626961733A2096
:100BA000005761697420666F7220686561742075F2
:100BB000702E2E2E00504944204175746F74756E4E
:100BC000652073746172740A005049442041757441
:100BD0006F74756E65206661696C6564212054656B
:100BE0006D706572617475726520746F6F206869CD
:100BF00067680A00504944204175746F74756E65CA
:100C000000504944204175746F74756E65206661AB
:100C1000696C656421204261642068656174657255
:100C20002069640A004572723A207574663820663D
:100C30006F6E74206E6F7420696E697469616C697F
:100C40007A65642E004572723A20757466382066A3
:100C50006F6E74206E6F7420696E697469616C695F
:100C60007A65642E004572723A2075746638206683
:100C70006F6E74206E6F7420696E697469616C693F
:100C80007A65642E004265747400476568C3A47574
:100C9000736500202020202020200020202020001C
:100CA000657272001FE0201020102010102010200C
:100CB0002010201030300840048003001FE03FF077
:100CC0003FF03FF01FE01FE03FF03FF03FF00FC06C
:100CD000078003003FFFF038007030FC3020FC102C
:100CE0002078102030102C00D02E31D02F7BD02F28
:100CF0007BD02E31D02C00D020301020781020FC5A
:100D00001030FC303800703FFFF03FFFF0380070CB
:100D10003186302387102787902F87D02F03D0204C
:100D200030102078102078102030102F03D02F871B
:100D3000D02787902387103186303800703FFFF02E
:100D40001FFFF81FFFF804104002082002082004CB
:100D5000104008208010410010410008208004103D
:100D6000400000001FFFF81FFFF8F80180000C484A
:100D70000080001243C38CD00271249267CC4124BE
:100D80009E40024924904012FBB3CEE00C63616E9A
:100D900063656C00447275636B20616267656272A3
:100DA0006F6368656E00706175736500506175737F
:100DB000652E2E2E00726573756D65004545505287
:100DC0004F4D2056657273696F6E204665686C657D
:100DD0007200454550524F4D20496E64657820465B
:100DE00065686C657200454550524F4D2043524333
:100DF000204665686C6572003F0049676E6F7269D6
:100E00006572656E005265736574656E0057657234
:100E10006B7365696E7374656C6C756E67656E0077
:100E200046696C616D656E7464757263686D657337
:100E3000736572004520696E206D6DC2B3004D333D
:100E4000303320553120452569205325690050490C
:100E500044204175746F74756E65202A00504944B2
:100E60002D44202A005049442D49202A005049444D
:100E70002D50202A0020082046616B746F720020DC
:100E800008206D6178002008206D696E006175731F
:100E900000616E004175746F2054656D70657261FC
:100EA0007475720056206D696E204C6565726661BE
:100EB0006872740056206D696E200056206D61784E
:100EC00020450056206D6178205A0056206D6178CB
:100ED00020590056206D617820580041206D6178BE
:100EE00020450041206D6178205A0041206D6178D5
:100EF00020590041206D617820580041204C6565E3
:100F000072666168727400412045696E7A75670087
:100F100042657363686C65756E6967756E670053CB
:100F20006F6E64656E7665727361747A205A0045DF
:100F30002053746570732F6D6D005A205374657063
:100F4000732F6D6D00592053746570732F6D6D0094
:100F5000582053746570732F6D6D004572772E2085
:100F600045696E7374656C6C756E67656E003F00E5
:100F700041626272656368656E0042657374C3A402
:100F8000746967656E004D343238005765726B7353
:100F900065696E7374656C6C756E67656E00466925
:100FA0006C616D656E740054656D70657261747509
:100FB0007200544D43205472656962657200537427
:100FC0006570732F6D6D00536F6E64656E7665721C
:100FD0007361747A004A756E6374696F6E2044653C
:100FE000760042657363686C65756E6967756E67D8
:100FF00000476573636877696E6469676B656974D8
:10100000005365747A6520486F6D6576657273610B
:10101000747A004B6F6E66696775726174696F6E82
:10102000003F004EC3A463687374652045636B651D
:101030000046657274696700576569746572005887
:10104000595A20686F6D656E005A2D57657274008D
:10105000496E646578205900496E646578205800AF
:101060004B6F6E6669672E20737065696368657281
:101070006E004B6F6E6669672E206C6164656E0052
:1010800042657474206175737269636874656E007B
:10109000536F6E64656E7665727361747A205A0060
:1010A000417573626C656E6468C3B668650061758E
:1010B0007300616E00426574742D4E6976656C6CC8
:1010C000696572756E67004E65747A20626561723B
:1010D00062656974656E0042657474206E69766538
:1010E0006C6C696572656E004732394E0047323963
:1010F000004175746F20486F6D65004265776567C4
:10110000756E6700000C0F00FE07022503BB01FF90
:10111000FE0AFE08FE05080806000040F0C88888A0
:10112000987810050808060000C0F8888888888824
:10113000F80505050600012030F8302005080806EE
:1011400000002070F820202020E00509090600FF9B
:101150002070A8A8B888887020070505070001D866
:101160006C366CD80509090600FFF8A888888888BD
:1011700088A8F8050A0A0600FE205050505088A89A
:10118000A8887003030306000340A040FFFFFFFF91
:10119000FFFFFFFFFFFFFFFFFFFFFFFFFFFFFFFF5F
:1011A000FFFF0000000605FF010707060200808020
:1011B0008080800080030303060105A0A0A005062F
:1011C0000606000050F85050F8500509090600FFC7
:1011D0002070A8A07028A87020050707060000C886
:1011E000C8102040989805070706000040A0A040BE
:1011F000A8906801030306020580808003090906A0
:1012000001FF204040808080404020030909060102
:10121000FF80404020202040408005070706000056
:1012200020A8702070A8200505050600012020F8E0
:1012300020200203030601FFC040800501010600D3
:1012400003F8020202060100C0C0050707060000FD
:10125000081010204040800507070600007088989D
:10126000A8C8887003070706010040C040404040FE
:10127000E0050707060000708808102040F8050701
:1012800007060000F80810300888700507070600F8
:101290000010305090F81010050707060000F88085
:1012A000F008088870050707060000304080F088C5
:1012B0008870050707060000F80810102020200598
:1012C0000707060000708888708888700507070681
:1012D000000070888878081060020505060100C0CB
:1012E000C000C0C00206060601FFC0C000C04080AA
:1012F0000305050601012040804020050303060088
:1013000002F800F803050506010180402040800531
:101310000707060000708810202000200507070638
:1013200000007088B8A8B880700507070600007034
:101330008888F8888888050707060000F048487004
:101340004848F00507070600007088808080887094
:10135000050707060000F04848484848F005070719
:10136000060000F88080F08080F80507070600007E
:10137000F88080F080808005070706000070888074
:1013800080988870050707060000888888F8888894
:1013900088030707060100E04040404040E00507A1
:1013A00007060000381010101090600507070600AF
:1013B000008890A0C0A090880507070600008080E4
:1013C00080808080F805070706000088D8A88888F4
:1013D00088880507070600008888C8A898888805B7
:1013E0000707060000708888888888700507070648
:1013F0000000F08888F080808005070706000070F4
:10140000888888A89068050707060000F08888F09B
:10141000A090880507070600007088807008887013
:10142000050707060000F8202020202020050707D8
:1014300006000088888888888870050707060000ED
:10144000888888885050200507070600008888880B
:1014500088A8A850050707060000888850205088F3
:1014600088050707060000888850202020200507EF
:1014700007060000F80810204080F803090906015B
:10148000FFE080808080808080E005070706000004
:10149000804040201010080309090601FFE02020C9
:1014A0002020202020E005030306000520508805A9
:1014B00001010600FEF80303030601058040200534
:1014C0000505060000700878887805070706000003
:1014D0008080F0888888F00505050600007080800F
:1014E000887005070706000008087888888878054E
:1014F00005050600007088F08070050707060000EB
:10150000304840E04040400507070600FE708888EC
:10151000887808700507070600008080F0888888B2
:10152000880307070601004000C0404040E004096E
:10153000090601FE1000301010101090600507071A
:1015400006000080808890E090880307070601006D
:10155000C04040404040E0050505060000D0A8A876
:10156000A8A8050505060000B0C8888888050505F7
:1015700006000070888888700507070600FEF0885E
:101580008888F080800507070600FE7888888878BC
:101590000808050505060000B0C88080800505051F
:1015A00006000078807008F005070706000020207C
:1015B000F82020201805050506000088888898680E
:1015C00005050506000088888850200505050600E9
:1015D000008888A8A85005050506000088502050FE
:1015E000880507070600FE8888885020408005058A
:1015F00005060000F8102040F80309090601FF2045
:1016000040404080404040200109090602FF8080A0
:10161000808080808080800309090601FF8040402F
:1016200040204040408005030306000248A890FF88
:10163000FFFFFFFFFFFFFFFFFFFFFFFFFFFFFFFFBA
:10164000FFFFFFFFFFFFFFFFFFFFFFFFFFFFFFFFAA
:101650000000000605FF01070706020080008080E9
:101660008080800507070600FF2070A8A0A87020D2
:10167000050707060000304840E04048B005050572
:10168000060000A8508850A80507070600008850EB
:10169000F820F820200107070602008080800080E3
:1016A000808004080806010070806090906010E05F
:1016B000030101060107A00607070600007884B4AD
:1016C000A4B4847803050506010460A06000E00569
:1016D00005050600002850A0502805030306000158
:1016E000F80808030101060103E0060707060000E9
:1016F0007884B4A4A48478050101060007F80404E2
:101700000406010560909060050707060000202090
:10171000F8202000F803050506010440A02040E061
:10172000030505060104C0204020C0030303060191
:10173000052040800507070600FE88888898E88015
:101740008005080806000078E8E8E86828282802EC
:101750000202060203C0C00302020601FE20C0030B
:10176000050506010440C04040E0030505060105EB
:1017700040A04000E0050505060000A0502850A04C
:10178000050A0A06000040C048506050B05078106A
:10179000050A0A06000040C048506050A8081038EA
:1017A000050A0A060000C0204830E050B05078100A
:1017B00005070706000020002020408870050A0A5F
:1017C000060000402000708888F8888888050A0A8A
:1017D000060000102000708888F8888888050A0AAA
:1017E000060000205000708888F8888888050A0A5A
:1017F00006000068B000708888F8888888050909A4
:101800000600005000708888F8888888050A0A0653
:101810000000205020708888F8888888050707060F
:10182000000078A0A0F0A0A0B80509090600FE708D
:101830008880808088701060050A0A0600004020B9
:1018400000F88080F08080F8050A0A060000102069
:1018500000F88080F08080F8050A0A060000205019
:1018600000F88080F08080F805090906000050002B
:10187000F88080F08080F8030A0A060100804000AA
:10188000E04040404040E0030A0A060100204000DA
:10189000E04040404040E0030A0A06010040A0004A
:1018A000E04040404040E0030909060100A000E09C
:1018B0004040404040E0050707060000704848E807
:1018C000484870050A0A06000068B0008888C8A861
:1018D000988888050A0A06000040200070888888D9
:1018E000888870050A0A0600001020007088888821
:1018F000888870050A0A06000020500070888888D1
:10190000888870050A0A06000068B0007088888818
:10191000888870050909060000500070888888884A
:1019200088700505050600018850205088050909C2
:101930000600FF087098A8A8A8C87080050A0A06C3
:10194000000040200088888888888870050A0A0678
:10195000000010200088888888888870050A0A0698
:10196000000020500088888888888870050909064A
:101970000000500088888888888870050A0A060058
:10198000001020008888502020202004070706012E
:101990000080E0909090E0800507070600007088C6
:1019A00090A09088B005080806000040200070084C
:1019B00078887805080806000010200070087888EC
:1019C000780508080600002050007008788878051F
:1019D000080806000068B0007008788878050707D6
:1019E0000600005000700878887805080806000096
:1019F00020502070087888780505050600007028BA
:101A000070A0780507070600FE7088808870106057
:101A10000508080600004020007088F08070050866
:101A2000080600001020007088F080700508080685
:101A300000002050007088F0807005070706000045
:101A400050007088F0807003080806010080400094
:101A5000C0404040E0030808060100204000C040AC
:101A60004040E003080806010040A000C04040409C
:101A7000E0030707060100A000C0404040E0050960
:101A800009060000502050087888888870050808EA
:101A900006000068B000B0C88888880508080600FD
:101AA0000040200070888888700508080600001033
:101AB0002000708888887005080806000020500003
:101AC000708888887005080806000068B000708873
:101AD00088887005070706000050007088888870A5
:101AE0000505050600012000F80020050505060093
:101AF000007898A8C8F00508080600004020008873
:101B000088888870050808060000102000888888EA
:101B100088700508080600002050008888888870B2
:101B200005070706000050008888888870050A0AA3
:101B30000600FE1020008888885020408005090992
:101B40000600FE8080F0888888F0808005090906FC
:101B500000FE50008888885020408050455447003F
:101B6000504C4100426574740044C3BC7365004C22
:101B7000C3BC66746572004B6F6E6669677572618F
:101B800074696F6E005374616E646172647765721C
:101B90007465206C6164656E004B6F6E6669672EBC
:101BA000206C6164656E004B6F6E6669672E2073F2
:101BB000706569636865726E00242045696E737490
:101BC000656C6C756E67656E00536F6E64656E76DE
:101BD00065727361747A205A004572772E204569C8
:101BE0006E7374656C6C756E67656E0048617570B8
:101BF000746D656EC3BC003F005A7572C3BC636BE5
:101C00000053746F70004B6F6E6669677572617414
:101C1000696F6E0054656D70657261747572004213
:101C200065776567756E670053442D447275636B05
:101C300020666F72747365747A656E004A7573748A
:101C4000696572756E670053442D447275636B202D
:101C500061626272656368656E0053442D447275FB
:101C6000636B2070617573696572656E00496E669D
:101C70006F002100486F74656E64207A75206B6177
:101C80006C74005A7572C3BC636B005765697465E8
:101C900072004732385A004732385900486F6D6534
:101CA00020400047323858004175746F20486F6DEE
:101CB0006500473238004265776567756E67004D8D
:101CC0006F746F72656E206465616B7469766965A7
:101CD00072656E004D3834004D343820536F6E6499
:101CE000656E74657374004732384F0A4D3438207E
:101CF00050313000426574742D4E6976656C6C69A4
:101D00006572756E6700486F6D696E670048617532
:101D100070746D656EC3BC002420426574742056D7
:101D20006F7277C3A4726D656E002420457874725B
:101D30002E20566F7277C3A4726D656E0054656D68
:101D40007065726174757200601B5B1B41626BC3CE
:101D5000BC686C656E002420566F7277C3A4726DE8
:101D6000656E004CC3BC6674657200426574740095
:101D700044C3BC73650048617570746D656EC3BC07
:101D8000004531005A00590058004531005A0059A9
:101D90000058004531005A00590061757300616EAA
:101DA000005800544D4320547265696265720053B7
:101DB0007465616C746843686F702065696E7363E5
:101DC000682E00536368726974746D6F6475730074
:101DD000487962726964207468726573686F6C64B4
:101DE0000054726569626572205374726F6D0045AC
:101DF00072772E2045696E7374656C6C756E6765BD
:101E00006E004261627973746570205A00466C7589
:101E1000737372617465004CC3BC66746572004272
:101E20006574740044C3BC73650047657363687769
:101E30002E0048617570746D656EC3BC00486F6D8F
:101E4000696E67206765736368656974657274009D
:101E50006F70656E00545249474745524544003AF9
:101E600020007A5F6D696E00795F6D696E00785F42
:101E70006D696E005265706F7274696E6720656E71
:101E80006473746F70207374617475730A00203A00
:101E90002073796E635F706C616E5F706F736974CD
:101EA000696F6E0A00202063757272656E745F70D0
:101EB0006F736974696F6E3D003E2000646F5F62EE
:101EC0006C6F636B696E675F6D6F76655F746F00D3
:101ED00020746F6F206C6F6E6720657874727573F5
:101EE000696F6E2070726576656E7465640A002095
:101EF000636F6C6420657874727573696F6E20709F
:101F0000726576656E7465640A00566F72686572F4
:101F10002025732573257320686F6D656E00207012
:101F20006F736974696F6E5F7368696674203D20B2
:101F30000020686F6D655F6F6666736574203D2075
:101F400000417869732000290A003C3C3C207365FD
:101F5000745F617869735F69735F61745F686F6DE7
:101F6000652800203A200A00202063757272656E91
:101F7000745F706F736974696F6E3D005D203D2002
:101F8000003E20686F6D655F6F66667365745B0009
:101F90002A2A2A205A20484F4D4544205749544860
:101FA0002050524F424520285A5F4D494E5F5052B3
:101FB0004F42455F555345535F5A5F4D494E5F450C
:101FC0004E4453544F505F50494E29202A2A2A0A22
:101FD0003E2070726F62652E6F66667365742E7A2E
:101FE000203D200000000000000000000000000074
:101FF000290A003E3E3E207365745F617869735F15
:1020000069735F61745F686F6D6528005761726EF8
:10201000696E673A20486F6D696E672042756D7012
:102020002044697669736F72203C20310A000202F5
:1020300004290A003C3C3C20686F6D656178697337
:102040002800203A203E20414654455220736574B2
:102050005F617869735F69735F61745F686F6D65F5
:102060000A00202063757272656E745F706F736909
:1020700074696F6E3D006D6D0A0052652D62756D5D
:10208000703A20006D6D0A004D6F766520417761D2
:10209000793A20006D6D0A00486F6D6520466173C6
:1020A000743A20000000524300005C4300007A4371
:1020B0000000A0400000A04000000040290A003EAF
:1020C0003E3E20686F6D65617869732800000000EE
:1020D000010000000100008000555555000000403F
:1020E0000033333300AAAA2A0049922400000020BA
:1020F00000C7711C0099991900D145170055551555
:10210000003BB1130024491200111111000000100E
:10211000000F0F0F00E3380E0043790D00CCCC0CFC
:1021200000C3300C00E8A20B0064210B00AAAA0A2D
:1021300000703D0A009DD80900427B0900922409E5
:1021400000DCD3080088880800104208000000085E
:1021500000F0C107008787070075500700711C0752
:10216000003EEB0600A1BC0600699006006666060C
:1021700000703E06006118060017F4050074D105D2
:10218000005BB00500B29005006272050055550570
:102190000078390500B81E0500050505004EEC0461
:1021A0000087D40400A1BD040090A7040049920454
:1021B00000C17D0400EE690400C7560400444404D5
:1021C000005C3204000821040041100400000004F7
:1021D000003FF00300F8E0030026D20300C3C3036E
:1021E00000CCB503003AA803000A9B0300388E0315
:1021F00000C08103009F750300D0690300505E0397
:10220000001D53030034480300913D0300333303A2
:102210000016290300381F030097150300300C0334
:1022200000030303000BFA020049F10200BAE802BE
:10223000005CE002002DD802002DD0020059C80237
:1022400000B0C0020031B90200DAB10200AAAA024D
:1022500000A0A30200BC9C0200FA9502005C8F0261
:1022600000DF88020082820200457C02002776029D
:102270000027700200436A02007C640200D05E0204
:10228000003F590200C8530200FFFDFCFAF8F6F4C3
:10229000F2F0EEECEAE9E7E5E3E1E0DEDCDAD9D7FB
:1022A000D5D4D2D0CFCDCBCAC8C7C5C3C2C0BFBD9D
:1022B000BCBAB9B7B6B4B3B2B0AFADACAAA9A8A610
:1022C000A5A4A2A1A09E9D9C9A999897959493925B
:1022D000908F8E8D8B8A8988878684838281807F88
:1022E0007E7D7B7A797877767574737271706F6E94
:1022F0006D6C6B6A696867666564636261605F5E86
:102300005D5C5B5A5958585756555453525150506A
:102310004F4E4D4C4B4A4A49484746464544434236
:102320004241403F3E3E3D3C3B3B3A3938383736F0
:102330003535343332323130302F2E2E2D2C2B2B9D
:102340002A2929282727262525242323222121203D
:10235000201F1E1E1D1C1C1B1B1A191918181716CE
:1023600016151514131312121111100F0F0E0E0D56
:102370000D0C0C0B0A0A09090808070706060505D3
:1023800004040303020201000042657474206865BE
:10239000697A742E2E2E005761697420666F722040
:1023A0006265642068656174696E672E2E2E0A006E
:1023B000290062656420280020616E6420002900E5
:1023C000686F74656E64202800507265686561747A
:1023D000696E67200050726568656174696E672E6A
:1023E0002E2E00290A0050726F62653A3A646F5FC0
:1023F0007A5F726169736528006465706C6F793A01
:102400002000203A2050726F62653A3A7365745F1B
:102410006465706C6F7965640A0020206375727260
:10242000656E745F706F736974696F6E3D00206DC7
:1024300061783A00206D696E3A0041786973200036
:102440000000524300005C4300007A43000000009B
:10245000000000000000000045696E7374656C6C3C
:102460002E206765737065692E00290A0020627945
:102470007465733B20637263200053657474696EE6
:1024800067732053746F726564202800486172641A
:10249000636F6465642044656661756C7420536580
:1024A0007474696E6773204C6F616465640A002000
:1024B000286D6D2900203B204C6576656C696E6740
:1024C000200020204D3432302053004175746F209D
:1024D000426564204C6576656C696E670020460035
:1024E00020420020480020204D3134352053004D3B
:1024F0006174657269616C206865617475702070C3
:102500006172616D65746572730020204D393036DB
:10251000002054302045005374657070657220644B
:1025200072697665722063757272656E7400202020
:102530004D393133002054302045004879627269AA
:1025400064205468726573686F6C640020204D3598
:102550003639205331005430204500205800447251
:1025600069766572207374657070696E67206D6F2F
:10257000646500204A002020473239205720490056
:1025800020204D3134392043203B20556E6974732F
:1025900020696E2043656C736975730A0054656D1C
:1025A000706572617475726520556E697473002070
:1025B00020473231203B004C696E65617220556EB8
:1025C00069747300454550524F4D206461746173C6
:1025D000697A65206572726F722E0A00290A0020DE
:1025E00062797465733B2063726320002073746F9B
:1025F0007265642073657474696E677320726574A4
:10260000726965766564202800202863616C6375B3
:102610006C6174656429210A0020213D2000454534
:1026200050524F4D20435243206D69736D61746366
:1026300068202D202873746F726564292000205350
:10264000697A653A2000496E6465783A2000000096
:10265000FA430000FA430000A0410000C841000016
:10266000A0420000A0420000C8430000BA42F401AA
:102670000000F40100003200000088130000204D2B
:1026800061726C696E3D563836290A0045455052D4
:102690004F4D2076657273696F6E206D69736D6141
:1026A0007463682028454550524F4D3D0024F4D4B2
:1026B0003050C38E20C2A24017828B7011127A91C3
:1026C0000D816CD90AA861E108C7586607615143BA
:1026D000061E4B5D05C145A7041A411104093D982A
:1026E00003713931034036DB0265339102D4305433
:1026F00002802E1D02632CEE01752AC501B028A0B0
:1027000001102781018F2564012B244B01E0223425
:1027100001AC211F018D200D01801FFC00841EEDE6
:1027200000971DDF00B81CD200E61BC600201BBCB2
:1027300000641AB200B219A8000A19A0006A189918
:1027400000D117910040178B00B516840031167E1A
:1027500000B31579003A157300C7146F0058146A56
:1027600000EE1366008813630025135E00C7125B3A
:10277000006C12570015125400C111510070114F16
:102780000021114B00D61049008D1047004610441F
:102790000002104200C00F4000800F3E00420F3C7C
:1027A00000060F3B00CB0E3800930E37005C0E3551
:1027B00000270E3400F30D3200C10D3100900D30B2
:1027C00000600D2E00320D2D00050D2C00D90C2BB4
:1027D00000AE0C2900850C29005C0C2700350C2765
:1027E000000E0C2600E80B2400C40B2400A00B23D1
:1027F000007D0B23005A0B2100390B2100180B2000
:1028000000F80A1F00D90A1E00BB0A1E009D0A1DFF
:1028100000800A1D00630A1C00470A1B002C0A1BCB
:1028200000110A1A00F7091A00DD091900C4091974
:1028300000AB091900920917007B091800630917FA
:10284000004C09160036091600200916000A091561
:1028500000F5081500E0081400CC081400B80814AE
:1028600000A4081400900813007D0812006B0813E0
:1028700000580812004608120034081100230811FD
:10288000001208110001081100F0071000E0071005
:1028900000D0071000C0071000B0070F00A10710FC
:1028A0000091070E0083070F0074070F0065070EE5
:1028B0000057070E0049070E003B070D002E070EBC
:1028C0000020070D0013070D0006070D00F9060C88
:1028D00000ED060D00E0060C00D4060C00C8060C46
:1028E00000BC060C00B0060C00A4060B0099060CF8
:1028F000008D060B0082060B0077060B006C060BA2
:102900000061060A0057060B004C060A0042060A40
:102910000038060A002E060A0024060A001A060AD3
:10292000001006090007060A00FD050900F4050964
:1029300000EB050900E2050900D9050900D00509E9
:1029400000C7050900BE050900B5050800AD05086A
:1029500000A50509009C050800940508008C0508E1
:1029600000840508007C050800740508006C050754
:1029700000650508005D050700560508004E0507BF
:102980000047050700400508003805070031050726
:10299000002A050700230507001C05060016050789
:1029A000000F0507000805060002050700FB0406E6
:1029B00000F5040700EE040600E8040600E2040740
:1029C00000DB040600D5040600CF040600C9040697
:1029D00000C3040600BD040600B7040600B10405E8
:1029E00000AC040600A6040600A00405009B040633
:1029F0000095040500900406008A0405008504057E
:102A000000800406007A04050075040500700405C2
:102A1000006B04050066040500610405005C040504
:102A20000057040500520405004D04050048040544
:102A300000430405003E0404003A04050035040583
:102A400000300404002C04050027040400230405BE
:102A5000001E0404001A04040016040500110404F6
:102A6000000D04040009040500040404000004042B
:102A700000FC030400F8030400F4030400F0030462
:102A800000EC030400E8030400E4030400E0030492
:102A900000DC030400D8030400D4030400D00304C2
:102AA00000CC030400C8030300C503030024F4049E
:102AB000D9201BC40C5C0E9804C4095F0265077121
:102AC00001F405F900FB04B30048048700C1036961
:102AD000005803550003034500BE023A008402314A
:102AE0000053022A002902250004022000E4011CF0
:102AF00000C8011900AF01170098011400840113E8
:102B000000710110006101100051010E0043010D20
:102B10000036010B002B010B0020010B00150109F1
:102B2000000C01090003010800FB000800F3000885
:102B300000EB000700E4000600DE000600D80006F7
:102B400000D2000600CC000500C7000500C2000549
:102B500000BD000400B9000400B5000400B1000489
:102B600000AD000400A9000400A5000300A20003BA
:102B7000009F0004009B00030098000300950002E2
:102B80000093000300900003008D0002008B0003FF
:102B90000088000200860002008400030081000219
:102BA000007F0002007D0002007B0002007900022D
:102BB000007700010076000200740002007200013C
:102BC00000710002006F0002006D0001006C000245
:102BD000006A000100690002006700010066000150
:102BE0000065000100640002006200010061000154
:102BF00000600001005F0002005D0001005C000158
:102C0000005B0001005A000100590001005800015A
:102C1000005700010056000100550001005400015A
:102C20000053000000530001005200010051000158
:102C300000500001004F0001004E0000004E000156
:102C4000004D0001004C0001004B0000004B000152
:102C5000004A00010049000100480000004800014E
:102C6000004700010046000000460001004500004A
:102C70000045000100440001004300000043000142
:102C8000004200000042000100410000004100013C
:102C900000400001003F0000003F0001003E000036
:102CA000003E0001003D0000003D0001003C00002E
:102CB000003C0000003C0001003B0000003B000124
:102CC000003A0000003A000100390000003900011C
:102CD0000038000000380000003800010037000014
:102CE0000037000100360000003600000036000109
:102CF0000035000000350000003500010034000000
:102D000000340000003400010033000000330000F4
:102D100000330001003200000032000000320001E8
:102D200000310000003100000031000100300000DF
:102D30000030000000300001002F0000002F0000D4
:102D4000002F0000002F0001002E0000002E0000C8
:102D5000002E0001002D0000002D0000002D0000BD
:102D6000002D0001002C0000002C0000002C0000B1
:102D7000002C0001002B0000002B0000002B0000A5
:102D8000002B0001002A0000002A0000002A000099
:102D9000002A00010029000000290000002900008D
:102DA0000029000000290001002800000028000080
:102DB0000028000000280000002800010027000073
:102DC0000027000000270000002700000027000166
:102DD000002600000026000000260000002600005B
:102DE000002600010025000000250000002500004D
:102DF000002500000025000000250001002400003F
:102E00000024000000240000002400000024000131
:102E10000023000000230000002300000023000026
:102E20000023000000230000002300010022000016
:102E3000002200000022000000220000002200000A
:102E400000220001002100000021000000210000FC
:102E500000210000002100000021000000210001ED
:102E600000200000002000000020000000200000E2
:102E700000200000002000000020000000200001D1
:102E8000001F0000001F0000001F0000001F0000C6
:102E9000001F0000001F0000001F0001001E0000B6
:102EA000001E0000001E0000001E0000003930005F
:102EB000003325000087190000B00F0000DB080078
:102EC00000BD040000740200003F01000020436FB9
:102ED000756E7420583A00004265747400453100E4
:102EE0004500626564002C2073797374656D2073EE
:102EF000746F7070656421204865617465725F4904
:102F0000443A20004845495A454E204552464F4CC8
:102F1000474C4F530048656174696E67206661696C
:102F20006C65640070012C0190012701B001220141
:102F3000C0011D01F00118011002130130020E0141
:102F40006002090190020401C002FF000003FA00C0
:102F50004003F5008003F000D003EB002004E600FE
:102F60007004E100E004DC004005D700C005D20099
:102F70004006CD00D006C8008007C3003008BE0060
:102F8000F008B900C009B400B00AAF00B00BAA0045
:102F9000D00CA500000EA000500F9B00C0109600A2
:102FA0005012910000148C00C0158700B0178200E9
:102FB000B0197D00D01B7800001E730040206E0009
:102FC00090226900F024640040275F0090295A0095
:102FD000E02B5500102E500020304B0010324600E0
:102FE000E033410090353C00103737007038320034
:102FF000A0392D00B03A2800A03B2300603C1E0001
:10300000103D1900903D1400103E0F00703E0A0064
:10301000C03E0500003F0000403FFBFF803FF6FF41
:10302000C03FF1FF200820C39C4245525343485201
:10303000495454454E004D415854454D50207472EA
:103040006967676572656400200820554E544552D3
:1030500053434852495454454E004D494E54454DF2
:103060005020747269676765726564002008204E9D
:1030700049434854204552524549434854005468F6
:1030800065726D616C2052756E6177617900202FD9
:10309000002042403A0020403A0020573A00205792
:1030A0003A00414E474548414C54454E00507269E4
:1030B0006E7465722073746F7070656420647565DA
:1030C00020746F206572726F72732E2046697820AB
:1030D000746865206572726F7220616E642075730A
:1030E00065204D39393920746F20726573746172AF
:1030F000742E202854656D70657261747572652038
:1031000069732072657365742E2053657420697429
:103110002061667465722072657374617274696E81
:1031200067290A004E6F20436865636B73756D20D5
:1031300077697468206C696E65206E756D62657262
:103140002C204C617374204C696E653A20006368D2
:1031500065636B73756D206D69736D617463682C45
:10316000204C617374204C696E653A20004C696E86
:1031700065204E756D626572206973206E6F7420D4
:103180004C617374204C696E65204E756D6265727A
:103190002B312C204C617374204C696E653A2000F1
:1031A0004D3131300053657269616C207374617404
:1031B0007573206D69736D617463680A0021212045
:1031C0004B494C4C20636175736564206279204BD8
:1031D000494C4C20627574746F6E2F70696E0A00D2
:1031E0002121204B494C4C2063617573656420623A
:1031F0007920746F6F206D75636820696E616374E8
:103200006976652074696D65202D2063757272651D
:103210006E7420636F6D6D616E643A200062757329
:10322000793A2070617573656420666F7220696EEB
:103230007075740A00627573793A207061757365F0
:103240006420666F7220757365720A006275737907
:103250003A2070726F63657373696E670A00426922
:10326000747465206E65757374617274656E004464
:103270005255434B455220474553544F50505400EC
:1032800025533A20255300706F7765726F6666008C
:103290004142474542524F4348454E005072696E85
:1032A0007465722068616C7465642E206B696C6C47
:1032B00028292063616C6C6564210A006563686F6E
:1032C0003A004572726F723A004F4646004F4E0008
:1032D00066616C736500747275650020286469739B
:1032E00061626C6564290A0020280041424C20413B
:1032F000646A7573746D656E74205A005A20466155
:1033000064653A20002028656E61626C6564290A54
:103310000041626F76650053616D65205A206173CC
:103320000042656C6F77004175746F2042656420C0
:103330004C6576656C696E673A2042494C494E454A
:10334000415200204E6F7A7A6C65290A00202800CD
:1033500050726F6265204F66667365742058302026
:103360005930205A0050726F62653A204E4F5A5AB7
:103370004C455F41535F50524F42450A004D6163D7
:1033800068696E6520547970653A2043617274658E
:103390007369616E0A005D0A004578747261706F2E
:1033A0006C617465205B0042696C696E65617220B6
:1033B0004C6576656C696E6720477269643A0A00ED
:1033C000203A202E2E2E4E6F77204F4E0A002020BE
:1033D00063757272656E745F706F736974696F6E16
:1033E0003D00203A204C6576656C696E67204F463B
:1033F000460A00202063757272656E745F706F7389
:103400006974696F6E3D00203A202E2E2E4E6F7724
:10341000204F46460A00202063757272656E745F05
:10342000706F736974696F6E3D00203A204C657649
:10343000656C696E67204F4E0A00202063757272BA
:10344000656E745F706F736974696F6E3D0072654D
:103450007365745F6265645F6C6576656C0A0030E5
:103460003D2E33323500313D2E3138006D6178000C
:103470002F3331002F3331002F333100303D2E33C5
:10348000323500313D2E3138006D6178002F3331F7
:10349000002F3331002F333100303D2E33323500D1
:1034A000313D2E3138006D6178002F3331002F33DC
:1034B00031002F333100303D2E33323500313D2E77
:1034C0003138006D6178002F3331002F3331002FF8
:1034D000333100092042616420726573706F6E732E
:1034E000652100092042616420726573706F6E73FC
:1034F000652100092042616420726573706F6E73EC
:10350000652100092042616420726573706F6E73DB
:103510006521004C4F570048494748004F4B004534
:1035200072726F723A20416C6C200020636F6E6E75
:10353000656374696F6E2E2E2E2000546573746956
:103540006E6720004C4F570048494748004F4B00DA
:103550004572726F723A20416C6C200020636F6E6E
:103560006E656374696F6E2E2E2E20005465737421
:10357000696E6720004C4F570048494748004F4B41
:10358000004572726F723A20416C6C200020636FAC
:103590006E6E656374696F6E2E2E2E2000546573F7
:1035A00074696E6720004C4F570048494748004FE8
:1035B0004B004572726F723A20416C6C20002063A0
:1035C0006F6E6E656374696F6E2E2E2E20005465CB
:1035D0007374696E672000544D43205665726269AA
:1035E0006E64756E67736665686C65720047323627
:1035F000206162676562726F6368656E004732368C
:103600002044C3BC7365206175666865697A656E20
:1036100000473236206865697A7420426574740008
:1036200057616974696E6720666F7220686561749E
:1036300075702E0A004665737465204CC3A46E67CE
:1036400065205072696D65005072696D696E672002
:10365000666572746967004D616E75656C6C2050AB
:1036600072696D652E2E2E00473236207665726C9B
:10367000617373656E003F53706563696669656465
:1036800020582C5920636F6F7264696E61746520D5
:103690006F7574206F6620626F756E64732E0A00FA
:1036A0003F28522965706561742076616C756520CC
:1036B0006E6F7420706C61757369626C653B206D10
:1036C000757374206265206174206C656173742069
:1036D000312E0A003F537065636966696564206E28
:1036E0006F7A7A6C652074656D706572617475723D
:1036F00065206E6F7420706C61757369626C652EE5
:103700000A003F5370656369666965642066696C89
:10371000616D656E742073697A65206E6F742070B8
:103720006C61757369626C652E0A003F5370656346
:103730006966696564207072696D65206C656E6785
:103740007468206E6F7420706C61757369626C654B
:103750002E0A003F537065636966696564206E6F69
:103760007A7A6C652073697A65206E6F7420706C4C
:1037700061757369626C652E0A003F5265747261EF
:103780006374696F6E204D756C7469706C696572D5
:10379000206D757374206265207370656369666956
:1037A00065642E0A003F537065636966696564202D
:1037B00052657472616374696F6E204D756C7469C3
:1037C000706C696572206E6F7420706C61757369BE
:1037D000626C652E0A003F537065636966696564B3
:1037E000206C6179657220686569676874206E6F06
:1037F0007420706C61757369626C652E0A004329D0
:103800002E0A003F537065636966696564206265CE
:10381000642074656D7065726174757265206E6F79
:103820007420706C61757369626C65202834302D6A
:1038300000473236207374617274696E672E2E2EC3
:103840000A004F46460A004661646520486569677C
:1038500068742000426564204C6576656C696E670B
:1038600020004661696C656420746F20656E61623A
:103870006C6520426564204C6576656C696E670AEC
:1038800000496E76616C6964206D6573682E0A006C
:103890003E3E3E003C3C3C0020636F7272656374A8
:1038A0006564205A3A0047323920756E636F727230
:1038B0006563746564205A3A00203A203E20707295
:1038C0006F62696E6720636F6D706C6574650A0066
:1038D000202063757272656E745F706F73697469AE
:1038E0006F6E3D004D65737370756E6B740025537C
:1038F0002025692F2569002E0A002F0050726F6263
:10390000696E67206D65736820706F696E74200042
:10391000202844525952554E2900473239204175CA
:10392000746F20426564204C6576656C696E670033
:103930003F20284C2C522C462C4229206F75742095
:103940006F6620626F756E64732E0A00204200203D
:103950004600205200473239204C003F2856296546
:1039600072626F7365206C6576656C20696D706C32
:1039700061757369626C652028302D34292E0A0028
:10398000426164205A2076616C75650A004E6F2092
:1039900062696C696E65617220677269640A0047CA
:1039A00032384C30003E204175746F2D6C65766561
:1039B0006C206E6F74206E65656465642C20736B7B
:1039C00069700A004732390041627765696368753A
:1039D0006E670025533A2025730046696E69736847
:1039E0006564210A003A207A3A2000206F662000A0
:1039F000476F696E6720746F3A20580043570A007A
:103A0000206469723A0020616E676C653A005374F5
:103A1000617274207261646975733A004D343820A4
:103A200050756E6B740025533A2025642F25640071
:103A3000506F736974696F6E696E67207468652072
:103A400070726F62652E2E2E0A003F4C65677320E0
:103A50006F66206D6F76656D656E7420696D706C34
:103A600061757369626C652028302D3135292E0A05
:103A7000003F2028582C5929206F7574206F66202C
:103A8000626F756E64732E0A005A752077656974CB
:103A90002064726175C39F656E003F53616D706CE9
:103AA000652073697A65206E6F7420706C61757320
:103AB00069626C652028342D3530292E0A004D347A
:103AC00038205A2D50726F6265205265706561749E
:103AD0006162696C69747920546573740A003F28C7
:103AE00056296572626F7365206C6576656C206916
:103AF0006D706C61757369626C652028302D342996
:103B00002E0A005374616E646172642044657669A4
:103B10006174696F6E3A20002052616E67653A20C9
:103B200000204D61783A2000204D696E3A20002037
:103B30005369676D613A20004D65616E3A2000203F
:103B4000440020204D323030205300202844697337
:103B500061626C6564293A0046696C616D656E74DA
:103B60002073657474696E67730020204D323031A4
:103B70002058004D617820416363656C6572617403
:103B8000696F6E2028756E6974732F733229002057
:103B9000204D3230332058004D61782066656564D1
:103BA00072617465732028756E6974732F732900B0
:103BB00020520020204D3230342050004163636594
:103BC0006C65726174696F6E2028756E6974732FED
:103BD0007332292028503C7072696E742D616363C2
:103BE000656C3E20523C726574726163742D616332
:103BF00063656C3E20543C74726176656C2D616324
:103C000063656C3E2900204A0020540020530020A8
:103C1000204D323035204200416476616E63656428
:103C20002028423C6D696E5F7365676D656E745FD9
:103C300074696D655F75733E20533C6D696E5F6698
:103C4000656564726174653E20543C6D696E5F7495
:103C5000726176656C5F66656564726174653E204D
:103C60004A3C6A756E635F6465763E2900204400B5
:103C700020490020204D333031205000486F7465BA
:103C80006E64205049440020440020490020204D0B
:103C9000333034205000426564205049440044527F
:103CA000565F535441545553090050574D5F534389
:103CB000414C45090050574D434F4E460900434F74
:103CC0004F4C434F4E46090043484F50434F4E46DA
:103CD0000900544849474809090054434F4F4C5480
:103CE00048525309005450574D54485253090054F8
:103CF0005354455009090054504F574552444F57AB
:103D00004E0900494F494E0909004753544154098F
:103D1000090049484F4C445F4952554E09004743FA
:103D20004F4E460909000900447269766572207297
:103D300065676973746572733A0A007332767362E9
:103D40000900733276736109003132304309003162
:103D500034334309003135304309003135374309E5
:103D6000006F7409006F747077090073326761091E
:103D7000007332676209006F6C6109006F6C620941
:103D80000073747374090073675F726573756C7484
:103D90000044525653544154555300755374657042
:103DA00020636F756E74005374616C6C677561721B
:103DB00064207468727300202D737461727409003A
:103DC000687973746572657369730A202D656E6412
:103DD0000900626C616E6B2074696D65006F6666C8
:103DE0002074696D650070776D2067726164206171
:103DF00075746F0070776D206F66667365742061EF
:103E000075746F0070776D207363616C65206175E8
:103E1000746F0070776D207363616C652073756DCE
:103E2000004F54207072657761726E005B6D6D2F6C
:103E3000735D090050574D207468726573682E00D9
:103E400074737465700900696E7465727009006D31
:103E500073746570730900737465616C746843688A
:103E60006F70007673656E7365090050574D20734F
:103E700063616C650043532061637475616C004835
:103E80006F6C642063757272656E740052756E207B
:103E900063757272656E74004D415820637572725D
:103EA000656E7400524D532063757272656E7400B6
:103EB0005365742063757272656E7400456E61623D
:103EC0006C65640900090002FFFFFFFFEFFFFFFFC1
:103ED000FFFFFFFFFFFFFFEFEFFFFFFFFFFFFFFF12
:103EE000FFFFE7DFFFFFFFFFFFFFFFFFFFE7DFFF52
:103EF000FFFFFFFFFFFFFFFFE3DFFFFFFFFFFFFF0E
:103F0000FFFFFFF3CFFFFFFFFFFFFFFFFFE1E1CF69
:103F1000FFFFFFFFFFFFFE78000003DDFFFFFFFF55
:103F2000FEFF807E0001EEFFFFFFFFFE7DCFFC0065
:103F300000F77FFFFFFFFF8E060000007BBFFFFF43
:103F4000FFFFC0000000007DDFFFFFFFFFFC01FE60
:103F500000003EE7FFFFFFFFFFFFFC00031F73FFB2
:103F6000FFFFFFFFFFF800018F81FFFFFFFFFFFF53
:103F7000E0000083F9FFFFFFFFFFFF00FC0000F0FF
:103F8000FFFFFFFFFFE00FFFC00000FFFFFFFFFE8E
:103F900003FFFFC00000FFFFFFFFFFFFFFF900006E
:103FA00000FFFFFFFFFFFFFFFC0007C0FFFFFFFF59
:103FB000FFFFFFFF0007E0FFFFFFFFFFFFFFFFE046
:103FC00007F1FFFFFFFFFFFFFFFFFC07F9FFFFFF08
:103FD000FFFFFFFFFFFF03F9FFFFFFFFFFFFFFFFF3
:103FE000FF83F9FFFFFFFFFFFFFFFFFFC3FFFFFF9F
:103FF000FFFFFFFFFFFFFFE1FFFFFFFFFFFFFFFFEF
:10400000FFFFF0BFFFFFFFFFFFFFFFFFFBF83FFFDA
:10401000FFFFFFFFFFFFFFF9F83FFFFFFFFFFFFF7D
:10402000FFFF7EF0FFFFFFFFFFFFFFFFFF8E03FF9D
:10403000FFFFFFFFFFFFFFFFE01FFFFFFFFFFFFF8F
:10404000FFFFFFFFFFFFFFFFFFFFFFFFFFFFFFFF80
:10405000FFFFFFFFFFFFFFFFFFFFFF7FFFFFFFFFF0
:1040600000007FFFFFF87FFFFFFFFF80007FFFFF63
:10407000E07FFFFFFFFFC3FCFFFFFFF8FFFFFFFF35
:10408000FFC3FCFFFFFFF8FFFFFFFFFF87FDFFFF00
:10409000FFF1FFFFFFFFFF87FFFFFFFFF1FFFFFFC4
:1040A000FFFF0FE7F30FFC23FC3FFFFFFF0FEF8045
:1040B00007F003F01E007FFE1FCF8187C787C70C64
:1040C000007FFE001FC7C78FC79F0F0CFFFE001F9A
:1040D000878F1F8F1F0F1FFFFC3F9F8F8F1F8E002B
:1040E0001E3FFFFC7F3F0F1E3F1E3FFE3FFFF87F3E
:1040F000FF1F1C3F1C7FFC7FFFF8FFFF1E1C7E1C68
:104100007FFC7FFFF0FFCE3E3C7E3C7FB8FFFFF0A0
:10411000FF9E3C387C387E78FFFFE1FF3C7C787C5A
:10412000783CF1FFFFE1F8387878101801F1FFFFD3
:10413000000060203C007C07807FFFFFFFFFFFFE48
:104140001FFE1FFFFFFF6D61726C696E66772E6F39
:10415000726700322E302E392E33001FFFFFFFFF13
:10416000FFFF600000000001FF400000000000FFB2
:104170008000000000007F83CF00000C303F87FFED
:1041800080000C301F867980000C000F8C30C783B4
:104190008C30E78C30CFC7CC31F38C30DCECEC3397
:1041A000B98C30D86C6C33198C30D06C0C33198CC2
:1041B00030D86C0C33198C30DC6C0E3B198C30CF42
:1041C0007C079F198C30C77C038F194000000000CA
:1041D0000002600000000000061FFFFFFFFFFFF865
:1041E0001000C90210012C014001220170011801C8
:1041F000B0010E01F00104015002FA00B002F0001B
:104200003003E600D003DC009004D2007005C80043
:10421000A006BE000008B400B009AA00D00BA000A0
:10422000600E960060118C00001582002019780045
:10423000C01D6E00A0226400B0275A00902C5000D0
:1042400000314600E0343C0010383200903A28003B
:10425000603C1E00A03D1400803E0A00203F00008C
:104260002020506C616E6E657242756666657242A2
:10427000797465733A20002046726565204D656D3E
:104280006F72793A200020436F6D70696C65643AF3
:104290002041707220203920323032320A00204C06
:1042A00061737420557064617465643A20323032F1
:1042B000312D31322D3235207C20417574686F727A
:1042C0003A20287363686E6F6F672C20456E6465B3
:1042D000722D33290A004D61726C696E20322E30C6
:1042E0002E392E330A0020536F6674776172652071
:1042F00052657365740A00205761746368646F6760
:104300002052657365740A002042726F776E206FC9
:1043100075742052657365740A002045787465725F
:104320006E616C2052657365740A00506F77657218
:1043300055700A0073746172740A00456E64737478
:104340006F7070002553202563202563202563208E
:10435000256300205A3A0020593A0020583A006557
:104360006E6473746F7073206869743A2000000083
:104370002100240027002A002D0030003300010115
:104380000000040107010A0100000A0B02090C0DDC
:104390000E080703040100000000000000000000F8
:1043A000000000000000000000000000000000000D
:1043B00000000000121110000000000000000000CA
:1043C00000000000000000000000000000000000ED
:1043D00020002300260029002C002F0032000001BD
:1043E0000000030106010901000022002500280049
:1043F0002B002E00310034000201000005010801ED
:104400000B01050505050705080808080202020258
:104410000A0A080804040404010101010101010160
:104420000303030303030303040707070C0C0C0C2B
:104430000C0C0C0C02020202060606060606060614
:104440000B0B0B0B0B0B0B0B0102102020080810A1
:1044500020401020408002010201080402010102F4
:1044600004081020408080402010080402018004CD
:104470000201804020100804020108040201010228
:104480000408102040800102040810204080002011
:104490002573206D6D002020302C3120206D6D00A3
:1044A0002020312C3020206D6D002031302C302028
:1044B000206D6D0041636873656E20626577656786
:1044C000656E00426577656765204578747275642E
:1044D000657200426577656765205A0042657765B9
:1044E0006765205900426577656765205800FFFFC2
:1044F000FF290A005D005B002C20002C20002E2EDE
:104500002E2800646F5F686F6D696E675F6D6F76F0
:10451000650050726F62653A3A70726F62655F64EF
:104520006F776E5F746F5F7A00205472696767659A
:10453000726564206561726C792E00204E6F207464
:104540007269676765722E002050726F626520661F
:1045500061696C21202D00534C4F570050726F62DF
:10456000653A3A72756E5F7A5F70726F626500507D
:10457000726F62696E67204661696C65640A0050FB
:10458000726F62696E6720676573636865697465D9
:10459000727400205A3A200020593A200042656483
:1045A00020583A2000506F736974696F6E204E6F07
:1045B0007420526561636861626C650A00203A206C
:1045C0000A00202063757272656E745F706F736984
:1045D00074696F6E3D005F72656C61746976652900
:1045E0000A002C20002C20002C20002C20002E2E35
:1045F0002E280050726F62653A3A70726F62655F82
:1046000061745F706F696E7400456E6465722D33FE
:104610002062657265697400447275636B742E2E36
:104620002E00447275636B207061757369657274D6
:104630002E2E2E0030780020496E76616C69642041
:104640004520737465707065722000204520737476
:104650006570706572206E6F742073706563696633
:104660006965640A00496E76616C696420657874D6
:1046700072756465720A00220A00556E6B6E6F7760
:104680006E20636F6D6D616E643A202200204500DC
:10469000205A0020590020204D39322058005374F0
:1046A0006570732070657220756E697400DB0FC9C8
:1046B0003F45BCDA3F8FB30240FCF027405694617F
:1046C00040FE4B9B4084A5D840E0231841346A56F5
:1046D00041E859974164DBD5416E271742B4B7557D
:1046E00042CE1A9742C8AED542B5885A43D4068402
:1046F000BFA65FA7BF7443E0BF10B11AC01C2C58FF
:10470000C0E8F697C0B849D6C04E4E17C124D3555D
:10471000C1802497C1A0B5D5C1121A17C244AE55A5
:10472000C2781797C26CACD5C267885AC320746F21
:104730006F206C6F6E6720657874727573696F6E29
:104740002070726576656E7465640A0020636F6C14
:104750006420657874727573696F6E207072657607
:10476000656E7465640A006F6B0A00526573656E4E
:10477000643A200020453A00205A3A0020593A0075
:10478000583A004572726F722077726974696E6769
:1047900020746F20454550524F4D210A002F2F6144
:1047A0006374696F6E3A0000C00011241FBECFEF22
:1047B000D1E2DEBFCDBF00E00CBF84B78093C91249
:1047C00014BE0FB6F894A89580916000886180931C
:1047D0006000109260000FBE13E0A0E0B2E0E8EBD2
:1047E000FFE802E00BBF02C007900D92A83CB107A2
:1047F000D9F722E1A8ECB3E001C01D92A93CB207B1
:10480000E1F713E2C5EDD3E200E006C0219701090C
:10481000802FFE010F947644C43DD10780E0080745
:10482000A9F70F9413330D94DA470C940000CF933B
:10483000DF93EC01CB01BA010F94B53D6883798316
:104840008A839B83DF91CF910895CF93DF93EC010F
:10485000CB01BA010F94B53D688379838A839B832A
:10486000DF91CF910895CF93DF93EC01CB01BA0193
:104870000F94B53D0F9410466883DF91CF91089552
:104880008F929F92AF92BF92CF92DF92EF92FF9260
:10489000CF936B017C0120E030E0A9010F94AF3D84
:1048A00087FD9FC06DEB77E386E095E3A701960156
:1048B0000F94C7446B017C0120E030E040E251E4FA
:1048C0000F94143E20E030E048EC52E40F94143E84
:1048D0004B015C0120E030E0A901C701B6010F9453
:1048E000AF3D20E030E040EA50E487FF04C020E024
:1048F00030E040EA50ECC501B4010F94C74420E019
:1049000030E040E251E40F94A3450F940B466B0155
:104910007C018BE2F7FE09C0F094E094D094C0943F
:10492000C11CD11CE11CF11C8DE28093A305C701C1
:10493000B60120E137E240E050E00F94FB438AE00B
:10494000882E912CA12CB12CCA01B901A50194018A
:104950000F94FB43605D6093A405C701B60128EE88
:1049600033E040E050E00F94FB43CA01B901A501D8
:1049700094010F94FB43605D6093A505C701B601E8
:1049800024E630E040E050E00F94FB43CA01B90157
:10499000A50194010F94FB43605D6093A6058EE230
:1049A0008093A705C701B601A50194010F94FB43AD
:1049B000C62FCA01B901A50194010F94FB43605DA4
:1049C0006093A805C05DC093A90583EA95E0CF91E7
:1049D000FF90EF90DF90CF90BF90AF909F908F901F
:1049E00008956DEB77E386E095EB60CF8F929F9211
:1049F000AF92BF92CF92DF92EF92FF92CF936B0173
:104A00007C0120E030E0A9010F94AF3D87FDAAC0F2
:104A10006DEB77E386E095E3A70196010F94C74419
:104A20006B017C0120E030E0A9010F94AF3D87FFCE
:104A30009EC0C701B601905820E030E040E251E44A
:104A40000F94143E20E030E040E251E40F94143E15
:104A500020E030E040EA50E40F94C74420E030E02A
:104A600040E251E40F94A3450F940B466B017C0187
:104A700080E28093A30560E280E1C81687E2D80651
:104A8000E104F1048CF0C701B60120E137E240E017
:104A900050E00F94FB43CA01B9012AE030E040E046
:104AA00050E00F94FB43605D6093A40560E288EEE4
:104AB000C81683E0D806E104F1048CF0C701B60102
:104AC00028EE33E040E050E00F94FB43CA01B90107
:104AD0002AE030E040E050E00F94FB43605D6093DB
:104AE000A50560E284E6C816D104E104F1048CF067
:104AF000C701B60124E630E040E050E00F94FB43EC
:104B0000CA01B9012AE030E040E050E00F94FB43D5
:104B1000605D6093A6058AE0882E912CA12CB12CB3
:104B2000C701B601A50194010F94FB43C62FCA012A
:104B3000B901A50194010F94FB43605D6093A70543
:104B40008EE28093A805C05DC093A90583EA95E035
:104B5000CF91FF90EF90DF90CF90BF90AF909F905C
:104B60008F9008956DEB77E386E095EB55CF20E0CD
:104B700030E040E251E4C701B60162CFCF93DF934A
:104B8000EC01CB01BA010F94B53D20E030E040E2EA
:104B900051E40F94A345688379838A839B83DF91D3
:104BA000CF910895CF93DF93EC01CB01BA010F941D
:104BB000B53D20E030E040E251E40F94A345688326
:104BC00079838A839B83DF91CF9108950F94B53DBC
:104BD00020E030E040E251E40F94A34507CFCF93AB
:104BE000DF93EC01CB01BA010F94B53D2AE037ED1C
:104BF00043E25DE30F94A3450F94104668837983E5
:104C00008A839B83DF91CF910895CF93DF93EC014B
:104C1000CB01BA010F94B53D2AE037ED43E25DE3E5
:104C20000F94A345688379838A839B83DF91CF9117
:104C30000895CF93DF93EC01CB01BA010F94B53DFA
:104C400020E030E048EC52E40F94A3456883798378
:104C50008A839B83DF91CF910895CF93DF93EC01FB
:104C6000CB01BA010F94B53D20E030E048EC52E4AE
:104C70000F94A345688379838A839B83DF91CF91C7
:104C800008950F94B53D20E030E048EC52E40F94D5
:104C9000A345F6CDCF93DF93EC01CB01BA010F947E
:104CA000B53D0F940B4679836883DF91CF910895CA
:104CB000CF93DF93EC01CB01BA010F94B53D20E017
:104CC00030E04AE754E40F94A345688379838A83EC
:104CD0009B83DF91CF9108952CEA35EC47E25EE3A8
:104CE000609193057091940580919505909196053A
:104CF0000F94A3456093290670932A0680932B0690
:104D000090932C0608952CEA35EC47E25EE360911F
:104D10009705709198058091990590919A050F9447
:104D2000143E609325067093260680932706909381
:104D3000280608952CEA35EC47E25EE3609193057E
:104D40007091940580919505909196050F94A345D7
:104D50006093290670932A0680932B0690932C0665
:104D600008952CEA35EC47E25EE360919705709177
:104D700098058091990590919A050F94143E60933F
:104D8000250670932606809327069093280608959B
:104D9000FC0184910895FC0180810895FC01A081AB
:104DA000B1811C92A281B3818C918F5F8C93028020
:104DB000F381E02D90818CE0989F800D1124E0E23A
:104DC000F2E113AE84AF0895009751F0FC0180E04A
:104DD0009191992331F0907C9038D1F38F5FF8CF87
:104DE00080E00895139800C087FD43C0179800C065
:104DF000139A00C000C0139800C086FD46C01798E3
:104E000000C0139A00C000C0139800C085FD3BC0CD
:104E1000179800C0139A00C000C0139800C084FD0A
:104E200030C0179800C0139A00C000C0139800C08B
:104E300083FD25C0179800C0139A00C000C01398C6
:104E400000C082FD1AC0179800C0139A00C000C0AD
:104E5000139800C081FD0FC0179800C0139A00C0BE
:104E600000C0139800C0179800C0139A00C000C07B
:104E70000895179ABCCF179AF0CF179AE5CF179AD3
:104E8000DACF179ACFCF179AC4CF179AB9CF089510
:104E900090E080E0089590E080E0089520911F0563
:104EA000833021F425FD0CC024FD0CC030E0A901A5
:104EB00002C0559547958A95E2F7CA018170089519
:104EC00081E0089580E00895CF92DF92EF92FF9203
:104ED000CF93DF9300D01F92CDB7DEB76B017C017B
:104EE00020E030E0A9010F94AF3D87FD1CC06DEBC1
:104EF00077E386E095E3A70196010F94C7446983A1
:104F00007A838B839C8360E2CE0101960E94FE9F90
:104F10000F900F900F900F90DF91CF91FF90EF9037
:104F2000DF90CF9008956DEB77E386E095EBE3CFCC
:104F30000F94B53D20E030E04AE754E40F94A345D8
:104F4000C3CFCF92DF92EF92FF920F94B53D6B01EA
:104F50007C0120E030E0A9010F94AF3D2DEB37E359
:104F600046E055E387FF04C02DEB37E346E055EB01
:104F7000C701B6010F94C7446B017C0120E030E00B
:104F8000A9010F94AF3D20E030E040E05FE387FFF0
:104F900004C020E030E040E05FEBC701B6010F94B1
:104FA000C7440F940B46CB01FF90EF90DF90CF905A
:104FB0000C94E9A30F94B53D0F940B46CB010C94D0
:104FC000E9A30F94B53D0F941046862F0C94BCA511
:104FD0009091C60581E089270C9470D561E088E73F
:104FE00099E00C94D5D98EEF0E94B19B0C94399C1A
:104FF00080918102882341F0609191057091920522
:1050000041E081E00D947013089580E090E0A0E805
:10501000B0E48093EB109093EC10A093ED10B0935C
:10502000EE1088EC92E00E94A99B80E090E0A0EF57
:10503000B1E48093E3109093E410A093E510B09353
:10504000E6108093E7109093E810A093E910B093D6
:10505000EA10E0919C05EE0FFF0BE855FD4F8081B3
:1050600091818330910549F18430910591F1029746
:1050700061F480E090E0A4E3B3E48093E3109093C4
:10508000E410A093E510B093E61080EB92E00E944C
:10509000A99B1092EB101092EC101092ED10109250
:1050A000EE1088EC92E00E94A99B80919C058F5F96
:1050B0008430E4F480939C05089580E090E0A4E3BC
:1050C000B3E48093E3109093E410A093E510B093C1
:1050D000E61080E090E0AEE3B3E48093E7109093B5
:1050E000E810A093E910B093EA10CFCF10929C057E
:1050F0000895CF93DF9300D01F92CDB7DEB70F9402
:1051000010460F94B33D69837A838B839C83CE01D1
:1051100001960E947B9F0F900F900F900F90DF9150
:10512000CF9108950F94B53D2AE037ED43E25DE35A
:105130000F94A345DECFCF92DF92EF92FF92CF93F1
:10514000DF9300D01F92CDB7DEB76B017C0120E06A
:1051500030E0A9010F94AF3D87FD1BC06DEB77E3F5
:1051600086E095E3A70196010F94C74469837A838B
:105170008B839C83CE0101960E947B9F0F900F90A2
:105180000F900F90DF91CF91FF90EF90DF90CF9035
:1051900008956DEB77E386E095EBE4CF0F94B53D92
:1051A0002AE037ED43E25DE30F94A345C4CF0F94AB
:1051B000B53DC1CFCF92DF92EF92FF92CF93DF93B5
:1051C00000D01F92CDB7DEB76B017C0120E030E04C
:1051D000A9010F94AF3D87FD1BC06DEB77E386E01F
:1051E00095E3A70196010F94C74469837A838B8363
:1051F0009C83CE0101960E949AA00F900F900F9071
:105200000F90DF91CF91FF90EF90DF90CF900895B6
:105210006DEB77E386E095EBE4CF0F94B53D20E0AE
:1052200030E040E251E40F94A345C4CF0F94B53D64
:1052300020E030E048EC52E40F94A3450C945EB2B9
:105240000C944A860C944A860C944A860C944A869E
:105250000C94FC850C94FC850C94FC850C94FC85CA
:1052600063E972E084E690E00E94A0AA6AEB72E033
:1052700084E690E00C94A0AA8111F2CF68EB71E073
:1052800084E190E00C94A0AA0E94D8BEF5CF0E94C1
:105290009BB5F2CF0E949B9DE3CF0F94111385EB3A
:1052A0009DE00F94D00E0C942D9FBF92CF92DF9271
:1052B000EF92FF920F931F93CF93DF936B01E9015E
:1052C0004A3009F4D6C0453109F081C0DB0112969D
:1052D000ED91FC911281C681D781159A00C0000022
:1052E00086E290E00197F0F7012F0295007F20E120
:1052F000B22EB10E88EF76DD00C0000086E290E0AD
:105300000197F0F7103208F0A1C0812F80778068F4
:1053100069DD802F67DD00C0000086E290E0019724
:10532000F0F780E85FDD80E05DDD00C0000086E230
:1053300090E00197F0F78AEF55DD00C0000086E2AB
:1053400090E00197F0F77E01B0E1EB0EF11C88814F
:10535000807F48DD89918295807F44DDCE15DF0511
:10536000B1F700C0000086E290E00197F0F71F5F00
:10537000005F1B11BFCF1598D6011296ED91FC91DD
:1053800080819281980F92832181921708F0A4C1A5
:1053900094819F5F94839381890F821710F08FEF20
:1053A000820F8383458150E0440F551F70E060E019
:1053B000868197810F94994781E0DF91CF911F916A
:1053C0000F91FF90EF90DF90CF90BF900895FB0179
:1053D00002811381423309F481C108F489C1463442
:1053E00009F476C1473409F47EC14B3329F789812A
:1053F0002B81D80112967C91129713963C91213003
:1054000009F4BBC1233009F09CC148EF480F582F65
:1054100091E0341708F490E031E0541708F030E0E0
:10542000492F432B61E0571708F460E0462319F435
:10543000932309F4C1CFFA8030E0F901EC56FD4F17
:10544000D08020573D4FF901E08094C180EE810F5C
:105450008068807FC7DC812F8295807FC3DC00C09D
:10546000000086E290E00197F0F780E8BBDC80E87E
:105470005BCF0D9A15980F9A17980B9A139A159A55
:1054800000C0000086E290E00197F0F788E790E026
:10549000CEE9DFE0FE013197F1F70197D9F788EF08
:1054A000A1DC00C0000086E290E00197F0F780E206
:1054B00099DC80E097DC00C0000086E290E0019774
:1054C000F0F780E08FDC80E88DDC00C0000086E231
:1054D00090E00197F0F780E085DC80E183DC00C09C
:1054E000000086E290E00197F0F7CE010197F1F716
:1054F000CE010197F1F7CE010197F1F7CE010197A7
:10550000F1F7CE010197F1F7CE010197F1F7CE0146
:105510000197F1F7CE010197F1F7CE010197F1F76D
:10552000CE010197F1F7CE010197F1F7CE01019776
:10553000F1F7CE010197F1F7CE010197F1F721972D
:10554000F1F780E24FDC80E44DDC00C0000086E231
:1055500090E00197F0F780E245DC80E643DC00C094
:10556000000086E290E00197F0F7D0E0C0E08C2FD9
:105570008077806837DC8D2F35DC00C0000086E244
:1055800090E00197F0F780E82DDC80E02BDC00C094
:10559000000086E290E00197F0F78AEF23DC00C07C
:1055A000000086E290E00197F0F780E2139800C0D7
:1055B000179800C0139A00C000C0139800C0179835
:1055C00000C0139A00C000C0139800C0179800C014
:1055D000139A00C000C0139800C0179800C0139A17
:1055E00000C000C0139800C0179800C0139A00C0F4
:1055F00000C0139800C0179800C0139A00C000C0E4
:10560000139800C0179800C0139A00C000C01398E8
:1056100000C0179800C0139A00C000C0139800C0C3
:10562000179800C0139A00C000C0139800C01798C4
:1056300000C0139A00C000C0139800C0179800C0A3
:10564000139A00C000C0139800C0179800C0139AA6
:1056500000C000C0139800C0179800C0139A00C083
:1056600000C0139800C0179800C0139A00C000C073
:10567000139800C0179800C0139A00C000C0139878
:1056800000C0179800C0139A00C000C000C00000FE
:10569000E6E2F0E03197F0F7815009F087CF88EF2C
:1056A000A1DB00C0000086E290E00197F0F7CF5F39
:1056B000D05FC03209F05BCF80E094DB80EC92DBFE
:1056C00000C0000086E290E00197F0F7159874CED4
:1056D000F8018581888370CE80E06FCEB901C80162
:1056E0000F94312269CED80111968C91888364CEB3
:1056F000443191F0473109F05FCE1882D8011296FB
:105700008C911297898315968C91159781508A8375
:1057100013968C918B8350CED80115964C9115978A
:1057200050E0440F551F70E060E016968D919C91FB
:105730000F949947F80112828081815083831482EB
:105740003BCE381708F438CE871708F435CEFA80E8
:10575000E12CD12C243070F46FCEBE01C8010F941F
:105760003122898198819D0D98838E0D8983FF0C4C
:1057700009F422CEF7FEF6CFF0CF58E0580F482FAD
:1057800047CEEF92FF920F931F93CF93DF93EC01DD
:105790008B017A018A859B858617970731F088816E
:1057A00099810F9487231B870A87B7018881998184
:1057B0000F9416142E813F81820F932F911D9F838A
:1057C0008E8390E080E0DF91CF911F910F91FF9049
:1057D000EF9008959F92AF92BF92CF92DF92EF9297
:1057E000FF920F931F93CF93DF93EC018B01942EC5
:1057F000A52E8A859B858617970731F08881998128
:105800000F9487231B870A8788859985019649F518
:10581000BC800A818E81080FC880D980D601559638
:10582000ED91FC91C6011995B80EE92CFA2C10E007
:10583000F70121917F01211127C08E819F81810F66
:10584000911D9F838E8390E080E0DF91CF911F9127
:105850000F91FF90EF90DF90CF90BF90AF909F900F
:1058600008950E811F81692D7A2D888199810F9469
:105870001614800F912F911D288539852817390717
:1058800038F681E090E0E1CF4B2D602FC6010F94F8
:105890006E24080F180FCCCFDF92EF92FF920F9378
:1058A0001F93CF93DF93EC01D62E1CAD0BAD7C0183
:1058B00084E0E80EF11CE98DFA8DC7011995412F9E
:1058C000480F2D2D602FC7010F946E249BAD890FBB
:1058D0008BAF81E090E0DF91CF911F910F91FF900E
:1058E000EF90DF900895CF9380912405811154C0EB
:1058F00010925B1210925C1210925D12109229129B
:105900001092281210922B1210922A1210922D121D
:1059100081E080932C1282E280932E121092331237
:1059200010923212E7E4F2E125E532E18FEF819344
:105930002E173F07E1F7C1E0C093441224E83DEF82
:1059400030933A1220933912C0933B1210923C12BA
:1059500010923D1290E490933E1210923F1223E871
:105960003DEF30935612209355122FE032E03093E2
:1059700027122093261299E190934B129DE1909368
:105980004C129BE1909349128093481280934712E6
:105990000F946F22C093240581E08093260585E84B
:1059A0009CE09093021180930111109204111092C7
:1059B0000311CF9108950F931F93CF938C01C62F9E
:1059C00083E19AE00E9412D0C8010E9412D08AE3BB
:1059D0000E94C1CD80E38C0F0E94C1CD8AE0CF919F
:1059E0001F910F910C94C1CDCF93DF93CDB7DEB74C
:1059F00020E2488559856F818E810F94D513DF9100
:105A0000CF9108950F931F93522F20911E12309122
:105A10001F122817390721F190931F1280931E122D
:105A20008B0130E020E000938309109384092093D8
:105A300085093093860940937C0950937D098554EC
:105A40009C4421F41092A2051092900582E080936C
:105A5000810281E08093930910928F0510929B053B
:105A60001F910F91089581E08093A2058091AE0966
:105A70008770873051F01092AE091092B00582EB1A
:105A80009CE190938607809385078091C60580935B
:105A90009D0580E00E9470D520E040E070E060E06D
:105AA00083E59DE2AFCF80918102882331F041E010
:105AB0006FE370E182E00F9470138091B0058770FE
:105AC000873069F410929C0520E040E070E060E0CF
:105AD00085EA92E397DF81E080939B0596CA08955B
